:020000040000FA
:100000000C94CB000C94F3000C94F3000C94F300CC
:100010000C94F3000C94F3000C94F3000C94F30094
:100020000C9495050C94F3000C94F3000C94F300DD
:100030000C94F3000C94F3000C94F3000C94F30074
:100040000C94F3040C94F3000C9463050C943D059C
:100050000C94F3000C94F3000C94F3000C94F30054
:100060000C94F3000C94F30000000000240027001F
:100070002A0018002860095802B004580258025893
:1000800002102D00000006002628236810F4012C21
:1000900006F4012602806E001C04050026E0207094
:1000A000100E022A060E020E02004100000014008B
:1000B00026801180113002900630023002006E005E
:1000C00000001E002638081C040E022A060E020E2E
:1000D0000200320000001D0026220B220BEE0266F9
:1000E00008EE02EE02806E0000001A0026F603BC45
:1000F000050802BC050802D401004B0000001C00EA
:10010000261F015D033E023E021F015D03A06E003B
:10011000000004002604010C0304011C0704010C68
:1001200003006E0000000C0025800DC006B0011019
:1001300005B001B001008200000008002600238005
:10014000113002900630023002006E001C040000E4
:100150000000250028002B0000000008000201001C
:100160000003040700000000000000000404040471
:100170000404040402020202020203030303030351
:10018000010204081020408001020408102001022E
:1001900004081020850611241FBECFEFD8E0DEBF73
:1001A000CDBF23E0A0E5B1E001C01D92A131B207AF
:1001B000E1F711E0A0E0B1E0E6E9FFE102C005905F
:1001C0000D92A035B107D9F710E0CBECD0E004C018
:1001D0002197FE010E94C30FCA3CD107C9F70E94B4
:1001E000C0060C94C90F0C940000209102033091BA
:1001F00003032817390728F4809100038160809356
:100200000003089590E0FC01E85AFE4F2491FC01A0
:10021000E058FE4F3491FC01E459FE4FE491EE2387
:10022000C9F0222339F0233001F1A8F4213019F16B
:10023000223029F1F0E0EE0FFF1FE25BFE4FA591A7
:10024000B4918FB7F894EC91611126C030953E239C
:100250003C938FBF08952730A9F02830C9F024308F
:1002600049F7809180008F7D03C0809180008F7757
:1002700080938000DFCF84B58F7784BDDBCF84B5DA
:100280008F7DFBCF8091B0008F778093B000D2CF6D
:100290008091B0008F7DF9CF3E2BDACF3FB7F89435
:1002A0008091550190915601A0915701B09158014C
:1002B00026B5A89B05C02F3F19F00196A11DB11DC1
:1002C0003FBFBA2FA92F982F8827BC01CD01620FFD
:1002D000711D811D911D42E0660F771F881F991FB8
:1002E0004A95D1F70895AF92BF92CF92DF92EF92E5
:1002F000FF920F931F93CF93DF936C017B018B01D0
:10030000040F151FEB015E01AE18BF08C017D1071F
:1003100059F06991D601ED91FC910190F081E02DA9
:10032000C6010995892B79F7C501DF91CF911F91FE
:100330000F91FF90EF90DF90CF90BF90AF90089516
:10034000FC01538D448D252F30E0842F90E0821BDB
:10035000930B541710F0CF96089501970895FC0160
:10036000918D828D981761F0A28DAE0FBF2FB11DB8
:100370005D968C91928D9F5F9F73928F90E0089510
:100380008FEF9FEF0895FC01918D828D981731F0CA
:10039000828DE80FF11D858D90E008958FEF9FEF1E
:1003A0000895FC01918D228D892F90E0805C9F4FF4
:1003B000821B91098F73992708958FE591E00E9420
:1003C000D10121E0892B09F420E0822F089580E0FB
:1003D00090E0892B29F00E94DD0181110C9400002E
:1003E0000895FC01A48DA80FB92FB11DA35ABF4FCA
:1003F0002C91848D90E001968F739927848FA68924
:10040000B7892C93A089B1898C91837080648C9377
:10041000938D848D981306C00288F389E02D808126
:100420008F7D80830895EF92FF920F931F93CF9358
:10043000DF93EC0181E0888F9B8D8C8D98131AC01F
:10044000E889F989808185FF15C09FB7F894EE8906
:10045000FF896083E889F989808183708064808363
:100460009FBF81E090E0DF91CF911F910F91FF90AE
:10047000EF900895F62E0B8D10E00F5F1F4F0F7356
:100480001127E02E8C8D8E110CC00FB607FCFACF11
:10049000E889F989808185FFF5CFCE010E94F101BD
:1004A000F1CFEB8DEC0FFD2FF11DE35AFF4FF082E2
:1004B0009FB7F8940B8FEA89FB8980818062CFCF48
:1004C000CF93DF93EC01888D8823B9F0AA89BB898B
:1004D000E889F9898C9185FD03C0808186FD0DC076
:1004E0000FB607FCF7CF8C9185FFF2CF808185FF97
:1004F000EDCFCE010E94F101E9CFDF91CF910895B8
:1005000022E3FC012E9FC0012F9F900D1124480F64
:10051000591F7695679576956795CB01880F991F3A
:10052000860F971F8417950750F485E0869F9001EA
:10053000879F300D112481E02417350708F480E0EF
:1005400008954CEE5FEF0C9480024F925F926F9291
:100550007F929F92AF92BF92CF92DF92EF92FF92E3
:100560000F931F93CF93DF93182F5A01922EC62F0C
:10057000D0E0C25FDD4F412C512C32014394C12C9D
:10058000D12C7601112301F19920B1F08881B501B8
:1005900090E00E94A102002379F1CC0CDD1CEE1C3E
:1005A000FF1C882311F06894C0F8440C551C661C8D
:1005B000771C11502296E6CF898144E150E0B501C5
:1005C00090E00E948002E7CFC092DE02D092DF026C
:1005D000E092E002F092E102DF91CF911F910F9142
:1005E000FF90EF90DF90CF90BF90AF909F907F9063
:1005F0006F905F904F9008958823B9F2C428D52852
:10060000E628F728D2CFCF93DF93EC01FC01339695
:100610006591749180910F0290E00E94A10288235D
:1006200069F0FE013596659174918091100244E164
:1006300050E090E0DF91CF910C94800280E0DF9158
:10064000CF91089522E3289FA001299F500D1124E6
:1006500076956795769567959B01220F331F260F38
:10066000371F4217530750F085E0869F9001879F00
:10067000300D112481E02417350708F480E0089537
:10068000BF92CF92DF92EF92FF920F931F93CF937F
:10069000DF9310915E0180910103B12C1817A0F532
:1006A000812F8170B82E00915D0101111EC0E12FD4
:1006B000F0E0EF5FFD4FE584F12CCCEEDFEF882317
:1006C00011F0C4E1D0E0C0905B01D0905C01CC0D92
:1006D000DD1DBE01C7010E942203882301F181E0D4
:1006E00090E090935A01809359010F5F00935D0150
:1006F0008091590190915A010817190628F010921B
:100700005D011F5F10935E018B2DDF91CF911F91D3
:100710000F91FF90EF90DF90CF90BF900895CC0D98
:10072000DD1DBE01C7010E942203882319F082E06B
:1007300090E0D7CFB6016C0F7D1FC7010E94220346
:10074000882319F083E090E0CCCFBB24BA94DCCFAF
:1007500080910F03811102C02D98089560E00C94E0
:100760000201882349F080910F03811102C02D9A64
:10077000089561E00C9402010C94A8038F929F925B
:10078000AF92BF92CF92DF92EF92FF921F93CF93DF
:10079000DF93EC010E944E016B017C014B015C0177
:1007A00088E0880E911CA11CB11C10E0F89461E057
:1007B0008091FC010E9402018091FF019091000252
:1007C0008230910538F0880F991F880F991F05977F
:1007D0000197F1F760E08091FC010E94020178949A
:1007E000111103C081E00E94B1038091FD0190913D
:1007F000FE01C80ED91EE11CF11CF8940E944E01A6
:100800009B01281939092C173D0778F00E94A8038D
:100810007894DF91CF911F91FF90EF90DF90CF9070
:10082000BF90AF909F908F90089511E06C157D055B
:100830008E059F0518F3BACFCF92DF92EF92FF9209
:100840008AE190E09093FE018093FD0185E090E0C5
:10085000909300028093FF018091FC0190E0FC01E5
:10086000E058FE4F249184599E4FFC0184918823C7
:1008700099F090E0880F991FFC01E859FF4FA5916E
:10088000B491FC01E25BFE4F859194918FB7F8948F
:10089000EC91E22BEC938FBF80E093E20E94BE03C9
:1008A0000E944E016B017C01F4E0CF1AD108E108EF
:1008B000F1080E944E016C197D098E099F09603C68
:1008C000784081059105A8F380E392E0FF90EF90D6
:1008D000DF90CF900C94BE03FC0101900020E9F75B
:1008E0003197AF01481B590BBC018FE591E00C9487
:1008F00073018F929F92AF92BF920F931F93CF93EA
:10090000DF93CDB7DEB7A1970FB6F894DEBF0FBE69
:10091000CDBF19A2423008F44AE08E010F5D1F4F8F
:10092000842E912CB12CA12CA50194010E94730F4F
:10093000E62FB901CA01EA30F4F4E05DD801EE9384
:100940008D01232B242B252B79F790E080E0109745
:1009500019F0CD010E946C04A1960FB6F894DEBF89
:100960000FBECDBFDF91CF911F910F91BF90AF9080
:100970009F908F900895E95CE1CFFF920F931F93B2
:10098000CF93DF93CDB7DEB764970FB6F894DEBF91
:100990000FBECDBF162FF42E44E150E0BC01CE01B6
:1009A00001960E945A0F0889802F807148855985C9
:1009B00004FD02C04A855B85001F0027001F21E05F
:1009C000811101C020E06F2D812F0E94A502649645
:1009D0000FB6F894DEBF0FBECDBFDF91CF911F9150
:1009E0000F91FF9008951F920F920FB60F9211244E
:1009F0002F933F938F939F93AF93BF938091510118
:100A000090915201A0915301B09154013091500145
:100A100023E0230F2D3758F50196A11DB11D20931A
:100A200050018093510190935201A0935301B093D0
:100A300054018091550190915601A0915701B091B8
:100A400058010196A11DB11D809355019093560147
:100A5000A0935701B0935801BF91AF919F918F918F
:100A60003F912F910F900FBE0F901F90189526E881
:100A7000230F0296A11DB11DD2CF1F920F920FB668
:100A80000F9211242F933F934F935F936F937F9314
:100A90008F939F93AF93BF93EF93FF938FE591E075
:100AA0000E94F101FF91EF91BF91AF919F918F91C2
:100AB0007F916F915F914F913F912F910F900FBE5A
:100AC0000F901F9018951F920F920FB60F9211243E
:100AD0002F938F939F93EF93FF93E0916F01F0918A
:100AE00070018081E0917501F091760182FD1BC05B
:100AF0009081809178018F5F8F73209179018217A7
:100B000041F0E0917801F0E0E15AFE4F958F80933B
:100B10007801FF91EF919F918F912F910F900FBED0
:100B20000F901F9018958081F4CF1F920F920FB6EF
:100B30000F9211242F933F934F935F936F937F9363
:100B40008F939F93AF93BF93CF93EF93FF93E091D6
:100B50000302F0910402C08180910502C8238091B4
:100B600006029091070220910602309107022F3F62
:100B70003F4F29F00196909307028093060220913F
:100B80000102211115C0C1114BC0813A910558F0E5
:100B900010920A0290930D0280930C0281E08093E0
:100BA0000B0280930102109207021092060238C0D5
:100BB000213099F4CC23A1F1E0910B022E0F209368
:100BC0000B02F0E0EF5FFD4F8F3F910519F010F041
:100BD0008FEF90E0858782E0E4CF223009F047C0B4
:100BE000E0910B02813A910510F4E73CA0F1E83C5A
:100BF00018F081E080930A0280910C0290910D021E
:100C00009093030380930203E093010383E08093B6
:100C10000102E0910802F0910902309709F009956C
:100C200080911003882329F081E0C11180E00E94A7
:100C3000B103FF91EF91CF91BF91AF919F918F91B0
:100C40007F916F915F914F913F912F910F900FBEC8
:100C50000F901F901895C111E3CF91E09E0F9093D4
:100C60000B02F0E0EF5FFD4F858781E09ACF2330E4
:100C7000B9F6C111D5CF97CFDF92EF92FF920F93C4
:100C80001F93CF93DF93EC01D62E8A017901F0E018
:100C900090E080E030E0E0E0DE01AE0FB11D2C918D
:100CA000FF5F222339F0320F2E9F800D911D1124FA
:100CB0001C92F0E03323B9F0DE1611F0F23098F018
:100CC000232F2695820F911D632F70E00E94AF0F96
:100CD000DE01A60FB11D3C93D8013C9131110FC02C
:100CE0006C9390E080E0EF5FDE16B0F681E0DF917C
:100CF000CF911F910F91FF90EF90DF900895D70152
:100D00003C91332369F380E0F2CFEFE5F1E0138209
:100D1000128288EE93E0A0E0B0E084839583A683FE
:100D2000B78388E191E09183808385EC90E095879B
:100D3000848784EC90E09787868780EC90E0918BA5
:100D4000808B81EC90E0938B828B82EC90E0958B92
:100D5000848B86EC90E0978B868B118E128E138E8F
:100D6000148E10920F03E1E0F2E0118281E084839F
:100D700089E290E09383828350981092FC01089559
:100D8000CF93DF93CDB7DEB7E9970FB6F894DEBF08
:100D90000FBECDBF789484B5826084BD84B5816078
:100DA00084BD85B5826085BD85B5816085BD809136
:100DB0006E00816080936E001092810080918100AE
:100DC00082608093810080918100816080938100A6
:100DD000809180008160809380008091B100846068
:100DE0008093B1008091B00081608093B0008091C9
:100DF0007A00846080937A0080917A008260809388
:100E00007A0080917A00816080937A0080917A00E4
:100E1000806880937A001092C100E0916F01F09198
:100E2000700182E08083E0916B01F0916C0110828F
:100E3000E0916D01F0916E0190E190831092770145
:100E4000E0917301F091740196E09083E09171015B
:100E5000F0917201908190619083E0917101F09125
:100E60007201908198609083E0917101F09172011C
:100E7000908190689083E0917101F091720190816E
:100E80009F7D90839DE09093020290E290930502F3
:100E900023E230E03093040220930302259810925D
:100EA000100310920F038093B0008093B10084E68A
:100EB0008093B3008093B4001092B200809101023D
:100EC000833011F41092010284E08093700086E276
:100ED00091E00E946C0487E391E00E946C049E0103
:100EE0002F5F3F4F590190E2692E712C80910102D2
:100EF000833009F022C280910A02882309F465C078
:100F000080E4809300031092D7021092D6021092D0
:100F1000DB021092DA021092D9021092D8021092DB
:100F2000DE021092DF021092E0021092E1021092B3
:100F3000FF021092FE028091000386FDC3C1109152
:100F40000103812F8F7B843009F0BFC080910F0295
:100F500060E073E290E00E94A102882309F442C19C
:100F60008091100290E044E150E0143009F048C054
:100F700060EC78E00E948002882309F433C18091FC
:100F8000110260E372E090E00E94A102882309F45C
:100F900029C181E0809300038091060390910703AB
:100FA0009093D9028093D80280910803909109030D
:100FB0009093DB028093DA02809104039091050301
:100FC0009093D7028093D6027DC110920003809146
:100FD000D6029091D70290930503809304038091E9
:100FE000DA029091DB0290930903809308038091C9
:100FF000D8029091D902909307038093060383CF80
:1010000060E871E10E948002882309F4EBC043E0AC
:1010100060E28AE391E00E94BD042091DE0290919B
:10102000DF026091E0028091E102462F50E0509390
:10103000DB024093DA02422F592F4E3E37E8530726
:1010400009F523E030E03093D7022093D60290E0F8
:101050009093D9028093D8027092FF026092FE02B0
:101060008AE795E00E94F5008091000380FF2AC185
:1010700029E030E03093D7022093D602806280933B
:10108000000320C19095291310C030E03093D9029D
:101090002093D802982F909569130CC088E090E0B7
:1010A0009093D7028093D602D7CF5093D902409322
:1010B000D802F0CF2AE030E03093D7022093D60256
:1010C0006093DA028093DB02C7CF143609F08AC03E
:1010D00086E291E00E940303882309F483C043E081
:1010E00060E186E291E00E94BD04D090DE020D2D09
:1010F0001091DF02BBE0EB2EF12C023040E214072E
:10110000F9F0AEE0EA2EF12C0A3A8AE51807C1F0B0
:10111000FDE0EF2EF12C043592E3190789F0EFE0A2
:10112000EE2EF12C0330A1E01A0751F080E1E82EF9
:10113000F12C0332BBEC1B0719F07CE0E72EF12CFD
:10114000D1268D2D82958F70D82643E260E286E20B
:1011500091E00E94BD048091DE029091DF02A09197
:10116000E002B091E1029C0164E0369527956A9512
:10117000E1F73093D9022093D8022A2F30E0309340
:10118000DB022093DA02282F2A2729273D2D3F70E2
:10119000482F4F70341719F034E030930003ECE01F
:1011A000EE16F10449F430910003306130930003EE
:1011B0001093DD020093DC022B1729F080910003CD
:1011C00084608093000380E390E09093FF0280931B
:1011D000FE02F092D702E092D6028AE397E00E94E4
:1011E000F50070C080910103803209F0B6C041E083
:1011F0006FE082E191E00E94BD0480912D0264E0E5
:1012000071E090E00E94A102882309F4A6C08091B9
:10121000DE029091DF02A091E002B091E1029C0118
:101220002F7133273093D9022093D80255E0B69519
:10123000A795979587955A95D1F7392F3370AC01BB
:1012400055275093DB024093DA02409102035091FC
:1012500003034536544008F07DC02091000322600E
:101260002093000320910E032F5F20930E0320FF95
:1012700019C0213019F021E02093000330910803B8
:1012800040910903282F2095231729F0209100036E
:101290002460209300033093DA024093DB02392F5D
:1012A0003095337087E190E0311102C084E090E026
:1012B0009093D7028093D6028FE090E09093FF0244
:1012C0008093FE028AE391E00E946C0487E391E040
:1012D0000E946C04C090D602D090D7020D2C000C56
:1012E000EE08FF084AE0C701B601F7FE0DC06DE247
:1012F0008FE591E00E94130266277727CB016C19D6
:101300007D098E099F094AE00E9479048CE491E0EE
:101310000E946C046091DA027091DB0290E080E040
:1013200040E10E94790487E391E00E946C0480917F
:101330000102833011F41092010280E090E0892BC9
:1013400009F4D4CD0E94DD01882309F4CCCD0E949C
:101350000000C9CD10920E03A5CF82E790E00E9455
:101360000303882309F446C0809101038A3129F0E0
:101370008A3219F0803209F03DC090E0BC01615022
:10138000710977FDBC017595679543E082E790E0B0
:101390000E94BD048091DE029091DF02A091E002E4
:1013A000B091E1029C012F7733273093DB02209329
:1013B000DA0247E0B695A795979587954A95D1F7B4
:1013C0009093D9028093D8022091010330E0C901A3
:1013D000019797FDC901959587959093FF0280939A
:1013E000FE0288E190E09093D7028093D60280EECF
:1013F00091E0F5CE81E080935E0129E733E0309300
:101400005C0120935B0110925D010E9440038130DA
:1014100009F060C0C12CD12C760110E0909101033D
:1014200080915E018917E0F40E944003082F0E941A
:10143000400301110BC0813009F04CC0CC0CDD1C05
:10144000EE1CFF1C6894C0F81F5FE8CF013009F064
:1014500041C081113FC0CC0CDD1CEE1CFF1CF4CF41
:10146000812F90E09093FF028093FE02C092DE02F3
:10147000D092DF02E092E002F092E1028C2D8F73B5
:1014800090E09093DB028093DA029601B6E0369505
:101490002795BA95E1F72F7133273093D90220931E
:1014A000D802960122273071232B31F4805C9F4FA4
:1014B0009093DB028093DA0280E8D3FC88E8809383
:1014C000000381E190E09093D7028093D6028FECE5
:1014D00099E085CE80910F0268E67AE090E00E9464
:1014E000A102882309F448C08091100244E150E031
:1014F00068E773E090E00E9480028823E9F183E0CE
:1015000080935E018CEB91E090935C0180935B0192
:1015100010925D010E944003813071F50E944003EA
:1015200081112AC0C12CD12C760110E090910103C9
:1015300080915E01891708F079C00E944003982EBF
:101540001330B1F00E944003082F133021F40E94A1
:101550004003081311C031E093125EC001110CC0AA
:10156000CC0CDD1CEE1CFF1C6894C0F81F5FDECFA6
:101570000E944003981631F3F09001034CE3F416F7
:1015800019F084E0F81215C000910F0210E068E233
:1015900073E2C8010E94A102811195C06CE175E25D
:1015A000C8010E94A10268EB7BE007E010E0811116
:1015B0008EC0B2E2FB1609F4F6C0E4E2FE1609F4AE
:1015C00024C180910103982F9F7D943419F08630B7
:1015D00009F09EC18EEA90E00E940303882309F47B
:1015E00097C180910103863009F038C181E2809370
:1015F000000380910603909107039093D902809392
:10160000D80280910803909109039093DB028093A4
:10161000DA0285E190E0D4CC9110AECF013009F030
:10162000ABCFCC0CDD1CEE1CFF1CA0CF812F90E0BB
:101630009093FF028093FE02C092DE02D092DF02FE
:10164000E092E002F092E1022C2D30E08D2D90E04E
:10165000133200F540E8409300033093DB022093FF
:10166000DA029093D9028093D802E0FE03C088E8A2
:1016700080930003153128F08091000380618093EE
:10168000000382E190E09093D7028093D60283E733
:101690009AE0A5CD40E9409300033093DB0220930C
:1016A000DA029093D9028093D802C7019F73909376
:1016B000DD028093DC02F7FE03C088E9809300031B
:1016C00083E190E0E0CF68E670E106E010E0809111
:1016D000100290E0A4E044E150E0FA1213C060ED83
:1016E00077E00E948002882309F46BCF8091110279
:1016F00064EF71E090E00E94A102882309F461CFB9
:1017000081E848CC0E948002882309F452CF43E04C
:101710006CE186E890E00E94BD0480E880930003BD
:101720004091DE025091DF026091E0027091E1028F
:10173000DB01CA0124E0B695A795979587952A9570
:10174000D1F79C019093DB028093DA02DB01CA019E
:10175000E4E1B695A79597958795EA95D1F790938B
:10176000D9028093D80284E090E0E0E0F22FFF708D
:10177000EF0FF4E036952795FA95E1F70197B1F769
:101780004E274F70552766277727452B462B472B2B
:1017900019F084E8809300031093D7020093D602D7
:1017A0008CE190E08BCD80910203909103038C3EFD
:1017B0009C4508F087CD80910F026EE072E090E0CA
:1017C0000E94A102882309F47DCD80912F026EE052
:1017D00072E090E00E94A102882309F473CD81E0B9
:1017E0008093000380910603909107039093D902A0
:1017F0008093D80280910803909109039093DB02B3
:101800008093DA0285E090E0DBCB8AE990E00E94E9
:101810000303882309F4D5CE43E060E18AE990E030
:101820000E94BD048091DE029091DF02A091E0024F
:10183000B091E102492F5A2F6B2F77275093DB028B
:101840004093DA0299279093D9028093D80280E1DD
:1018500090E09093FF028093FE02D4CF43E060E2D9
:101860008EEA90E00E94BD049091DE028091DF023A
:101870001091E0022091E1029093D8028093D90266
:1018800030910103022F0095343639F543E460E1CD
:101890008EEA90E00E94BD048091DE029091DF020A
:1018A000101731F09095981719F094E09093000379
:1018B000982F812F9093DB028093DA0280E390E0EF
:1018C0009093FF028093FE0286E190E09093D7020E
:1018D0008093D6028EEB9AE082CC101306C0412F83
:1018E00050E05093DB024093DA0289130CC090E081
:1018F0009093D9028093D8027092FF026092FE0208
:1019000084E190E0E3CF1093DA022093DB02F4CF7E
:1019100080910103843269F582EC90E00E94030318
:10192000882339F143E060E182EC90E00E94BD043D
:101930001091DE028091DF028095181719F084E083
:10194000809300038DE692E00E94F500812F90E0E5
:101950009093DB028093DA021092D9021092D8029F
:1019600080E190E09093FF028093FE028EE190E090
:1019700027CB809101038434B1F486ED90E00E947E
:101980000303882381F043E060E286ED90E00E944B
:10199000BD0480E8809300037092FF026092FE0213
:1019A0008DE190E00DCB80910F028E3E08F06AC071
:1019B0008091100244E150E062E074E090E00E9407
:1019C0008002882309F45EC080910103843209F00B
:1019D00059C000910F01802F8071409107015091F3
:1019E000080104FD04C04091090150910A01001F43
:1019F0000027001F21E0811101C020E063E080E1A9
:101A00000E94A50280E8809300039091DE028091FD
:101A1000DF02292F382F482F42954F708F7054E0E6
:101A2000369527955A95E1F72F70392F3F709FE033
:101A3000942798279227391719F094E89093000378
:101A40006091020370910303683F714128F4909103
:101A500000039260909300034093D8021092D90241
:101A600040E1849FC0011124822B9093DB0280937C
:101A7000DA0280E190E09093FF028093FE028BE116
:101A800090E09ECA8AEE90E00E940303882371F1E1
:101A900080910103843251F543E060E18AEE90E0E9
:101AA0000E94BD048091310268E072E090E00E94E3
:101AB000A1028823D9F08091DE029091DF0298275D
:101AC0009F3FA1F490E09093DB028093DA0280E1E3
:101AD00090E09093FF028093FE028AE190E0909361
:101AE000D7028093D60288ED94E079CB80910103F0
:101AF000803709F04FC041E068E08EEF90E00E942F
:101B0000BD048091DE029091DF02A091E002B091CD
:101B1000E102892B8A2B8B2BE9F541E16FE18EEFF6
:101B200090E00E94BD04C090DE02D090DF02E09001
:101B3000E002F090E1024FE461E18EEF90E00E945C
:101B4000BD049091DF028091E002892798278927C0
:101B50009093DB028093DA02C092DE02D092DF0221
:101B6000E092E002F092E102D092D902C092D80253
:101B7000F092DD02E092DC028CE190E09093D702DB
:101B80008093D60288E390E09093FF028093FE0258
:101B900080E875CA80910103823108F438C192E36C
:101BA000D5011D929A95E9F743E060E08250990BC8
:101BB000242F30E02817390794F42F5F3D4FF901A7
:101BC0002585223308F023C1F501E20FF11D308194
:101BD0003F5F3083621708F4622F4E5FE9CF1EAA81
:101BE0001DAA9E012B5C3F4FAE014A5C5F4FC501B1
:101BF0000E943C06882309F40AC182E3D5011D92A4
:101C00008A95E9F7209101032250330B44E060E00C
:101C1000842F90E08217930794F48F5F9D4FFC010F
:101C20008585823308F0F3C0F501E80FF11D90813E
:101C30009F5F9083681708F4682F4E5FE9CF1CAA56
:101C40001BAA9E012D5C3F4FAE014C5C5F4FC5014E
:101C50000E943C06882309F4DAC08091010386952E
:101C60001FEF180FEBA8EE2011F01EEF180F212F19
:101C700030E03093FF022093FE02C901019797FDE7
:101C80004F969C0145E0359527954A95E1F738AF89
:101C90002FAB3FA939AFCDA8C11003C0EE2009F486
:101CA000B6C04CA882E3489E200111248EA8889ECD
:101CB00040011124C89E60011124E89E7001112486
:101CC00033E0232E312C812F113208F080E29BA9C2
:101CD000992309F47CC0A2E0B0E0B093D702A093AE
:101CE000D60200E020E0A701622D0E94A5028091AB
:101CF000DE029091DF02A091E002B091E10224E0C7
:101D0000329EF0011124E251FD4F80839183A28322
:101D1000B38330E4230E1052339449AD431598F643
:101D20002091020330910303203D3740F0F4EFA9E6
:101D3000F8ADEE0FFF1FEE0FFF1FE251FD4F0081C8
:101D400011812281338140910A0350910B036091EC
:101D50000C0370910D03041715072607370729F4A4
:101D60002091000321602093000380930A03909345
:101D70000B03A0930C03B0930D0320910F0292E389
:101D8000299F900111243093E3022093E202809175
:101D90001002899FC00111249093E5028093E40210
:101DA0009092EB028092EA025092ED024092EC0295
:101DB000C114D10419F1E114F10499F4D092E702AD
:101DC000C092E6025092E9024092E8027BCAE1E04A
:101DD000F0E0F093D702E093D60200E021E0A60104
:101DE00083CFF092E902E092E8029092E7028092BB
:101DF000E602D092EB02C092EA0264CA9092E70235
:101E00008092E602F092E902E092E8025BCAE09179
:101E10000103E63008F456CA11E025EC3DE94CE137
:101E200051E8F0E00AE0612F70E0CB0102968E17D6
:101E30009F077CF58F5F9D4FDC011D968C916F5F36
:101E40007D4FDB011D966C91809F7001112498E0FD
:101E5000699FD0011124EA16FB06C8F0609FB0010B
:101E60001124A8E08A9FC0011124FF24F39468176D
:101E7000790710F482E0F82E63E971E080E091E0E8
:101E80000E94630F9B01AC012F251F5FCCCFF12C6B
:101E9000F3CF2093DE023093DF024093E0025093B1
:101EA000E1027092FF026092FE021092D70210923D
:101EB000D60208CAFB01DC0102C005900D92415018
:101EC0005040D8F70895DB018F939F930E94950FA0
:101ED000BF91AF91A29F800D911DA39F900DB29FC6
:101EE000900D11240895A1E21A2EAA1BBB1BFD011F
:101EF0000DC0AA1FBB1FEE1FFF1FA217B307E407E9
:101F0000F50720F0A21BB30BE40BF50B661F771F40
:101F1000881F991F1A9469F7609570958095909520
:101F20009B01AC01BD01CF0108950E94A00FA59FA8
:101F3000900DB49F900DA49F800D911D11240895C4
:101F4000A29FB001B39FC001A39F700D811D1124FA
:101F5000911DB29F700D811D1124911D0895AA1B22
:101F6000BB1B51E107C0AA1FBB1FA617B70710F084
:101F7000A61BB70B881F991F5A95A9F780959095B6
:101F8000BC01CD010895EE0FFF1F0590F491E02DE7
:101F90000994F894FFCF1B00269E0002049E00299E
:101FA000029E000701006E00000000000000130206
:101FB0007301A0016002D101AF01C30149527265F2
:101FC00063656976657220626567696E000D0A0057
:101FD00049527265636569766572206465636F64F2
:061FE00065007C30780072
:107E0000112484B714BE81FFF0D085E080938100F7
:107E100082E08093C00088E18093C10086E0809377
:107E2000C20080E18093C4008EE0C9D0259A86E02C
:107E300020E33CEF91E0309385002093840096BBD3
:107E4000B09BFECF1D9AA8958150A9F7CC24DD24C4
:107E500088248394B5E0AB2EA1E19A2EF3E0BF2EE7
:107E6000A2D0813461F49FD0082FAFD0023811F036
:107E7000013811F484E001C083E08DD089C08234E0
:107E800011F484E103C0853419F485E0A6D080C0E4
:107E9000853579F488D0E82EFF2485D0082F10E0AE
:107EA000102F00270E291F29000F111F8ED06801E7
:107EB0006FC0863521F484E090D080E0DECF843638
:107EC00009F040C070D06FD0082F6DD080E0C81688
:107ED00080E7D80618F4F601B7BEE895C0E0D1E017
:107EE00062D089930C17E1F7F0E0CF16F0E7DF06D8
:107EF00018F0F601B7BEE89568D007B600FCFDCFD4
:107F0000A601A0E0B1E02C9130E011968C91119780
:107F100090E0982F8827822B932B1296FA010C0160
:107F200087BEE89511244E5F5F4FF1E0A038BF0790
:107F300051F7F601A7BEE89507B600FCFDCF97BE46
:107F4000E89526C08437B1F42ED02DD0F82E2BD052
:107F50003CD0F601EF2C8F010F5F1F4F84911BD097
:107F6000EA94F801C1F70894C11CD11CFA94CF0C13
:107F7000D11C0EC0853739F428D08EE10CD085E9AC
:107F80000AD08FE07ACF813511F488E018D01DD067
:107F900080E101D065CF982F8091C00085FFFCCF94
:107FA0009093C60008958091C00087FFFCCF809118
:107FB000C00084FD01C0A8958091C6000895E0E648
:107FC000F0E098E1908380830895EDDF803219F02E
:107FD00088E0F5DFFFCF84E1DECF1F93182FE3DFCA
:107FE0001150E9F7F2DF1F91089580E0E8DFEE27F6
:047FF000FF270994CA
:027FFE00040479
:00000001FF
