:020000040000FA
:100000000C945D000C9485000C9485000C94850084
:100010000C9485000C9485000C9485000C9485004C
:100020000C94A8050C9485000C9485000C94850014
:100030000C9485000C9485000C9485000C9485002C
:100040000C9406050C9485000C9476050C945005D0
:100050000C9485000C9485000C9485000C9485000C
:100060000C9485000C9485000000000024002700FB
:100070002A0000000000250028002B0004040404CE
:100080000404040402020202020203030303030342
:10009000010204081020408001020408102001021F
:1000A00004081020000000080002010000030407FB
:1000B0000000000000000000CA0611241FBECFEFA0
:1000C000D8E0DEBFCDBF24E0AAE1B2E001C01D92BE
:1000D000A831B207E1F712E0A0E0B1E0ECECFFE1FB
:1000E00002C005900D92AA31B107D9F710E0CDE515
:1000F000D0E004C02197FE010E94DE0FCC35D1076D
:10010000C9F70E9402070C94E40F0C94000082E0EF
:100110008093B0008093B10084E68093B300809315
:10012000B4001092B20080912902833011F4109231
:10013000290284E08093700008952091C7033091D4
:10014000C8032817390728F48091C503816080937C
:10015000C50308950F931F93CF93DF934091280217
:100160008091C60310E0481708F063C0142F117087
:100170000091270201114EC0E091C903F091CA031A
:10018000E40FF11DE585F0E02CEE3FEF112311F0B7
:1001900024E130E0C0912502D09126022C0F3D1FB2
:1001A000C90163E470E00E94CA0FE617F70760F028
:1001B000C90168E270E00E94CA0F6F5F7F4F81E063
:1001C00090E06E177F0710F52C0F3D1FC90163E407
:1001D00070E00E94CA0FE617F70750F0C90168E205
:1001E00070E00E94CA0F6F5F7F4F6E177F0760F449
:1001F0002C0F3D1FC90163E470E00E94CA0FE6178F
:10020000F707E8F41FEF15C082E090E09093240216
:10021000809323020F5F0093270280912302909125
:1002200024020817190628F0109227024F5F409306
:100230002802812FDF91CF911F910F910895C9015D
:1002400068E270E00E94CA0F6F5F7F4F6E177F07F2
:10025000C8F283E090E0DACF90E0FC01EC55FF4F6C
:100260002491FC01E057FF4F3491FC01E458FF4F0B
:10027000E491EE23C9F0222339F0233001F1A8F4F0
:10028000213019F1223029F1F0E0EE0FFF1FEE5876
:10029000FF4FA591B4918FB7F894EC91611126C0EE
:1002A00030953E233C938FBF08952730A9F0283026
:1002B000C9F0243049F7809180008F7D03C0809180
:1002C00080008F7780938000DFCF84B58F7784BDE7
:1002D000DBCF84B58F7DFBCF8091B0008F7780938B
:1002E000B000D2CF8091B0008F7DF9CF3E2BDACF16
:1002F0003FB7F89480911F0290912002A0912102B3
:10030000B091220226B5A89B05C02F3F19F0019697
:10031000A11DB11D3FBFBA2FA92F982F8827BC015F
:10032000CD01620F711D811D911D42E0660F771F87
:10033000881F991F4A95D1F70895AF92BF92CF9227
:10034000DF92EF92FF920F931F93CF93DF936C0195
:100350007B018B01040F151FEB015E01AE18BF0876
:10036000C017D10759F06991D601ED91FC91019028
:10037000F081E02DC6010995892B79F7C501DF9140
:10038000CF911F910F91FF90EF90DF90CF90BF9092
:10039000AF900895FC01538D448D252F30E0842FBC
:1003A00090E0821B930B541710F0CF96089501979D
:1003B0000895FC01918D828D981761F0A28DAE0F8A
:1003C000BF2FB11D5D968C91928D9F5F9F73928F11
:1003D00090E008958FEF9FEF0895FC01918D828D3D
:1003E000981731F0828DE80FF11D858D90E008950A
:1003F0008FEF9FEF0895FC01918D228D892F90E062
:10040000805C9F4F821B91098F73992708958EEF0F
:1004100092E00E94FB0121E0892B09F420E0822F69
:10042000089580E090E0892B29F00E940702811155
:100430000C9400000895FC01A48DA80FB92FB11DE4
:10044000A35ABF4F2C91848D90E001968F7399270A
:10045000848FA689B7892C93A089B1898C918370E8
:1004600080648C93938D848D981306C00288F389E1
:10047000E02D80818F7D80830895EF92FF920F930E
:100480001F93CF93DF93EC0181E0888F9B8D8C8D40
:1004900098131AC0E889F989808185FF15C09FB734
:1004A000F894EE89FF896083E889F98980818370F7
:1004B000806480839FBF81E090E0DF91CF911F91A6
:1004C0000F91FF90EF900895F62E0B8D10E00F5FC7
:1004D0001F4F0F731127E02E8C8D8E110CC00FB69D
:1004E00007FCFACFE889F989808185FFF5CFCE0135
:1004F0000E941B02F1CFEB8DEC0FFD2FF11DE35A93
:10050000FF4FF0829FB7F8940B8FEA89FB898081B7
:100510008062CFCFCF93DF93EC01888D8823B9F031
:10052000AA89BB89E889F9898C9185FD03C08081FE
:1005300086FD0DC00FB607FCF7CF8C9185FFF2CF7B
:10054000808185FFEDCFCE010E941B02E9CFDF91B4
:10055000CF910895FC019B0124513109C90163E445
:1005600070E00E94CA0FE617F70758F0C90168E269
:1005700070E00E94CA0F6F5F7F4F81E06E177F07A8
:1005800008F480E008952F923F924F925F926F920D
:100590007F928F929F92AF92BF92CF92DF92EF9213
:1005A000FF920F931F93CF93DF9300D000D000D022
:1005B000CDB7DEB7382E6D835A013C832B834801BB
:1005C0002E2C9A012C5E3F4FC90163E470E00E941B
:1005D000CA0F8B01C90168E270E00E94CA0F9B013B
:1005E0002F5F3F4F3A8329835D81452F50E0435F62
:1005F0005F4F8091C9039091CA03480F591F5E83D2
:100600004D83412C512C32014394C12CD12C7601C5
:100610003320A1F1ED81FE81A814B904D9F48181C0
:100620006B817C8190E00E94AA02222001F1CC0C17
:10063000DD1CEE1CFF1C882311F06894C0F8440CEC
:10064000551C661C771C3A948D819E8102969E8370
:100650008D83DECF208130E02017310730F081E03C
:1006600049815A814217530700F780E0DECF882383
:1006700031F3C428D528E628F728E1CFC092A30398
:10068000D092A403E092A503F092A60381E02696FF
:100690000FB6F894DEBF0FBECDBFDF91CF911F9193
:1006A0000F91FF90EF90DF90CF90BF90AF909F9011
:1006B0008F907F906F905F904F903F902F90089514
:1006C000EF920F931F93FC01862F642FEE24E39487
:1006D0009785911101C0E12C038514852185328510
:1006E000478150850E94C3021F910F91EF9008959A
:1006F0000F931F93CF93DF938C01C091C903D091C7
:10070000CA032E8530E0DC011396ED91FC917496BE
:10071000CF0163E470E00E94CA0F26173707A8F0E4
:10072000CF0168E270E00E94CA0F6F5F7F4F6217CF
:10073000730758F0F801658176818F8590E0DF912D
:10074000CF911F910F910C94AA0280E0DF91CF917D
:100750001F910F910895FC0101900020E9F7319756
:10076000AF01481B590BBC018EEF92E00C949D0128
:100770008F929F92AF92BF920F931F93CF93DF936D
:10078000CDB7DEB7A1970FB6F894DEBF0FBECDBFD1
:1007900019A2423008F44AE08E010F5D1F4F842EEB
:1007A000912CB12CA12CA50194010E948E0FE62F53
:1007B000B901CA01EA30F4F4E05DD801EE938D018D
:1007C000232B242B252B79F790E080E0109719F04C
:1007D000CD010E94AB03A1960FB6F894DEBF0FBE09
:1007E000CDBFDF91CF911F910F91BF90AF909F90A0
:1007F0008F900895E95CE1CF8091D603882319F0AA
:1008000060E00C942C012D980895882349F0809184
:10081000D603882319F061E00C942C012D9A0895D9
:100820000C94FC034F925F926F927F928F929F92F3
:10083000AF92BF92CF92DF92EF92FF92CF93DF936E
:10084000CDB7DEB72D970FB6F894DEBF0FBECDBF84
:100850007C010E94780169837A838B839C834B019E
:100860005C011D86B0E0A0E09701AD012552310981
:10087000410951092D833E834F8358879701AD016C
:10088000275031094109510929873A874B875C87ED
:10089000F89461E08091D8030E942C018091DB03E1
:1008A0009091DC038230910538F0880F991F880FF2
:1008B000991F05970197F1F760E08091D8030E9496
:1008C0002C0178943D85311107C08091D70381FFB9
:1008D00003C081E00E9405048091D9039091DA035E
:1008E000880E991EA11CB11CF8940E9478012B015E
:1008F0003C016B0149815A81C41AD50AF12CE12CC3
:100900008D819E81AF81B885C816D906EA06FB069F
:100910002CF08091D70381FD0E94FC0329853A8544
:100920004B855C85C216D306E406F506B4F07894D0
:100930002D960FB6F894DEBF0FBECDBFDF91CF91DD
:10094000FF90EF90DF90CF90BF90AF909F908F90EF
:100950007F906F905F904F90089531E03D874814ED
:1009600059046A047B0408F4C0CF92CFCF92DF927F
:10097000EF92FF928AE190E09093DA038093D9039B
:1009800085E090E09093DC038093DB038091D803B3
:1009900090E0FC01E057FF4F249184589F4FFC01E9
:1009A0008491882399F090E0880F991FFC01E85901
:1009B000FF4FA591B491FC01EE58FF4F85919491A2
:1009C0008FB7F894EC91E22BEC938FBF80E093E229
:1009D0000E9412040E9478016B017C01F4E0CF1A9E
:1009E000D108E108F1080E9478016C197D098E098F
:1009F0009F09603C784081059105A8F380E392E06F
:100A0000FF90EF90DF90CF900C9412041F920F9202
:100A10000FB60F9211242F933F938F939F93AF9311
:100A2000BF9380911B0290911C02A0911D02B09176
:100A30001E0230911A0223E0230F2D3758F501963C
:100A4000A11DB11D20931A0280931B0290931C02DA
:100A5000A0931D02B0931E0280911F02909120026C
:100A6000A0912102B09122020196A11DB11D809397
:100A70001F0290932002A0932102B0932202BF9103
:100A8000AF919F918F913F912F910F900FBE0F903B
:100A90001F90189526E8230F0296A11DB11DD2CFF5
:100AA0001F920F920FB60F9211242F933F934F93E3
:100AB0005F936F937F938F939F93AF93BF93EF93C6
:100AC000FF938EEF92E00E941B02FF91EF91BF9186
:100AD000AF919F918F917F916F915F914F913F91D6
:100AE0002F910F900FBE0F901F9018951F920F928D
:100AF0000FB60F9211242F938F939F93EF93FF9331
:100B0000E0910E03F0910F038081E0911403F091C6
:100B1000150382FD1BC09081809117038F5F8F7337
:100B200020911803821741F0E0911703F0E0E250A2
:100B3000FD4F958F80931703FF91EF919F918F91B8
:100B40002F910F900FBE0F901F9018958081F4CFBA
:100B50001F920F920FB60F9211242F933F934F9332
:100B60005F936F937F938F939F93AF93BF93CF9335
:100B7000EF93FF93E0912B02F0912C02C0818091C2
:100B80002D02C82380912E0290912F02019649F0E8
:100B900080912E0290912F02019690932F028093C4
:100BA0002E028091290281111DC0C11176C0809151
:100BB0002E0290912F02813A910578F01092320224
:100BC00080912E0290912F029093350280933402EF
:100BD00081E0809333028093290210922F021092B9
:100BE0002E025BC080912902813099F4CC2309F454
:100BF00054C080912E0290912F02E091330291E037
:100C00009E0F90933302F0E0E75DFD4F858782E011
:100C1000E2CF80912902823009F05AC0C11120C070
:100C2000E0913302E83C70F081E08093320283E08F
:100C300080932902E0913002F0913102309769F2FD
:100C40000995CBCF80912E0290912F0291E09E0FBB
:100C500090933302F0E0E75DFD4F858781E0BBCFE5
:100C600080912E0290912F02813A9105B0F08091EF
:100C700034029091350290930A0480930904809184
:100C800033028093080483E080932902E0913002CC
:100C9000F0913102309709F009958091D70380FFD8
:100CA00005C081E0C11180E00E940504FF91EF9131
:100CB000CF91BF91AF919F918F917F916F915F91F4
:100CC0004F913F912F910F900FBE0F901F9018954D
:100CD00080912902833009F7C111DFCF7ECFDF92E7
:100CE000EF92FF920F931F93CF93DF93EC01D62ED9
:100CF0008A017901F0E090E080E030E0E0E0DE01A0
:100D0000AE0FB11D2C91FF5F222339F0320F2E9FC1
:100D1000800D911D11241C92F0E03323B9F0DE16F2
:100D200011F0F23098F0232F2695820F911D632F3A
:100D300070E00E94CA0FDE01A60FB11D3C93D801DE
:100D40003C9131110FC06C9390E080E0EF5FDE16B4
:100D5000B0F681E0DF91CF911F910F91FF90EF905E
:100D6000DF900895D7013C91332369F380E0F2CFFF
:100D7000E9E2F2E0DC019F96FC93EE939E971182EC
:100D800081E0848389E290E093838283509810927B
:100D9000D6030895EEEFF2E01382128288EE93E01C
:100DA000A0E0B0E084839583A683B78384EF91E0CD
:100DB0009183808385EC90E09587848784EC90E034
:100DC0009787868780EC90E0918B808B81EC90E018
:100DD000938B828B82EC90E0958B848B86EC90E0F9
:100DE000978B868B118E128E138E148E8DED93E061
:100DF0000E94B8061092D8031092D6038BE993E0B4
:100E00000C94B806CF93DF93CDB7DEB7E7970FB654
:100E1000F894DEBF0FBECDBF789484B5826084BDE8
:100E200084B5816084BD85B5826085BD85B58160EE
:100E300085BD80916E00816080936E00109281006C
:100E40008091810082608093810080918100816027
:100E500080938100809180008160809380008091E8
:100E6000B10084608093B1008091B0008160809374
:100E7000B00080917A00846080937A0080917A003B
:100E8000826080937A0080917A00816080937A00FA
:100E900080917A00806880937A001092C100E0917E
:100EA0000E03F0910F0382E08083E0910A03F0913A
:100EB0000B031082E0910C03F0910D038FEC808303
:100EC00010921603E0911203F091130386E08083E1
:100ED000E0911003F0911103808180618083E091A3
:100EE0001003F0911103808188608083E0911003EA
:100EF000F0911103808180688083E0911003F0916C
:100F0000110380818F7D80838DE080932A0280E2AF
:100F100080932D0283E290E090932C0280932B0229
:100F200025981092D6030E94870082E092E00E94EA
:100F3000AB0383E192E00E94AB030E9487009E0115
:100F40002F5F3F4F390180912902833009F0BDC1E5
:100F500080913402909135029093C8038093C70327
:100F6000809133028093C60380913202882309F472
:100F70005AC080E48093C50310929C0310929B0397
:100F80001092A00310929F0310929E0310929D0353
:100F90001092A3031092A4031092A5031092A6032B
:100FA0001092C4031092C3038091C50370E060E007
:100FB00086FD9FC79091C603892F8F7B843009F0EF
:100FC000C0C0E091C903F091CA03868586588C356C
:100FD00008F0B7C08785943009F04CC08152883141
:100FE00008F0AFC080898850883008F0AAC081E03E
:100FF0008093C5038091CD039091CE0390939E037F
:1010000080939D038091D1039091D2039093A0038C
:1010100080939F038091CB039091CC0390939C038A
:1010200080939B0321C11092C50380919B039091F3
:101030009C039093CC038093CB0380919F0390916A
:10104000A003B0E0A0E08093D1039093D203A093DB
:10105000D303B093D40380919D0390919E03B0E09D
:10106000A0E08093CD039093CE03A093CF03B093E1
:10107000D00382CF82548F3208F063C043E060E235
:101080008CED91E00E946003882309F45AC02091FE
:10109000A3039091A4036091A5038091A603462F1A
:1010A00050E05093A00340939F03422F592F4E3E90
:1010B00037E8530719F523E030E030939C03209381
:1010C0009B0390E090939E0380939D0380E290E0C9
:1010D0009093C4038093C3038AE795E00E949D0028
:1010E0008091C50380FFC0C029E030E030939C03AD
:1010F00020939B0380628093C503B6C0909529130B
:1011000010C030E030939E0320939D03982F90955C
:1011100069130CC088E090E090939C0380939B033C
:10112000D5CF50939E0340939D03F0CF2AE030E04B
:1011300030939C0320939B0360939F038093A003B1
:10114000C5CF8091C603843609F0CCC088EC91E00D
:101150000E947803882309F4C5C043E060E188EC6D
:1011600091E00E946003882309F4BCC0F090A303BF
:101170000F2D1091A403BBE0CB2ED12C023080E2C6
:101180001807F9F0AEE0CA2ED12C0A3A9AE51907F1
:10119000C1F0FDE0CF2ED12C0435A2E31A0789F06F
:1011A000EFE0CE2ED12C0330B1E01B0751F080E1EF
:1011B000C82ED12C0332EBEC1E0719F07CE0C72EB1
:1011C000D12C43E260E288EC91E00E946003882326
:1011D00009F488C0F1268091A3039091A403A09103
:1011E000A503B091A6039C0164E0369527956A9506
:1011F000E1F730939E0320939D032A2F30E0309334
:10120000A00320939F03382F3A2739272F2D2295AB
:101210002F702F252F70482F4F70241719F024E0BE
:101220002093C503FCE0CF16D10449F42091C503F7
:1012300020612093C5031093A2030093A1033B17E1
:1012400029F08091C50384608093C50380E390E01A
:101250009093C4038093C303D0929C03C0929B03DA
:101260008AE397E00E949D0060919B0370919C032C
:101270004B01072E000CAA08BB08B7FE3AC66DE268
:101280008EEF92E00E943D0266277727CB01681916
:1012900079098A099B094AE00E94B80386E192E035
:1012A0000E94AB0360919F037091A00390E080E0E7
:1012B00040E10E94B80383E192E00E94AB03809179
:1012C0002902833011F41092290280E090E0892BEA
:1012D00009F439CE0E940702882309F434CE0E9413
:1012E000000031CE8091C603803209F06EC041E02B
:1012F0006FE084EB91E00E946003882309F465C0ED
:10130000E091C903F091CA0384A58450853008F0A8
:101310005CC08091A3039091A403A091A503B09118
:10132000A6039C012F71332730939E0320939D03C6
:1013300055E0B695A795979587955A95D1F7292F9A
:101340002370AC0155275093A00340939F03409115
:10135000C7035091C8034536544080F53091D503FA
:101360003F5F3093D503323018F031E03093C5033E
:1013700090FF14C03091C503432F42604093C503D2
:101380004091D1035091D2038095841719F03660B3
:101390003093C50340939F035093A0032150223004
:1013A00088F487E190E090939C0380939B038FE007
:1013B00090E09093C4038093C30356CF1092D5035B
:1013C000223079F384E090E0EECF80E091E00E945B
:1013D0007803882309F448C08091C6038A3129F034
:1013E0008A3219F0803209F03FC090E0BC016150B0
:1013F000710977FDBC017595679543E080E091E048
:101400000E946003882381F18091A3039091A4033B
:10141000A091A503B091A6039C012F7733273093A9
:10142000A00320939F0337E0B695A79597958795DE
:101430003A95D1F790939E0380939D032091C60324
:1014400030E0C901019797FDC90195958795909363
:10145000C4038093C30388E190E090939C0380933E
:101460009B0380EE91E0FECE81E08093280289E725
:1014700093E09093260280932502109227020E9407
:10148000AA00813009F060C0812C912C540110E039
:101490009091C603809128028917E0F40E94AA0067
:1014A000082F0E94AA0001110BC0813009F04CC026
:1014B000880C991CAA1CBB1C689480F81F5FE8CF9D
:1014C000013009F041C081113FC0880C991CAA1C51
:1014D000BB1CF4CF812F90E09093C4038093C3038F
:1014E0008092A3039092A403A092A503B092A603B6
:1014F000882D8F7390E09093A00380939F039401B5
:10150000B6E036952795BA95E1F72F7133273093DA
:101510009E0320939D03940122273071232B31F4E5
:10152000805C9F4F9093A00380939F0380E893FC7F
:1015300088E88093C50381E190E090939C038093B9
:101540009B038FEC99E08ECEE091C903F091CA0322
:10155000868588528D3108F041C087858C508B304C
:10156000E8F583E0809328028CEB91E090932602CB
:1015700080932502109227020E94AA00813071F503
:101580000E94AA0081112AC0812C912C540110E0E4
:101590009091C60380912802891708F07FC00E94AD
:1015A000AA00F82E1330B1F00E94AA00082F1330C1
:1015B00021F40E94AA00081311C091E0F91264C03E
:1015C00001110CC0880C991CAA1CBB1C689480F8E3
:1015D0001F5FDECF0E94AA00F81631F39091C60378
:1015E0009C3311F09430B1F4E091C903F091CA0337
:1015F0008685282F30E02638310560F0233E3105FE
:1016000008F499C08E5868EB7BE007E010E0823662
:1016100008F495C08091C603823209F4F3C0843285
:1016200009F020C188E291E00E947803882309F440
:1016300019C143E060E188E291E00E9460038823E1
:1016400009F410C18091A3039091A403A091A50374
:10165000B091A603492F5A2F6B2F77275093A003E1
:1016600040939F03992790939E0380939D0380E16D
:1016700090E09093C4038093C30325E030E030935F
:101680009C0320939B03F0CDF110A8CF013009F00B
:10169000A5CF880C991CAA1CBB1C9ACF812F90E067
:1016A0009093C4038093C3038092A3039092A403F6
:1016B000A092A503B092A603282D30E0892D90E0DA
:1016C000133200F540E84093C5033093A003209304
:1016D0009F0390939E0380939D03A0FE03C088E820
:1016E0008093C503153128F08091C50380618093F4
:1016F000C50382E190E090939C0380939B0383E772
:101700009AE0B0CD40E94093C5033093A003209305
:101710009F0390939E0380939D03C5019F739093B5
:10172000A2038093A103B7FE03C088E98093C50399
:1017300083E190E0E0CF68E670E106E010E08785A5
:10174000943059F48D51863108F064CF80898750E8
:10175000883008F05FCF81E84BCC90E00E94AA026D
:10176000882309F457CF43E06CE184E191E00E94C3
:101770006003882309F44ECF80E88093C50340912D
:10178000A3035091A4036091A5037091A603DB010C
:10179000CA0124E0B695A795979587952A95D1F724
:1017A0009C019093A00380939F03DB01CA01E4E1B5
:1017B000B695A79597958795EA95D1F790939E034F
:1017C00080939D0384E090E0E0E0F22FFF70EF0F44
:1017D000F4E036952795FA95E1F70197B1F74E2792
:1017E0004F70552766277727452B462B472B19F037
:1017F00084E88093C50310939C0300939B038CE1C2
:1018000090E0D7CD8091C7039091C8038C3E9C4552
:1018100008F02ACDE091C903F091CA03868588506B
:10182000873008F021CD86A58850873008F01CCD80
:1018300081E08093C5038091CD039091CE03909376
:101840009E0380939D038091D1039091D203909346
:10185000A00380939F03E5E0F0E0F0939C03E09306
:101860009B0302CD1091C603812F8F7D843419F024
:10187000163009F081C08CE391E00E947803882340
:1018800009F47AC01630B1F481E28093C5038091E7
:10189000CD039091CE0390939E0380939D038091FE
:1018A000D1039091D2039093A00380939F0385E18D
:1018B00090E0B4CB43E060E28CE391E00E946003EF
:1018C000882309F459C08091A3031091A5030091C6
:1018D000A6039091A40380939D0390939E039091FF
:1018E000C603943659F543E460E18CE391E00E942D
:1018F0006003882309F440C08091A3039091A4035E
:101900000095101731F09095891719F094E0909395
:10191000C503982F812F9093A00380939F0380E3AA
:1019200090E09093C4038093C30386E190E090938A
:101930009C0380939B038EEB9AE094CC902F909520
:10194000191314C0212F30E03093A00320939F037C
:1019500090E090939E0380939D0380E290E09093AB
:10196000C4038093C30384E190E0E1CFC801909366
:101970009F038093A003F1CF8091C603843279F551
:1019800080E591E00E947803882349F143E060E11B
:1019900080E591E00E946003882309F11091A30380
:1019A0008091A4038095181719F084E08093C503F3
:1019B0008DE692E00E949D00812F90E09093A0031D
:1019C00080939F0310929E0310929D0380E190E00C
:1019D0009093C4038093C3038EE190E01FCB80916A
:1019E000C6038434D1F484E691E00E94780388230E
:1019F000A1F043E060E284E691E00E946003882366
:101A000061F080E88093C50380E290E09093C40386
:101A10008093C3038DE190E001CB88E791E00E94C1
:101A200078039091C603882309F455C0943209F0D5
:101A300052C043E060E188E791E00E9460038823A0
:101A400009F449C0E091C903F091CA0380A982500A
:101A5000843008F040C080E88093C5039091A303D0
:101A60008091A403292F382F482F42954F708F70F3
:101A700054E0369527955A95E1F72F70392F3F702E
:101A80009FE0942798279227391719F094E89093AC
:101A9000C5036091C7037091C803683F714128F482
:101AA0009091C50392609093C50340939D0310925B
:101AB0009E03A0E18A9FC0011124822B9093A00372
:101AC00080939F0380E190E09093C4038093C303CD
:101AD0008BE190E0A3CA8CE891E00E94780390919A
:101AE000C603882369F1943259F543E060E18CE83C
:101AF00091E00E946003882319F1E091C903F091FD
:101B0000CA0380A988508730D8F48091A3039091AC
:101B1000A40398279F3FA1F490E09093A0038093A3
:101B20009F0380E190E09093C4038093C3038AE114
:101B300090E090939C0380939B0388ED94E092CB7C
:101B40008091C603803709F057C041E068E080EA21
:101B500091E00E946003882309F44EC08091A303A2
:101B60009091A403A091A503B091A603892B8A2B81
:101B70008B2B09F041C041E16FE180EA91E00E94C6
:101B800060038823C9F18090A3039090A403A090E0
:101B9000A503B090A6034FE461E180EA91E00E94C2
:101BA0006003882349F19091A4038091A5038927BC
:101BB000982789279093A00380939F038092A30383
:101BC0009092A403A092A503B092A60390929E03C4
:101BD00080929D03B092A203A092A1038CE190E0B9
:101BE00090939C0380939B0388E390E09093C403BD
:101BF0008093C30380E87FCA8091C603823108F4D2
:101C000020C192E3F30111929A95E9F74091C9033B
:101C10005091CA0373E060E08250990B272F30E0A7
:101C2000281739079CF4240F351FD9011D962C91D4
:101C3000223308F006C1F301E20FF11D30813F5F4E
:101C40003083621708F4622F7E5FE8CF1EAA1DAAB8
:101C50009E012B5C3F4FAE014A5C5F4FC3010E9467
:101C60006F06882309F4EDC082E3F30111928A958F
:101C7000E9F72091C6032250330B4091C9035091DC
:101C8000CA0374E060E0872F90E0821793079CF40A
:101C9000840F951FDC011D968C91823308F0D1C012
:101CA000F301E80FF11D90819F5F9083681708F49E
:101CB000682F7E5FE8CF1CAA1BAA9E012D5C3F4FB8
:101CC000AE014C5C5F4FC3010E946F06882309F48C
:101CD000B8C08091C6038695FF24FA94F80ECBA86D
:101CE000CC2019F03EEFF32EF80E2F2D30E030937C
:101CF000C4032093C303C901019797FD4F9625E0C4
:101D0000959587952A95E1F78FAB8DA8811003C033
:101D1000CC2009F496C04CA882E3489E20011124EF
:101D2000AEA8A89E50011124889E40011124C89E8F
:101D30006001112493E0292E312C8F2DB0E2BF15C4
:101D400008F480E29BA9992309F45AC0E2E0F0E08C
:101D5000F0939C03E0939B03E12C85019601A50180
:101D6000622D0E94C302882309F46BC034E0339EC5
:101D7000F0011124ED54FC4F8091A3039091A40332
:101D8000A091A503B091A60380839183A283B3831E
:101D900080E4280E90EEF90E3394AFA9A31568F6EF
:101DA00080ED97E00E949D00E091C903F091CA0385
:101DB000268592E3299F900111243093A803209354
:101DC000A7038785899FC00111249093AA0380935C
:101DD000A903B092B003A092AF035092B203409215
:101DE000B1038114910421F1C114D104A1F49092A2
:101DF000AC038092AB035092AE034092AD0334CA61
:101E000021E030E030939C0320939B03E12C85017B
:101E10009201A401A5CFD092AE03C092AD03B092BF
:101E2000AC03A092AB039092B0038092AF031CCAA4
:101E3000B092AC03A092AB03D092AE03C092AD03BC
:101E400013CAE091C603E63008F40ECAC090C90375
:101E5000D090CA0311E025EC3DE94CE151E8F0E0F7
:101E60000AE0612F70E0CB0102968E179F0774F590
:101E70008C0D9D1DDC011D968C916C0D7D1DDB0173
:101E80001D966C91809F5001112498E0699FD001AC
:101E90001124F12CAA16BB0670F0609FB00111242A
:101EA000A8E08A9FC0011124FF24F39468177907E2
:101EB00010F482E0F82E63E971E080E091E00E9486
:101EC0007E0F9B01AC012F251F5FCBCF2093A30377
:101ED0003093A4034093A5035093A60380E290E0BF
:101EE0009093C4038093C30310929C0310929B03AE
:101EF000BBC9072E000C880B990BCDC9DB018F9352
:101F00009F930E94B00FBF91AF91A29F800D911D32
:101F1000A39F900DB29F900D11240895A1E21A2E57
:101F2000AA1BBB1BFD010DC0AA1FBB1FEE1FFF1F7D
:101F3000A217B307E407F50720F0A21BB30BE40BCD
:101F4000F50B661F771F881F991F1A9469F7609514
:101F50007095809590959B01AC01BD01CF010895CE
:101F60000E94BB0FA59F900DB49F900DA49F800D64
:101F7000911D11240895A29FB001B39FC001A39F9A
:101F8000700D811D1124911DB29F700D811D1124B2
:101F9000911D0895AA1BBB1B51E107C0AA1FBB1FBF
:101FA000A617B70710F0A61BB70B881F991F5A95E5
:101FB000A9F780959095BC01CD010895EE0FFF1F04
:101FC0000590F491E02D0994F894FFCF1800286053
:101FD000095802B004580258025802002D000000AF
:101FE00006002628236810F4012C06F4012602803E
:101FF0006E00B604050026E02070100E022A060EC0
:10200000020E0200410000001400268011801130F1
:1020100002900630023002006E0000001E002638DA
:10202000081C040E022A060E020E020032000000F6
:102030001D0026220B220BEE026608EE02EE028045
:102040006E0000001B00269E0002049E0029029ED6
:10205000000701006E0000001A0026F603BC050808
:1020600002BC050802D401004B0000001C00261F22
:10207000015D033E023E021F015D03A06E000000F1
:1020800004002604010C0304011C0704010C0300D6
:102090006E0000000C0025800DC006B0011005B0D8
:1020A00001B00100820000000800260023801130EA
:1020B00002900630023002006E00B60400000000FC
:1020C0003D029D01CA018A02FB01D901ED0149527D
:1020D000726563656976657220626567696E000D79
:0620E0000A007C307800CC
:107E0000112484B714BE81FFF0D085E080938100F7
:107E100082E08093C00088E18093C10086E0809377
:107E2000C20080E18093C4008EE0C9D0259A86E02C
:107E300020E33CEF91E0309385002093840096BBD3
:107E4000B09BFECF1D9AA8958150A9F7CC24DD24C4
:107E500088248394B5E0AB2EA1E19A2EF3E0BF2EE7
:107E6000A2D0813461F49FD0082FAFD0023811F036
:107E7000013811F484E001C083E08DD089C08234E0
:107E800011F484E103C0853419F485E0A6D080C0E4
:107E9000853579F488D0E82EFF2485D0082F10E0AE
:107EA000102F00270E291F29000F111F8ED06801E7
:107EB0006FC0863521F484E090D080E0DECF843638
:107EC00009F040C070D06FD0082F6DD080E0C81688
:107ED00080E7D80618F4F601B7BEE895C0E0D1E017
:107EE00062D089930C17E1F7F0E0CF16F0E7DF06D8
:107EF00018F0F601B7BEE89568D007B600FCFDCFD4
:107F0000A601A0E0B1E02C9130E011968C91119780
:107F100090E0982F8827822B932B1296FA010C0160
:107F200087BEE89511244E5F5F4FF1E0A038BF0790
:107F300051F7F601A7BEE89507B600FCFDCF97BE46
:107F4000E89526C08437B1F42ED02DD0F82E2BD052
:107F50003CD0F601EF2C8F010F5F1F4F84911BD097
:107F6000EA94F801C1F70894C11CD11CFA94CF0C13
:107F7000D11C0EC0853739F428D08EE10CD085E9AC
:107F80000AD08FE07ACF813511F488E018D01DD067
:107F900080E101D065CF982F8091C00085FFFCCF94
:107FA0009093C60008958091C00087FFFCCF809118
:107FB000C00084FD01C0A8958091C6000895E0E648
:107FC000F0E098E1908380830895EDDF803219F02E
:107FD00088E0F5DFFFCF84E1DECF1F93182FE3DFCA
:107FE0001150E9F7F2DF1F91089580E0E8DFEE27F6
:047FF000FF270994CA
:027FFE00040479
:00000001FF
