:100000000C9496000C94BE000C94BE000C948F0AC5
:100010000C948F0A0C948F0A0C94BE000C94BE00B2
:100020000C94070B0C94BE000C94BE000C94BE0004
:100030000C94BE000C94BE000C94BE000C94BE0048
:100040000C94ED090C94BE000C945D0A0C94370AD4
:100050000C94BE000C94BE000C94BE000C94BE0028
:100060000C94BE000C94BE004446506C61796572DD
:10007000204D696E69206F6E6C696E652E00322EA0
:10008000506C6561736520696E7365727420746865
:100090006520534420636172642100312E506C65E9
:1000A000617365207265636865636B2074686520A1
:1000B000636F6E6E656374696F6E2100556E616269
:1000C0006C6520746F20626567696E3A00000000FD
:1000D00000240027002A00000000080002010000A0
:1000E00003040700000000000000000000000023DF
:1000F000002600290000000000250028002B000435
:1001000004040404040404020202020202030303BE
:1001100003030301020408102040800102040810B8
:100120002001020408102000290C0B1911241FBE05
:10013000CFEFD8E0DEBFCDBF26E0A2E0B4E001C043
:100140001D92A839B207E1F714E0A0E0B1E0EEE9B2
:10015000F8E302C005900D92A230B107D9F710E084
:10016000C5E9D0E004C02197FE010E94331AC439CA
:10017000D107C9F70E940D0D0C94421C0C9400008D
:1001800082E08093B0008093B10084E68093B30056
:100190008093B4001092B20080915A04833011F41D
:1001A00010925A0484E08093700008952091FE0517
:1001B0003091FF052817390728F48091FC058160EC
:1001C0008093FC0508950F931F93CF93DF93409185
:1001D00059048091FD0510E0481708F063C0142F02
:1001E00011700091580401114EC0E0910006F09189
:1001F0000106E40FF11DE585F0E02CEE3FEF112341
:1002000011F024E130E0C0915604D09157042C0F36
:100210003D1FC90163E470E00E941F1AE617F7074B
:1002200060F0C90168E270E00E941F1A6F5F7F4FA3
:1002300081E090E06E177F0710F52C0F3D1FC9017C
:1002400063E470E00E941F1AE617F70750F0C90137
:1002500068E270E00E941F1A6F5F7F4F6E177F0782
:1002600060F42C0F3D1FC90163E470E00E941F1A67
:10027000E617F707E8F41FEF15C082E090E09093CF
:100280005504809354040F5F0093580480915404E4
:10029000909155040817190628F0109258044F5FE2
:1002A00040935904812FDF91CF911F910F910895B1
:1002B000C90168E270E00E941F1A6F5F7F4F6E17DE
:1002C0007F07C8F283E090E0DACF833081F028F432
:1002D000813099F08230A9F008958730A9F08830F4
:1002E000C9F08430B1F4809180008F7D03C080918B
:1002F00080008F7780938000089584B58F7784BDC8
:10030000089584B58F7DFBCF8091B0008F77809367
:10031000B00008958091B0008F7DF9CFCF93DF9327
:10032000EBEDF0E08491E7E1F1E0D491E3E0F1E07E
:10033000C491CC23A1F081110E946501EC2FF0E063
:10034000EE0FFF1FE551FF4FA591B491EC91ED2306
:1003500081E090E009F480E0DF91CF91089580E0A2
:1003600090E0FACF1F93CF93DF93282F30E0F9016D
:10037000E952FF4F8491F901ED5EFE4FD491F901EE
:10038000E150FF4FC491CC23A9F0162F81110E9498
:100390006501EC2FF0E0EE0FFF1FEB50FF4FA59132
:1003A000B4918FB7F894EC91111108C0D095DE2369
:1003B000DC938FBFDF91CF911F910895DE2BF8CF93
:1003C000CF93DF9390E0FC01ED5EFE4F24918150CE
:1003D0009F4FFC0184918823D1F090E0880F991FF2
:1003E000FC01E353FF4FA591B491FC01EB50FF4F8B
:1003F000C591D49161110EC09FB7F8948C91E22FF2
:10040000E0958E238C932881E223E8839FBFDF91C0
:10041000CF9108958FB7F894EC91E22BEC938FBFB6
:10042000F6CF3FB7F8948091500490915104A09179
:100430005204B091530426B5A89B05C02F3F19F074
:100440000196A11DB11D3FBFBA2FA92F982F882754
:10045000BC01CD01620F711D811D911D42E0660F2F
:10046000771F881F991F4A95D1F708958F929F9201
:10047000AF92BF92CF92DF92EF92FF926B017C011D
:100480000E9411024B015C01C114D104E104F1048A
:10049000B9F00E941102681979098A099B09683E1E
:1004A00073408105910580F321E0C21AD108E1086B
:1004B000F10888EE880E83E0981EA11CB11CE4CFE1
:1004C000FF90EF90DF90CF90BF90AF909F908F9074
:1004D00008952FB7F89460914C0470914D04809169
:1004E0004E0490914F042FBF08952F923F924F9248
:1004F0005F926F927F928F929F92AF92BF92CF92B4
:10050000DF92EF92FF920F931F93CF93DF936B01D4
:100510007C010E9469024B015C01C114D104E10419
:10052000F10441F4C0903206D0903306E0903406D6
:10053000F0903506C1E046E0242E53E0352E68E009
:10054000462E72E0572EE7E06E2EFAE07F2E04E092
:10055000D9E015E080912C0690912D06DC01ED91FB
:10056000FC910084F185E02D0995892B09F4BAC02E
:1005700060E070E0CB010E94360220914A06809133
:100580002C0690912D06DC01ED91FC910284F385FF
:10059000E02D21110BC00995809336068E37D1F6D8
:1005A00080914A068F5F80934A06D4CF0995909137
:1005B0004A06E92FF0E0E45DF94F8287923069F155
:1005C000993089F1913059F58F3F49F110924A06DF
:1005D000C0934C0610924F0610924E06C0935006E0
:1005E000109251060E946902681979098A099B09CB
:1005F000C616D706E806F90608F0C1C010924A06EA
:1006000010924C0610924F0610924E0681E0809395
:1006100050061092510680E06AC08630B9F69F5F9E
:1006200090934A0697CF8F3E89F6E09139068091E4
:100630003B0690E040913C0650E060913D0670E042
:10064000762F662720913E06620F711D2091380695
:100650002E0F3327331FF0913A062F0F311D280F2D
:10066000391F240F351FF09137062F0F311D31959B
:10067000219531096217730709F0A8CF10924A0635
:10068000E13419F4109251062DC0E0934D06982FD5
:100690008827480F591F50934F0640934E06EA5340
:1006A000E63108F063C0F0E0E85AFC4F0C94331ACE
:1006B0009B03A5036E036E03B2038A03AF03B60365
:1006C000B203B203B203B203B203B203B203B20382
:1006D000B603B203B203B203B203B20310934C06E3
:1006E000C093500680915006882309F47BCFDF9198
:1006F000CF911F910F91FF90EF90DF90CF90BF901F
:10070000AF909F908F907F906F905F904F903F90B1
:100710002F90089540FF03C0D0934C06E1CF41FFD6
:1007200003C000934C06DCCF43705527452BD1F214
:1007300070924C06D5CF40FF03C060924C06D0CFDC
:1007400041FFD0CF50924C06CBCF40FF03C0409228
:100750004C06C6CF41FFC6CF30924C06C1CF209287
:100760004C06BECFBBE0B0934C06BACFC0934C064C
:1007700010924F0610924E06C093500683CF60E051
:1007800070E0CB010E943602E5CE80934306272F0E
:1007900030E0709345066093460640914206909182
:1007A0004106490F5527551F840F952F911D4091E4
:1007B0004406840F911D820F931F680F792F711DBE
:1007C00071956195710970934706609348064423BB
:1007D00079F080915106882359F060E070E0CB01F8
:1007E0000E94360260E070E0CB010E947502F1CFFA
:1007F00080912C0690912D06DC01ED91FC910280F8
:10080000F381E02D4AE050E060E476E009950E9433
:10081000690260932E0670932F06809330069093A2
:1008200031068091440691E0811101C090E09093DF
:100830005106811106C06AE070E080E090E00C94FF
:100840003602089570E060E00C94C50383E40E94D2
:10085000220460E070E0CB010E947502882339F029
:100860001092500680914E0690914F0608958FEF9A
:100870009FEF0895AF92BF92CF92DF92EF92FF92D7
:100880000F931F93CF93DF936C017B018B01040FB8
:10089000151FEB015E01AE18BF08C017D10759F054
:1008A0006991D601ED91FC910190F081E02DC60196
:1008B0000995892B79F7C501DF91CF911F910F9190
:1008C000FF90EF90DF90CF90BF90AF900895FC0124
:1008D000538D448D252F30E0842F90E0821B930BA5
:1008E000541710F0CF96089501970895FC01918D4B
:1008F000828D981761F0A28DAE0FBF2FB11D5D964E
:100900008C91928D9F5F9F73928F90E008958FEFEF
:100910009FEF08950F931F930E946902609337051C
:10092000709338058093390590933A058FE295E0EE
:100930000E94760497FF1DC00E946902009137054E
:10094000109138052091390530913A05601B710BE3
:10095000820B930B009133051091340520913505DE
:10096000309136056017710782079307F8F28FEF11
:100970009FEF1F910F910895FC01918D828D981723
:1009800031F0828DE80FF11D858D90E008958FEF95
:100990009FEF0895FC01918D228D892F90E0805C5E
:1009A0009F4F821B91098F73992708958FE295E0DD
:1009B0000E94CA0421E0892B09F420E0822F0895C7
:1009C00080E090E0892B29F00E94D60481110C94DC
:1009D00000000895FC01A48DA80FB92FB11DA35AE2
:1009E000BF4F2C91848D90E001968F739927848F4F
:1009F000A689B7892C93A089B1898C918370806472
:100A00008C93938D848D981306C00288F389E02D12
:100A100080818F7D80830895EF92FF920F931F93C3
:100A2000CF93DF93EC0181E0888F9B8D8C8D9813A1
:100A30001AC0E889F989808185FF15C09FB7F894AD
:100A4000EE89FF896083E889F989808183708064F9
:100A500080839FBF81E090E0DF91CF911F910F9144
:100A6000FF90EF900895F62E0B8D10E00F5F1F4F53
:100A70000F731127E02E8C8D8E110CC00FB607FC62
:100A8000FACFE889F989808185FFF5CFCE010E94F0
:100A9000EA04F1CFEB8DEC0FFD2FF11DE35AFF4F70
:100AA000F0829FB7F8940B8FEA89FB89808180627E
:100AB000CFCFCF93DF93EC01888D8823B9F0AA893B
:100AC000BB89E889F9898C9185FD03C0808186FD09
:100AD0000DC00FB607FCF7CF8C9185FFF2CF808158
:100AE00085FFEDCFCE010E94EA04E9CFDF91CF91DF
:100AF000089520914404309145042817390771F472
:100B00009091420480914304981741F0E09142048F
:100B1000F0E0EE5FFB4F808190E008958FEF9FEF54
:100B200008950895EF92FF920F931F93CF93DF9351
:100B3000DC015C96ED90FC905D97E114F10479F492
:100B400081E090E013969C938E93129790E080E062
:100B5000DF91CF911F910F91FF90EF9008955196E3
:100B6000ED91FC91529750968C915097982F9095BB
:100B70000FB75E962C915E97122F127021FD609533
:100B8000F8942081112319F1282B2083E701219764
:100B9000F1F728E0462F50E0308160FF1AC0382B73
:100BA0003083E7012197F1F7BA01759567952150D8
:100BB00089F7112381F08081892380830FBF5C96A0
:100BC0008D919C910197F1F781E090E0C1CF2923AD
:100BD000DCCF3923E5CF9081892BEFCF20914404DE
:100BE000309145042817390761F48091430420911E
:100BF000420490E0805C9F4F821B91098F7399277C
:100C0000089590E080E008952091440430914504D7
:100C100028173907B9F4909142048091430498173A
:100C200089F0E0914204F0E0EE5FFB4F808120917B
:100C3000420430E02F5F3F4F2F733327209342044D
:100C400090E008958FEF9FEF089590E080E0089581
:100C5000FC019B0124513109C90163E470E00E9449
:100C60001F1AE617F70758F0C90168E270E00E9402
:100C70001F1A6F5F7F4F81E06E177F0708F480E0D7
:100C800008952F923F924F925F926F927F928F9230
:100C90009F92AF92BF92CF92DF92EF92FF920F930B
:100CA0001F93CF93DF9300D000D000D0CDB7DEB735
:100CB000382E6D835A013C832B8348012E2C9A01D8
:100CC0002C5E3F4FC90163E470E00E941F1A8B0144
:100CD000C90168E270E00E941F1A9B012F5F3F4F1D
:100CE0003A8329835D81452F50E0435F5F4F8091B8
:100CF000000690910106480F591F5E834D83412CD9
:100D0000512C32014394C12CD12C76013320A1F116
:100D1000ED81FE81A814B904D9F481816B817C81B5
:100D200090E00E942806222001F1CC0CDD1CEE1C74
:100D3000FF1C882311F06894C0F8440C551C661CF5
:100D4000771C3A948D819E8102969E838D83DECF9F
:100D5000208130E02017310730F081E049815A814D
:100D60004217530700F780E0DECF882331F3C42811
:100D7000D528E628F728E1CFC092DA05D092DB0526
:100D8000E092DC05F092DD0581E026960FB6F8943E
:100D9000DEBF0FBECDBFDF91CF911F910F91FF90AE
:100DA000EF90DF90CF90BF90AF909F908F907F900B
:100DB0006F905F904F903F902F900895EF920F9318
:100DC0001F93FC01862F642FEE24E39497859111E5
:100DD00001C0E12C0385148521853285478150852A
:100DE0000E9441061F910F91EF9008950F931F935A
:100DF000CF93DF938C01C0910006D09101062E8520
:100E000030E0DC011396ED91FC917496CF0163E420
:100E100070E00E941F1A26173707A8F0CF0168E27A
:100E200070E00E941F1A6F5F7F4F6217730758F0C0
:100E3000F801658176818F8590E0DF91CF911F91D8
:100E40000F910C94280680E0DF91CF911F910F91B4
:100E50000895FC0101900020E9F73197AF01481B8C
:100E6000590BBC018FE295E00C943A048F929F924B
:100E7000AF92BF920F931F93CF93DF93CDB7DEB79F
:100E8000A1970FB6F894DEBF0FBECDBF19A24230B6
:100E900008F44AE08E010F5D1F4F842E912CB12C77
:100EA000A12CA50194010E94AC19E62FB901CA0139
:100EB000EA30F4F4E05DD801EE938D01232B242B6E
:100EC000252B79F790E080E0109719F0CD010E9472
:100ED0002907A1960FB6F894DEBF0FBECDBFDF91F4
:100EE000CF911F910F91BF90AF909F908F900895D9
:100EF000E95CE1CF0C942907CF93DF934AE00E948D
:100F00003607EC0188E392E00E9429078C0F9D1FB1
:100F1000DF91CF910895CF92DF92EF92FF92CF931E
:100F2000DF936C01990FEE08FF08F7FE1FC06DE21A
:100F30008FE295E00E940C05EC0166277727CB0134
:100F40006C197D098E099F094AE00E943607C80F77
:100F5000D91F88E392E00E9429078C0F9D1FDF9123
:100F6000CF91FF90EF90DF90CF9008954AE0C701B6
:100F7000B6010E943607EC01ECCFCF93DF93FC0162
:100F800044815581608171818FE295E00E943A042D
:100F9000EC0188E392E00E9429078C0F9D1FDF91EE
:100FA000CF910895CF93DF930E942907EC0188E346
:100FB00092E00E9429078C0F9D1FDF91CF91089529
:100FC0000F931F93CF93DF938C01D0E0C0E0F80123
:100FD000EC0FFD1F6491662341F08FE295E00E94C3
:100FE0000C05892B11F02196F2CF88E392E00E9444
:100FF00029078C0F9D1FDF91CF911F910F910895AD
:1010000080915206882319F060E00C94B2012D986B
:101010000895882349F080915206882319F061E0F1
:101020000C94B2012D9A08950C9400084F925F928F
:101030006F927F928F929F92AF92BF92CF92DF92E8
:10104000EF92FF92CF93DF93CDB7DEB72D970FB618
:10105000F894DEBF0FBECDBF7C010E9411026983F0
:101060007A838B839C834B015C011D86B0E0A0E0FA
:101070009701AD0125523109410951092D833E8364
:101080004F8358879701AD01275031094109510914
:1010900029873A874B875C87F89461E080915406F2
:1010A0000E94B201809157069091580682309105B6
:1010B00038F0880F991F880F991F05970197F1F74E
:1010C00060E0809154060E94B20178943D85311110
:1010D00007C08091530681FF03C081E00E94090888
:1010E0008091550690915606880E991EA11CB11C40
:1010F000F8940E9411022B013C016B0149815A8135
:10110000C41AD50AF12CE12C8D819E81AF81B8855E
:10111000C816D906EA06FB062CF08091530681FD1D
:101120000E94000829853A854B855C85C216D30646
:10113000E406F506B4F078942D960FB6F894DEBF69
:101140000FBECDBFDF91CF91FF90EF90DF90CF909A
:10115000BF90AF909F908F907F906F905F904F90D7
:10116000089531E03D87481459046A047B0408F46B
:10117000C0CF92CFCF92DF92EF92FF928AE190E0C0
:10118000909356068093550685E090E0909358061C
:101190008093570661E0809154060E94E00180E050
:1011A00093E20E9416080E9411026B017C0124E068
:1011B000C21AD108E108F1080E9411026C197D09D8
:1011C0008E099F09603C784081059105A8F380E372
:1011D00092E0FF90EF90DF90CF900C941608CF93A1
:1011E000DF93EC0188819981009711F00E94D51A54
:1011F000198218821D821C821B821A82DF91CF9174
:101200000895FC0180819181009711F00C94D51A0A
:101210000895FC0124813581232B39F421E0FB0161
:101220008081882349F020E007C0808191810E945D
:10123000241C21E0892BB9F7822F08950F931F9367
:10124000CF93DF93EC0188819981009759F02A812F
:101250003B812617370730F081E0DF91CF911F9156
:101260000F9108958B016F5F7F4F0E945E1B009767
:1012700059F0998388831B830A832C813D81232B1A
:1012800059F7FC011082E8CF80E0E7CFEF92FF92A0
:101290000F931F93CF93DF936115710541F480E0A5
:1012A000DF91CF911F910F91FF90EF90089541151D
:1012B0005105B1F07B01EC010C811D81040F151F5C
:1012C000B8010E941E09882351F3288139818C813D
:1012D0009D81B701820F931F0E942D1C1D830C83DB
:1012E00081E0DECFCF93DF93EC01FB014481558198
:1012F000608171810E944609811103C0CE010E9464
:10130000EF08CE01DF91CF910895EF92FF920F93F6
:101310001F93CF93DF93EC017B018A01BA010E94F6
:101320001E0981110BC0CE010E94EF08CE01DF9192
:10133000CF911F910F91FF90EF9008951D830C8323
:10134000B701888199810E942D1CF0CFFB0101908B
:101350000020E9F73197AF01461B570B0C94850924
:101360000F931F93CF93DF93CDB7DEB762970FB67E
:10137000F894DEBF0FBECDBF8C01CB01F801118206
:10138000108213821282158214824AE0BE016F5FBE
:101390007F4F0E945219BE016F5F7F4FC8010E94AC
:1013A000A60962960FB6F894DEBF0FBECDBFDF91DF
:1013B000CF911F910F910895FC0111821082138229
:1013C000128215821482FB0101900020E9F7319707
:1013D000AF01461B570B0C9485091F920F920FB655
:1013E0000F9211242F933F938F939F93AF93BF93AB
:1013F00080914C0490914D04A0914E04B0914F0403
:1014000030914B0423E0230F2D3758F50196A11D91
:10141000B11D20934B0480934C0490934D04A093F2
:101420004E04B0934F048091500490915104A091C8
:101430005204B09153040196A11DB11D8093500434
:1014400090935104A0935204B0935304BF91AF9171
:101450009F918F913F912F910F900FBE0F901F90F2
:10146000189526E8230F0296A11DB11DD2CF1F9219
:101470000F920FB60F9211242F933F934F935F93C8
:101480006F937F938F939F93AF93BF93EF93FF934C
:101490008FE295E00E94EA04FF91EF91BF91AF9136
:1014A0009F918F917F916F915F914F913F912F917C
:1014B0000F900FBE0F901F9018951F920F920FB6AE
:1014C0000F9211242F938F939F93EF93FF93E091AB
:1014D0003F05F09140058081E0914505F09146057A
:1014E00082FD1BC09081809148058F5F8F73209192
:1014F0004905821741F0E0914805F0E0E15DFA4FBF
:10150000958F80934805FF91EF919F918F912F9137
:101510000F900FBE0F901F9018958081F4CF1F92EF
:101520000F920FB60F9211242F933F934F935F9317
:101530006F937F938F939F93AF93BF93EF93FF939B
:10154000E0914404F0914504309749F0A685B785B1
:101550008585968D91FF14C09C918923A1F4FF91FC
:10156000EF91BF91AF919F918F917F916F915F911B
:101570004F913F912F910F900FBE0F901F90189594
:101580009C91892361F7A389B4899C918589809571
:1015900089238C93868997890197F1F7608D718DE6
:1015A000A685B785558538E020E0CB010197F1F796
:1015B000822F90E095958795282F4C91452309F02F
:1015C0002068315091F7868D81FD209580914304EC
:1015D00090E001968F73992730914204381799F063
:1015E000A0914304B0E0AE5FBB4F2C9380934304C3
:1015F000828D938D0197F1F7A389B4898C91958998
:10160000892B8C93ACCF868D8160868FF1CF1F9212
:101610000F920FB60F9211242F933F934F935F9326
:101620006F937F938F939F93AF93BF93CF93EF93DA
:10163000FF93E0915C04F0915D04C08180915E04B1
:10164000C82380915F0490916004019649F08091D5
:101650005F049091600401969093600480935F040E
:1016600080915A0481111DC0C11176C080915F0420
:1016700090916004813A910578F010926304809112
:101680005F0490916004909366048093650481E008
:101690008093640480935A041092600410925F0453
:1016A0005BC080915A04813099F4CC2309F454C072
:1016B00080915F0490916004E091640491E09E0F3A
:1016C00090936404F0E0E65AFB4F858782E0E2CF16
:1016D00080915A04823009F05AC0C11120C0E091B3
:1016E0006404E83C70F081E08093630483E08093BD
:1016F0005A04E0916104F0916204309769F209950F
:10170000CBCF80915F049091600491E09E0F909305
:101710006404F0E0E65AFB4F858781E0BBCF8091FF
:101720005F0490916004813A9105B0F08091650466
:101730009091660490938606809385068091640458
:101740008093840683E080935A04E0916104F091D1
:101750006204309709F009958091530680FF05C017
:1017600081E0C11180E00E940908FF91EF91CF91C3
:10177000BF91AF919F918F917F916F915F914F91A9
:101780003F912F910F900FBE0F901F901895809151
:101790005A04833009F7C111DFCF7ECFDF92EF9279
:1017A000FF920F931F93CF93DF93EC01D62E8A0104
:1017B0007901F0E090E080E030E0E0E0DE01AE0FA3
:1017C000B11D2C91FF5F222339F0320F2E9F800D27
:1017D000911D11241C92F0E03323B9F0DE1611F0B4
:1017E000F23098F0232F2695820F911D632F70E021
:1017F0000E941F1ADE01A60FB11D3C93D8013C9137
:1018000031110FC06C9390E080E0EF5FDE16B0F610
:1018100081E0DF91CF911F910F91FF90EF90DF90CA
:101820000895D7013C91332369F380E0F2CFEAE5D4
:10183000F4E0DC019F96FC93EE939E97118281E089
:10184000848389E290E093838283509810925206B9
:101850000895CF92DF92EF92FF921092320510928C
:10186000310598EEC92E93E0D92EE12CF12CC092CF
:101870003305D0923405E0923505F092360588E1C3
:1018800092E09093300580932F0585EC90E0909343
:101890003C0580933B0584EC90E090933E0580935B
:1018A0003D0580EC90E09093400580933F0581ECEE
:1018B00090E0909342058093410582EC90E09093F4
:1018C00044058093430586EC90E090934605809311
:1018D0004505109248051092490510924A0510924C
:1018E0004B0589E596E00E94170C10925406109261
:1018F000520684EF91E0A0E0B0E08093320690932E
:101900003306A0933406B09335068AE0E6EFF1E0A3
:10191000A0E4B6E001900D928A95E1F710924A0694
:1019200082E080934B06109250061092510610925E
:10193000100610920F06C0921106D0921206E09285
:101940001306F09214068AE292E090930E068093BA
:101950000D0610922406109223061092260610926D
:101960002506109228061092270610922A06109239
:10197000290660912B066E7F6D7F60932B0666951E
:10198000617081E0682783E00E94B20161E083E03A
:101990000E94E001E6E1F1E0E491E0931D06E2E05F
:1019A000F1E0E491F0E0EE0FFF1FEB50FF4F859167
:1019B000949190931F0680931E0660E082E00E943F
:1019C000E00180912B0681FD04C061E082E00E946D
:1019D000B20182E080931906E5E1F1E0E491E09341
:1019E0001A06E1E0F1E0E491F0E0EE0FFF1FE551AF
:1019F000FF4F8591949190931C0680931B0682ED76
:101A000095E00E94170C6AE372E08CEC95E0FF9081
:101A1000EF90DF90CF900C94DC09CF93DF93CDB79C
:101A2000DEB7C854D1090FB6F894DEBF0FBECDBFE4
:101A3000789484B5826084BD84B5816084BD85B5A9
:101A4000826085BD85B5816085BD80916E008160B5
:101A500080936E001092810080918100826080935B
:101A6000810080918100816080938100809180005D
:101A70008160809380008091B10084608093B10088
:101A80008091B00081608093B00080917A00846082
:101A900080937A0080917A00826080937A008091AE
:101AA0007A00816080937A0080917A0080688093C8
:101AB0007A001092C100E0913F05F091400582E06C
:101AC0008083E0913B05F0913C051082E0913D055B
:101AD000F0913E058FEC808310924705E09143051D
:101AE000F091440586E08083E0914105F091420544
:101AF000808180618083E0914105F0914205808181
:101B000088608083E0914105F09142058081806882
:101B10008083E0914105F091420580818F7D808333
:101B20008DE080935B0480E280935E0483E290E02A
:101B300090935D0480935C042598109252060E9455
:101B4000C0008BE392E00E94D2070E94C000109276
:101B5000280610922706109226061092250610924B
:101B60002406109223068DE991E090932A06809333
:101B7000290690911906963108F047C02DEB30E008
:101B800030932406209323062BE931E03093260678
:101B9000209325062CE231E0309328062093270677
:101BA0002091680084E0983048F031E09E3008F4DD
:101BB00030E081E001C0880F3A95EAF7822B8093EC
:101BC00068002DE630E0983050F02BE630E09E3093
:101BD00030F02CE630E0963110F030E020E0309329
:101BE000210620932006292F30E0983008F06AC0A3
:101BF00081E001C0880F9A95EAF7809322068091D0
:101C0000290690912A060197F1F780912706909175
:101C10002806892B49F1E0914404F091450426E01F
:101C2000ED30F20709F1309739F0A389B4899C911E
:101C30008589809589238C9380912B068E7F809354
:101C40002B0610924304109242048DE096E090938C
:101C5000450480934404E0912006F09121068081A0
:101C600090912206892B80830DE016E0FF24F394E7
:101C700010932D0600932C06F09244068CE00E94EF
:101C8000220460ED77E080E090E00E94750268EC4D
:101C900070E080E090E00E94360210925006809141
:101CA0004C068430E1F08930D1F08CEB90E00E945A
:101CB000E0078BE990E00E94E0078EE790E00E9449
:101CC000E007D6CF9E3040F42850310981E001C0B2
:101CD000880F2A95EAF791CF2E503109F7CF88E681
:101CE00090E00E94E00761E070E086E00E94C5039A
:101CF00066E374E083E00E94C50310924A0468EE34
:101D000073E080E090E00E943602CE0101966C0103
:101D100030E2232E312C0E948E010197F9F480913C
:101D20004A0481111BC08CE492E00E94D20768E54E
:101D300072E080E090E00E9436020E948E010197DE
:101D400069F488E792E00E94D20781E00E942204B1
:101D500068E572E080E090E00E9436028FE295E054
:101D60000E94CA04181619060CF046C06AE372E015
:101D7000CE01CF960E94DC090E948A0497FD0DC017
:101D80008A30910551F089831A8241E050E0B60112
:101D9000CE01CF960E944609EFCF1AAE19AE1CAE07
:101DA0001BAE1EAE1DAE21966EAD7FAD21976115A7
:101DB000710541F025964EAD5FAD2597CE01C996D0
:101DC0000E94850962EA72E0CE01C9960E94090963
:101DD000882309F480C08DE00E94220482EA92E008
:101DE0000E94D20710924A04CE01C9960E940109AE
:101DF000CE01CF960E94010980915A04833011F0E0
:101E00000C94431880916504909166049093FF05AB
:101E10008093FE05809164048093FD0580916304A6
:101E2000882309F43BC180E48093FC051092D3051C
:101E30001092D2051092D7051092D6051092D505B2
:101E40001092D4051092DA051092DB051092DC0591
:101E50001092DD051092FB051092FA058091FC05A9
:101E600086FD42C29091FD05892F8F7B843009F059
:101E7000A1C1E0910006F0910106868586588C3557
:101E800008F098C18785943009F02FC181528831BC
:101E900008F090C180898850883008F08BC181E0BB
:101EA0008093FC0580910406909105069093D505DA
:101EB0008093D40580910806909109069093D705E8
:101EC0008093D60580910206909103069093D305E6
:101ED0008093D20502C268EA72E0CE01C9960E94E0
:101EE0000909882359F08EE00E94220488EA92E0D2
:101EF0000E94D20781E080934A0476CF6EEA72E0B6
:101F0000CE01C9960E940909882341F081E00E9410
:101F100022048EEA92E00E94D20766CF63EB72E061
:101F2000CE01C9960E940909182F882331F082E05A
:101F30000E94220483EB92E0EECF68EB72E0C601D0
:101F40000E94DC094D815E818DAD9EAD84179507A1
:101F500078F089AD9AAD009759F069817A81611561
:101F6000710531F00E94341C11E0892B09F010E05A
:101F7000C6010E940109112309F45FC0EDACFEAC5B
:101F800095E0A92EB12C95E0E916F10420F0570157
:101F900025E0E22EF12C6AE372E0C6010E94DC0922
:101FA0000DAD1EADE016F106D0F4A016B10608F492
:101FB0008501E9ADFAADE00FF11FB080108269AD87
:101FC0007AAD6E0D7F1DC6016115710599F10E94F4
:101FD000A60989AD9AAD080F191FD801BC92898155
:101FE0009A81812C912C5401009719F00E942B1991
:101FF0004B01C6010E940109B40183E00E94C503A0
:10200000B401CE01C3960E94B0096EEB72E0C60126
:102010000E94DC09BE016D5C7F4FC6010E947209FF
:102020000E94BD07C6010E940109CE01C3960E940D
:102030000109DACE0E94EF08CCCF6DEC72E0CE0140
:10204000C9960E9409098823A1F00E9426044E9790
:102050006CF484E00E9422040E942604BC01CE019C
:10206000C3960E94B0096FEC72E0D1CF8FED92E081
:1020700052CF6DEE72E0CE01C9960E940909882305
:1020800051F00E9426041816190614F485E0E2CFD8
:102090008FEE92E040CF8DEF92E03DCF1092FC05A5
:1020A0008091D2059091D305909303068093020608
:1020B0008091D6059091D705B0E0A0E08093080606
:1020C00090930906A0930A06B0930B068091D4055D
:1020D0009091D505B0E0A0E08093040690930506AA
:1020E000A0930606B0930706A1CE82548F3208F063
:1020F00061C043E060E28CED91E00E94DE0688233F
:1021000009F458C02091DA059091DB056091DC0557
:102110008091DD05462F50E05093D7054093D605BA
:10212000422F592F4E3EB7E85B0709F523E030E018
:102130003093D3052093D20590E09093D5058093FA
:10214000D4053092FB052092FA058AE795E00E94BB
:10215000D6008091FC0580FFC0C029E030E03093BC
:10216000D3052093D20580628093FC05B6C090957C
:10217000291310C030E03093D5052093D405982F53
:10218000909569130CC088E090E09093D3058093FC
:10219000D205D7CF5093D5054093D405F0CF2AE090
:1021A00030E03093D3052093D2056093D605809319
:1021B000D705C7CF8091FD05843609F09AC088EC19
:1021C00091E00E94F606882309F493C043E060E1A1
:1021D00088EC91E00E94DE06882309F48AC0B09062
:1021E000DA050B2D1091DB05BBE0EB2EF12C023054
:1021F000E0E21E07F9F0AEE0EA2EF12C0A3AFAE529
:102200001F07C1F0FDE0EF2EF12C043522E3120789
:1022100089F0EFE0EE2EF12C033031E0130751F09E
:1022200080E1E82EF12C03328BEC180719F07CE0EA
:10223000E72EF12C43E260E288EC91E00E94DE069A
:10224000882309F456C0B1268091DA059091DB0508
:10225000A091DC05B091DD059C0164E036952795E1
:102260006A95E1F73093D5052093D4052A2F30E005
:102270003093D7052093D605382F3A2739272B2DB1
:1022800022952F702B252F70482F4F70241719F08F
:1022900024E02093FC05ECE0EE16F10449F42091D3
:1022A000FC0520612093FC051093D9050093D80507
:1022B0003B1729F08091FC0584608093FC0580E346
:1022C00090E09093FB058093FA05F092D305E0929D
:1022D000D2058AE397E00E94D6008091D2059091C2
:1022E000D305089709F429C684E193E00E94D20738
:1022F000BEC68091FD05803209F06EC041E06FE0FE
:1023000084EB91E00E94DE06882309F465C0E09129
:102310000006F091010684A58450853008F05CC069
:102320008091DA059091DB05A091DC05B091DD0587
:102330009C012F7133273093D5052093D40555E0A8
:10234000B695A795979587955A95D1F7292F23701C
:10235000AC0155275093D7054093D6054091FE0513
:102360005091FF054536544080F530910C063F5F93
:1023700030930C06323018F031E03093FC0590FFBA
:1023800014C03091FC05432F42604093FC054091FE
:102390000806509109068095841719F0366030932D
:1023A000FC054093D6055093D7052150223088F480
:1023B00087E190E09093D3058093D2058FE090E081
:1023C0009093FB058093FA0588CF10920C0622307B
:1023D00079F384E090E0EECF80E091E00E94F60691
:1023E000882309F448C08091FD058A3129F08A329A
:1023F00019F0803209F03FC090E0BC0161507109D2
:1024000077FDBC017595679543E080E091E00E94FF
:10241000DE06882381F18091DA059091DB05A09199
:10242000DC05B091DD059C012F7733273093D7056C
:102430002093D60537E0B695A795979587953A9559
:10244000D1F79093D5058093D4052091FD0530E018
:10245000C901019797FDC901959587959093FB0553
:102460008093FA0588E190E09093D3058093D2059C
:1024700080EE91E030CF81E08093590429E733E08A
:102480003093570420935604109258040E94E3009E
:10249000813009F063C0812C912C540110E090919F
:1024A000FD05809159048917E0F40E94E300082F8C
:1024B0000E94E30001110BC0813009F04FC0880C6D
:1024C000991CAA1CBB1C689480F81F5FE8CF0130E0
:1024D00009F044C0811142C0880C991CAA1CBB1C85
:1024E000F4CF812F90E09093FB058093FA058092C2
:1024F000DA059092DB05A092DC05B092DD05882D0F
:102500008F7390E09093D7058093D6059401B6E041
:1025100036952795BA95E1F72F7133273093D50576
:102520002093D405940122273071232B31F4805C51
:102530009F4F9093D7058093D60580E88093FC0544
:1025400093FE03C088E88093FC0581E190E09093BE
:10255000D3058093D2058FEC99E0BDCEE0910006C3
:10256000F0910106868588528D3108F041C087853B
:102570008C508B30E8F583E0809359048CEB91E02C
:102580009093570480935604109258040E94E300DD
:10259000813071F50E94E30081112AC0812C912CB9
:1025A000540110E09091FD0580915904891708F0BD
:1025B0007FC00E94E300F82E1330B1F00E94E300C8
:1025C000082F133021F40E94E300081311C031E0FA
:1025D000F31264C001110CC0880C991CAA1CBB1C0E
:1025E000689480F81F5FDECF0E94E300F81631F395
:1025F0009091FD059C3311F09430B1F4E091000608
:10260000F09101068685282F30E02638310560F0EC
:10261000233E310508F499C08E5868EB7BE007E053
:1026200010E0823608F495C08091FD05823209F4ED
:10263000F3C0843209F020C188E291E00E94F606DE
:10264000882309F419C143E060E188E291E00E9427
:10265000DE06882309F410C18091DA059091DB052C
:10266000A091DC05B091DD05492F5A2F6B2F7727FC
:102670005093D7054093D60599279093D50580931D
:10268000D40580E190E09093FB058093FA0525E066
:1026900030E03093D3052093D2051FCEF110A8CFA0
:1026A000013009F0A5CF880C991CAA1CBB1C9ACF3D
:1026B000812F90E09093FB058093FA058092DA05D4
:1026C0009092DB05A092DC05B092DD05282D30E06C
:1026D000892D90E0133200F540E84093FC053093DB
:1026E000D7052093D6059093D5058093D405A0FEF9
:1026F00003C088E88093FC05153128F08091FC0523
:1027000080618093FC0582E190E09093D3058093F3
:10271000D20583E79AE0DFCD40E94093FC05309392
:10272000D7052093D6059093D5058093D405C50190
:102730009F739093D9058093D805B7FE03C088E9AD
:102740008093FC0583E190E0E0CF68E670E106E06D
:1027500010E08785943059F48D51863108F064CFAC
:1027600080898750883008F05FCF81E899CB90E06E
:102770000E942806882309F457CF43E06CE184E1E6
:1027800091E00E94DE06882309F44ECF80E8809312
:10279000FC054091DA055091DB056091DC057091F4
:1027A000DD05DB01CA0124E0B695A79597958795CD
:1027B0002A95D1F79C019093D7058093D605DB012C
:1027C000CA01E4E1B695A79597958795EA95D1F763
:1027D0009093D5058093D40584E090E0E0E0F22F5B
:1027E000FF70EF0FF4E036952795FA95E1F7019722
:1027F000B1F74E274F70552766277727452B462B75
:10280000472B19F084E88093FC051093D3050093BF
:10281000D2058CE190E0D4CD8091FE059091FF052A
:102820008C3E9C4508F059CDE0910006F0910106E0
:1028300086858850873008F050CD86A5885087302F
:1028400008F04BCD81E08093FC05809104069091C7
:1028500005069093D5058093D40580910806909144
:1028600009069093D7058093D605E5E0F0E0F09354
:10287000D305E093D20531CD1091FD05812F8F7DD9
:10288000843419F0163009F07EC08CE391E00E9488
:10289000F606882309F477C01630B1F481E28093FC
:1028A000FC0580910406909105069093D5058093D0
:1028B000D40580910806909109069093D7058093DE
:1028C000D60585E190E002CB43E060E28CE391E045
:1028D0000E94DE06882309F456C08091DA05109123
:1028E000DC050091DD059091DB058093D405909384
:1028F000D5059091FD05943651F543E460E18CE3F4
:1029000091E00E94DE068823F1F18091DA05909132
:10291000DB050095101731F09095981719F094E0A9
:102920009093FC05982F812F9093D7058093D6051F
:1029300080E390E09093FB058093FA0586E190E0B8
:102940009093D3058093D2058EEB9AE0C4CC902F60
:102950009095191312C0212F30E03093D7052093A2
:10296000D60590E09093D5058093D4053092FB0571
:102970002092FA0584E190E0E3CFC8019093D60558
:102980008093D705F3CF8091FD05843279F580E5FA
:1029900091E00E94F606882349F143E060E180E57A
:1029A00091E00E94DE06882309F11091DA058091FA
:1029B000DB058095181719F084E08093FC058DE6FF
:1029C00092E00E94D600812F90E09093D7058093EB
:1029D000D6051092D5051092D40580E190E0909331
:1029E000FB058093FA058EE190E070CA8091FD05A9
:1029F0008434C1F484E691E00E94F606882391F0C5
:102A000043E060E284E691E00E94DE06882351F014
:102A100080E88093FC053092FB052092FA058DE159
:102A200090E054CA88E791E00E94F6069091FD0577
:102A3000882309F455C0943209F052C043E060E1A4
:102A400088E791E00E94DE06882309F449C0E091FE
:102A50000006F091010680A98250843008F040C041
:102A600080E88093FC059091DA058091DB05292FA1
:102A7000382F482F42954F708F7054E03695279528
:102A80005A95E1F72F70392F3F709FE094279827D0
:102A90009227391719F094E89093FC056091FE0590
:102AA0007091FF05683F714128F49091FC05926098
:102AB0009093FC054093D4051092D505A0E18A9F20
:102AC000C0011124822B9093D7058093D60580E115
:102AD00090E09093FB058093FA058BE190E0F6C9B6
:102AE0008CE891E00E94F6069091FD05882369F13B
:102AF000943259F543E060E18CE891E00E94DE06F3
:102B0000882319F1E0910006F091010680A9885010
:102B10008730D8F48091DA059091DB0598279F3FA4
:102B2000A1F490E09093D7058093D60580E190E0E2
:102B30009093FB058093FA058AE190E09093D3058A
:102B40008093D20588ED94E0C6CB8091FD05803757
:102B500009F057C041E068E080EA91E00E94DE069B
:102B6000882309F44EC08091DA059091DB05A0918D
:102B7000DC05B091DD05892B8A2B8B2B09F041C038
:102B800041E16FE180EA91E00E94DE068823C9F10D
:102B90008090DA059090DB05A090DC05B090DD0513
:102BA0004FE461E180EA91E00E94DE06882349F16A
:102BB0009091DB058091DC058927982789279093E0
:102BC000D7058093D6058092DA059092DB05A09216
:102BD000DC05B092DD059092D5058092D405B092C7
:102BE000D905A092D8058CE190E09093D30580930D
:102BF000D20588E390E09093FB058093FA0580E886
:102C0000B3CA8091FD05823108F43EC192E3F6011A
:102C100011929A95E9F7409100065091010673E0F0
:102C200060E08250990B272F30E0281739079CF479
:102C3000240F351FD9011D962C91223308F024C191
:102C4000F601E20FF11D30813F5F3083621708F417
:102C5000622F7E5FE8CF26961FAE26971FAE9E019D
:102C6000215C3F4FAE014B5B5F4FC6010E94CE0B14
:102C7000882309F409C182E3F60111928A95E9F7E4
:102C80002091FD052250330B409100065091010622
:102C900074E060E0872F90E0821793079CF4840F24
:102CA000951FDC011D968C91823308F0EDC0F60172
:102CB000E80FF11D90819F5F9083681708F4682FDB
:102CC0007E5FE8CF19AE1BAA9E012D5C3F4FAE017F
:102CD000475C5F4FC6010E94CE0B882309F4D4C025
:102CE0008091FD058695BFEFB80F2796BFAF279758
:102CF000ABA8AA2021F0825027968FAF279727965E
:102D0000EFAD27972E2F30E03093FB052093FA0587
:102D1000C901019797FD4F9625E0959587952A95CE
:102D2000E1F729968FAF29976FAC611003C0AA20F5
:102D300009F4AAC099AD82E3989F20011124269638
:102D40008FAC2697889E40011124689E3001112483
:102D5000A89E50011124F3E02896FFAF2897F12C8C
:102D600027968FAD2797813208F080E29BA999239F
:102D700009F469C022E030E03093D3052093D205F6
:102D8000E12C84019501A40128966FAD28970E943B
:102D90004106882309F478C0B4E0FB9EF0011124B9
:102DA000E651FA4F8091DA059091DB05A091DC05A0
:102DB000B091DD0580839183A283B3832896EFAD24
:102DC0002897E05C2896EFAF28972796FFAD2797C6
:102DD000F0522796FFAF2797F39429962FAD2997A6
:102DE0002F1508F0BDCF80ED97E00E94D600E0914E
:102DF0000006F0910106268592E3299F9001112497
:102E00003093DF052093DE058785899FC00111245B
:102E10009093E1058093E0059092E7058092E605A6
:102E20005092E9054092E8056114710421F1A11462
:102E3000B104A1F47092E3056092E2055092E505B9
:102E40004092E4054ACAA1E0B0E0B093D305A09354
:102E5000D205E12C84019201A30196CFB092E50541
:102E6000A092E4059092E3058092E2057092E70556
:102E70006092E60532CA9092E3058092E205B09234
:102E8000E505A092E40529CAE091FD05E63008F4C5
:102E900024CA0091000610910106FF24F39425EC4A
:102EA0003DE94CE151E8F0E09AE0E92E6F2D70E049
:102EB000CB0102968E179F077CF5800F911FDC01D6
:102EC0001D968C91600F711FDB011D966C918E9D7C
:102ED0005001112498E0699FD0011124AA16BB0665
:102EE000C8F06E9DB0011124A8E08A9FC001112492
:102EF000BB24B3946817790710F482E0B82E63E915
:102F000071E080E091E00E949C199B01AC012B25AF
:102F1000F394CCCFB12CF3CF2093DA053093DB05BB
:102F20004093DC055093DD053092FB052092FA05B5
:102F30001092D3051092D205D0C90091D6051091F8
:102F4000D7050E9469022B013C0186E393E00E94B1
:102F50007A07C301B2010E947C0785E493E00E94D6
:102F60007A076091460470914704809148049091DB
:102F700049040E947C078091460490914704A091E7
:102F80004804B091490453014201881A990AAA0AD7
:102F9000BB0A87E593E00E947A07C501B4010E944D
:102FA0007C07E0E0F2E0F12CE12C8191919108178F
:102FB000190709F080C089E693E00E947A07C701EB
:102FC0000E948B07B9EE8B16B3E09B06A104B104F7
:102FD000B8F18091D0059091D105892B09F468C092
:102FE0008091CC059091CD05812C912C54010097B6
:102FF00019F00E942B194B018EE793E00E947A078B
:103000008CEC95E00E94BD078FE893E00E947A0760
:10301000C4010E948B07181419040CF044C08EE9F7
:1030200093E00E947A07C4010E948B07B40183E0F9
:103030000E94C5036AE372E08CEC95E00E94A60949
:10304000B701C6010E94B0094D815E8169817A8114
:103050008CEC95E00E944609C6010E94010940924D
:10306000460450924704609248047092490462E317
:1030700070E080E090E00E94360280915A04833034
:1030800011F410925A0480E090E0892B11F40C9412
:103090008B0E0E94D604882311F40C94880E0E9493
:1030A00000000C94850E85EB93E00E94D207C2CFFE
:1030B0008BEC93E0FACF2FEFE21AF20A3AE0E31634
:1030C000F10409F072CF8091D0059091D105892B40
:1030D000B1F189EE881683E09806A104B10478F175
:1030E0008091CC059091CD05812C912C54010097B5
:1030F00019F00E942B194B018EE793E00E947A078A
:103100008CEC95E00E94BD078FE893E00E947A075F
:10311000C4010E948B0718141904D4F48EE993E0BB
:103120000E947A07C4010E948B07B40183E00E94C9
:10313000C5036AE372E08CEC95E00E94A6090434B2
:10314000110559F482E00E94220483EB92E0CEC87C
:1031500085EB93E00E94D207ECCF0034110531F4E7
:1031600081E00E9422048EEA92E0C0C80334110577
:10317000C9F40E948E01892B59F48EE00E9422042A
:1031800088EA92E00E94D20781E080934A046FCFE0
:103190008DE00E94220489EE93E00E94D2071092F3
:1031A0004A0465CF0730110539F50E942604181628
:1031B0001906FCF485E00E9422040E942604BC014A
:1031C000CE01C3960E94B0096FEC72E0C6010E9466
:1031D000DC09BE016D5C7F4FC6010E9472090E942E
:1031E000BD07C6010E940109CE01C3960E940109D4
:1031F0003ECF8FEE92E07AC88EEE93E00531110556
:1032000009F074C80E9426044E9714F484E0D3CFCA
:103210008FED92E06BC88CEC95E00E9401098AE288
:1032200092E090930E0680930D0680914404909155
:1032300045048D50964071F4E0912006F0912106EE
:103240009081809122068095892380831092450485
:103250001092440408951F93FC0199278827BC010C
:10326000E89411911032E9F3193010F01E30C8F3D0
:103270001B3251F01D3249F4689406C00E945D195A
:10328000610F711D811D911D119110531A30B0F302
:103290003EF490958095709561957F4F8F4F9F4F2D
:1032A0001F910895BB274A3031F4992322F4BDE2DF
:1032B000909581959F4F0C947319592F482F372F54
:1032C000262F660F771F881F991F660F771F881F8D
:1032D000991F620F731F841F951F660F771F881F2A
:1032E000991F0895BB27FB015527AA27880F991F0F
:1032F000AA1FA41710F0A41B83955051B9F7A05D25
:10330000AA3308F0A95DA193009779F7B111B193A1
:103310001192CB010C948C19DC01FC01672F719187
:103320007723E1F7329704C07C916D9370836291AB
:10333000AE17BF07C8F30895DB018F939F930E94D8
:10334000CE19BF91AF91A29F800D911DA39F900DAB
:10335000B29F900D11240895A1E21A2EAA1BBB1B47
:10336000FD010DC0AA1FBB1FEE1FFF1FA217B30751
:10337000E407F50720F0A21BB30BE40BF50B661F67
:10338000771F881F991F1A9469F76095709580952B
:1033900090959B01AC01BD01CF0108950E94101AC8
:1033A000A59F900DB49F900DA49F800D911D112499
:1033B00008952F923F924F925F926F927F928F92D9
:1033C0009F92AF92BF92CF92DF92EF92FF920F93B4
:1033D0001F93CF93DF93CDB7DEB7CA1BDB0B0FB6BE
:1033E000F894DEBF0FBECDBF09942A88398848887B
:1033F0005F846E847D848C849B84AA84B984C88411
:10340000DF80EE80FD800C811B81AA81B981CE0F07
:10341000D11D0FB6F894DEBF0FBECDBFED010895EC
:10342000A29FB001B39FC001A39F700D811D112405
:10343000911DB29F700D811D1124911D0895AA1B2D
:10344000BB1B51E107C0AA1FBB1FA617B70710F08F
:10345000A61BB70B881F991F5A95A9F780959095C1
:10346000BC01CD010895EE0FFF1F0590F491E02DF2
:1034700009940F931F93CF93DF938230910510F43B
:1034800082E090E0E0919606F091970630E020E02F
:10349000B0E0A0E0309799F42115310509F44AC055
:1034A000281B390B24303105D8F58A819B816115A1
:1034B000710589F1FB0193838283FE0111C0408174
:1034C00051810281138148175907E0F048175907C5
:1034D00099F4109761F012960C93129713961C931F
:1034E0003296CF01DF91CF911F910F9108950093F4
:1034F000960610939706F4CF2115310551F0421727
:10350000530738F0A901DB019A01BD01DF01F80181
:10351000C1CFEF01F9CF9093970680939606CDCF58
:10352000FE01E20FF31F81939193225031093983F9
:103530002883D7CF2091940630919506232B41F410
:103540002091F2013091F301309395062093940677
:103550002091F0013091F1012115310541F42DB791
:103560003EB74091F4015091F501241B350BE091D9
:103570009406F0919506E217F307A0F42E1B3F0B7B
:103580002817390778F0AC014E5F5F4F24173507D5
:1035900048F04E0F5F1F5093950640939406819319
:1035A00091939FCFF0E0E0E09CCFCF93DF93009723
:1035B000E9F0FC01329713821282A0919606B09135
:1035C0009706ED0130E020E01097A1F420813181D1
:1035D000820F931F20919406309195062817390782
:1035E00009F061C0F0939506E0939406DF91CF91C6
:1035F0000895EA01CE17DF07E8F54A815B819E0155
:1036000041155105B1F7E901FB83EA8349915991CD
:10361000C40FD51FEC17FD0761F4808191810296DC
:10362000840F951FE90199838883828193819B830D
:103630008A83F0E0E0E012968D919C9113970097B9
:10364000B9F52D913C911197CD010296820F931FF0
:1036500020919406309195062817390739F630974E
:1036600051F51092970610929606B0939506A09386
:103670009406BCCFD383C28340815181840F951FB0
:10368000C817D90761F44E5F5F4F88819981480F51
:10369000591F518340838A819B81938382832115A3
:1036A000310509F0B0CFF0939706E09396069ECFD0
:1036B000FD01DC01C0CF13821282D7CFB0E0A0E0C1
:1036C000E4E6FBE10C94DB198C01009751F4CB018B
:1036D0000E94391A8C01C801CDB7DEB7E0E10C9425
:1036E000F719FC01E60FF71F9C0122503109E21780
:1036F000F30708F49DC0D901CD91DC911197C6174D
:10370000D70798F0C530D10530F3CE01049786175E
:10371000970708F3C61BD70B2297C193D1936D93DC
:103720007C93CF010E94D51AD6CF5B01AC1ABD0A9B
:103730004C018C0E9D1EA0919606B0919706512CBF
:10374000412CF12CE12C109731F580919406909149
:1037500095068815990509F05CC04616570608F0CD
:1037600058C08091F0019091F101009741F48DB71C
:103770009EB74091F4015091F501841B950BE81719
:10378000F90708F055C0F0939506E0939406F90107
:1037900071836083A0CF8D919C91119712966C904C
:1037A000129713967C901397A815B90559F56C01DB
:1037B00042E0C40ED11CCA14DB0420F1AC014A194A
:1037C0005B09DA011296159780F062827382518349
:1037D0004083D9016D937C93E114F10471F0D7011A
:1037E0001396FC93EE93129776CF22968C0F9D1F23
:1037F000F90191838083F301EFCFF0939706E09373
:10380000960669CF4816590608F42C017D01D301AC
:103810009ACFCB010E94391A7C01009749F0AE0182
:10382000B8010E941B1CC8010E94D51A870153CF02
:1038300010E000E050CFFB01DC0102C001900D92CE
:1038400041505040D8F70895FB01DC018D91019063
:1038500080190110D9F3990B0895FB01DC01019047
:103860000D920020E1F70895FB01DC01415050402A
:1038700030F08D910190801919F40020B9F7881B60
:10388000990B089510E0C5E9D0E004C0FE010E9444
:0E389000331A2196C639D107C9F7F894FFCF35
:10389E0018002860095802B0045802580258020055
:1038AE002D00000006002628236810F4012C06F4D3
:1038BE00012602806E00BA08050026E02070100E68
:1038CE00022A060E020E020041000000140026809D
:1038DE001180113002900630023002006E0000009E
:1038EE001E002638081C040E022A060E020E0200C6
:1038FE00320000001D0026220B220BEE026608EE9F
:10390E0002EE02806E0000001B00269E0002049E46
:10391E000029029E000701006E0000001A0026F624
:10392E0003BC050802BC050802D401004B000000D0
:10393E001C00261F015D033E023E021F015D03A017
:10394E006E00000004002604010C0304011C070491
:10395E00010C03006E0000000C0025800DC006B0A7
:10396E00011005B001B00100820000000800260021
:10397E002380113002900630023002006E00BA0829
:10398E000000980680007EFF06000100000000EF98
:10399E0016000C0018005E0008001C005A004200C1
:1039AE0052004A00000000000C053A046704590555
:1039BE00CA047604BC040000000092053A042506F1
:1039CE009105EE05040679050D0A004952726563EC
:1039DE00656976657220626567696E0042757379F6
:1039EE002070696E206973204849474820616E64D3
:1039FE00206E6F74207061757365642C2077616919
:103A0E0074696E672E2E2E00427573792070696E62
:103A1E00206973207374696C6C20484947482C20C8
:103A2E00706C6179696E67206E65787420736F6E45
:103A3E0067007374617274007061757365006E65F2
:103A4E007874007072657600706C61792000506C2D
:103A5E006179696E672066696C653A20002B0056A5
:103A6E006F6C756D652073657420746F3A20005607
:103A7E006F6C756D65206973206D6178002D005631
:103A8E006F6C756D65206973206D696E00556E6B78
:103A9E006E6F776E2053657269616C20636F6D6D0A
:103AAE00616E6400526563656976656420756E7338
:103ABE007570706F727465642049522070726F74E5
:103ACE006F636F6C2E0043757272656E742074692D
:103ADE006D653A20004C61737420707265737320AB
:103AEE0074696D653A200054696D65206469666677
:103AFE006572656E63653A20005265636569766529
:103B0E0064206469676974206B65793A2000456E9C
:103B1E007465726564206469676974733A20005431
:103B2E007261636B206E756D6265723A200054721D
:103B3E0079696E6720746F20706C61792074726180
:103B4E00636B3A2000496E76616C69642074726111
:103B5E00636B206E756D6265722E004E6F20646908
:103B6E006769747320656E74657265642070726522
:103B7E0076696F75736C792E00706C617900556E75
:103B8E006B6E6F776E20495220636F6D6D616E6440
:023B9E00000025
:00000001FF
