:100000000C9404010C942C010C942C010C94EB091D
:100010000C94EB090C94EB090C942C010C942C011E
:100020000C94630A0C942C010C942C010C942C015C
:100030000C942C010C942C010C942C010C942C018C
:100040000C9449090C942C010C94B9090C94930953
:100050000C942C010C942C010C942C010C942C016C
:100060000C942C010C942C014446506C61796572FF
:10007000204D696E69206F6E6C696E652E00322EA0
:10008000506C6561736520696E7365727420746865
:100090006520534420636172642100312E506C65E9
:1000A000617365207265636865636B2074686520A1
:1000B000636F6E6E656374696F6E2100556E616269
:1000C0006C6520746F20626567696E3A00180028BD
:1000D00060095802B004580258025802102D00005E
:1000E0000006002628236810F4012C06F4012602DD
:1000F000806E009A07050026E02070100E022A0686
:100100000E020E0200410000001400268011801132
:100110003002900630023002006E0000001E002601
:1001200038081C040E022A060E020E0200320000DD
:10013000001D0026220B220BEE026608EE02EE02E4
:10014000806E0000001A0026F603BC050802BC05FC
:100150000802D401004B0000001C00261F015D03B3
:100160003E023E021F015D03A06E00000004002657
:1001700004010C0304011C0704010C03006E0000C1
:10018000000C0025800DC006B0011005B001B001C3
:100190000082000000080026002380113002900633
:1001A00030023002006E009A070000000024002791
:1001B000002A0000000008000201000003040700FC
:1001C0000000000000000000000000250028002BB7
:1001D0000000000000230026002900040404040499
:1001E00004040402020202020203030303030301E4
:1001F00002040810204080010204081020010204BB
:1002000008102000530BE51711241FBECFEFD8E0D4
:10021000DEBFCDBF24E0A2E8B2E001C01D92A33D45
:10022000B207E1F712E0A0E0B1E0E8E1F6E302C0D6
:1002300005900D92A238B107D9F711E0C3E0D1E0E3
:1002400004C02197FE010E94F018C230D107C9F7FF
:100250000E942F0C0C94FF1A0C9400002091C004F3
:100260003091C1042817390728F48091BE048160B9
:100270008093BE040895833081F028F4813099F092
:100280008230A9F008958730A9F08830C9F0843011
:10029000B1F4809180008F7D03C0809180008F77C2
:1002A00080938000089584B58F7784BD089584B5C8
:1002B0008F7DFBCF8091B0008F778093B000089541
:1002C0008091B0008F7DF9CFCF93DF93E7EBF1E022
:1002D0008491E3EFF1E0D491EFEDF1E0C491CC2310
:1002E000A1F081110E943B01EC2FF0E0EE0FFF1F07
:1002F000EF52FE4FA591B491EC91ED2381E090E097
:1003000009F480E0DF91CF91089580E090E0FACF8A
:100310001F93CF93DF93282F30E0F901ED54FE4F68
:100320008491F901E151FE4FD491F901E552FE4F5C
:10033000C491CC23A9F0162F81110E943B01EC2F10
:10034000F0E0EE0FFF1FE953FE4FA591B4918FB778
:10035000F894EC91111108C0D095DE23DC938FBF87
:10036000DF91CF911F910895DE2BF8CFCF93DF93CC
:1003700090E0FC01E151FE4F249185529E4FFC011B
:1003800084918823D1F090E0880F991FFC01E755F4
:10039000FE4FA591B491FC01E953FE4FC591D49154
:1003A00061110EC09FB7F8948C91E22FE0958E23D7
:1003B0008C932881E223E8839FBFDF91CF9108953A
:1003C0008FB7F894EC91E22BEC938FBFF6CF3FB749
:1003D000F8948091CE029091CF02A091D002B0917A
:1003E000D10226B5A89B05C02F3F19F00196A11D8B
:1003F000B11D3FBFBA2FA92F982F8827BC01CD016F
:10040000620F711D811D911D42E0660F771F881FCD
:10041000991F4A95D1F708958F929F92AF92BF92FC
:10042000CF92DF92EF92FF926B017C010E94E70175
:100430004B015C01C114D104E104F104B9F00E9444
:10044000E701681979098A099B09683E73408105AB
:10045000910580F321E0C21AD108E108F10888EE85
:10046000880E83E0981EA11CB11CE4CFFF90EF9092
:10047000DF90CF90BF90AF909F908F9008952FB74F
:10048000F8946091CA027091CB028091CC02909155
:10049000CD022FBF08952F923F924F925F926F929D
:1004A0007F928F929F92AF92BF92CF92DF92EF9204
:1004B000FF920F931F93CF93DF936B017C010E94F8
:1004C0003F024B015C01C114D104E104F10441F489
:1004D000C0909A03D0909B03E0909C03F0909D0302
:1004E000C1E046E0242E53E0352E68E0462E72E04F
:1004F000572EE7E06E2EFAE07F2E04E0D9E015E0FB
:100500008091940390919503DC01ED91FC9100841E
:10051000F185E02D0995892B09F4BAC060E070E0FF
:10052000CB010E940C022091B20380919403909120
:100530009503DC01ED91FC910284F385E02D2111FE
:100540000BC0099580939E038E37D1F68091B2033C
:100550008F5F8093B203D4CF09959091B203E92FB6
:10056000F0E0EC56FC4F8287923069F1993089F1C6
:10057000913059F58F3F49F11092B203C093B40303
:100580001092B7031092B603C093B8031092B90348
:100590000E943F02681979098A099B09C616D70685
:1005A000E806F90608F0C1C01092B2031092B40335
:1005B0001092B7031092B60381E08093B8031092B3
:1005C000B90380E06AC08630B9F69F5F9093B203AA
:1005D00097CF8F3E89F6E091A1038091A30390E02D
:1005E0004091A40350E06091A50370E0762F662748
:1005F0002091A603620F711D2091A0032E0F3327B7
:10060000331FF091A2032F0F311D280F391F240F24
:10061000351FF0919F032F0F311D31952195310921
:100620006217730709F0A8CF1092B203E13419F4EE
:100630001092B9032DC0E093B503982F8827480F77
:10064000591F5093B7034093B603EA53E63108F0BD
:1006500063C0F0E0E25DFC4F0C94F01871037B0383
:10066000440344038803600385038C0388038803E1
:100670008803880388038803880388038C0388031E
:1006800088038803880388031093B403C093B803D6
:100690008091B803882309F47BCFDF91CF911F911C
:1006A0000F91FF90EF90DF90CF90BF90AF909F9011
:1006B0008F907F906F905F904F903F902F90089514
:1006C00040FF03C0D093B403E1CF41FF03C00093C8
:1006D000B403DCCF43705527452BD1F27092B4039D
:1006E000D5CF40FF03C06092B403D0CF41FFD0CF3D
:1006F0005092B403CBCF40FF03C04092B403C6CFA7
:1007000041FFC6CF3092B403C1CF2092B403BECF15
:10071000BBE0B093B403BACFC093B4031092B70355
:100720001092B603C093B80383CF60E070E0CB01B2
:100730000E940C02E5CE8093AB03272F30E070932C
:10074000AD036093AE034091AA039091A903490FB2
:100750005527551F840F952F911D4091AC03840F91
:10076000911D820F931F680F792F711D71956195EF
:1007700071097093AF036093B003442379F08091C3
:10078000B903882359F060E070E0CB010E940C02AD
:1007900060E070E0CB010E944B02F1CF80919403A6
:1007A00090919503DC01ED91FC910280F381E02DA5
:1007B0004AE050E068EA73E009950E943F026093C6
:1007C0009603709397038093980390939903809175
:1007D000AC0391E0811101C090E09093B9038111C5
:1007E00006C06AE070E080E090E00C940C0208958E
:1007F00070E060E00C949B0383E40E94F80360E0E7
:1008000070E0CB010E944B02882339F01092B803AC
:100810008091B6039091B70308958FEF9FEF0895ED
:10082000AF92BF92CF92DF92EF92FF920F931F93FE
:10083000CF93DF936C017B018B01040F151FEB013C
:100840005E01AE18BF08C017D10759F06991D601F3
:10085000ED91FC910190F081E02DC6010995892B65
:1008600079F7C501DF91CF911F910F91FF90EF9024
:10087000DF90CF90BF90AF900895FC01538D448DD1
:10088000252F30E0842F90E0821B930B541710F03B
:10089000CF96089501970895FC01918D828D981748
:1008A00061F0A28DAE0FBF2FB11D5D968C91928D20
:1008B0009F5F9F73928F90E008958FEF9FEF089551
:1008C0000F931F930E943F026093E0027093E10236
:1008D0008093E2029093E30288ED92E00E944C0440
:1008E00097FF1DC00E943F020091E0021091E102BB
:1008F0002091E2023091E302601B710B820B930B9B
:100900000091DC021091DD022091DE023091DF02C5
:100910006017710782079307F8F28FEF9FEF1F911F
:100920000F910895FC01918D828D981731F0828D81
:10093000E80FF11D858D90E008958FEF9FEF0895EA
:10094000FC01918D228D892F90E0805C9F4F821B4E
:1009500091098F739927089588ED92E00E94A00471
:1009600021E0892B09F420E0822F089580E090E0B7
:10097000892B29F00E94AC0481110C940000089589
:10098000FC01A48DA80FB92FB11DA35ABF4F2C9104
:10099000848D90E001968F739927848FA689B789FB
:1009A0002C93A089B1898C91837080648C93938DF2
:1009B000848D981306C00288F389E02D80818F7D95
:1009C00080830895EF92FF920F931F93CF93DF934D
:1009D000EC0181E0888F9B8D8C8D98131AC0E8897B
:1009E000F989808185FF15C09FB7F894EE89FF894A
:1009F0006083E889F98980818370806480839FBFE8
:100A000081E090E0DF91CF911F910F91FF90EF90E7
:100A10000895F62E0B8D10E00F5F1F4F0F731127F7
:100A2000E02E8C8D8E110CC00FB607FCFACFE88932
:100A3000F989808185FFF5CFCE010E94C004F1CFF6
:100A4000EB8DEC0FFD2FF11DE35AFF4FF0829FB7A6
:100A5000F8940B8FEA89FB8980818062CFCFCF9396
:100A6000DF93EC01888D8823B9F0AA89BB89E889D6
:100A7000F9898C9185FD03C0808186FD0DC00FB67C
:100A800007FCF7CF8C9185FFF2CF808185FFEDCFFA
:100A9000CE010E94C004E9CFDF91CF91089520914B
:100AA000C4023091C5022817390771F49091C2022F
:100AB0008091C302981741F0E091C202F0E0EE5736
:100AC000FD4F808190E008958FEF9FEF0895089586
:100AD000EF92FF920F931F93CF93DF93DC015C960D
:100AE000ED90FC905D97E114F10479F481E090E0E1
:100AF00013969C938E93129790E080E0DF91CF91B4
:100B00001F910F91FF90EF9008955196ED91FC91F8
:100B1000529750968C915097982F90950FB75E965C
:100B20002C915E97122F127021FD6095F894208110
:100B3000112319F1282B2083E7012197F1F728E0F1
:100B4000462F50E0308160FF1AC0382B3083E70118
:100B50002197F1F7BA0175956795215089F711230F
:100B600081F08081892380830FBF5C968D919C9159
:100B70000197F1F781E090E0C1CF2923DCCF392341
:100B8000E5CF9081892BEFCF2091C4023091C5022F
:100B90002817390761F48091C3022091C20290E0C6
:100BA000805C9F4F821B91098F739927089590E075
:100BB00080E008952091C4023091C50228173907BA
:100BC000B9F49091C2028091C302981789F0E09124
:100BD000C202F0E0EE57FD4F80812091C20230E06A
:100BE0002F5F3F4F2F7333272093C20290E0089569
:100BF0008FEF9FEF089590E080E0089522E3FC01DD
:100C00002E9FC0012F9F900D1124480F591F7695DC
:100C1000679576956795CB01880F991F860F971F6B
:100C20008417950750F485E0869F9001879F300DCB
:100C3000112481E02417350708F480E008954CEE74
:100C40005FEF0C94FE054F925F926F927F929F929E
:100C5000AF92BF92CF92DF92EF92FF920F931F93CA
:100C6000CF93DF93182F5A01922EC62FD0E0C45392
:100C7000DC4F412C512C32014394C12CD12C7601F4
:100C8000112301F19920B1F08881B50190E00E9413
:100C90001F06002379F1CC0CDD1CEE1CFF1C882301
:100CA00011F06894C0F8440C551C661C771C115058
:100CB0002296E6CF898144E150E0B50190E00E94A0
:100CC000FE05E7CFC0929C04D0929D04E0929E0462
:100CD000F0929F04DF91CF911F910F91FF90EF90C1
:100CE000DF90CF90BF90AF909F907F906F905F907C
:100CF0004F9008958823B9F2C428D528E628F7280C
:100D0000D2CFCF93DF93EC01FC01339665917491C0
:100D10008091CD0390E00E941F06882369F0FE01B8
:100D20003596659174918091CE0344E150E090E056
:100D3000DF91CF910C94FE0580E0DF91CF91089573
:100D400022E3289FA001299F500D112476956795D5
:100D5000769567959B01220F331F260F371F421789
:100D6000530750F085E0869F9001879F300D112436
:100D700081E02417350708F480E00895BF92CF92F0
:100D8000DF92EF92FF920F931F93CF93DF93109117
:100D9000D7028091BF04B12C1817A0F5812F817064
:100DA000B82E0091D60201111EC0E12FF0E0E154EF
:100DB000FC4FE584F12CCCEEDFEF882311F0C4E189
:100DC000D0E0C090D402D090D502CC0DDD1DBE0184
:100DD000C7010E94A006882301F181E090E0909372
:100DE000D3028093D2020F5F0093D6028091D20289
:100DF0009091D3020817190628F01092D6021F5FAF
:100E00001093D7028B2DDF91CF911F910F91FF90FF
:100E1000EF90DF90CF90BF900895CC0DDD1DBE0107
:100E2000C7010E94A006882319F082E090E0D7CF86
:100E3000B6016C0F7D1FC7010E94A006882319F020
:100E400083E090E0CCCFBB24BA94DCCF8091CD047A
:100E5000811102C02D98089560E00C9488018823C8
:100E600049F08091CD04811102C02D9A089561E06E
:100E70000C9488010C9426078F929F92AF92BF9298
:100E8000CF92DF92EF92FF921F93CF93DF93EC010B
:100E90000E94E7016B017C014B015C0188E0880E38
:100EA000911CA11CB11C10E0F89461E08091BA0380
:100EB0000E9488018091BD039091BE03823091050C
:100EC00038F0880F991F880F991F05970197F1F740
:100ED00060E08091BA030E9488017894111103C0E8
:100EE00081E00E942F078091BB039091BC03C80E44
:100EF000D91EE11CF11CF8940E94E7019B012819FE
:100F000039092C173D0778F00E9426077894DF9165
:100F1000CF911F91FF90EF90DF90CF90BF90AF9057
:100F20009F908F90089511E06C157D058E059F05AB
:100F300018F3BACFCF92DF92EF92FF928AE190E05E
:100F40009093BC038093BB0385E090E09093BE0335
:100F50008093BD0361E08091BA030E94B60180E0F6
:100F600093E20E943C070E94E7016B017C0124E0B0
:100F7000C21AD108E108F1080E94E7016C197D0945
:100F80008E099F09603C784081059105A8F380E3B4
:100F900092E0FF90EF90DF90CF900C943C0742E0FE
:100FA00050E06CE571E088ED92E00C941004CF9372
:100FB000DF93FC01448155816081718188ED92E06D
:100FC0000E941004EC010E94CF078C0F9D1FDF913F
:100FD000CF910895CF93DF93FC0101900020E9F7B2
:100FE0003197AF01481B590BBC0188ED92E00E947C
:100FF0001004EC010E94CF078C0F9D1FDF91CF9151
:1010000008950F931F93CF93DF938C01D0E0C0E03E
:10101000F801EC0FFD1F6491662341F088ED92E02A
:101020000E94E204892B11F02196F2CF0E94CF0793
:101030008C0F9D1FDF91CF911F910F910895FF920B
:101040000F931F93CF93DF93CDB7DEB764970FB69F
:10105000F894DEBF0FBECDBF162FF42E44E150E052
:10106000BC01CE0101960E9428180889802F80714A
:101070004885598504FD02C04A855B85001F00270D
:10108000001F21E0811101C020E06F2D812F0E94FF
:10109000230664960FB6F894DEBF0FBECDBFDF9176
:1010A000CF911F910F91FF900895CF93DF93EC01A3
:1010B00088819981009711F00E94921919821882F3
:1010C0001D821C821B821A82DF91CF910895FC0140
:1010D00080819181009711F00C9492190895FC0180
:1010E00024813581232B39F421E0FB018081882381
:1010F00049F020E007C0808191810E94E11A21E03F
:10110000892BB9F7822F08950F931F93CF93DF9305
:10111000EC0188819981009759F02A813B8126173B
:10112000370730F081E0DF91CF911F910F91089543
:101130008B016F5F7F4F0E941B1A009759F09983B4
:1011400088831B830A832C813D81232B59F7FC0163
:101150001082E8CF80E0E7CFEF92FF920F931F93CA
:10116000CF93DF93EC01FB01E080F180E114F10407
:1011700011F10481158101151105A9F08C819D8162
:10118000080F191FB801CE010E948408882399F026
:10119000288139818C819D81B701820F931F0E9424
:1011A000EA1A1D830C83CE01DF91CF911F910F911D
:1011B000FF90EF900895CE010E945508F4CFEF9272
:1011C000FF920F931F93CF93DF93EC017B018A0172
:1011D000BA010E94840881110BC0CE010E945508FB
:1011E000CE01DF91CF911F910F91FF90EF90089565
:1011F0001D830C83B701888199810E94EA1AF0CF80
:10120000EF92FF920F931F93CF93DF93CDB7DEB78B
:1012100062970FB6F894DEBF0FBECDBF8C01CB0135
:10122000F8011182108213821282158214824AE020
:101230009E012F5F3F4F7901B9010E943118F701DC
:1012400001900020E9F73197AF014E195F09B7010E
:10125000C8010E94DF0862960FB6F894DEBF0FBE89
:10126000CDBFDF91CF911F910F91FF90EF90089527
:10127000FC01118210821382128215821482FB01FA
:1012800001900020E9F73197AF01461B570B0C94F2
:10129000DF081F920F920FB60F9211242F933F93E6
:1012A0008F939F93AF93BF938091CA029091CB028B
:1012B000A091CC02B091CD023091C90223E0230F5E
:1012C0002D3758F50196A11DB11D2093C9028093B9
:1012D000CA029093CB02A093CC02B093CD0280912E
:1012E000CE029091CF02A091D002B091D10201968E
:1012F000A11DB11D8093CE029093CF02A093D00286
:10130000B093D102BF91AF919F918F913F912F9157
:101310000F900FBE0F901F90189526E8230F02968E
:10132000A11DB11DD2CF1F920F920FB60F921124A3
:101330002F933F934F935F936F937F938F939F93DD
:10134000AF93BF93EF93FF9388ED92E00E94C004A8
:10135000FF91EF91BF91AF919F918F917F916F918D
:101360005F914F913F912F910F900FBE0F901F9063
:1013700018951F920F920FB60F9211242F938F93EF
:101380009F93EF93FF93E091E802F091E90280814F
:10139000E091EE02F091EF0282FD1BC090818091FE
:1013A000F1028F5F8F732091F202821741F0E0917A
:1013B000F102F0E0E852FD4F958F8093F102FF912A
:1013C000EF919F918F912F910F900FBE0F901F90D3
:1013D00018958081F4CF1F920F920FB60F921124AF
:1013E0002F933F934F935F936F937F938F939F932D
:1013F000AF93BF93EF93FF93E091C402F091C502C6
:10140000309749F0A685B7858585968D91FF14C0E4
:101410009C918923A1F4FF91EF91BF91AF919F918E
:101420008F917F916F915F914F913F912F910F908D
:101430000FBE0F901F9018959C91892361F7A38987
:10144000B4899C918589809589238C938689978915
:101450000197F1F7608D718DA685B785558538E0C8
:1014600020E0CB010197F1F7822F90E095958795C9
:10147000282F4C91452309F02068315091F7868D33
:1014800081FD20958091C30290E001968F7399278A
:101490003091C202381799F0A091C302B0E0AE5764
:1014A000BD4F2C938093C302828D938D0197F1F7EA
:1014B000A389B4898C919589892B8C93ACCF868D27
:1014C0008160868FF1CF1F920F920FB60F92112479
:1014D0002F933F934F935F936F937F938F939F933C
:1014E000AF93BF93CF93EF93FF93E091C103F0913C
:1014F000C203C0818091C303C8238091C40390912B
:10150000C5032091C4033091C5032F3F3F4F29F0FD
:1015100001969093C5038093C4032091BF032111CA
:1015200015C0C1114BC0813A910558F01092C80303
:101530009093CB038093CA0381E08093C903809387
:10154000BF031092C5031092C40338C0213099F430
:10155000CC23A1F1E091C9032E0F2093C903F0E041
:10156000E154FC4F8F3F910519F010F08FEF90E0A0
:10157000858782E0E4CF223009F047C0E091C903BB
:10158000813A910510F4E73CA0F1E83C18F081E0C5
:101590008093C8038091CA039091CB039093C104B8
:1015A0008093C004E093BF0483E08093BF03E09185
:1015B000C603F091C703309709F009958091CE04D6
:1015C000882329F081E0C11180E00E942F07FF915C
:1015D000EF91CF91BF91AF919F918F917F916F913B
:1015E0005F914F913F912F910F900FBE0F901F90E1
:1015F0001895C111E3CF91E09E0F9093C903F0E0DD
:10160000E154FC4F858781E09ACF2330B9F6C111B0
:10161000D5CF97CFDF92EF92FF920F931F93CF9387
:10162000DF93EC01D62E8A017901F0E090E080E0B2
:1016300030E0E0E0DE01AE0FB11D2C91FF5F222310
:1016400039F0320F2E9F800D911D11241C92F0E075
:101650003323B9F0DE1611F0F23098F0232F2695DF
:10166000820F911D632F70E00E94DC18DE01A60F2F
:10167000B11D3C93D8013C9131110FC06C9390E0A7
:1016800080E0EF5FDE16B0F681E0DF91CF911F9131
:101690000F91FF90EF90DF900895D7013C91332395
:1016A00069F380E0F2CF0F931F931092DB02109248
:1016B000DA0208EE13E020E030E00093DC02109341
:1016C000DD022093DE023093DF028CE391E0909301
:1016D000D9028093D80285EC90E09093E502809344
:1016E000E40284EC90E09093E7028093E60280ECC1
:1016F00090E09093E9028093E80281EC90E090936F
:10170000EB028093EA0282EC90E09093ED028093EA
:10171000EC0286EC90E09093EF028093EE02109240
:10172000F1021092F2021092F3021092F40210925F
:10173000CD041092C00361E06093C30389E290E09E
:101740009093C2038093C10350981092BA0384EF20
:1017500091E0A0E0B0E080939A0390939B03A09364
:101760009C03B0939D038AE0EAE1F1E0A8EAB3E0CC
:1017700001900D928A95E1F71092B20382E0809376
:10178000B3031092B8031092B90310927803109229
:1017900077030093790310937A0320937B033093AC
:1017A0007C038EE491E0909376038093750310920E
:1017B0008C0310928B0310928E0310928D03109263
:1017C000900310928F0310929203109291038091D4
:1017D00093038E7F8D7F8093930386958170682716
:1017E00083E00E94880161E083E00E94B601E2EF9D
:1017F000F1E0E491E0938503EEEDF1E0E491F0E0B7
:10180000EE0FFF1FE953FE4F85919491909387034C
:101810008093860360E082E00E94B601809193038A
:1018200081FD04C061E082E00E94880182E0809333
:101830008103E1EFF1E0E491E0938203EDEDF1E06B
:10184000E491F0E0EE0FFF1FEF52FE4F859194916F
:1018500090938403809383031F910F910895CF93F6
:10186000DF93CDB7DEB7C654D1090FB6F894DEBF0B
:101870000FBECDBF789484B5826084BD84B581608D
:1018800084BD85B5826085BD85B5816085BD80914B
:101890006E00816080936E001092810080918100C3
:1018A00082608093810080918100816080938100BB
:1018B000809180008160809380008091B10084607D
:1018C0008093B1008091B00081608093B0008091DE
:1018D0007A00846080937A0080917A00826080939D
:1018E0007A0080917A00816080937A0080917A00FA
:1018F000806880937A001092C100E091E802F09134
:10190000E90282E08083E091E402F091E502108236
:10191000E091E602F091E70290E190831092F002EC
:10192000E091EC02F091ED0296E09083E091EA0202
:10193000F091EB02908190619083E091EA02F09146
:10194000EB02908198609083E091EA02F091EB02C3
:10195000908190689083E091EA02F091EB0290818F
:101960009F7D90839DE09093C00390E29093C3038A
:1019700023E230E03093C2032093C10325981092F4
:10198000CE041092CD048093B0008093B10084E621
:101990008093B3008093B4001092B2008091BF0393
:1019A000833011F41092BF0384E0809370008FE5C0
:1019B00091E00E94EA071092900310928F03109218
:1019C0008E0310928D0310928C0310928B038DE97D
:1019D00091E09093920380939103909181039631CB
:1019E00008F047C02DEB30E030938C0320938B033D
:1019F0002BE931E030938E0320938D032CE231E00C
:101A00003093900320938F032091680084E09830F6
:101A100048F031E09E3008F430E081E001C0880FEA
:101A20003A95EAF7822B809368002DE630E09830F3
:101A300050F02BE630E09E3030F02CE630E096316E
:101A400010F030E020E03093890320938803292FA1
:101A500030E0983008F06AC081E001C0880F9A95A4
:101A6000EAF780938A038091910390919203019702
:101A7000F1F780918F0390919003892B49F1E091C8
:101A8000C402F091C50223E0E537F20709F130976F
:101A900039F0A389B4899C918589809589238C9399
:101AA000809193038E7F809393031092C3021092D0
:101AB000C20285E793E09093C5028093C402E0914F
:101AC0008803F0918903808190918A03892B808318
:101AD00005E713E0FF24F394109395030093940318
:101AE000F092AC038CE00E94F80360ED77E080E0B8
:101AF00090E00E944B0268EC70E080E090E00E9471
:101B00000C021092B8038091B4038430E1F0893064
:101B1000D1F08CEB90E00E9401088BE990E00E94EC
:101B200001088EE790E00E940108D6CF9E3040F475
:101B30002850310981E001C0880F2A95EAF791CF3A
:101B40002E503109F7CF88E690E00E94010861E04D
:101B500070E086E00E949B0366E374E083E00E94ED
:101B60009B038DE00E94F8031092C80268EE73E0B8
:101B700080E090E00E940C02CE0101967C010E9460
:101B800064010197F9F48091C80281111BC080E7BC
:101B900091E00E94EA0768E572E080E090E00E9430
:101BA0000C020E946401019769F48CE991E00E94A3
:101BB000EA0781E00E94F80368E572E080E090E0C7
:101BC0000E940C0288ED92E00E94A00418161906EB
:101BD0000CF05DC06EE571E0CE01CF960E94380931
:101BE0000E94600497FD24C08A30910509F1898321
:101BF0001A8225960EAD1FAD25970F5F1F4FB801B6
:101C0000CE01CF960E948408882351F321962EADF1
:101C10003FAD219725968EAD9FAD2597B701820FD9
:101C2000931F0E94EA1A25961FAF0EAF2597D8CFB3
:101C30001AAE19AE1CAE1BAE1EAE1DAE21966EAD19
:101C40007FAD21976115710541F025964EAD5FADD1
:101C50002597CE01C9960E94DF0866EC71E0CE019F
:101C6000C9960E946F08882309F483C08DE00E9402
:101C7000F80386EC91E00E94EA071092C802CE01B8
:101C8000C9960E946708CE01CF960E94670880918E
:101C9000BF03833011F00C948F178091C803882301
:101CA00009F451C180E48093BE041092950410920F
:101CB0009404109299041092980410929704109230
:101CC000960410929C0410929D0410929E0410920F
:101CD0009F041092BD041092BC048091BE0486FF44
:101CE00002C00C94E2171091BF04812F8F7B8430C7
:101CF00009F0ABC18091CD0360E073E290E00E94F7
:101D00001F06882309F42EC28091CE0390E044E19F
:101D100050E0143009F032C160EC78E00E94FE051A
:101D2000882309F41FC28091CF0360E372E090E042
:101D30000E941F06882309F415C281E08093BE0427
:101D40008091C4049091C504909397048093960465
:101D50008091C6049091C70490939904809398044D
:101D60008091C2049091C30490939504809394044D
:101D700069C26CEC71E0CE01C9960E946F0888239D
:101D800059F08EE00E94F8038CEC91E00E94EA0783
:101D900081E08093C80273CF62ED71E0CE01C996F5
:101DA0000E946F08882341F081E00E94F80382EDD1
:101DB00091E00E94EA0763CF67ED71E0CE01C9961A
:101DC0000E946F08182F882331F082E00E94F803E8
:101DD00087ED91E0EECF6CED71E0C7010E9438090C
:101DE0004D815E818DAD9EAD8417950778F089ADEC
:101DF0009AAD009759F069817A816115710531F0CA
:101E00000E94F11A11E0892B09F010E0C7010E942D
:101E10006708112309F466C00DAD1EADB5E0AB2E09
:101E2000B12C0530110518F0580105E010E06EE501
:101E300071E0C7010E943809CDACDEAC0C151D0560
:101E400010F5AC14BD0408F46501E9ADFAADEC0D74
:101E5000FD1DB080108269AD7AAD600F711F6115F4
:101E60007105E1F1FB0101900020E9F73197AF0125
:101E7000461B570BC7010E94DF0889AD9AADC80EFB
:101E8000D91ED601BC9289819A81812C912C540152
:101E9000009719F00E9401184B01C7010E946708C2
:101EA000B40183E00E949B03B401CE01C3960E945B
:101EB000000962EE71E0C7010E943809BE016D5C45
:101EC0007F4FC7010E94AC080E94D707C7010E943C
:101ED0006708CE01C3960E946708D1CEC7010E9451
:101EE0005508CBCF61EF71E0CE01C9960E946F0813
:101EF0008823A1F00E94FC034E976CF484E00E94BA
:101F0000F8030E94FC03BC01CE01C3960E940009A5
:101F100063EF71E0D0CF83E092E04BCF61E172E0FC
:101F2000CE01C9960E946F08882351F00E94FC03DD
:101F30001816190614F485E0E2CF83E192E039CF58
:101F400081E292E036CF1092BE0480919404909189
:101F500095049093C3048093C20480919804909157
:101F600099049093C7048093C6048091960490913D
:101F700097049093C5048093C40497CE60E871E100
:101F80000E94FE05882309F4EDC043E060E285E984
:101F900091E00E941F0820919C0490919D04609103
:101FA0009E0480919F04462F50E0509399044093E3
:101FB0009804422F592F4E3EB7E85B0719F523E0EE
:101FC00030E0309395042093940490E0909397042C
:101FD0008093960480E290E09093BD048093BC04CB
:101FE0008AE795E00E942E018091BE0480FF2AC1FD
:101FF00029E030E03093950420939404806280932C
:10200000BE0420C19095291310C030E0309397048E
:1020100020939604982F909569130CC088E090E067
:102020009093950480939404D5CF50939704409354
:102030009604F0CF2AE030E0309395042093940486
:102040006093980480939904C5CF143609F08AC030
:1020500081E891E00E948106882309F483C043E06F
:1020600060E181E891E00E941F08B0909C040B2D74
:1020700010919D04FBE0CF2ED12C0230E0E21E0730
:10208000F9F0EEE0CE2ED12C0A3AFAE51F07C1F0A6
:102090007DE0C72ED12C043522E3120789F06FE0D2
:1020A000C62ED12C033031E0130751F0A0E1CA2E27
:1020B000D12C03328BEC180719F05CE0C52ED12C23
:1020C000B1268B2D82958F70B82643E260E281E8BD
:1020D00091E00E941F0880919C0490919D04A09122
:1020E0009E04B0919F049C0144E0369527954A9543
:1020F000E1F730939704209396042A2F30E0309331
:10210000990420939804282F2A2729273B2D3F70D4
:10211000482F4F70341719F034E03093BE04ECE0D0
:10212000CE16D10449F43091BE0430613093BE0420
:1021300010939B0400939A042B1729F08091BE04FE
:1021400084608093BE0480E390E09093BD0480930C
:10215000BC04D0929504C09294048AE397E00E9454
:102160002E0170C08091BF04803209F0E4C041E0CC
:102170006FE08DE691E00E941F088091EB0364E020
:1021800071E090E00E941F06882309F4D4C080917A
:102190009C0490919D04A0919E04B0919F049C0189
:1021A0002F713327309397042093960405E0B6955A
:1021B000A795979587950A95D1F7392F3370AC017C
:1021C000552750939904409398044091C00450912E
:1021D000C1044536544008F0ABC02091BE042260D3
:1021E0002093BE042091CC042F5F2093CC0420FFC9
:1021F00019C0213019F021E02093BE043091C604AB
:102200004091C704282F2095231729F02091BE0460
:1022100024602093BE043093980440939904392F8E
:102220003095337087E190E0311102C084E090E096
:1022300090939504809394048FE090E09093BD0474
:102240008093BC048091940490919504089709F0C0
:10225000B9C6C0909804D090990404E211E0B12C62
:10226000A12C8AE0982EF801819191918F01C816D6
:10227000D90641F5B501CE01C3960E94000968E375
:1022800072E0C7010E943809BE016D5C7F4FC70133
:102290000E94AC080E94D707C7010E946708CE01C0
:1022A000C3960E9467082091C6023091C702929E91
:1022B000C001939E900D11248A0D9B1D9093C7021F
:1022C0008093C602FFEFAF1ABF0A2AE0A216B1043C
:1022D00051F639E0C316D10409F0EDC56091C6028C
:1022E0007091C70283E00E949B036091C6027091C7
:1022F000C702CE01C3960E94000962EE71E0C701D9
:102300000E943809BE016D5C7F4FC7010E94AC0876
:102310000E94D707C7010E946708CE01C3960E949A
:1023200067081092C7021092C6028DE492E0CCC5F5
:102330001092CC0477CF8DEC90E00E948106882328
:1023400009F446C08091BF048A3129F08A3219F01D
:10235000803209F03DC090E0BC016150710977FD09
:10236000BC017595679543E08DEC90E00E941F08D5
:1023700080919C0490919D04A0919E04B0919F0433
:102380009C012F773327309399042093980417E00A
:10239000B695A795979587951A95D1F79093970439
:1023A000809396042091BF0430E0C901019797FD06
:1023B000C901959587959093BD048093BC0488E1ED
:1023C00090E0909395048093940480EE91E0C7CEC2
:1023D00081E08093D70289E793E09093D5028093C0
:1023E000D4021092D6020E94BE06813009F063C06A
:1023F000812C912C540110E09091BF048091D70260
:102400008917E0F40E94BE06082F0E94BE06011143
:102410000BC0813009F04FC0880C991CAA1CBB1C52
:10242000689480F81F5FE8CF013009F044C0811143
:1024300042C0880C991CAA1CBB1CF4CF812F90E0D1
:102440009093BD048093BC0480929C0490929D0460
:10245000A0929E04B0929F04882D8F7390E0909379
:10246000990480939804940156E0369527955A95DF
:10247000E1F72F713327309397042093960494014A
:1024800022273071232B31F4805C9F4F9093990465
:102490008093980480E88093BE0493FE03C088E88C
:1024A0008093BE0481E190E090939504809394041E
:1024B0008FEC99E054CE8091CD0368E67AE090E00D
:1024C0000E941F06882309F448C08091CE0344E18E
:1024D00050E068E773E090E00E94FE058823E9F190
:1024E00083E08093D7028CEB91E09093D5028093A8
:1024F000D4021092D6020E94BE06813071F50E946D
:10250000BE0681112AC0812C912C540110E09091BB
:10251000BF048091D702891708F076C00E94BE06DA
:10252000D82E1330B1F00E94BE06082F133021F4CC
:102530000E94BE06081311C021E0D2125BC0011137
:102540000CC0880C991CAA1CBB1C689480F81F5FE7
:10255000DECF0E94BE06D81631F3D090BF043CE314
:10256000D31619F084E0D81215C00091CD0310E005
:1025700068E273E2C8010E941F06811192C06CE1FB
:1025800075E2C8010E941F0668EB7BE007E010E0DF
:1025900081118BC0B2E2DB1609F4F4C0E4E2DE1272
:1025A00023C185EF90E00E948106882309F41CC1B5
:1025B00043E060E185EF90E00E941F0880919C0459
:1025C00090919D04A0919E04B0919F04492F5A2F91
:1025D0006B2F7727509399044093980499279093F1
:1025E00097048093960480E190E09093BD048093DB
:1025F000BC04F7C0D110B1CF013009F0AECF880CC8
:10260000991CAA1CBB1CA3CF812F90E09093BD0402
:102610008093BC0480929C0490929D04A0929E049E
:10262000B0929F04282D30E0892D90E0133200F500
:1026300040E84093BE04309399042093980490930B
:10264000970480939604A0FE03C088E88093BE049C
:10265000153128F08091BE0480618093BE0482E130
:1026600090E0909395048093940483E79AE077CD6B
:1026700040E94093BE0430939904209398049093CA
:10268000970480939604C5019F7390939B04809355
:102690009A04B7FE03C088E98093BE0483E190E00A
:1026A000E0CF68E670E106E010E08091CE0390E0B4
:1026B000A4E044E150E0DA1213C060ED77E00E943C
:1026C000FE05882309F490C08091CF0364EF71E088
:1026D00090E00E941F06882309F486C081E82ECB73
:1026E0000E94FE05882309F455CF43E06CE181EE9A
:1026F00090E00E941F0880E88093BE0480919C04B3
:1027000090919D04A0919E04B0919F044C015D01A5
:10271000F4E0B694A79497948794FA95D1F7B4010E
:1027200090929904809298044C015D0124E1B69442
:10273000A794979487942A95D1F7909297048092C2
:10274000960444E050E020E0362F3F70230FE4E091
:1027500076956795EA95E1F741505109A9F78227E7
:102760008F709927AA27BB27892B8A2B8B2B19F0CF
:1027700084E88093BE0410939504009394048CE144
:1027800090E05CCD8091C0049091C1048C3E9C454A
:1027900008F058CD8091CD036EE072E090E00E9489
:1027A0001F06882309F44ECD8091ED036EE072E0A0
:1027B00090E00E941F06882309F444CD81E08093B5
:1027C000BE048091C4049091C504909397048093B3
:1027D00096048091C6049091C704909399048093C5
:1027E000980485E090E0C0CA8091BF04982F9F7D37
:1027F000943419F0863009F07DC089E091E00E94A0
:102800008106882309F476C08091BF048630B1F434
:1028100081E28093BE048091C4049091C50490939A
:102820009704809396048091C6049091C704909376
:1028300099048093980485E190E096CA43E060E2B1
:1028400089E091E00E941F0890919C0480919D0472
:1028500010919E0420919F04909396048093970476
:102860003091BF04022F0095343639F543E460E11E
:1028700089E091E00E941F0880919C0490919D0442
:10288000101731F09095981719F094E09093BE04CA
:10289000982F812F909399048093980480E390E07F
:1028A0009093BD048093BC0486E190E090939504DE
:1028B000809394048EEB9AE052CC101306C0412F03
:1028C00050E0509399044093980489130EC090E00F
:1028D000909397048093960480E290E09093BD04D7
:1028E0008093BC0484E190E0E1CF1093980420939E
:1028F0009904F2CF8091BF04843269F58DE191E0B3
:102900000E948106882339F143E060E18DE191E086
:102910000E941F0810919C0480919D0480951817B7
:1029200019F084E08093BE048DE692E00E942E01AF
:10293000812F90E0909399048093980410929704CB
:102940001092960480E190E09093BD048093BC04C3
:102950008EE190E009CA8091BF048434C1F481E320
:1029600091E00E948106882391F043E060E281E3D8
:1029700091E00E941F0880E88093BE0480E290E00E
:102980009093BD048093BC048DE190E0EDC98091EB
:10299000CD038E3E08F06AC08091CE0344E150E042
:1029A00062E074E090E00E94FE05882309F45EC0B6
:1029B0008091BF04843209F059C000910F01802F2B
:1029C0008071409107015091080104FD04C04091BD
:1029D000090150910A01001F0027001F21E0811109
:1029E00001C020E063E080E10E94230680E880933C
:1029F000BE0490919C0480919D04292F382F482F6C
:102A000042954F708F7054E0369527955A95E1F7AF
:102A10002F70392F3F709FE09427982792273917FE
:102A200019F094E89093BE046091C0047091C104C1
:102A3000683F714128F49091BE0492609093BE0467
:102A40004093960410929704A0E18A9FC00111243C
:102A5000822B909399048093980480E190E0909366
:102A6000BD048093BC048BE190E07EC985E491E0D5
:102A70000E948106882371F18091BF04843251F550
:102A800043E060E185E491E00E941F088091EF033C
:102A900068E072E090E00E941F068823D9F08091E0
:102AA0009C0490919D0498279F3FA1F490E09093FF
:102AB00099048093980480E190E09093BD04809302
:102AC000BC048AE190E0909395048093940488ED8F
:102AD00094E045CB8091BF04803709F04FC041E0BE
:102AE00068E089E591E00E941F0880919C04909124
:102AF0009D04A0919E04B0919F04892B8A2B8B2B5F
:102B0000E9F541E16FE189E591E00E941F088090BD
:102B10009C0490909D04A0909E04B0909F044FE46C
:102B200061E189E591E00E941F0890919D048091E8
:102B30009E04892798278927909399048093980465
:102B400080929C0490929D04A0929E04B0929F0457
:102B50009092970480929604B0929B04A0929A045B
:102B60008CE190E0909395048093940488E390E046
:102B70009093BD048093BC0480E841CA8091BF0457
:102B8000823108F443C192E3F70111929A95E9F773
:102B900043E060E08250990B242F30E0281739077A
:102BA0009CF421543C4FD9011D962C91223308F0FE
:102BB0002DC1F701E20FF11D30813F5F30836217B5
:102BC00008F4622F4E5FE8CF26961FAE26971FAE01
:102BD0009E01215C3F4FAE014B5B5F4FC7010E94DE
:102BE0000A0B882309F412C182E3F70111928A9536
:102BF000E9F74091BF044250550B24E060E0822F7A
:102C000090E0841795079CF481549C4FDC011D963D
:102C10008C91823308F0FAC0F701E80FF11D908122
:102C20009F5F9083681708F4682F2E5FE8CF19AE76
:102C30001BAA9E012D5C3F4FAE01475C5F4FC70151
:102C40000E940A0B882309F4E1C08091BF04869595
:102C50001FEF180FCBA8CC2011F01EEF180F812FFB
:102C600090E09093BD048093BC042C01B1E04B1A1A
:102C7000510857FE04C02C01EEE14E0E511C45E0F8
:102C8000559447944A95E1F727964FAE2797AFACF6
:102C9000A11003C0CC2009F4B9C069AC82E3689EDE
:102CA0003001112426968FAC2697889E400111246E
:102CB000A89E50011124C89E6001112433E0232EE8
:102CC000312C812F113208F080E29BA9992309F45D
:102CD0007DC022E030E0309395042093940400E01E
:102CE00020E0A601622D0E94230640919C04509191
:102CF0009D0460919E0470919F04B4E03B9EF0019E
:102D00001124E455FB4F4083518362837383E0E4D5
:102D10002E0E105233942796FFAD2797F31588F6A1
:102D20008091C0049091C104803D9740E8F4F20185
:102D3000EE0FFF1FEE0FFF1FE455FB4F00811181C7
:102D4000228133818091C8049091C904A091CA0462
:102D5000B091CB04081719072A073B0729F4809183
:102D6000BE0481608093BE044093C8045093C9049C
:102D70006093CA047093CB042091CD0392E3299F02
:102D8000900111243093A1042093A0048091CE03DC
:102D9000899FC00111249093A3048093A204909270
:102DA000A9048092A8047092AB046092AA04A114B2
:102DB000B10419F1C114D10499F4B092A504A09200
:102DC000A4047092A7046092A6043CCAA1E0B0E0FB
:102DD000B0939504A093940400E021E0A50182CF74
:102DE000D092A704C092A6049092A5048092A40455
:102DF000B092A904A092A80425CA9092A50480923A
:102E0000A404D092A704C092A6041CCAE091BF04F7
:102E1000E63008F417CA11E025EC3DE94CE151E831
:102E2000F0E00AE0612F70E0CB0102968E179F0759
:102E30007CF581549C4FDC011D968C9161547C4F34
:102E4000DB011D966C91809F6001112498E0699FC1
:102E5000D0011124CA16DB06C8F0609FB00111240E
:102E6000A8E08A9FC0011124DD24D3946817790754
:102E700010F492E0D92E63E971E080E091E00E94C5
:102E80007B189B01AC012D251F5FCCCFD12CF3CF3C
:102E900020939C0430939D0440939E0450939F0480
:102EA00080E290E09093BD048093BC04109295045E
:102EB00010929404C7C984E4C816D10441F482E096
:102EC0000E94F80387ED91E00E94EA071CC090E49D
:102ED000C916D10431F481E00E94F80382ED91E03B
:102EE000F3CFA3E4CA16D104A1F50E946401892B93
:102EF00031F58EE00E94F8038CEC91E00E94EA0725
:102F000081E08093C80262E370E080E090E00E947C
:102F10000C028091BF03833011F41092BF0380E054
:102F200090E0892B11F40C94BF0D0E94AC0488230F
:102F300011F40C94BC0D0E9400000C94BC0D8DE0AB
:102F40000E94F80388E492E00E94EA071092C80207
:102F5000DACFB7E0CB16D10439F50E94FC0318167E
:102F60001906FCF485E00E94F8030E94FC03BC01F2
:102F7000CE01C3960E94000963EF71E0C7010E9471
:102F80003809BE016D5C7F4FC7010E94AC080E94EA
:102F9000D707C7010E946708CE01C3960E94670841
:102FA000B2CF83E192E090CFE5E1CE16D10409F0F3
:102FB000BCC90E94FC034E9714F484E0D4CF83E094
:102FC00092E082CF80E692E07FCF8EE491E0909312
:102FD0007603809375038091C4029091C502855752
:102FE000934071F4E0918803F0918903908180917E
:102FF0008A038095892380831092C5021092C402AF
:1030000008951F93FC0199278827BC01E89411912A
:103010001032E9F3193010F01E30C8F31B3251F0B2
:103020001D3249F4689406C00E943C18610F711D5E
:10303000811D911D119110531A30B0F33EF49095FB
:103040008095709561957F4F8F4F9F4F1F91089589
:10305000FB01DC0102C005900D9241505040D8F7B1
:103060000895BB274A3031F4992322F4BDE29095AC
:1030700081959F4F0C945218592F482F372F262F88
:10308000660F771F881F991F660F771F881F991F6C
:10309000620F731F841F951F660F771F881F991F6C
:1030A0000895BB27FB015527AA27880F991FAA1F40
:1030B000A41710F0A41B83955051B9F7A05DAA3353
:1030C00008F0A95DA193009779F7B111B19311921E
:1030D000CB010C946B18DC01FC01672F71917723F5
:1030E000E1F7329704C07C916D9370836291AE17C3
:1030F000BF07C8F30895DB018F939F930E948B183D
:10310000BF91AF91A29F800D911DA39F900DB29F83
:10311000900D112408950E94CD18A59F900DB49F85
:10312000900DA49F800D911D112408952F923F9220
:103130004F925F926F927F928F929F92AF92BF92C7
:10314000CF92DF92EF92FF920F931F93CF93DF9373
:10315000CDB7DEB7CA1BDB0B0FB6F894DEBF0FBED0
:10316000CDBF09942A88398848885F846E847D841D
:103170008C849B84AA84B984C884DF80EE80FD801F
:103180000C811B81AA81B981CE0FD11D0FB6F89495
:10319000DEBF0FBECDBFED010895A29FB001B39F6A
:1031A000C001A39F700D811D1124911DB29F700D50
:1031B000811D1124911D0895AA1BBB1B51E107C05D
:1031C000AA1FBB1FA617B70710F0A61BB70B881FB7
:1031D000991F5A95A9F780959095BC01CD01089546
:1031E000EE0FFF1F0590F491E02D09940F931F93AC
:1031F000CF93DF938230910510F482E090E0E0916C
:10320000D104F091D20430E020E0B0E0A0E03097AB
:1032100099F42115310509F44AC0281B390B2430D3
:103220003105D8F58A819B816115710589F1FB0112
:1032300093838283FE0111C04081518102811381F9
:1032400048175907E0F04817590799F4109761F0AB
:1032500012960C93129713961C933296CF01DF911E
:10326000CF911F910F9108950093D1041093D20430
:10327000F4CF2115310551F04217530738F0A90159
:10328000DB019A01BD01DF01F801C1CFEF01F9CFE8
:103290009093D2048093D104CDCFFE01E20FF31FAF
:1032A000819391932250310939832883D7CF20917C
:1032B000CF043091D004232B41F42091160130919A
:1032C00017013093D0042093CF0420911401309142
:1032D00015012115310541F42DB73EB74091180174
:1032E00050911901241B350BE091CF04F091D004CB
:1032F000E217F307A0F42E1B3F0B2817390778F0CD
:10330000AC014E5F5F4F2417350748F04E0F5F1F2B
:103310005093D0044093CF04819391939FCFF0E0DA
:10332000E0E09CCFCF93DF930097E9F0FC01329768
:1033300013821282A091D104B091D204ED0130E049
:1033400020E01097A1F420813181820F931F2091FA
:10335000CF043091D0042817390709F061C0F093E9
:10336000D004E093CF04DF91CF910895EA01CE1706
:10337000DF07E8F54A815B819E0141155105B1F7F0
:10338000E901FB83EA8349915991C40FD51FEC17DA
:10339000FD0761F4808191810296840F951FE901F8
:1033A00099838883828193819B838A83F0E0E0E024
:1033B00012968D919C9113970097B9F52D913C91A0
:1033C0001197CD010296820F931F2091CF04309167
:1033D000D0042817390739F6309751F51092D204E6
:1033E0001092D104B093D004A093CF04BCCFD38368
:1033F000C28340815181840F951FC817D90761F49A
:103400004E5F5F4F88819981480F591F51834083D8
:103410008A819B81938382832115310509F0B0CF86
:10342000F093D204E093D1049ECFFD01DC01C0CF24
:1034300013821282D7CFB0E0A0E0E1E2FAE10C946F
:1034400098188C01009751F4CB010E94F6188C015A
:10345000C801CDB7DEB7E0E10C94B418FC01E60F6B
:10346000F71F9C0122503109E217F30708F49DC0B1
:10347000D901CD91DC911197C617D70798F0C530C7
:10348000D10530F3CE0104978617970708F3C61BC2
:10349000D70B2297C193D1936D937C93CF010E9458
:1034A0009219D6CF5B01AC1ABD0A4C018C0E9D1E41
:1034B000A091D104B091D204512C412CF12CE12CDB
:1034C000109731F58091CF049091D004881599051B
:1034D00009F05CC04616570608F058C080911401E8
:1034E00090911501009741F48DB79EB74091180156
:1034F00050911901841B950BE817F90708F055C086
:10350000F093D004E093CF04F90171836083A0CFDE
:103510008D919C91119712966C90129713967C90B6
:103520001397A815B90559F56C0142E0C40ED11CDA
:10353000CA14DB0420F1AC014A195B09DA011296C6
:10354000159780F06282738251834083D9016D9315
:103550007C93E114F10471F0D7011396FC93EE9380
:10356000129776CF22968C0F9D1FF901918380834D
:10357000F301EFCFF093D204E093D10469CF481662
:10358000590608F42C017D01D3019ACFCB010E948A
:10359000F6187C01009749F0AE01B8010E94D81AD4
:1035A000C8010E949219870153CF10E000E050CF6C
:1035B000FB01DC0102C001900D9241505040D8F750
:1035C0000895FB01DC018D91019080190110D9F360
:1035D000990B0895FB01DC0101900D920020E1F7A9
:1035E0000895FB01DC014150504030F08D91019075
:1035F000801919F40020B9F7881B990B089511E080
:10360000C3E0D1E004C0FE010E94F0182196C4304E
:08361000D107C9F7F894FFCFC0
:103618001B00269E0002049E0029029E000701004E
:103628006E0000000000D30480007EFF0600010049
:10363800000000EF16000C0018005E0008001C00D7
:103648005A00420052004A0000000000E204100440
:103658003D042F05A0044C049204000000006805F6
:103668001004FB056705C405DA054F050D0A004976
:1036780052726563656976657220626567696E0076
:10368800427573792070696E2069732048494748EC
:1036980020616E64206E6F74207061757365642C90
:1036A8002077616974696E672E2E2E0042757379D2
:1036B8002070696E206973207374696C6C204849A6
:1036C80047482C20706C6179696E67206E65787444
:1036D80020736F6E67007374617274007061757324
:1036E80065006E657874007072657600706C61793B
:1036F8002000506C6179696E672066696C653A20B4
:10370800002B00566F6C756D652073657420746F9F
:103718003A2000566F6C756D65206973206D61786D
:10372800002D00566F6C756D65206973206D696E8C
:1037380000556E6B6E6F776E2053657269616C20F1
:10374800636F6D6D616E640044696769742070729F
:1037580065737365643A2000706C617900556E6B0F
:103768006E6F776E20495220636F6D6D616E6400D5
:10377800526563656976656420756E737570706FE0
:10378800727465642049522070726F746F636F6C35
:023798002E0001
:00000001FF
