:020000040000FA
:100000000C9462000C948A000C948A000C948A0070
:100010000C948A000C948A000C948A000C948A0038
:100020000C948A000C948A000C948A000C948A0028
:100030000C948A000C948A000C948A000C948A0018
:100040000C94FB030C948A000C946B040C944504F0
:100050000C948A000C948A000C948A000C948A00F8
:100060000C948A000C948A000000000024002700F1
:100070002A0000000000250028002B0000000000DE
:1000800023002600290004040404040404040202DA
:100090000202020203030303030301020408102007
:1000A0004080010204081020010204081020000012
:1000B0000008000201000003040700000000000027
:1000C00000009D0411241FBECFEFD8E0DEBFCDBFDE
:1000D00021E0A0E5B1E001C01D92AC3FB207E1F71D
:1000E00011E0A0E0B1E0E8EFFBE002C005900D9266
:1000F000A035B107D9F710E0C2E6D0E004C02197DF
:10010000FE010E94F405C136D107C9F70E94E3043D
:100110000C94FA050C940000833081F028F48130AF
:1001200099F08230A9F008958730A9F08830C9F09D
:100130008430B1F4809180008F7D03C08091800075
:100140008F7780938000089584B58F7784BD08955C
:1001500084B58F7DFBCF8091B0008F778093B00006
:1001600008958091B0008F7DF9CFCF93DF93282F32
:1001700030E0F901E255FF4F8491F901E656FF4F57
:10018000D491F901EA57FF4FC491CC23A1F081111A
:100190000E948C00EC2FF0E0EE0FFF1FE458FF4FA1
:1001A000A591B491EC91ED2381E090E009F480E019
:1001B000DF91CF91089580E090E0FACF1F93CF9325
:1001C000DF93282F30E0F901E255FF4F8491F901C8
:1001D000E656FF4FD491F901EA57FF4FC491CC2363
:1001E000A9F0162F81110E948C00EC2FF0E0EE0F89
:1001F000FF1FEE58FF4FA591B4918FB7F894EC9183
:10020000111108C0D095DE23DC938FBFDF91CF9111
:100210001F910895DE2BF8CFCF93DF9390E0FC0180
:10022000E656FF4F24918A579F4FFC018491882303
:10023000C9F090E0880F991FFC01E859FF4FA59184
:10024000B491FC01EE58FF4FC591D49161110DC0DE
:100250009FB7F8948C91209582238C9388812823D2
:1002600028839FBFDF91CF910895623051F49FB7EB
:10027000F8943C91822F809583238C93E8812E2BD8
:10028000EFCF8FB7F894EC912E2B2C938FBFEACF42
:100290003FB7F8948091510190915201A091530180
:1002A000B091540126B5A89B05C02F3F19F00196C7
:1002B000A11DB11D3FBFBA2FA92F982F8827BC01C0
:1002C000CD01620F711D811D911D42E0660F771FE8
:1002D000881F991F4A95D1F708958F929F92AF92E8
:1002E000BF92CF92DF92EF92FF926B017C010E944E
:1002F00048014B015C01C114D104E104F104B9F0DF
:100300000E944801681979098A099B09683E73406F
:100310008105910580F321E0C21AD108E108F108B6
:1003200088EE880E83E0981EA11CB11CE4CFFF90DC
:10033000EF90DF90CF90BF90AF909F908F900895F7
:100340007F928F929F92AF92BF92CF92DF92EF9265
:10035000FF920F931F93CF93DF93EC016091F8010D
:100360007091F9018091FA019091FB010E946D0159
:1003700061E08091F6010E940C0160E08091F6013D
:100380000E94DE0062E170E080E090E00E946D017A
:1003900061E08091F6010E94DE008BE990E0019718
:1003A000F1F760E08091F6010E940C018FB7F8949C
:1003B000C0905501D0905601E0905701F09058013F
:1003C0008FBF8091F6010E94B500019729F52FB7E4
:1003D000F8948091550190915601A0915701B091E8
:1003E00058012FBF8C199D09AE09BF09893E934062
:1003F000A105B10530F30DEF10E0C801DF91CF91F9
:100400001F910F91FF90EF90DF90CF90BF90AF9032
:100410009F908F907F9008958091F6010E94B50083
:100420008C01892B41F72BE3E22EFF24F394C701C3
:100430000197F1F78091F6010E94B5000197D9F676
:10044000C7010197F1F76E014E0185E0880E911CFE
:1004500093E7A92EB12C87E0E82EF12C712C809126
:10046000F6010E94B500892BD1F3C5010197F1F780
:100470008091F6010E94B5008130910531F40E2C77
:1004800001C0880F0A94EAF7782A8091F6010E9449
:10049000B5000197D1F3E1E0EE1AF10800F7F6019B
:1004A00071926F01FDEF7F1609F4A5CFC814D9042E
:1004B00091F64C8128818981280F3327331F8A8147
:1004C000280F311D8B81820F932F911D992748177B
:1004D000190609F492CF0EEF10E08FCFAF92BF92C2
:1004E000CF92DF92EF92FF920F931F93CF93DF9300
:1004F0006C017B018B01040F151FEB015E01AE182F
:10050000BF08C017D10759F06991D601ED91FC9150
:100510000190F081E02DC6010995892B79F7C5017D
:10052000DF91CF911F910F91FF90EF90DF90CF90CF
:10053000BF90AF900895FC01538D448D252F30E07E
:10054000842F90E0821B930B541710F0CF960895E0
:1005500001970895FC01918D828D981761F0A28D0D
:10056000AE0FBF2FB11D5D968C91928D9F5F9F73D3
:10057000928F90E008958FEF9FEF0895FC01918D89
:10058000828D981731F0828DE80FF11D858D90E0F6
:1005900008958FEF9FEF0895FC01918D228D892F93
:1005A00090E0805C9F4F821B91098F73992708957B
:1005B00089E591E00E94CC0221E0892B09F420E03A
:1005C000822F089580E090E0892B29F00E94D802C4
:1005D00081110C9400000895FC01A48DA80FB92F7F
:1005E000B11DA35ABF4F2C91848D90E001968F735B
:1005F0009927848FA689B7892C93A089B1898C917A
:10060000837080648C93938D848D981306C00288C8
:10061000F389E02D80818F7D80830895EF92FF9292
:100620000F931F93CF93DF93EC0181E0888F9B8D15
:100630008C8D98131AC0E889F989808185FF15C0CF
:100640009FB7F894EE89FF896083E889F9898081F2
:100650008370806480839FBF81E090E0DF91CF91C1
:100660001F910F91FF90EF900895F62E0B8D10E0E3
:100670000F5F1F4F0F731127E02E8C8D8E110CC052
:100680000FB607FCFACFE889F989808185FFF5CF9D
:10069000CE010E94EC02F1CFEB8DEC0FFD2FF11D8E
:1006A000E35AFF4FF0829FB7F8940B8FEA89FB89DA
:1006B00080818062CFCFCF93DF93EC01888D882338
:1006C000B9F0AA89BB89E889F9898C9185FD03C0B5
:1006D000808186FD0DC00FB607FCF7CF8C9185FF9A
:1006E000F2CF808185FFEDCFCE010E94EC02E9CFF1
:1006F000DF91CF910895FC0101900020E9F7319737
:10070000AF01481B590BBC0189E591E00C946E02C6
:100710008F929F92AF92BF920F931F93CF93DF93CD
:10072000CDB7DEB7A1970FB6F894DEBF0FBECDBF31
:1007300019A2423008F44AE08E010F5D1F4F842E4B
:10074000912CB12CA12CA50194010E94D205E62F79
:10075000B901CA01EA30F4F4E05DD801EE938D01ED
:10076000232B242B252B79F790E080E0109719F0AC
:10077000CD010E947B03A1960FB6F894DEBF0FBE99
:10078000CDBFDF91CF911F910F91BF90AF909F9000
:100790008F900895E95CE1CFCF92DF92EF92FF92C4
:1007A000CF93DF936B017C016DE289E591E00E94BC
:1007B0000E03EC0166277727CB016C197D098E09A2
:1007C0009F094AE00E9488038C0F9D1FDF91CF9103
:1007D000FF90EF90DF90CF900895CF93DF930E942A
:1007E0007B03EC0182E191E00E947B038C0F9D1F53
:1007F000DF91CF9108951F920F920FB60F9211249F
:100800002F933F938F939F93AF93BF938091550105
:1008100090915601A0915701B0915801309150012B
:1008200023E0230F2D3758F50196A11DB11D20930C
:1008300050018093550190935601A0935701B093B6
:1008400058018091510190915201A0915301B091B2
:1008500054010196A11DB11D809351019093520145
:10086000A0935301B0935401BF91AF919F918F9189
:100870003F912F910F900FBE0F901F90189526E873
:10088000230F0296A11DB11DD2CF1F920F920FB65A
:100890000F9211242F933F934F935F936F937F9306
:1008A0008F939F93AF93BF93EF93FF9389E591E06D
:1008B0000E94EC02FF91EF91BF91AF919F918F91B8
:1008C0007F916F915F914F913F912F910F900FBE4C
:1008D0000F901F9018951F920F920FB60F92112430
:1008E0002F938F939F93EF93FF93E0916901F09182
:1008F0006A018081E0916F01F091700182FD1BC05F
:100900009081809172018F5F8F73209173018217A4
:1009100041F0E0917201F0E0E75AFE4F958F80932D
:100920007201FF91EF919F918F912F910F900FBEC8
:100930000F901F9018958081F4CFCF93DF93E9E556
:10094000F1E01382128288EE93E0A0E0B0E08483AD
:100950009583A683B78384E091E09183808385ECBF
:1009600090E09587848784EC90E09787868780EC79
:1009700090E0918B808B81EC90E0938B828B82EC6A
:1009800090E0958B848B86EC90E0978B868B118E14
:10099000128E138E148EC6EFD1E08DE090E0998315
:1009A000888384EF91E0A0E0B0E08A839B83AC83EE
:1009B000BD8361E08DE00E940C0161E08881DF91E0
:1009C000CF910C94DE00CF93DF9300D000D01F9224
:1009D000CDB7DEB7789484B5826084BD84B581607C
:1009E00084BD85B5826085BD85B5816085BD8091FA
:1009F0006E00816080936E00109281008091810072
:100A00008260809381008091810081608093810069
:100A1000809180008160809380008091B10084602B
:100A20008093B1008091B00081608093B00080918C
:100A30007A00846080937A0080917A00826080934B
:100A40007A0080917A00816080937A0080917A00A8
:100A5000806880937A001092C100E0916901F09162
:100A60006A0182E08083E0916501F0916601108265
:100A7000E0916701F091680180E18083109271013B
:100A8000E0916D01F0916E0186E08083E0916B0151
:100A9000F0916C01808180618083E0916B01F09125
:100AA0006C01808188608083E0916B01F0916C0122
:100AB000808180688083E0916B01F0916C0180817E
:100AC0008F7D808362E08DE00E940C0162E08CE00B
:100AD0000E940C0180E0E82E80E0F82ECE01019605
:100AE0000E94A0016C01892B19F46B81C62ED12CB8
:100AF000CE0101960E94A0018C01892B19F4698115
:100B0000062F10E0C6018D5F9109029728F0C801F9
:100B10008D5F9109029718F585E191E00E94ED0340
:100B200068EE73E080E090E00E946D018CE00E942E
:100B3000B500892B51F462E370E080E090E00E9400
:100B40006D0180E491E00E94ED03E114F10431F2C3
:100B50000E94D802882311F20E940000BFCF81E2D8
:100B600091E00E947B03B601DD0C880B990B97FF87
:100B700011C00E94CC038FE291E00E947B03B80178
:100B8000110F880B990B97FF09C00E94CC038EE3CD
:100B900091E0C4CF4AE00E948803EDCF4AE00E9472
:100BA0008803F5CFA1E21A2EAA1BBB1BFD010DC0C5
:100BB000AA1FBB1FEE1FFF1FA217B307E407F5070D
:100BC00020F0A21BB30BE40BF50B661F771F881FE9
:100BD000991F1A9469F760957095809590959B017F
:100BE000AC01BD01CF010895EE0FFF1F0590F491F8
:100BF000E02D0994F894FFCF000000000E036E0270
:100C00009B025B03CC02AA02BE020D0A00444854B8
:100C10003131204572726F720054656D706572617A
:100C2000747572653A200020432C2048756D696404
:100C30006974793A20002500427574746F6E2070D3
:080C4000726573736564000026
:107E0000112484B714BE81FFF0D085E080938100F7
:107E100082E08093C00088E18093C10086E0809377
:107E2000C20080E18093C4008EE0C9D0259A86E02C
:107E300020E33CEF91E0309385002093840096BBD3
:107E4000B09BFECF1D9AA8958150A9F7CC24DD24C4
:107E500088248394B5E0AB2EA1E19A2EF3E0BF2EE7
:107E6000A2D0813461F49FD0082FAFD0023811F036
:107E7000013811F484E001C083E08DD089C08234E0
:107E800011F484E103C0853419F485E0A6D080C0E4
:107E9000853579F488D0E82EFF2485D0082F10E0AE
:107EA000102F00270E291F29000F111F8ED06801E7
:107EB0006FC0863521F484E090D080E0DECF843638
:107EC00009F040C070D06FD0082F6DD080E0C81688
:107ED00080E7D80618F4F601B7BEE895C0E0D1E017
:107EE00062D089930C17E1F7F0E0CF16F0E7DF06D8
:107EF00018F0F601B7BEE89568D007B600FCFDCFD4
:107F0000A601A0E0B1E02C9130E011968C91119780
:107F100090E0982F8827822B932B1296FA010C0160
:107F200087BEE89511244E5F5F4FF1E0A038BF0790
:107F300051F7F601A7BEE89507B600FCFDCF97BE46
:107F4000E89526C08437B1F42ED02DD0F82E2BD052
:107F50003CD0F601EF2C8F010F5F1F4F84911BD097
:107F6000EA94F801C1F70894C11CD11CFA94CF0C13
:107F7000D11C0EC0853739F428D08EE10CD085E9AC
:107F80000AD08FE07ACF813511F488E018D01DD067
:107F900080E101D065CF982F8091C00085FFFCCF94
:107FA0009093C60008958091C00087FFFCCF809118
:107FB000C00084FD01C0A8958091C6000895E0E648
:107FC000F0E098E1908380830895EDDF803219F02E
:107FD00088E0F5DFFFCF84E1DECF1F93182FE3DFCA
:107FE0001150E9F7F2DF1F91089580E0E8DFEE27F6
:047FF000FF270994CA
:027FFE00040479
:00000001FF
