:020000040000FA
:100000000C9462000C948A000C948A000C948A0070
:100010000C948A000C948A000C948A000C948A0038
:100020000C948A000C948A000C948A000C948A0028
:100030000C948A000C948A000C948A000C948A0018
:100040000C940D040C948A000C947D040C945704B9
:100050000C948A000C948A000C948A000C948A00F8
:100060000C948A000C948A000000000024002700F1
:100070002A0000000000250028002B0000000000DE
:1000800023002600290004040404040404040202DA
:100090000202020203030303030301020408102007
:1000A0004080010204081020010204081020000012
:1000B0000008000201000003040700000000000027
:1000C0000000AF0411241FBECFEFD8E0DEBFCDBFCC
:1000D00022E0A2E7B1E001C01D92A432B207E1F72D
:1000E00011E0A0E0B1E0EEE6FCE002C005900D9268
:1000F000A237B107D9F710E0C2E6D0E004C02197DB
:10010000FE010E942F06C136D107C9F70E940F05D4
:100110000C9435060C940000833081F028F4813073
:1001200099F08230A9F008958730A9F08830C9F09D
:100130008430B1F4809180008F7D03C08091800075
:100140008F7780938000089584B58F7784BD08955C
:1001500084B58F7DFBCF8091B0008F778093B00006
:1001600008958091B0008F7DF9CFCF93DF93282F32
:1001700030E0F901E255FF4F8491F901E656FF4F57
:10018000D491F901EA57FF4FC491CC23A1F081111A
:100190000E948C00EC2FF0E0EE0FFF1FE458FF4FA1
:1001A000A591B491EC91ED2381E090E009F480E019
:1001B000DF91CF91089580E090E0FACF1F93CF9325
:1001C000DF93282F30E0F901E255FF4F8491F901C8
:1001D000E656FF4FD491F901EA57FF4FC491CC2363
:1001E000A9F0162F81110E948C00EC2FF0E0EE0F89
:1001F000FF1FEE58FF4FA591B4918FB7F894EC9183
:10020000111108C0D095DE23DC938FBFDF91CF9111
:100210001F910895DE2BF8CFCF93DF9390E0FC0180
:10022000E656FF4F24918A579F4FFC018491882303
:10023000C9F090E0880F991FFC01E859FF4FA59184
:10024000B491FC01EE58FF4FC591D49161110DC0DE
:100250009FB7F8948C91209582238C9388812823D2
:1002600028839FBFDF91CF910895623051F49FB7EB
:10027000F8943C91822F809583238C93E8812E2BD8
:10028000EFCF8FB7F894EC912E2B2C938FBFEACF42
:100290003FB7F8948091770190917801A09179010E
:1002A000B0917A0126B5A89B05C02F3F19F00196A1
:1002B000A11DB11D3FBFBA2FA92F982F8827BC01C0
:1002C000CD01620F711D811D911D42E0660F771FE8
:1002D000881F991F4A95D1F708958F929F92AF92E8
:1002E000BF92CF92DF92EF92FF926B017C010E944E
:1002F00048014B015C01C114D104E104F104B9F0DF
:100300000E944801681979098A099B09683E73406F
:100310008105910580F321E0C21AD108E108F108B6
:1003200088EE880E83E0981EA11CB11CE4CFFF90DC
:10033000EF90DF90CF90BF90AF909F908F900895F7
:10034000AF92BF92CF92DF92EF92FF920F931F93E3
:10035000CF93DF936C017B018B01040F151FEB0121
:100360005E01AE18BF08C017D10759F06991D601D8
:10037000ED91FC910190F081E02DC6010995892B4A
:1003800079F7C501DF91CF911F910F91FF90EF9009
:10039000DF90CF90BF90AF900895FC01538D448DB6
:1003A000252F30E0842F90E0821B930B541710F020
:1003B000CF96089501970895FC01918D828D98172D
:1003C00061F0A28DAE0FBF2FB11D5D968C91928D05
:1003D0009F5F9F73928F90E008958FEF9FEF089536
:1003E000FC01918D828D981731F0828DE80FF11DFF
:1003F000858D90E008958FEF9FEF0895FC01918D1A
:10040000228D892F90E0805C9F4F821B91098F7312
:10041000992708958BE791E00E94FE0121E0892B46
:1004200009F420E0822F089580E090E0892B29F0E4
:100430000E940A0281110C9400000895FC01A48D11
:10044000A80FB92FB11DA35ABF4F2C91848D90E0F6
:1004500001968F739927848FA689B7892C93A089D9
:10046000B1898C91837080648C93938D848D981363
:1004700006C00288F389E02D80818F7D80830895F6
:10048000EF92FF920F931F93CF93DF93EC0181E0E4
:10049000888F9B8D8C8D98131AC0E889F98980818B
:1004A00085FF15C09FB7F894EE89FF896083E889BE
:1004B000F98980818370806480839FBF81E090E0B0
:1004C000DF91CF911F910F91FF90EF900895F62E3D
:1004D0000B8D10E00F5F1F4F0F731127E02E8C8DD7
:1004E0008E110CC00FB607FCFACFE889F98980811C
:1004F00085FFF5CFCE010E941E02F1CFEB8DEC0FF0
:10050000FD2FF11DE35AFF4FF0829FB7F8940B8F38
:10051000EA89FB8980818062CFCFCF93DF93EC01A2
:10052000888D8823B9F0AA89BB89E889F9898C91DB
:1005300085FD03C0808186FD0DC00FB607FCF7CF97
:100540008C9185FFF2CF808185FFEDCFCE010E9497
:100550001E02E9CFDF91CF9108955F926F927F9253
:100560008F929F92AF92BF92CF92DF92EF92FF92C3
:100570000F931F93CF93DF93EC018B016A817B81F3
:100580008C819D810E946D0161E088810E940C0137
:1005900060E088810E94DE0062E170E080E090E02F
:1005A0000E946D0161E088810E94DE008BE990E08D
:1005B0000197F1F760E088810E940C018FB7F894F1
:1005C000C0907301D0907401E0907501F0907601B5
:1005D0008FBF88810E94B500019741F52FB7F8942D
:1005E0008091730190917401A0917501B091760191
:1005F0002FBF8C199D09AE09BF09893E9340A10503
:10060000B10538F34DEFE42EF12CC701DF91CF9106
:100610001F910F91FF90EF90DF90CF90BF90AF9020
:100620009F908F907F906F905F90089588810E9437
:10063000B5007C01892B31F73BE3C32EDD24D39435
:10064000C6010197F1F788810E94B5000197D1F6A4
:10065000C6010197F1F75801380185E0680E711C59
:1006600023E7822E912C97E0C92ED12C512C888122
:100670000E94B500892BD9F3C4010197F1F7888155
:100680000E94B5008130910531F40C2C01C0880F17
:100690000A94EAF7582A88810E94B5000197D9F395
:1006A000E1E0CE1AD10818F7F50151925F01FDEF94
:1006B0005F1609F4A7CFA614B704A9F6F801448180
:1006C00020818181280F3327331F8281280F311D1C
:1006D0008381820F932F911D99274817190609F4DA
:1006E00094CF8EEFE82EF12C90CFFC0101900020EA
:1006F000E9F73197AF01481B590BBC018BE791E03B
:100700000C94A001CF93DF930E947503EC0182E16A
:1007100091E00E9475038C0F9D1FDF91CF9108958A
:100720008F929F92AF92BF92CF92DF92EF92FF9201
:100730000F931F93CF93DF93CDB7DEB7A1970FB67B
:10074000F894DEBF0FBECDBF6C01990FEE08FF0815
:10075000F7FE41C06DE28BE791E00E9440028C0100
:1007600022273327A9012C193D094E095F0919A237
:10077000CE0181967C019AE0892E912CA12CB12C7E
:10078000CA01B901A50194010E940D06605DF7013F
:1007900062937F01211531054105510589F790E0EC
:1007A00080E0309719F0CF010E947503800F911FF0
:1007B000A1960FB6F894DEBF0FBECDBFDF91CF91EB
:1007C0001F910F91FF90EF90DF90CF90BF90AF906F
:1007D0009F908F900895A701960119A28E010F5D39
:1007E0001F4F8AE0C82ED12CE12CF12CCA01B9018F
:1007F000A70196010E940D06605DF80162938F01CA
:10080000211531054105510589F790E080E03097C9
:1008100079F2CF010E947503CBCF1F920F920FB6D2
:100820000F9211242F933F938F939F93AF93BF9376
:100830008091730190917401A0917501B09176013E
:100840003091720123E0230F2D3758F50196A11D39
:10085000B11D209372018093730190937401A09352
:100860007501B09376018091770190917801A09104
:100870007901B0917A010196A11DB11D8093770194
:1008800090937801A0937901B0937A01BF91AF91D1
:100890009F918F913F912F910F900FBE0F901F90BE
:1008A000189526E8230F0296A11DB11DD2CF1F92E5
:1008B0000F920FB60F9211242F933F934F935F9394
:1008C0006F937F938F939F93AF93BF93EF93FF9318
:1008D0008BE791E00E941E02FF91EF91BF91AF91D3
:1008E0009F918F917F916F915F914F913F912F9148
:1008F0000F900FBE0F901F9018951F920F920FB67A
:100900000F9211242F938F939F93EF93FF93E09176
:100910008B01F0918C018081E0919101F091920125
:1009200082FD1BC09081809194018F5F8F73209115
:100930009501821741F0E0919401F0E0E558FE4FF7
:10094000958F80939401FF91EF919F918F912F91BB
:100950000F900FBE0F901F9018958081F4CFCF920B
:10096000DF92EF92FF92CF93DF93EBE7F1E01382F8
:10097000128288EE93E0A0E0B0E084839583A683A2
:10098000B78384E091E09183808385EC90E0958744
:10099000848784EC90E09787868780EC90E0918B49
:1009A000808B81EC90E0938B828B82EC90E0958B36
:1009B000848B86EC90E0978B868B118E128E138E33
:1009C000148ECEE1D2E08DE090E09983888394EF9D
:1009D000C92EDD24D394E12CF12CCA82DB82EC8277
:1009E000FD8261E00E940C0161E088810E94DE00CE
:1009F000C8E1D2E08CE090E099838883CA82DB82F0
:100A0000EC82FD8261E00E940C0161E08881DF914F
:100A1000CF91FF90EF90DF90CF900C94DE00CF93BA
:100A2000DF9300D000D01F92CDB7DEB7789484B5A5
:100A3000826084BD84B5816084BD85B5826085BDDA
:100A400085B5816085BD80916E00816080936E0068
:100A5000109281008091810082608093810080915A
:100A6000810081608093810080918000816080930B
:100A700080008091B10084608093B1008091B000CB
:100A800081608093B00080917A00846080937A00C6
:100A900080917A00826080937A0080917A008160F0
:100AA00080937A0080917A00806880937A00109217
:100AB000C100E0918B01F0918C0182E08083E09194
:100AC0008701F09188011082E0918901F0918A01FB
:100AD00080E1808310929301E0918F01F091900169
:100AE00086E08083E0918D01F0918E0180818061AC
:100AF0008083E0918D01F0918E01808188608083F8
:100B0000E0918D01F0918E01808180688083E09179
:100B10008D01F0918E0180818F7D808362E08CE079
:100B20000E940C0162E08DE00E940C0180E0C82E62
:100B300080E0D82EBE016F5F7F4F8EE192E00E9471
:100B4000AD027C01892B11F4EB80F12CBE016F5FAB
:100B50007F4F8EE192E00E94AD028C01892B11F44F
:100B6000098110E0C7018D5F9109029730F0C8013B
:100B70008D5F9109029708F03FC085E191E00E94E6
:100B80008203BE016F5F7F4F88E192E00E94AD0259
:100B90008C01892B11F40B8110E0BE016F5F7F4F38
:100BA00088E192E00E94AD027C01892B11F4E9807A
:100BB000F12C84E491E00D3F110581F082E591E094
:100BC0000E947503C8010E94900381E691E00E9493
:100BD0007503C7010E94900382E491E00E948203A2
:100BE000C114D10409F4A6CF0E940A02882309F493
:100BF000A1CF0E9400009ECF83E291E00E94750386
:100C0000C7010E94900382E391E00E947503C8012E
:100C10000E94900382E491E0B2CFA1E21A2EAA1BB7
:100C2000BB1BFD010DC0AA1FBB1FEE1FFF1FA2179C
:100C3000B307E407F50720F0A21BB30BE40BF50B99
:100C4000661F771F881F991F1A9469F76095709522
:100C5000809590959B01AC01BD01CF010895EE0FE9
:100C6000FF1F0590F491E02D0994F894FFCF000048
:100C700000004002A001CD018D02FE01DC01F00167
:100C80000D0A0064687431315F31204572726F72F1
:100C90000054656D7065726174757265313A20003B
:100CA0002E432C2048756D6964697479313A2000AF
:100CB000250064687431315F32204572726F7200B2
:100CC00054656D7065726174757265323A20002EDC
:100CD000432C2048756D6964697479323A200000AC
:107E0000112484B714BE81FFF0D085E080938100F7
:107E100082E08093C00088E18093C10086E0809377
:107E2000C20080E18093C4008EE0C9D0259A86E02C
:107E300020E33CEF91E0309385002093840096BBD3
:107E4000B09BFECF1D9AA8958150A9F7CC24DD24C4
:107E500088248394B5E0AB2EA1E19A2EF3E0BF2EE7
:107E6000A2D0813461F49FD0082FAFD0023811F036
:107E7000013811F484E001C083E08DD089C08234E0
:107E800011F484E103C0853419F485E0A6D080C0E4
:107E9000853579F488D0E82EFF2485D0082F10E0AE
:107EA000102F00270E291F29000F111F8ED06801E7
:107EB0006FC0863521F484E090D080E0DECF843638
:107EC00009F040C070D06FD0082F6DD080E0C81688
:107ED00080E7D80618F4F601B7BEE895C0E0D1E017
:107EE00062D089930C17E1F7F0E0CF16F0E7DF06D8
:107EF00018F0F601B7BEE89568D007B600FCFDCFD4
:107F0000A601A0E0B1E02C9130E011968C91119780
:107F100090E0982F8827822B932B1296FA010C0160
:107F200087BEE89511244E5F5F4FF1E0A038BF0790
:107F300051F7F601A7BEE89507B600FCFDCF97BE46
:107F4000E89526C08437B1F42ED02DD0F82E2BD052
:107F50003CD0F601EF2C8F010F5F1F4F84911BD097
:107F6000EA94F801C1F70894C11CD11CFA94CF0C13
:107F7000D11C0EC0853739F428D08EE10CD085E9AC
:107F80000AD08FE07ACF813511F488E018D01DD067
:107F900080E101D065CF982F8091C00085FFFCCF94
:107FA0009093C60008958091C00087FFFCCF809118
:107FB000C00084FD01C0A8958091C6000895E0E648
:107FC000F0E098E1908380830895EDDF803219F02E
:107FD00088E0F5DFFFCF84E1DECF1F93182FE3DFCA
:107FE0001150E9F7F2DF1F91089580E0E8DFEE27F6
:047FF000FF270994CA
:027FFE00040479
:00000001FF
