:100000000C9462000C948A000C948A000C948A0070
:100010000C948A000C948A000C948A000C948A0038
:100020000C948A000C948A000C948A000C948A0028
:100030000C948A000C948A000C948A000C948A0018
:100040000C94F9040C948A000C9469050C944305F3
:100050000C948A000C948A000C948A000C948A00F8
:100060000C948A000C948A000000000024002700F1
:100070002A0000000000250028002B0000000000DE
:1000800023002600290004040404040404040202DA
:100090000202020203030303030301020408102007
:1000A0004080010204081020010204081020000012
:1000B0000008000201000003040700000000000027
:1000C00000009B0511241FBECFEFD8E0DEBFCDBFDF
:1000D00022E0ACE8B1E001C01D92AE33B207E1F717
:1000E00011E0A0E0B1E0E2E2F3E102C005900D9280
:1000F000AC38B107D9F710E0C2E6D0E004C02197D0
:10010000FE010E948909C136D107C9F70E94FB058B
:100110000C948F090C940000833081F028F4813016
:1001200099F08230A9F008958730A9F08830C9F09D
:100130008430B1F4809180008F7D03C08091800075
:100140008F7780938000089584B58F7784BD08955C
:1001500084B58F7DFBCF8091B0008F778093B00006
:1001600008958091B0008F7DF9CFCF93DF93282F32
:1001700030E0F901E255FF4F8491F901E656FF4F57
:10018000D491F901EA57FF4FC491CC23A1F081111A
:100190000E948C00EC2FF0E0EE0FFF1FE458FF4FA1
:1001A000A591B491EC91ED2381E090E009F480E019
:1001B000DF91CF91089580E090E0FACF1F93CF9325
:1001C000DF93282F30E0F901E255FF4F8491F901C8
:1001D000E656FF4FD491F901EA57FF4FC491CC2363
:1001E000A9F0162F81110E948C00EC2FF0E0EE0F89
:1001F000FF1FEE58FF4FA591B4918FB7F894EC9183
:10020000111108C0D095DE23DC938FBFDF91CF9111
:100210001F910895DE2BF8CFCF93DF9390E0FC0180
:10022000E656FF4F24918A579F4FFC018491882303
:10023000D1F090E0880F991FFC01E859FF4FA5917C
:10024000B491FC01EE58FF4FC591D49161110EC0DD
:100250009FB7F8948C91E22FE0958E238C932881A0
:10026000E223E8839FBFDF91CF9108958FB7F89481
:10027000EC91E22BEC938FBFF6CF3FB7F8948091CF
:10028000910190919201A0919301B091940126B5B2
:10029000A89B05C02F3F19F00196A11DB11D3FBFBE
:1002A000BA2FA92F982F8827BC01CD01620F711D8D
:1002B000811D911D42E0660F771F881F991F4A9587
:1002C000D1F708958F929F92AF92BF92CF92DF9213
:1002D000EF92FF926B017C010E943D014B015C019A
:1002E000C114D104E104F104B9F00E943D01681980
:1002F00079098A099B09683E73408105910580F35D
:1003000021E0C21AD108E108F10888EE880E83E0E6
:10031000981EA11CB11CE4CFFF90EF90DF90CF900E
:10032000BF90AF909F908F900895AF92BF92CF9261
:10033000DF92EF92FF920F931F93CF93DF936C01A5
:100340007B018B01040F151FEB015E01AE18BF0886
:10035000C017D10759F06991D601ED91FC91019038
:10036000F081E02DC6010995892B79F7C501DF9150
:10037000CF911F910F91FF90EF90DF90CF90BF90A2
:10038000AF900895FC01538D448D252F30E0842FCC
:1003900090E0821B930B541710F0CF9608950197AD
:1003A0000895FC01918D828D981761F0A28DAE0F9A
:1003B000BF2FB11D5D968C91928D9F5F9F73928F21
:1003C00090E008958FEF9FEF0895FC01918D828D4D
:1003D000981731F0828DE80FF11D858D90E008951A
:1003E0008FEF9FEF0895FC01918D228D892F90E072
:1003F000805C9F4F821B91098F739927089585E92F
:1004000091E00E94F30121E0892B09F420E0822F82
:10041000089580E090E0892B29F00E94FF0181116E
:100420000C9400000895FC01A48DA80FB92FB11DF4
:10043000A35ABF4F2C91848D90E001968F7399271A
:10044000848FA689B7892C93A089B1898C918370F8
:1004500080648C93938D848D981306C00288F389F1
:10046000E02D80818F7D80830895EF92FF920F931E
:100470001F93CF93DF93EC0181E0888F9B8D8C8D50
:1004800098131AC0E889F989808185FF15C09FB744
:10049000F894EE89FF896083E889F9898081837007
:1004A000806480839FBF81E090E0DF91CF911F91B6
:1004B0000F91FF90EF900895F62E0B8D10E00F5FD7
:1004C0001F4F0F731127E02E8C8D8E110CC00FB6AD
:1004D00007FCFACFE889F989808185FFF5CFCE0145
:1004E0000E941302F1CFEB8DEC0FFD2FF11DE35AAB
:1004F000FF4FF0829FB7F8940B8FEA89FB898081C8
:100500008062CFCFCF93DF93EC01888D8823B9F041
:10051000AA89BB89E889F9898C9185FD03C080810E
:1005200086FD0DC00FB607FCF7CF8C9185FFF2CF8B
:10053000808185FFEDCFCE010E941302E9CFDF91CC
:10054000CF9108955F926F927F928F929F92AF9218
:10055000BF92CF92DF92EF92FF920F931F93CF93B0
:10056000DF93EC018B016A817B818C819D810E94EC
:10057000620161E088810E940C0160E088810E9434
:10058000DE0062E170E080E090E00E94620161E0E4
:1005900088810E94DE008BE990E00197F1F760E02E
:1005A00088810E940C018FB7F894C0908D01D09083
:1005B0008E01E0908F01F09090018FBF88810E94A2
:1005C000B500019741F52FB7F89480918D01909176
:1005D0008E01A0918F01B09190012FBF8C199D09C0
:1005E000AE09BF09893E9340A105B10538F34DEF2F
:1005F000E42EF12CC701DF91CF911F910F91FF9055
:10060000EF90DF90CF90BF90AF909F908F907F90B2
:100610006F905F90089588810E94B5007C01892BBE
:1006200031F73BE3C32EDD24D394C6010197F1F7E4
:1006300088810E94B5000197D1F6C6010197F1F7B4
:100640005801380185E0680E711C23E7822E912C39
:1006500097E0C92ED12C512C88810E94B500892B9E
:10066000D9F3C4010197F1F788810E94B500813068
:10067000910531F40C2C01C0880F0A94EAF7582A2E
:1006800088810E94B5000197D9F3E1E0CE1AD10824
:1006900018F7F50151925F01FDEF5F1609F4A7CF3E
:1006A000A614B704A9F6F801448120818181280F9E
:1006B0003327331F8281280F311D8381820F932FAF
:1006C000911D99274817190609F494CF8EEFE82E4B
:1006D000F12C90CFCF93DF9300D000D01F92CDB7F5
:1006E000DEB7BE016F5F7F4F0E94A202009711F438
:1006F000898190E00F900F900F900F900F90DF91F5
:10070000CF910895CF93DF9300D000D01F92CDB743
:10071000DEB7BE016F5F7F4F0E94A202009711F407
:100720008B8190E00F900F900F900F900F90DF91C2
:10073000CF910895FC0101900020E9F73197AF01B6
:10074000481B590BBC0185E991E00C9495018F92EF
:100750009F92AF92BF920F931F93CF93DF93CDB72A
:10076000DEB7A1970FB6F894DEBF0FBECDBF19A2BA
:10077000423008F44AE08E010F5D1F4F842E912C09
:10078000B12CA12CA50194010E946709E62FB901A3
:10079000CA01EA30F4F4E05DD801EE938D01232B19
:1007A000242B252B79F790E080E0109719F0CD01EC
:1007B0000E949A03A1960FB6F894DEBF0FBECDBF7C
:1007C000DF91CF911F910F91BF90AF909F908F902D
:1007D0000895E95CE1CF0C949A034F925F926F9277
:1007E0007F928F929F92AF92BF92CF92DF92EF92C1
:1007F000FF920F931F93CF936B017C01742EAC017A
:100800009B010E946209882399F082E191E0CF91D7
:100810001F910F91FF90EF90DF90CF90BF90AF901E
:100820009F908F907F906F905F904F900C949A0361
:1008300046015701E894B7F82FEF3FEF4FE75FE726
:10084000C501B4010E94620981110DC02FEF3FEF75
:100850004FE75FE7C501B4010E942B0718161CF48F
:1008600086E191E0D4CF2FEF3FEF4FE75FE4C70180
:10087000B6010E945D0918161CF48AE191E0C7CF09
:100880002FEF3FEF4FE75FECC701B6010E942B0748
:1008900087FDF3CF20E030E0A901C701B6010E9437
:1008A0002B0710E000E087FF0AC06DE285E991E0C8
:1008B0000E9435028C01F7FAF094F7F8F094C0E04A
:1008C00060E070E080E09FE37C1641F020E030E0E3
:1008D00040E251E40E94BC08CF5FF6CFA701960129
:1008E0000E9450082B013C010E942E094B015C0123
:1008F0004AE00E94A7037C01E00EF11ECC23C1F167
:10090000C501B4010E9430079B01AC01C301B201D3
:100910000E944F084B015C016EE285E991E00E9464
:100920003502E80EF91EC15018F120E030E040E237
:1009300051E4C501B4010E9491072B013C010E94C2
:100940002E094B01B12CA12C4AE0C501B4010E9433
:10095000A703E80EF91EC501B4010E9430079B01F0
:10096000AC01C301B2010E944F084B015C01DBCF17
:10097000C701CF911F910F91FF90EF90DF90CF9023
:10098000BF90AF909F908F907F906F905F904F90AF
:100990000895CF92DF92EF92FF92CF93DF936C0195
:1009A000990FEE08FF08F7FE19C06DE285E991E0A6
:1009B0000E943502EC0166277727CB016C197D096F
:1009C0008E099F094AE00E94A7038C0F9D1FDF91AB
:1009D000CF91FF90EF90DF90CF9008954AE0C7014C
:1009E000B601DF91CF91FF90EF90DF90CF900C9404
:1009F000A7031F920F920FB60F9211242F933F93CC
:100A00008F939F93AF93BF9380918D0190918E01AF
:100A1000A0918F01B091900130918C0123E0230FC0
:100A20002D3758F50196A11DB11D20938C0180939F
:100A30008D0190938E01A0938F01B09390018091CE
:100A4000910190919201A0919301B091940101962E
:100A5000A11DB11D8093910190939201A0939301E8
:100A6000B0939401BF91AF919F918F913F912F913E
:100A70000F900FBE0F901F90189526E8230F029637
:100A8000A11DB11DD2CF1F920F920FB60F9211244C
:100A90002F933F934F935F936F937F938F939F9386
:100AA000AF93BF93EF93FF9385E991E00E94130208
:100AB000FF91EF91BF91AF919F918F917F916F9136
:100AC0005F914F913F912F910F900FBE0F901F900C
:100AD00018951F920F920FB60F9211242F938F9398
:100AE0009F93EF93FF93E091A501F091A601808180
:100AF000E091AB01F091AC0182FD1BC0908180912F
:100B0000AE018F5F8F732091AF01821741F0E091AA
:100B1000AE01F0E0EB56FE4F958F8093AE01FF9152
:100B2000EF919F918F912F910F900FBE0F901F907B
:100B300018958081F4CFCF92DF92EF92FF92CF93FE
:100B4000DF93E5E9F1E01382128288EE93E0A0E002
:100B5000B0E084839583A683B78384E091E091839A
:100B6000808385EC90E09587848784EC90E097877C
:100B7000868780EC90E0918B808B81EC90E0938B6A
:100B8000828B82EC90E0958B848B86EC90E0978B47
:100B9000868B118E128E138E148EC8E3D2E08DE0F8
:100BA00090E09983888394EFC92EDD24D394E12CBF
:100BB000F12CCA82DB82EC82FD8261E00E940C0192
:100BC00061E088810E94DE00C2E3D2E08CE090E028
:100BD00099838883CA82DB82EC82FD8261E00E9475
:100BE0000C0161E08881DF91CF91FF90EF90DF9061
:100BF000CF900C94DE00789484B5826084BD84B577
:100C0000816084BD85B5826085BD85B5816085BD07
:100C100080916E00816080936E00109281008091BF
:100C20008100826080938100809181008160809347
:100C30008100809180008160809380008091B1006C
:100C400084608093B1008091B00081608093B00097
:100C500080917A00846080937A0080917A0082602B
:100C600080937A0080917A00816080937A008091ED
:100C70007A00806880937A001092C100E091A5010B
:100C8000F091A60182E08083E091A101F091A201A0
:100C90001082E091A301F091A40180E18083109281
:100CA000AD01E091A901F091AA0186E08083E09175
:100CB000A701F091A801808180618083E091A70164
:100CC000F091A801808188608083E091A701F09174
:100CD000A801808180688083E091A701F091A8013C
:100CE00080818F7D808361E088E00E940C0161E05B
:100CF00088E00E94DE0088E392E00E94820388E39D
:100D000092E00E946A0382E392E00E94820382E3FF
:100D100092E00E946A03C0E0D0E088E392E00E9483
:100D200082036C0188E392E00E946A038C0182E3F3
:100D300092E00E9482035C0182E392E00E946A03D7
:100D40007C01C6018D5F9109029730F0C8018D5F6B
:100D50009109029708F057C08EE191E00E94EB03E1
:100D6000C5018D5F9109029730F0C7018D5F910930
:100D7000029708F059C089E491E00E94EB03C11486
:100D8000D10409F062C065018FE691E00E94EB0397
:100D9000B6016A0D7B1D072E000C880B990B0E9473
:100DA000320720E030E040E05FE30E94910742E03C
:100DB0000E94ED038AE791E00E94EB03B8016E0DFB
:100DC0007F1D072E000C880B990B0E94320720E034
:100DD00030E040E05FE30E94910742E00E94ED03B3
:100DE00084E491E00E949A0389E891E00E949A03CA
:100DF000209709F492CF0E94FF01882309F48DCF38
:100E00000E9400008ACF8EE291E00E94EB03C601AF
:100E10000E94C90487E391E00E94EB03C8010E948D
:100E2000C90484E491E09ACF89E591E00E94EB0344
:100E3000C5010E94C90482E691E00E94EB03C7014C
:100E40000E94C90484E491E098CFA114B10409F090
:100E50009BCF560199CF0E946D0708F481E0089559
:100E6000E89409C097FB3EF4909580957095619544
:100E70007F4F8F4F9F4F9923A9F0F92F96E9BB27FA
:100E80009395F695879577956795B795F111F8CF76
:100E9000FAF4BB0F11F460FF1BC06F5F7F4F8F4FE1
:100EA0009F4F16C0882311F096E911C0772321F0D7
:100EB0009EE8872F762F05C0662371F096E8862F6F
:100EC00070E060E02AF09A95660F771F881FDAF7C6
:100ED000880F9695879597F90895990F0008550FF3
:100EE000AA0BE0E8FEEF16161706E807F907C0F0B0
:100EF00012161306E407F50798F0621B730B840BB8
:100F0000950B39F40A2661F0232B242B252B21F491
:100F100008950A2609F4A140A6958FEF811D811D31
:100F200008950E94A4070C9415080E94070838F041
:100F30000E940E0820F0952311F00C94FE070C94EB
:100F4000040811240C9449080E94260870F3959F08
:100F5000C1F3950F50E0551F629FF001729FBB27B0
:100F6000F00DB11D639FAA27F00DB11DAA1F649F4C
:100F70006627B00DA11D661F829F2227B00DA11DFF
:100F8000621F739FB00DA11D621F839FA00D611D85
:100F9000221F749F3327A00D611D231F849F600DA6
:100FA000211D822F762F6A2F11249F5750409AF0CF
:100FB000F1F088234AF0EE0FFF1FBB1F661F771F5B
:100FC000881F91505040A9F79E3F510580F00C9426
:100FD000FE070C9449085F3FE4F3983ED4F38695EE
:100FE00077956795B795F795E7959F5FC1F7FE2BC6
:100FF000880F911D9695879597F9089597F99F67A2
:1010000080E870E060E008959FEF80EC0895002490
:101010000A941616170618060906089500240A945D
:1010200012161306140605060895092E0394000CE3
:1010300011F4882352F0BB0F40F4BF2B11F460FF72
:1010400004C06F5F7F4F8F4F9F4F089557FD90589B
:10105000440F551F59F05F3F71F04795880F97FB7C
:10106000991F61F09F3F79F0879508951216130636
:101070001406551FF2CF4695F1DF08C01616170665
:101080001806991FF1CF869571056105089408959A
:10109000E894BB2766277727CB0197F90895505826
:1010A000BB27AA270E9467080C9415080E9407080E
:1010B00038F00E940E0820F039F49F3F19F426F40E
:1010C0000C9404080EF4E095E7FB0C94FE07E92F5E
:1010D0000E94260858F3BA1762077307840795071A
:1010E00020F079F4A6F50C9448080EF4E0950B2E48
:1010F000BA2FA02D0B01B90190010C01CA01A0016A
:101100001124FF27591B99F0593F50F4503E68F1C4
:101110001A16F040A22F232F342F4427585FF3CF05
:10112000469537952795A795F0405395C9F77EF4D6
:101130001F16BA0B620B730B840BBAF09150A1F01F
:10114000FF0FBB1F661F771F881FC2F70EC0BA0FA5
:10115000621F731F841F48F4879577956795B7952D
:10116000F7959E3F08F0B0CF9395880F08F0992728
:10117000EE0F9795879508950E94D0080C94150856
:101180000E940E0858F00E94070840F029F45F3FC3
:1011900029F00C94FE0751110C9449080C94040892
:1011A0000E94260868F39923B1F3552391F3951B08
:1011B000550BBB27AA2762177307840738F09F5F78
:1011C0005F4F220F331F441FAA1FA9F335D00E2EE5
:1011D0003AF0E0E832D091505040E695001CCAF752
:1011E0002BD0FE2F29D0660F771F881FBB1F261715
:1011F00037074807AB07B0E809F0BB0B802DBF01EC
:10120000FF2793585F4F3AF09E3F510578F00C94BA
:10121000FE070C9449085F3FE4F3983ED4F38695AB
:1012200077956795B795F7959F5FC9F7880F911DDB
:101230009695879597F90895E1E0660F771F881FC7
:10124000BB1F621773078407BA0720F0621B730B7A
:10125000840BBA0BEE1F88F7E09508950E942E08C4
:1012600088F09F5798F0B92F9927B751B0F0E1F067
:10127000660F771F881F991F1AF0BA95C9F714C017
:10128000B13091F00E944808B1E008950C944808EC
:10129000672F782F8827B85F39F0B93FCCF3869550
:1012A00077956795B395D9F73EF4909580957095AD
:1012B00061957F4F8F4F9F4F08950E946D0708F4EF
:1012C0008FEF08950E946D07880B990B0895A1E296
:1012D0001A2EAA1BBB1BFD010DC0AA1FBB1FEE1FB0
:1012E000FF1FA217B307E407F50720F0A21BB30BFB
:1012F000E40BF50B661F771F881F991F1A9469F777
:1013000060957095809590959B01AC01BD01CF01D2
:101310000895EE0FFF1F0590F491E02D0994F894C5
:02132000FFCFFD
:101322000000000035029501C2018202F301D101E1
:10133200E5016E616E00696E66006F766600444874
:101342005431315F31204572726F723A2000546518
:101352006D705F313A200020432C2048756D695F23
:10136200313A2000253B20200044485431315F327D
:10137200204572726F723A200054656D705F323A86
:10138200200020432C2048756D695F323A200041CD
:1013920076672054656D703A200020432C204176F8
:0C13A200672048756D693A20000D0A00B4
:00000001FF
