:100000000C9462000C948A000C948A000C948A0070
:100010000C948A000C948A000C948A000C948A0038
:100020000C948A000C948A000C948A000C948A0028
:100030000C948A000C948A000C948A000C948A0018
:100040000C943F040C948A000C94AF040C94890423
:100050000C948A000C948A000C948A000C948A00F8
:100060000C948A000C948A000000000024002700F1
:100070002A0000000000250028002B0000000000DE
:1000800023002600290004040404040404040202DA
:100090000202020203030303030301020408102007
:1000A0004080010204081020010204081020000012
:1000B0000008000201000003040700000000000027
:1000C0000000F80411241FBECFEFD8E0DEBFCDBF83
:1000D00022E0A2EEB1E001C01D92AA39B207E1F719
:1000E00011E0A0E0B1E0ECE9FDE002C005900D9266
:1000F000A23EB107D9F710E0C2E6D0E004C02197D4
:10010000FE010E94C606C136D107C9F70E94360516
:100110000C94CC060C940000833081F028F48130DC
:1001200099F08230A9F008958730A9F08830C9F09D
:100130008430B1F4809180008F7D03C08091800075
:100140008F7780938000089584B58F7784BD08955C
:1001500084B58F7DFBCF8091B0008F778093B00006
:1001600008958091B0008F7DF9CFCF93DF93282F32
:1001700030E0F901E255FF4F8491F901E656FF4F57
:10018000D491F901EA57FF4FC491CC23A1F081111A
:100190000E948C00EC2FF0E0EE0FFF1FE458FF4FA1
:1001A000A591B491EC91ED2381E090E009F480E019
:1001B000DF91CF91089580E090E0FACF1F93CF9325
:1001C000DF93282F30E0F901E255FF4F8491F901C8
:1001D000E656FF4FD491F901EA57FF4FC491CC2363
:1001E000A9F0162F81110E948C00EC2FF0E0EE0F89
:1001F000FF1FEE58FF4FA591B4918FB7F894EC9183
:10020000111108C0D095DE23DC938FBFDF91CF9111
:100210001F910895DE2BF8CFCF93DF9390E0FC0180
:10022000E656FF4F24918A579F4FFC018491882303
:10023000C9F090E0880F991FFC01E859FF4FA59184
:10024000B491FC01EE58FF4FC591D49161110DC0DE
:100250009FB7F8948C91209582238C9388812823D2
:1002600028839FBFDF91CF910895623051F49FB7EB
:10027000F8943C91822F809583238C93E8812E2BD8
:10028000EFCF8FB7F894EC912E2B2C938FBFEACF42
:100290003FB7F8948091E7019091E801A091E901BE
:1002A000B091EA0126B5A89B05C02F3F19F0019631
:1002B000A11DB11D3FBFBA2FA92F982F8827BC01C0
:1002C000CD01620F711D811D911D42E0660F771FE8
:1002D000881F991F4A95D1F708958F929F92AF92E8
:1002E000BF92CF92DF92EF92FF926B017C010E944E
:1002F00048014B015C01C114D104E104F104B9F0DF
:100300000E944801681979098A099B09683E73406F
:100310008105910580F321E0C21AD108E108F108B6
:1003200088EE880E83E0981EA11CB11CE4CFFF90DC
:10033000EF90DF90CF90BF90AF909F908F900895F7
:10034000AF92BF92CF92DF92EF92FF920F931F93E3
:10035000CF93DF936C017B018B01040F151FEB0121
:100360005E01AE18BF08C017D10759F06991D601D8
:10037000ED91FC910190F081E02DC6010995892B4A
:1003800079F7C501DF91CF911F910F91FF90EF9009
:10039000DF90CF90BF90AF900895FC01538D448DB6
:1003A000252F30E0842F90E0821B930B541710F020
:1003B000CF96089501970895FC01918D828D98172D
:1003C00061F0A28DAE0FBF2FB11D5D968C91928D05
:1003D0009F5F9F73928F90E008958FEF9FEF089536
:1003E000FC01918D828D981731F0828DE80FF11DFF
:1003F000858D90E008958FEF9FEF0895FC01918D1A
:10040000228D892F90E0805C9F4F821B91098F7312
:10041000992708958BEE91E00E94FE0121E0892B3F
:1004200009F420E0822F089580E090E0892B29F0E4
:100430000E940A0281110C9400000895FC01A48D11
:10044000A80FB92FB11DA35ABF4F2C91848D90E0F6
:1004500001968F739927848FA689B7892C93A089D9
:10046000B1898C91837080648C93938D848D981363
:1004700006C00288F389E02D80818F7D80830895F6
:10048000EF92FF920F931F93CF93DF93EC0181E0E4
:10049000888F9B8D8C8D98131AC0E889F98980818B
:1004A00085FF15C09FB7F894EE89FF896083E889BE
:1004B000F98980818370806480839FBF81E090E0B0
:1004C000DF91CF911F910F91FF90EF900895F62E3D
:1004D0000B8D10E00F5F1F4F0F731127E02E8C8DD7
:1004E0008E110CC00FB607FCFACFE889F98980811C
:1004F00085FFF5CFCE010E941E02F1CFEB8DEC0FF0
:10050000FD2FF11DE35AFF4FF0829FB7F8940B8F38
:10051000EA89FB8980818062CFCFCF93DF93EC01A2
:10052000888D8823B9F0AA89BB89E889F9898C91DB
:1005300085FD03C0808186FD0DC00FB607FCF7CF97
:100540008C9185FFF2CF808185FFEDCFCE010E9497
:100550001E02E9CFDF91CF9108955F926F927F9253
:100560008F929F92AF92BF92CF92DF92EF92FF92C3
:100570000F931F93CF93DF93EC018B016A817B81F3
:100580008C819D810E946D0161E088810E940C0137
:1005900060E088810E94DE0062E170E080E090E02F
:1005A0000E946D0161E088810E94DE008BE990E08D
:1005B0000197F1F760E088810E940C018FB7F894F1
:1005C000C090E301D090E401E090E501F090E601F5
:1005D0008FBF88810E94B500019741F52FB7F8942D
:1005E0008091E3019091E401A091E501B091E601D1
:1005F0002FBF8C199D09AE09BF09893E9340A10503
:10060000B10538F34DEFE42EF12CC701DF91CF9106
:100610001F910F91FF90EF90DF90CF90BF90AF9020
:100620009F908F907F906F905F90089588810E9437
:10063000B5007C01892B31F73BE3C32EDD24D39435
:10064000C6010197F1F788810E94B5000197D1F6A4
:10065000C6010197F1F75801380185E0680E711C59
:1006600023E7822E912C97E0C92ED12C512C888122
:100670000E94B500892BD9F3C4010197F1F7888155
:100680000E94B5008130910531F40C2C01C0880F17
:100690000A94EAF7582A88810E94B5000197D9F395
:1006A000E1E0CE1AD10818F7F50151925F01FDEF94
:1006B0005F1609F4A7CFA614B704A9F6F801448180
:1006C00020818181280F3327331F8281280F311D1C
:1006D0008381820F932F911D99274817190609F4DA
:1006E00094CF8EEFE82EF12C90CFCF93DF9300D0F4
:1006F00000D01F92CDB7DEB7BE016F5F7F4F0E9463
:10070000AD02009711F4898190E00F900F900F9047
:100710000F900F90DF91CF910895CF93DF9300D08A
:1007200000D01F92CDB7DEB7BE016F5F7F4F0E9432
:10073000AD02009711F48B8190E00F900F900F9015
:100740000F900F90DF91CF910895FC010190002050
:10075000E9F73197AF01481B590BBC018BEE91E0D3
:100760000C94A001CF93DF930E94A503EC0182E1DA
:1007700091E00E94A5038C0F9D1FDF91CF910895FA
:100780000C94A5038F929F92AF92BF92CF92DF926B
:10079000EF92FF920F931F93CF93DF93CDB7DEB706
:1007A000A1970FB6F894DEBF0FBECDBF6C01990FB5
:1007B000EE08FF08F7FE41C06DE28BEE91E00E946B
:1007C00040028C0122273327A9012C193D094E092B
:1007D0005F0919A2CE0181967C019AE0892E912CA5
:1007E000A12CB12CCA01B901A50194010E94A40653
:1007F000605DF70162937F012115310541055105C7
:1008000089F790E080E0309719F0CF010E94A503AE
:10081000800F911FA1960FB6F894DEBF0FBECDBF1B
:10082000DF91CF911F910F91FF90EF90DF90CF90CC
:10083000BF90AF909F908F900895A701960119A245
:100840008E010F5D1F4F8AE0C82ED12CE12CF12CB8
:10085000CA01B901A70196010E94A406605DF801D2
:1008600062938F01211531054105510589F790E00B
:1008700080E0309779F2CF010E94A503CBCF1F9281
:100880000F920FB60F9211242F933F938F939F9344
:10089000AF93BF938091E3019091E401A091E501B2
:1008A000B091E6013091E20123E0230F2D3758F596
:1008B0000196A11DB11D2093E2018093E301909365
:1008C000E401A093E501B093E6018091E7019091E6
:1008D000E801A091E901B091EA010196A11DB11DC5
:1008E0008093E7019093E801A093E901B093EA01B6
:1008F000BF91AF919F918F913F912F910F900FBE1C
:100900000F901F90189526E8230F0296A11DB11D88
:10091000D2CF1F920F920FB60F9211242F933F93B5
:100920004F935F936F937F938F939F93AF93BF93F7
:10093000EF93FF938BEE91E00E941E02FF91EF91E7
:10094000BF91AF919F918F917F916F915F914F91E7
:100950003F912F910F900FBE0F901F9018951F92EF
:100960000F920FB60F9211242F938F939F93EF93B3
:10097000FF93E091FB01F091FC018081E091010285
:10098000F091020282FD1BC09081809104028F5F72
:100990008F7320910502821741F0E0910402F0E08C
:1009A000E551FE4F958F80930402FF91EF919F9147
:1009B0008F912F910F900FBE0F901F9018958081EF
:1009C000F4CFCF93DF93EC01862F6883798344EFD4
:1009D00051E060E070E04A835B836C837D8361E07B
:1009E0000E940C0161E08881DF91CF910C94DE00C0
:1009F000EBEEF1E01382128288EE93E0A0E0B0E02B
:100A000084839583A683B78384E091E09183808378
:100A100085EC90E09587848784EC90E097878687C3
:100A200080EC90E0918B808B81EC90E0938B828BBB
:100A300082EC90E0958B848B86EC90E0978B868B94
:100A4000118E128E138E148E6DE070E084E992E0A8
:100A50000E94E1046CE070E08EE892E00E94E10404
:100A60006BE070E088E892E00C94E104789484B53F
:100A7000826084BD84B5816084BD85B5826085BD9A
:100A800085B5816085BD80916E00816080936E0028
:100A9000109281008091810082608093810080911A
:100AA00081008160809381008091800081608093CB
:100AB00080008091B10084608093B1008091B0008B
:100AC00081608093B00080917A00846080937A0086
:100AD00080917A00826080937A0080917A008160B0
:100AE00080937A0080917A00806880937A001092D7
:100AF000C100E091FB01F091FC0182E08083E09174
:100B0000F701F091F8011082E091F901F091FA01FA
:100B100080E1808310920302E091FF01F0910002D6
:100B200086E08083E091FD01F091FE01808180618B
:100B30008083E091FD01F091FE01808188608083D7
:100B4000E091FD01F091FE01808180688083E09159
:100B5000FD01F091FE0180818F7D808362E08DE058
:100B60000E940C0162E08CE00E940C0162E08BE0CC
:100B70000E940C0161E088E00E940C0161E088E0C5
:100B80000E94DE0080E0E82E80E0F82E84E992E00A
:100B90000E948D038C0184E992E00E947503EC01B0
:100BA000C8018D5F9109029730F0CE018D5F9109E8
:100BB000029708F090C085E191E00E94C00385E2B1
:100BC00091E00D3F110529F00E3F110521F48BE353
:100BD00091E00E94C00382E591E0CD3FD10509F488
:100BE0008AC087E691E0CE3FD10509F484C08EE843
:100BF00092E00E948D038C018EE892E00E947503C2
:100C0000EC01C8018D5F9109029730F0CE018D5F34
:100C10009109029708F072C087E991E00E94C00331
:100C200085E291E00D3F110529F00E3F110521F4F9
:100C30008BE391E00E94C00382E591E0CD3FD105B6
:100C400009F46CC087E691E0CE3FD10509F466C097
:100C500088E892E00E948D038C0188E892E00E946F
:100C60007503EC01C8018D5F9109029730F0CE0148
:100C70008D5F9109029708F054C08CEB91E00E94BF
:100C8000C00385E291E00D3F110529F00E3F1105EB
:100C900021F48BE391E00E94B20382E591E0CD3F25
:100CA000D10509F44EC087E691E0CE3FD10509F4A5
:100CB00048C068EE73E080E090E00E946D01E114AE
:100CC000F10409F463CF0E940A02882309F45ECF7D
:100CD0000E9400005BCF8DE791E00E94C003C80135
:100CE0000E94C20386E891E00E94C003CE010E94E8
:100CF000C20382E991E00E94C00379CF87EA91E0C4
:100D00000E94C003C8010E94C20380EB91E00E94D0
:100D1000C003CE010E94C20382E991E00E94C00399
:100D200097CF8CEC91E00E94C003C8010E94C203DF
:100D300085ED91E00E94C003CE010E94C20382E9CA
:100D400091E00E94B203B5CFA1E21A2EAA1BBB1BF1
:100D5000FD010DC0AA1FBB1FEE1FFF1FA217B30787
:100D6000E407F50720F0A21BB30BE40BF50B661F9D
:100D7000771F881F991F1A9469F760957095809561
:100D800090959B01AC01BD01CF010895EE0FFF1FAF
:0C0D90000590F491E02D0994F894FFCF39
:100D9C00000000004002A001CD018D02FE01DC012B
:100DAC00F0010D0A0044485431315F312045727214
:100DBC006F723A200054454D502054696D656F7523
:100DCC0074204572726F723B20200054454D5020A8
:100DDC00436865636B73756D204572726F723B204F
:100DEC00200048554D2054696D656F75742045720F
:100DFC00726F723B20200048554D20436865636B31
:100E0C0073756D204572726F723B20200054656DB6
:100E1C00705F313A200020432C2048756D5F313AC9
:100E2C002000253B20200044485431315F322045BE
:100E3C0072726F723A200054656D705F323A200006
:100E4C0020432C2048756D5F323A200044485431C1
:100E5C00315F33204572726F723A200054656D70A9
:100E6C005F333A200020432C2048756D5F333A20C5
:020E7C00000074
:00000001FF
