:020000040000FA
:100000000C9469000C9491000C9491000C94910054
:100010000C9491000C9491000C9491000C9491001C
:100020000C9491000C9491000C9491000C9491000C
:100030000C9491000C9491000C9491000C949100FC
:100040000C946E070C9491000C9491000C94910008
:100050000C9491000C9491000C9491000C949100DC
:100060000C9491000C9491000000000024002700E3
:100070002A00FFD0FFE0FFCFFF64FFD1FF32380C32
:10008000060201FF64FFD0FFFE00000000250028EB
:10009000002B00040404040404040402020202020B
:1000A000020303030303030102040810204080013C
:1000B00002040810200102040810200000000800BB
:1000C000020100000304070000000000000000001F
:1000D000C40811241FBECFEFD8E0DEBFCDBF11E0B2
:1000E000A0E0B1E0EEE5F2E102C005900D92A6338A
:1000F000B107D9F722E0A6E3B1E001C01D92A63016
:10010000B207E1F710E0C9E6D0E004C02197FE0194
:100110000E942709C836D107C9F70E94B8070C9476
:100120002D090C94000090E0FC01E554FF4F249150
:10013000FC01E955FF4F3491FC01ED56FF4FE4916E
:10014000EE23C9F0222339F0233001F1A8F4213045
:1001500019F1223029F1F0E0EE0FFF1FE757FF4FB2
:10016000A591B4918FB7F894EC91611126C03095A8
:100170003E233C938FBF08952730A9F02830C9F063
:10018000243049F7809180008F7D03C080918000EA
:100190008F7780938000DFCF84B58F7784BDDBCFEE
:1001A00084B58F7DFBCF8091B0008F778093B000B6
:1001B000D2CF8091B0008F7DF9CF3E2BDACF3FB701
:1001C000F8948091C4019091C501A091C601B091AD
:1001D000C70126B5A89B05C02F3F19F00196A11DA8
:1001E000B11D3FBFBA2FA92F982F8827BC01CD0181
:1001F000620F711D811D911D42E0660F771F881FE0
:10020000991F4A95D1F70895AF92BF92CF92DF928E
:10021000EF92FF920F931F93CF93DF936C017B01BB
:100220008B01040F151FEB015E01AE18BF08C0174C
:10023000D10759F06991D601ED91FC910190F081BF
:10024000E02DC6010995892B79F7C501DF91CF9182
:100250001F910F91FF90EF90DF90CF90BF90AF90E4
:100260000895089580E00895CF93DF93EC01AE8167
:10027000BF819D81969596959695862F8770E0E82B
:10028000F0E002C0F595E7958A95E2F78A81481B70
:10029000499F402D1124669566956695460F552712
:1002A000551FA40FB51F8C91222329F0E82BEC9346
:1002B000DF91CF910895E095E823F9CFFB014181CB
:1002C000DC0112962C911297421768F013962C912C
:1002D0001397241740F0608115962C91621718F43B
:1002E00024810C9434010895FC0180819281980F3F
:1002F00092832181921760F494819F5F948393810C
:10030000890F821710F08FEF820F838381E00895A9
:1003100080E00895FC0112828081815083831482E1
:100320000895DB01ED91FC9109941F93CF93DF9326
:10033000D82FCAE01FEF6091CE017091CF01C0931A
:10034000E801D093E9011092EB011093EA0128EE45
:1003500031E04BE38CEC91E00E949101C85FC23721
:1003600051F76091CE017091CF01C093E801D09315
:10037000E9011092EB0180EF8093EA0128EE31E071
:100380004BE38CEC91E0DF91CF911F910C949101A4
:100390000F931F93CF93DF93182FCAE0D1E00FEF95
:1003A0006091CE017091CF011093E801C093E901F3
:1003B000D093EB010093EA0128EE31E04BE38CECA3
:1003C00091E00E949101C85FC23351F76091CE0164
:1003D0007091CF011093E801C093E901D093EB0134
:1003E00080EF8093EA0128EE31E04BE38CEC91E062
:1003F000DF91CF911F910F910C9491018091020296
:100400008A30C0F0809100028633A0F4809101020E
:100410008A3080F08091FF01863760F48AE00E9484
:1004200095018AE00E94C80185E70E94C80185E322
:100430000C9495010895CF93DF931F92CDB7DEB74B
:100440009E012F5F3F4F47E40E94910189810F90E9
:10045000DF91CF910895CF93DF931F92CDB7DEB791
:100460009E012F5F3F4F46E40E94910189810F90CA
:10047000DF91CF910895BF92CF92DF92EF92FF92DA
:100480000F931F93CF93DF938C01D42EE901FB01CF
:10049000E280F380F2E34F1709F476C0F417C8F056
:1004A0008CE2481709F470C0EDE24E17E9F0F7E16D
:1004B0004F1779F19E014D2DB701C801DF91CF9102
:1004C0001F910F91FF90EF90DF90CF90BF900C9411
:1004D000910186E4481709F44CC0E7E44E1709F48B
:1004E0004EC0FBE34F13E6CFB701C8010E941B02C9
:1004F000C980C094C80EB701C8010E942B02988120
:100500009095890F8883C9828B818E5F83708B83DE
:100510004BC047E1B701C8010E949101B701C80172
:100520000E942B02BA80B094B80EB701C8010E9495
:100530002B02D880D094D80EB701C8010E941B02AC
:10054000CB80C094C80EB701C8010E941B029981DC
:100550009095890FB882C982DA828B8381E0DF911E
:10056000CF911F910F91FF90EF90DF90CF90BF90B0
:100570000895B701C8010E942B028883EFCFB7010D
:10058000C8010E941B02F9CFB701C8010E941B02DB
:10059000C980C094C80EB701C8010E942B0298817F
:1005A0009095890F8883C9829E014D2DB701C8019E
:1005B0000E949101D3CFCF93DF93EC016A817B81BD
:1005C0000E942B0288836A817B81CE010E941B02DC
:1005D00089836A817B8130E020E048E4CE010E947B
:1005E00091018B879E012D5C3F4F6A817B8147E1A2
:1005F000CE01DF91CF910C949101CF93DF93C09105
:10060000CE01D091CF01E091FD01F091FE0182E099
:10061000099530E020E04AE0BE018CEC91E00E94B8
:100620009101C82FE091FD01F091FE0183E0099551
:10063000E091FD01F091FE0180E00995CC2329F0C5
:100640008CEC91E00E94DB02C1E08C2FDF91CF9116
:10065000089580E008950B96FC01849108950A9610
:10066000FC0184910895FC01849108950E94330354
:10067000882321F0823011F083E0089586E0089508
:10068000FC01E60FF11D849190E0982F88273196A8
:10069000E4918E0F911D089568E00C94400366E08C
:1006A0000C9440035F926F927F928F929F92AF92D1
:1006B000BF92CF92DF92EF92FF920F931F93CF934F
:1006C000DF93EC01E62EF42EC22E0C811D81C801B1
:1006D0000E943303D82E8C819D810E943603982E70
:1006E00021E0AA24AA94D21202C02FE0A22E8C816B
:1006F0009D810E942F03D82E8C819D810E942B0307
:10070000B82E8C819D810E944C03E0E6EC1578F4B4
:10071000009769F0080F191F91E6D92EBC14C0F498
:10072000188A1B8A1C8A198A1A8A80E0A0C08C81C8
:100730009D810E944F03F0E4FC1538F4009729F0E6
:10074000080F191F81E4D82EE9CF0F5E1F4FE6CFA7
:10075000BD1430F3892D90E0F80124912F3F31F43E
:100760000F5F1F4FBD14E1F2D394F6CFCD1072C0CE
:100770008C819D810E94330398012F5F3F4FF801C8
:10078000882319F0823009F04EC084918B8BF901D7
:1007900024912C8BF8013396E491E88BF801349680
:1007A000E491E98BF8013596E491EA8B0115110586
:1007B00009F4BBCF8C819D810E9436033C89F31ADA
:1007C0009A89F91A9FEF930F9F0D2CA94EA94F15E7
:1007D00008F449C0921718F49F1508F047C02B89F8
:1007E0009989E90E9FEF920F9E0D4BA95DA95E15A9
:1007F00008F44DC0941718F49E1508F037C0080F80
:10080000111D295F722E7694769476946F2C630E68
:100810005E01FCE1AF0EB11C872C912CF61431F176
:100820005E2C68014AC08491982F9F7092509A8BD9
:1008300082958F70898BF9012491822F8F708C8B18
:1008400022952F702B8BF8013296E491E295EF7090
:10085000E88BACCF3296E491EA21E80FF92FF11D35
:100860000E0F1F1F7FCF921708F0B6CF8889DF9138
:10087000CF911F910F91FF90EF90DF90CF90BF909D
:10088000AF909F908F907F906F905F900895941796
:1008900008F0B2CFEBCFF60184916A817B815C8E48
:1008A000FD8E1F8E8E8F95014BE3CE010E9491012C
:1008B000FFEFCF1ADF0A28E0520E8C2D801B871520
:1008C00050F3080D191DF394A9CF2EE93FE00097CE
:1008D00009F40895F9013197F1F70197F8CF3091B4
:1008E000BE014091BD015091BC016091BB01A0913E
:1008F000B901B091BA01E091B701F091B8019FB789
:100900009093B601F8949C91392B9C91492398E0DF
:1009100087FF0EC03C93880F2081262320832081EF
:10092000252B20839150A1F78091B6018FBF0895A8
:100930004C93F1CFCF93C62F81111BC088EF0E943B
:100940006F048C2F807F0E946F048C2F8295807F94
:100950000E946F0488E290E0FC013197F1F7FC01FE
:100960003197F1F7FC013197F1F70197F1F7CF914A
:100970000895813031F78AEFE2CF90E0FC01ED5627
:10098000FF4FE491F0E0EE0FFF1FE757FF4F259177
:1009900034913093BA012093B90170E0FB01ED5618
:1009A000FF4FE491F0E0EE0FFF1FE757FF4F259157
:1009B00034913093B8012093B70189559F4FFC01C2
:1009C00084918093BE0169557F4FFB0164916093D0
:1009D000BC0160956093BB0180958093BD01089533
:1009E000860F911DFC0183A18F3F19F0642F0C9499
:1009F00093000895EF92FF920F931F93CF93DF938D
:100A0000EC01142F79016150673008F054C0E62FD3
:100A1000F0E0E35FFA4F0C9427091405B7056B0566
:100A2000630579057E05B4058C010D5D1F4F7C01C2
:100A300080E3E80EF11CF80181918F018F3F21F1D5
:100A400090E0FC01E955FF4F24918D569F4FFC012A
:100A50008491882399F090E0880F991FFC01E85950
:100A6000FF4FA591B491FC01E757FF4F85919491F9
:100A70008FB7F894EC91E22BEC938FBF61E0F80113
:100A8000319780810E949300E016F106A1F640E0C4
:100A900062E0CE010E94F00441E064E0CE010E94D9
:100AA000F00440E065E0CE010E94F0046FA188A54B
:100AB0000E94BD041EA281E0DF91CF911F910F9192
:100AC000FF90EF9008958BA160E08F3FA1F3CE01DE
:100AD0000E94F004F0CF411103C040E062E0F7CF84
:100AE00041E062E00E94F0046FA188A50E94BD046D
:100AF000E2CF642F8EA10E949A04DDCF8EA18111D6
:100B000015C088EF0E946F04C8E2D0E0111112C036
:100B100088E290E0FC013197F1F7FC013197F1F7A1
:100B2000FC013197F1F70197F1F7C5CF813061F7FB
:100B30008AEFE8CFF7018081807F0E946F04F70180
:100B400081917F018295807F0E946F041150CE01B8
:100B50000197F1F7DBCFF70164918EA10E949A040F
:100B6000FFEFEF1AFF0A11501111F5CFA4CF4EA3DA
:100B7000A2CFDB011496ED91FC9130E020E065E01E
:100B80000994DB011496ED91FC9130E020E062E0E5
:100B90000994DB011496ED91FC9130E020E063E0D4
:100BA00009949F92AF92BF92CF92DF92EF92FF9201
:100BB0000F931F93CF93DF937C018B01942E6901D8
:100BC0008AE0481739F195E1491709F486C0F80120
:100BD000C281D381F2E39F1609F429C1F91508F403
:100BE000CBC085E1981609F427C197E1991609F45D
:100BF00033C1A4E19A12EFC0EE81FF818D818E0F87
:100C00009F2F911D11928E179F07E1F7CE010E9431
:100C10008A01E1C0DB011496ED91FC9130E020E007
:100C200043E061E0C701099580E092E7A92E90E0DA
:100C3000B92EF501C491811110C081E0CF3F49F078
:100C40004C2FB801C7010E94B905882309F4BFCF12
:100C500080E0BFEFAB1ABB0AECCF4FEFCF3F89F379
:100C6000CE3F09F4B4CFC03F98F7C03E38F04C2FC8
:100C70004F70B801C7010E94C105EACFC03D38F0EE
:100C80004C2F4F70B801C7010E94C905E1CFC03C8D
:100C9000F8F0D8011496ED91FC9130E020E040E0AE
:100CA00064E0C7010995C295C07FCE5FD0E0CE0158
:100CB0000E946504D8011496ED91FC9130E020E08B
:100CC00041E064E0C7010995CE010E946504C0CFF0
:100CD000C7FDBECF8C2F90E0F8CFFB01A280B38080
:100CE00040E0C7010E94C10541E0B801C7010E9470
:100CF000C905D5011296CC9112971696AD90BC906D
:100D0000D8E0DC0F40E0B801C7010E94C1054EE306
:100D1000B801C7010E94B905C03228F54C2F4068C0
:100D2000B801C7010E94B90540E8B801C7010E9497
:100D3000B90541E0B801C7010E94C105D801149668
:100D4000ED91FC91950140E166E0C7010995B0E1A4
:100D5000AB0EB11CCF5FCD13D5CF40E0B801C701BA
:100D60000E94C90534CF40EE4C0F4068B801C7015E
:100D70000E94B90548E8D9CFB6E49B1609F47BC0B8
:100D8000E7E49E1609F47BC0FBE39F1224C0D60162
:100D900011969C91119713968C9138E0390F813000
:100DA00031F0833011F0392F02C0392F985021E0F3
:100DB0004B81491708F420E041E0391708F040E082
:100DC00091E05A81351708F490E0322F342B9323A9
:100DD00079F4242369F481E0DF91CF911F910F9181
:100DE000FF90EF90DF90CF90BF90AF909F900895CD
:100DF000F601128100E0F12C843048F490E0FC010F
:100E0000EC5DFE4FF080805E9E4FDC010C9117FF81
:100E100004C0B601CE010E945E01F60180818F0DF3
:100E200080838181800F8183110F89F7D4CFB60130
:100E3000CE010E945E01CFCFCE010E9474018823B3
:100E400059F2EE81FF818D818E0F9F2F911D11929E
:100E50008E179F07E1F7BFCFD6011C928A811196AA
:100E60008C9311978D81815012968C9312978B8160
:100E700013968C93B0CF8D81F6018083ACCF89819E
:100E8000D6018C93A8CFDF92EF92FF920F931F931E
:100E9000CF93DF93EC01D62E1CAD0BAD7C0184E02B
:100EA000E80EF11CE98DFA8DC7010995412F480F15
:100EB0002D2D602FC7010E9452039BAD890F8BAF70
:100EC00081E090E0DF91CF911F910F91FF90EF9023
:100ED000DF900895089590E080E008951F920F92AA
:100EE0000FB60F9211242F933F938F939F93AF933D
:100EF000BF938091C0019091C101A091C201B091B6
:100F0000C3013091BF0123E0230F2D3758F501961F
:100F1000A11DB11D2093BF018093C0019093C10119
:100F2000A093C201B093C3018091C4019091C50107
:100F3000A091C601B091C7010196A11DB11D80937A
:100F4000C4019093C501A093C601B093C701BF919E
:100F5000AF919F918F913F912F910F900FBE0F9066
:100F60001F90189526E8230F0296A11DB11DD2CF20
:100F7000789484B5826084BD84B5816084BD85B574
:100F8000826085BD85B5816085BD80916E00816080
:100F900080936E0010928100809181008260809326
:100FA0008100809181008160809381008091800028
:100FB0008160809380008091B10084608093B10053
:100FC0008091B00081608093B00080917A0084604D
:100FD00080937A0080917A00826080937A00809179
:100FE0007A00816080937A0080917A008068809393
:100FF0007A001092C1008091CE019091CF0121E042
:101000008E30920751F090931101809310018EE081
:1010100091E09093CF018093CE018BE392E0909387
:101020000F0180930E018CEC91E00E94DB02C0E086
:10103000D0E011E080910502811104C010930502F7
:101040000E94FD02E090CE01F090CF01E091FD0101
:10105000F091FE0182E00995E091FD01F091FE0121
:1010600081E0099530E020E044E1B7018CEC91E0AB
:101070000E9491012FEF31E047E1B7018CEC91E044
:101080000E949101E091FD01F091FE0180E009953F
:101090000E94FE01E091E101F091E2018CEC91E00F
:1010A000099593E2D92ED80E28E2E22E21E0F22E05
:1010B00004E1F70121917F0121115EC0E091DA0185
:1010C000F091DB01309719F08CEC91E00995E090FC
:1010D000CE01F090CF01E091FD01F091FE0182E0A0
:1010E0000995E091FD01F091FE0181E0099530E064
:1010F00020E045E1B7018CEC91E00E949101082FBE
:10110000882341F02FEF31E047E1B7018CEC91E00B
:101110000E949101E091FD01F091FE0180E00995AE
:101120000111B6CF0E94DF004B015C0184E6C82E9E
:10113000D12CE12CF12C0E94DF00681979098A0971
:101140009B09683E734081059105A8F3F1E0CF1A31
:10115000D108E108F10828EE820E23E0921EA11CBE
:10116000B11CC114D104E104F10429F7209709F45A
:1011700061CF0E9400005ECF4D2D602F8CEC91E07E
:101180000E945203080F95CF1092CB011092CA0112
:1011900088E191E09093C9018093C8011092030205
:1011A00010920402109205021092D1011092D00107
:1011B0001092D3011092D2011092D50181E0809358
:1011C000D40182E28093D6011092DB011092DA0101
:1011D000EFEEF1E08FEF819391E0ED3FF907D9F762
:1011E00091E09093EC0129E233E03093E201209307
:1011F000E1019093E3011092E4011092E50190E483
:101200009093E6011092E70121E331E03093FE0173
:101210002093FD0128E031E03093CF012093CE01EF
:1012200098E09093F30199E09093F4019AE0909301
:10123000F1019BE09093F0018093EF010E94FD0289
:1012400088E191E09093C9018093C8010895EE0F61
:10125000FF1F0590F491E02D0994F894FFCF08400A
:10126000000000803601D1050001FA0432010000BF
:10127000000000000000430704016B076A0700013B
:1012800000FF0100FF0048656C6C6F20576F726CA7
:0412900064210000D5
:107E0000112484B714BE81FFF0D085E080938100F7
:107E100082E08093C00088E18093C10086E0809377
:107E2000C20080E18093C4008EE0C9D0259A86E02C
:107E300020E33CEF91E0309385002093840096BBD3
:107E4000B09BFECF1D9AA8958150A9F7CC24DD24C4
:107E500088248394B5E0AB2EA1E19A2EF3E0BF2EE7
:107E6000A2D0813461F49FD0082FAFD0023811F036
:107E7000013811F484E001C083E08DD089C08234E0
:107E800011F484E103C0853419F485E0A6D080C0E4
:107E9000853579F488D0E82EFF2485D0082F10E0AE
:107EA000102F00270E291F29000F111F8ED06801E7
:107EB0006FC0863521F484E090D080E0DECF843638
:107EC00009F040C070D06FD0082F6DD080E0C81688
:107ED00080E7D80618F4F601B7BEE895C0E0D1E017
:107EE00062D089930C17E1F7F0E0CF16F0E7DF06D8
:107EF00018F0F601B7BEE89568D007B600FCFDCFD4
:107F0000A601A0E0B1E02C9130E011968C91119780
:107F100090E0982F8827822B932B1296FA010C0160
:107F200087BEE89511244E5F5F4FF1E0A038BF0790
:107F300051F7F601A7BEE89507B600FCFDCF97BE46
:107F4000E89526C08437B1F42ED02DD0F82E2BD052
:107F50003CD0F601EF2C8F010F5F1F4F84911BD097
:107F6000EA94F801C1F70894C11CD11CFA94CF0C13
:107F7000D11C0EC0853739F428D08EE10CD085E9AC
:107F80000AD08FE07ACF813511F488E018D01DD067
:107F900080E101D065CF982F8091C00085FFFCCF94
:107FA0009093C60008958091C00087FFFCCF809118
:107FB000C00084FD01C0A8958091C6000895E0E648
:107FC000F0E098E1908380830895EDDF803219F02E
:107FD00088E0F5DFFFCF84E1DECF1F93182FE3DFCA
:107FE0001150E9F7F2DF1F91089580E0E8DFEE27F6
:047FF000FF270994CA
:027FFE00040479
:00000001FF
