:020000040000FA
:100000000C94760A0C949E0A0C949E0A0C949E0AF8
:100010000C949E0A0C949E0A0C949E0A0C949E0AC0
:100020000C94B01B0C949E0A0C949E0A0C949E0A8D
:100030000C949E0A0C949E0A0C949E0A0C949E0AA0
:100040000C94F3190C949E0A0C94631A0C943D1AA8
:100050000C949E0A0C949E0A0C949E0A0C949E0A80
:100060000C94951A0C949E0A2A2A2A2A2A2A2A2AA9
:100070002A2A2A2A2A2A2A2A2A2A2A2A2A2A2A2AE0
:100080002A2A2A2A2A2A2A2A2A2A2A2A2A2A2A2AD0
:100090002A2A2A2A2A2A2A2A2A2A2A2A2A2A2A2AC0
:1000A0002A2A2A2A2A2A2A2A2A2A2A2A2A2A2A2AB0
:1000B0002A2A2A2A2A2A2A2A2A2A2A2A2A2A2A2AA0
:1000C0002A2A2A2A2A2A2A2A2A2A005468616E6B96
:1000D00073002068747470733A2F2F6769746875A1
:1000E000622E636F6D2F41726475696E6F2D495278
:1000F00072656D6F74652F41726475696E6F2D49FD
:100100005272656D6F746523636F6E766572746984
:100110006E672D796F75722D32782D70726F6772E0
:10012000616D2D746F2D7468652D34782D76657230
:1001300073696F6E004120677569646520686F7729
:1001400020746F20636F6E7665727420796F75729C
:1001500020322E302070726F6772616D20697320BB
:10016000686572653A002068747470733A2F2F675F
:1001700069746875622E636F6D2F41726475696E64
:100180006F2D495272656D6F74652F417264756988
:100190006E6F2D495272656D6F7465236578616D60
:1001A000706C65732D666F722D746869732D6C6940
:1001B000627261727900546865206578616D706C57
:1001C00065732061726520646F63756D656E74651B
:1001D0006420686572653A005374617274207769AF
:1001E0007468207468652053696D706C655265632E
:1001F0006569766572206F722053696D706C655306
:10020000656E646572206578616D706C652E004F57
:100210007220646F776E677261646520796F7572A2
:10022000206C69627261727920746F2076657273D6
:10023000696F6E20322E362E302E00206176616975
:100240006C61626C65206174202246696C65203E99
:10025000204578616D706C6573203E204578616D36
:10026000706C65732066726F6D20437573746F6D6B
:10027000204C6962726172696573202F2049527245
:10028000656D6F7465222E00506C65617365207515
:100290007365206F6E65206F6620746865206E65DB
:1002A0007720636F6465206578616D706C6573207D
:1002B00066726F6D20746865206C69627261727914
:1002C0002C00546869732076657273696F6E2069BB
:1002D00073206E6F206C6F6E67657220737570701F
:1002E0006F7274656421004974207365656D732CA9
:1002F000207468617420796F752061726520757350
:10030000696E672061206F6C642076657273696F17
:100310006E20322E3020636F6465202F2065786157
:100320006D706C652E005468616E6B20796F75205E
:10033000666F72207573696E672074686520495214
:1003400072656D6F7465206C6962726172792100EB
:100350002A2A2A2A2A2A2A2A2A2A2A2A2A2A2A2AFD
:100360002A2A2A2A2A2A2A2A2A2A2A2A2A2A2A2AED
:100370002A2A2A2A2A2A2A2A2A2A2A2A2A2A2A2ADD
:100380002A2A2A2A2A2A2A2A2A2A2A2A2A2A2A2ACD
:100390002A2A2A2A2A2A2A2A2A2A2A2A2A2A2A2ABD
:1003A0002A2A2A2A2A2A2A2A2A2A2A2A2A2A2A2AAD
:1003B0002A2A0000000000240027002A0000000074
:1003C00000250028002B00000000080002010000AA
:1003D00003040700000000000000000000000023EC
:1003E0000026002900040404040404040402020298
:1003F0000202020303030303030102040810204066
:1004000080010204081020010204081020BF00032C
:10041000030304030504070E00FE0AFE0BFE017031
:1004200002DC08F0200500F207210752C3C71301C0
:100430002208A5DE87848B00230D56C20F89C54292
:10044000A258482C0024115EBE978C12D11219CEEE
:1004500024BA44682200251056C28F8452114D835D
:10046000D191A4429100260E56C2D748A2A79184EA
:1004700052D12411270722DFC72100280CEDBA9F93
:10048000484D24D3512654290DEDBA87504D28D319
:10049000492652032A0D3ECE47444B8426A344B43A
:1004A000042B0A3EC69750C92454022C0823BBC70C
:1004B0004442012D060ED287012E0612C307012FDA
:1004C0000E6EBAA736A14CA82694091501300B561A
:1004D000C20F45C49F241400310A56C2976C44D4FD
:1004E0002703320D56C20F454412CA84328D06339B
:1004F0000F56C20F4544128AA64212494201340DDA
:1005000056C267506D44D1C5269400350F56C2C7F8
:100510002128AC88844212494201360E56C2D7487F
:10052000422256449C241400370C56C2C721441161
:10053000CA847A02380F56C20F45C4242151444C54
:10054000120A00390E56C20F45C4495224514423A1
:10055000003A073AC70799003B0A4BBF8F3A682217
:10056000A1003C084EC2A74C571D3D0726CA871D57
:100570006A3E094EC28754371D013F0E56C20F45D1
:10058000449229AAC3842200400C56C2D74842B9DB
:1005900074599112410C56C20FE510E274183109DA
:1005A000420D56C24745C414A988385D00430C5615
:1005B000C20F45C4A813494201440C56C20749A2C0
:1005C000C42F121200450B56C2C721A858116A3415
:1005D000460B56C2C721A85811EA08470D56C20F4C
:1005E00045C4A85262925000480B56C28788D36116
:1005F000C49300490956C28749A89F0C4A0B56C2AA
:10060000A73E9228A211004B0F56C287882221CD07
:100610006624924489244C0856C287507F344D0C7E
:1006200056C24770443A1C443C094E0C56C2878857
:100630005469A17422094F0B56C20F45C49F24145C
:1006400000500B56C24745C4E922D408510E66BA81
:100650000F45C45385529250A501520C56C24745CE
:10066000C474D1C44900531056C20F454492488502
:1006700052898824A100540956C28749A83F0155D0
:100680000A56C287887F925000560C56C287889FB0
:1006900024249A0800570C56C28788A7C343251400
:1006A00001580F56C287882421D184321245441242
:1006B000590C56C287884942A20975025A0E56C281
:1006C0008751269409654299D0005B09EDBAC74D60
:1006D000FFAD005C0E6EBA8750552815AA0AA542D8
:1006E000055D09EDBA474DFFED005E081EE6978CEB
:1006F00022125F0716BAC7A10060079CE2874C016F
:10070000610D3EC20F45249B4848244901620B56A7
:10071000C28750B122E2E902630B3EC20F4544D4C6
:1007200024A100640A56C2A796134F9202650D3E9B
:10073000C20F45443A0C45120A00660C56C29F8C03
:10074000241499843A01670E4EBACF4A45D32C58E7
:1007500011492800680B56C28750B122E293006904
:100760000752C307E9706A0CE5BA9F3A44A6378A74
:1007700064026B0E56C28750534485449228D102BE
:100780006C0752C3C783016D0A3EC2874472F840AA
:10079000126E093EC24745C427016F0A3EC20F458B
:1007A000C4938402700B4EBA4745C4D345280471E4
:1007B0000A4EBACF8927495101720A3EC24745C441
:1007C000A81100730D3EC20F452491AA882414007D
:1007D000740B56C29750C924D4750075093EC28760
:1007E000884F9202760C3EC287884942A209450092
:1007F000770C3EC287887478A8842200780D3EC2A8
:10080000878824A1C928229200790E4EBA878824AD
:10081000D1693694288D007A093EC28751A6A3017A
:100820007B0CEDBAD744A69350A6E3007C076ABBC5
:10083000C787027D0DEDBAC750A6A348A6CB080016
:100840007E0A26DE4FAC22A94500A00500F207A1D2
:100850000752C307E970A2104EBE97CCA229228A84
:10086000882292484904A30E4EC2D748A228A30961
:1008700065258900A40E36CA874842928422228ABE
:100880004800A50F56C2477024A1988422935009AE
:1008900000A60852C3C7217808A7125EC20F4524DC
:1008A00091CA2822094D2A11492800A80795E687F0
:1008B0008422A90E5EC20F4574A0F4721849280064
:1008C000AA0BC5CECF44C54291500BAB093EC2DF47
:1008D00088C2C636AC082EC2C7A1A801AD068CD20C
:1008E0000701AE0F5EC20F4574A0540E9416928499
:1008F00002AF068DEA4701B00AA5DECF4442914C13
:1009000000B10A36C2975064128A0CB20ABDD2CF27
:10091000444DA4AD00B30CBDD2CF444D32A4482603
:1009200000B4089CE297440900B50A46BA87889744
:10093000035108B61266BACF21D24553441411456B
:100940004411514444B70612D70701B8071BBB8FA7
:100950008402B907B3D24F4507BA0AB5D2CF444291
:10096000918C0BBB093EC2C770D33600BC1056C277
:100970008F88A2126293445422159A00BD1056C269
:100980008F88A212621B4D922892D000BE0F56C2D1
:10099000872C22A98428448A846928BF0E5EBA8FD6
:1009A000500E13EA2622492800C00F66C28F540E4B
:1009B000A21C424C87119300C10E66C29F3A8872F6
:1009C00008311D464C02C20F66C2978C0EA11C4214
:1009D0004C87119300C31066C28F24450EA21C429F
:1009E0004C87119300C40F66C2878824A71C424C11
:1009F00087119300C51066C2972C14938328871023
:100A0000E9306212C61557C2CF212292882422C92A
:100A1000A42411494412918400C70D66BA0F45C43D
:100A2000A81349425303C80E66C28F540E390415E9
:100A30002B424503C90D66C29F3AE41054AC081519
:100A40000DCA0D66C2978C7E082A56848A06CB0E84
:100A500066C28788243E04152B424503CC0C66C22F
:100A60008F540E3109F5C900CD0B66C29F3AC424DC
:100A7000D42703CE0B66C2978C6E12EA9301CF0C7B
:100A800066C28788243609F5C900D01357C20F4DB6
:100A90002252111D242289482292289100D10F66EA
:100AA000C28F24450E11555A289D4802D20D66C2A8
:100AB0008F540EA288F8494201D30D66C29F3A882E
:100AC00022E227090500D40D66C2978C0EA188F892
:100AD000494201D50E66C28F24450EA288F84942CC
:100AE00001D60D66C2878824A788F8494201D70D30
:100AF0003FC2874CA2369C49D4A601D80F76BA6F64
:100B00000A45D2C5D24542894601D90D66C28F54E5
:100B10000E11F127090500DA0C66C29F3A44C49F02
:100B2000241400DB0C66C2978C2EE24F120A00DC04
:100B30000D66C287882416F127090500DD0E66C2FE
:100B40009F3A44C42421B1099500DE0D56C2875056
:100B5000581171BA088500DF0D56C2D748A2179206
:100B6000445F2E00E00F56C28F540EA28844140931
:100B7000892429E10F56C29F3A88221251242492D7
:100B8000A400E20F56C2978C0EA188441409892450
:100B900029E31056C28F24450EA2884414098924E3
:100BA00029E40F56C2878824A78844140989242978
:100BB000E5115EC2972C14938328221145422249E5
:100BC0000AE60F3FC24F45253449B18824940A00F4
:100BD000E70C4EBA0F4544D424A1A901E80F56C230
:100BE0008F540EA2884887A1484201E90F56C29F40
:100BF0003A8822221D8622090500EA0F56C2978CE8
:100C00000EA1884887A1484201EB0F56C28788246D
:100C1000A7884887A1484201EC0953C3874828D1D7
:100C200007ED0953C30F51A22F00EE0AD4C28F84DF
:100C30002AD21700EF0C56C28788248708F50900CE
:100C4000F0105EC28744342285A492132709050060
:100C5000F10C56C28F24450EA988F824F20D56C215
:100C60008F540EA28878925000F30C56C29F3A8897
:100C700022E2494201F40D56C2978C0EA188789267
:100C80005000F50E56C28F24450EA288789250006F
:100C9000F60D56C2878824A78878925000F70D4633
:100CA000C297500E39D421421100F8105EBA6F304D
:100CB0004491542C159284128D02F90B56C28F5414
:100CC0000E11F14952FA0B56C29F3A44C42749010A
:100CD000FB0B56C2978C2EE293A400FC0B56C287E6
:100CE000882416F14952FD0F66BA9F3A44C424A1E4
:100CF000AD89683200FE0D66BA8750B122E2E92262
:100D00001402FF1066BA878824163149686B229A4C
:100D10000C0000000004FFFF0000BF0002020304FB
:100D2000030504060A00FE07FE07000142029207BF
:100D3000B320050062072107394367A80022079BFB
:100D400052275901230D3D42AF4C69A86AA83225AC
:100D500000240B3D4237AF7AA7B42300250B3D4258
:100D60002FAAEEAA251300260C3D422FA7987295B4
:100D700064540127051953672808BB42379575014C
:100D80002908BB42279755092A0A2D4627A76AA892
:100D900076002B0A2D4637A3386446112C079B3E5C
:100DA0004F95002D060D4E67082E079B3E2FAD0474
:100DB0002F0B3D421F6594BB514600300A3D423720
:100DC000A7DA4E7504310C3D4237CB94514619C514
:100DD00021320C3D426FE58CA2CC190D01330C3D44
:100DE00042676894B3863A2D00340C3D423FCB54A1
:100DF000A6A1334A00350B3D42E746C9CC48A705BA
:100E0000360B3D4257E68C92A9D302370C3D426720
:100E1000689433CA35CA00380B3D426F659D56D67B
:100E20006901390C3D426F65A95446394A003A0AB6
:100E3000BB3E2FAD0CD34A003B09BB3E2FAD0C553A
:100E4000093C0ABC423FB6514619053D081D4A6798
:100E50006838043E0BBC4227A38C328A6D003F0ADF
:100E60003D426FE536CA7404400B3D426F65B9924E
:100E700095E102410B3D4237A75A8F917500420C14
:100E80003D4267C42AA659C5A100430C3D426F6587
:100E90008D32CA28A705440D3D4267C42AA6986230
:100EA0008A4301450C3D42E746198D94514643461D
:100EB0000D3D42E746198D9451461901470C3D42BC
:100EC0006F658D328A3B2D0048093D4227DB636404
:100ED0003B4908BB4267C5AE014A0C3D4277679467
:100EE00051466594004B0B3D4227CB54EA14AB1C92
:100EF0004C0E3D4227A38C32CA28A38C86004D0A93
:100F00003D4227EBB592B6034E0A3D4227EBA9922C
:100F1000DC3A4F093D426F65EFB400500D3D42672A
:100F2000A4AC87CA28A38C00510A453E6F65AF6AFE
:100F3000C300520B3D4267A4AC872AAB1C530B3D48
:100F4000426F650D37D46901540E3D4267C88C323B
:100F5000CA28A38C220055083D4227FB4E0B560B96
:100F60003D4227DBA94C31E508570A3D4227BB9299
:100F70004A7700580A3D4227EB5457B50E590C3DAD
:100F80004227EB5467945146115A0A3D42676894D0
:100F9000BBD1105B08BB4267C4CE015C0D3D42274C
:100FA000A30C33CC30C38C025D08BB4267768E0045
:100FB0005E071D5237A73A5F060D3E6708600612AE
:100FC0005B2706610A2D426FC334741A01620C3D1F
:100FD0004227A38C92A9A75200630A2D426F658D08
:100FE000725A00640B3D421F6594CC2D950A650A28
:100FF0002D426FE531325C00660C3D42575679C494
:101000008C32CA00670C3D3A6F689D46463A2D0007
:10101000680B3D4227A38C92A9ED006908BB422FC3
:1010200023D91A6A0BCC3A3F635D4B9914006B0CC1
:101030003D4227A38CB24CB3CA016C07BB4247F6B2
:101040001A6D0A2D4247B5545249076E082D4227A2
:1010500099DA0E6F092D426F653B2D00700C3D3AF9
:1010600027997A2A95514600710B3D3ACFDC52A957
:101070008C320A720B2D4227991A65941100730A5B
:101080002D426F65B8E15000740D3D422FA33C62C4
:101090004619C5A80075082D42273B950A760A2DEA
:1010A0004227EB54A61C0177092D42275B497501A5
:1010B00078092D4227A7BAAA03790B3D3A279B4A04
:1010C00065A4D3027A082D4267E8F6107B0BBC4278
:1010D000576594348A19097C063943E7087D0CBCAE
:1010E0004247A39891CA2849007E091D522FAA247D
:1010F0001300A005006207A1073943270D01A20CC8
:101100003D3E370F15534C79C408A30B3D4257564B
:101110007967149502A40A2D4227A799E2CA01A56E
:101120000D453E27EB54C72133CA2802A606394392
:10113000670DA70B453E6F65343B374A0BA8068BFE
:101140005E2705A90C3D426F6595A64A3A2D00AA77
:101150000AB4466F44A56A3402AB0B2E42B78A2903
:10116000E6986300AC07944A67E400AD068C4E67CE
:1011700004AE0B3D426FE591E6D46901AF060D5E0A
:101180006708B0069B52AF0BB10B354237A33864EA
:10119000467108B208AC4E4FC5E608B30AAC4E67BC
:1011A000A3A4D14800B406125B4F01B50A353E270F
:1011B000DB53A98C00B60E3D426F8C34525231C5C0
:1011C000145300B705094F27B806123B4F01B90762
:1011D000AB4E2FC96ABA0AB4464F4599341C01BBBD
:1011E0000C2E4227E698638A294600BC104E3E2FFB
:1011F000230D33CC6866A4531C1906BD104E3E2F38
:10120000230D33CC686554C38C321ABE0E4D3E4755
:10121000C39C619459A634320ABF0A3D4237D319A0
:10122000E5D602C00C45422FC3BCB21E23EB00C161
:101230000B4542BF5E598F917500C20C454237A7DE
:10124000B8B21E23EB00C30C45422F2AB9B21E23AD
:10125000EB00C40B4542AFA656D663641DC50C45D2
:101260004237A7B8B21E23EB00C60B3E4277A4B2AA
:1012700039466C0EC70D4D3A6F658D32CA28A75D91
:1012800003C80E45422F8F8D321A29A38C8600C9C0
:101290000E45423F8D8D321A29A38C8600CA0E4519
:1012A00042378E8D321A29A38C8600CB0E4542AF71
:1012B0001A1B65345246190D01CC09C34227A715E4
:1012C0005B03CD09C34237A5155B03CE09C342AF0B
:1012D0001A29B606CF09C34227E5155B03D00D3D99
:1012E0004267C42A8E54A6381400D10B4542377584
:1012F0004F95E4D601D20B45422FC3BCB23B2D0023
:10130000D30A4542BF5ED99D1600D40B454237A78C
:10131000B8B23B2D00D50A454237355776A705D6DA
:101320000A4542AFA65676A705D7092D4227A7BA88
:10133000AA03D80B3D426FC52BCD991600D90A459B
:10134000422FC3DA3B2D00DA094542BFCCDE6901EA
:10135000DB0B454237A78CB33B2D00DC0A4542AF7F
:10136000C6D93B2D00DD0C4542BFCC3AD5196514DA
:1013700001DE0E3D4227A391F2501965941100DF62
:101380000B3D426F6599CA2A2B05E00C45422FC3DD
:101390004C6E98864E23E10B4542BF26374C43A73F
:1013A00011E20C454237A74C6D98864E23E30C455D
:1013B0004237B5A90DD3D06904E40B3D42AFA63640
:1013C0004C43A711E50C454237A79C374C43A71166
:1013D000E60B2E426F64548D998700E70B3D3A6F00
:1013E000658D72DA3500E80C45422FC34CAE3C46A1
:1013F000860BE90B4542BF26571E23C305EA0C4561
:101400004237A74CAD3C46860BEB0B3D42AFA65690
:101410001E23C305EC09C3422767245B03ED08C301
:1014200042AF86B235EE08C342AF2D5B03EF08BB77
:10143000422765D91AF00B3D424743B9B29D1600C9
:10144000F10A454237B57132B51DF20B45422FC343
:101450004CAE6CA705F30A4542BF2657B6D302F43B
:101460000B454237A74CAD6CA705F50B454237B588
:10147000A995EDB400F60A3D42AFA656B6D302F7E1
:10148000092D463753435311F80A2D426FC895E68C
:101490005000F90B45422FC34C65A75201FA0A458B
:1014A00042BFA6B253A900FB0B454237A78CB353EA
:1014B000A900FC0A3D42AFC6D9A95400FD0C4D3A23
:1014C000BFCCA65219E9B400FE0D453A27A391B24C
:1014D0003D54461901FF0D4D3AAFC6D9542A239DFC
:1014E000160000000004FFFF0000821C11241FBE34
:1014F000CFEFD8E0DEBFCDBF11E0A0E0B1E0E8EB78
:10150000F3E502C005900D92A03CB107D9F727E0A2
:10151000A0ECB1E001C01D92A333B207E1F71AE0DD
:10152000C6E7DAE004C02197FE010E942C27C537E8
:10153000D107C9F70E94C21D0C94DA290C9400004F
:10154000662329F06A3019F0862F90E008958FEF16
:101550009FEF0895EF92FF920F93CF93DF937A015D
:10156000462F4770E0E8F0E002C0F595E7954A9510
:10157000E2F75E2FDC01ED91FC91A089B0E0AE9D19
:10158000E001AF9DD00DBE9DD00D1124FC01E0AC5B
:10159000F1AC43E0769567954A95E1F76C0F7D1FB6
:1015A000F701E60FF71FEC01C657DF4F011119C015
:1015B0008881823018F49081952B908388818130C6
:1015C00019F0908195279083569511F4319650E843
:1015D0002150310969F7DF91CF910F91FF90EF9082
:1015E00008958881823018F49081952B90838881AA
:1015F000813019F0908195279083EA0FFB1F2150CD
:10160000310979F7E8CF80E0089590E080E008950F
:101610000F931F93CF93DF934091970280915006D1
:1016200010E0481708F063C0142F11700091960263
:1016300001114EC0E0915306F0915406E40FF11DE4
:10164000E585F0E02CEE3FEF112311F024E130E0CE
:10165000C0919402D09195022C0F3D1FC90163E403
:1016600070E00E940427E617F70760F0C90168E2FE
:1016700070E00E9404276F5F7F4F81E090E06E175B
:101680007F0710F52C0F3D1FC90163E470E00E9435
:101690000427E617F70750F0C90168E270E00E94DE
:1016A00004276F5F7F4F6E177F0760F42C0F3D1F7D
:1016B000C90163E470E00E940427E617F707E8F425
:1016C0001FEF15C082E090E0909393028093920206
:1016D0000F5F0093960280919202909193020817F7
:1016E000190628F0109296024F5F40939702812FBF
:1016F000DF91CF911F910F910895C90168E270E0C9
:101700000E9404276F5F7F4F6E177F07C8F283E048
:1017100090E0DACFCF93DF93482FE0915306F0911A
:10172000540670969B012C5E3F4FC90163E470E044
:101730000E940427EB01C90168E270E00E940427BF
:101740006F5F7F4F80E090E0DC01208130E0880F08
:10175000991FAA1FBB1F32962C173D0720F0621756
:10176000730708F08160415081F780932D069093B4
:101770002E06A0932F06B093300681E0DF91CF9123
:101780000895833081F028F4813099F08230A9F0F7
:1017900008958730A9F08830C9F08430B1F4809181
:1017A00080008F7D03C0809180008F7780938000C0
:1017B000089584B58F7784BD089584B58F7DFBCF60
:1017C0008091B0008F778093B00008958091B00031
:1017D0008F7DF9CF1F93CF93DF93282F30E0F9014E
:1017E000E953FC4F8491F901E750FC4FD491F90182
:1017F000EB51FC4FC491CC23A9F0162F81110E940C
:10180000C10BEC2FF0E0EE0FFF1FE354FC4FA5914E
:10181000B4918FB7F894EC91111108C0D095DE23E4
:10182000DC938FBFDF91CF911F910895DE2BF8CF0E
:10183000CF93DF9390E0FC01E750FC4F24918B5154
:101840009C4FFC0184918823C9F090E0880F991F78
:10185000FC01ED54FC4FA591B491FC01E354FC4F05
:10186000C591D49161110DC09FB7F8948C912095CA
:1018700082238C938881282328839FBFDF91CF9177
:101880000895623051F49FB7F8943C91822F80956F
:1018900083238C93E8812E2BEFCF8FB7F894EC91B4
:1018A0002E2B2C938FBFEACF3FB7F89480918A02FA
:1018B00090918B02A0918C02B0918D0226B5A89BCD
:1018C00005C02F3F19F00196A11DB11D3FBFBA2FD2
:1018D000A92F982F8827BC01CD01620F711D811D92
:1018E000911D42E0660F771F881F991F4A95D1F717
:1018F00008958F929F92AF92BF92CF92DF92EF9214
:10190000FF926B017C010E94540C4B015C01C114DD
:10191000D104E104F104B9F00E94540C681979096A
:101920008A099B09683E73408105910580F321E097
:10193000C21AD108E108F10888EE880E83E0981EEB
:10194000A11CB11CE4CFFF90EF90DF90CF90BF902F
:10195000AF909F908F900895AF92BF92CF92DF92F9
:10196000EF92FF920F931F93CF93DF936C017B0154
:101970008B01040F151FEB015E01AE18BF08C017E5
:10198000D10759F06991D601ED91FC910190F08158
:10199000E02DC6010995892B79F7C501DF91CF911B
:1019A0001F910F91FF90EF90DF90CF90BF90AF907D
:1019B0000895FC01538D448D252F30E0842F90E055
:1019C000821B930B541710F0CF960895019708953A
:1019D000FC01918D828D981761F0A28DAE0FBF2F03
:1019E000B11D5D968C91928D9F5F9F73928F90E059
:1019F00008958FEF9FEF0895FC01918D828D9817C8
:101A000031F0828DE80FF11D858D90E008958FEF04
:101A10009FEF0895FC01918D228D892F90E0805CCD
:101A20009F4F821B91098F739927089588E992E04F
:101A30000E940A0D21E0892B09F420E0822F0895ED
:101A400080E090E0892B29F00E94160D81110C9402
:101A500000000895FC01A48DA80FB92FB11DA35A51
:101A6000BF4F2C91848D90E001968F739927848FBE
:101A7000A689B7892C93A089B1898C9183708064E1
:101A80008C93938D848D981306C00288F389E02D82
:101A900080818F7D80830895EF92FF920F931F9333
:101AA000CF93DF93EC0181E0888F9B8D8C8D981311
:101AB0001AC0E889F989808185FF15C09FB7F8941D
:101AC000EE89FF896083E889F98980818370806469
:101AD00080839FBF81E090E0DF91CF911F910F91B4
:101AE000FF90EF900895F62E0B8D10E00F5F1F4FC3
:101AF0000F731127E02E8C8D8E110CC00FB607FCD2
:101B0000FACFE889F989808185FFF5CFCE010E945F
:101B10002A0DF1CFEB8DEC0FFD2FF11DE35AFF4F96
:101B2000F0829FB7F8940B8FEA89FB8980818062ED
:101B3000CFCFCF93DF93EC01888D8823B9F0AA89AA
:101B4000BB89E889F9898C9185FD03C0808186FD78
:101B50000DC00FB607FCF7CF8C9185FFF2CF8081C7
:101B600085FFEDCFCE010E942A0DE9CFDF91CF9105
:101B7000089520912302260F3327331F2132310588
:101B8000ECF420914702FC0190E080E0243069F001
:101B900082E00895A09123022191AC014D5F5D4F39
:101BA000A40FB52FB11D2C930196861798F3809141
:101BB0002302680F6093230280E0089581E0089576
:101BC00008958FEF9FEF08958FEF9FEF0895809115
:101BD000FC0190E09195819591090895CF93DF9351
:101BE000CB01EA01642F0E94B90DCE01DF91CF91A4
:101BF0000895CF93DF931F92CDB7DEB7698361E07D
:101C0000CE0101960E94B90D81E090E00F90DF9126
:101C1000CF910895DC011A96ED91FC9130E020E01F
:101C200009941F93CF93DF93EC01A881B9816831A8
:101C300009F49BC038F4643109F489C0673149F074
:101C400080E00EC0693109F4D4C06032C9F76AE49B
:101C500088C01C968C9180FD3FC0411105C081E079
:101C6000DF91CF911F910895F90181919F0141501A
:101C7000DFB7F894A091EA01B091EB01C091E901BE
:101C8000E091E701F091E8017091E6016091E501D2
:101C900081110EC08C918C238C9388E09081972BBE
:101CA00090839081962390838150C1F7DFBFD5CF79
:101CB0001091E40198E05C9187FF0CC0512B5C937C
:101CC0005081572B5083880F508156235083915059
:101CD00091F7ECCF5C23F3CF442309F4C0CFF90193
:101CE00081919F014150DFB7F894A091EA01B09132
:101CF000EB01C091E901E091E701F091E801609109
:101D0000E6017091E50181110EC08C918C238C93BA
:101D100088E09081972390839081962B90838150C7
:101D2000C1F7DFBFD9CF1091E40198E05C9187FF44
:101D30000CC0512B5C93508157235083880F5081E6
:101D4000562B5083915091F7ECCF5C23F3CF119633
:101D50004C9169E40E940A0EE881F9814485417042
:101D600060E4CE010E940A0E7ACF4C9169E40E9491
:101D70000A0EA881B981EA85FB8530E020E0129641
:101D80004C916CE2CE0109958E8D90E0FC01EB51F7
:101D9000FC4FE491F0E0EE0FFF1FE354FC4F259160
:101DA00034913093E8012093E701FC01E750FC4FA8
:101DB000E491E093E601E095E093E5018F8D90E0FA
:101DC000FC01EB51FC4FE491F0E0EE0FFF1FE354F8
:101DD000FC4F259134913093EB012093EA01FC01F3
:101DE000E750FC4FE491E093E401E095E093E901D2
:101DF00036CFEA85FB8530E020E013964C916CE20B
:101E00000995E881F981418169E4ABCFDC0116963F
:101E1000ED91FC9130E020E040E069E10994DC01C3
:101E20001696ED91FC9130E020E040E068E10994E5
:101E30009A01DC011696ED91FC91462F67E1099419
:101E4000EF92FF920F931F93CF93DF931F92CDB723
:101E5000DEB77C018B01D8016C91673129F150F418
:101E60006531A0F40F90DF91CF911F910F91FF90FA
:101E7000EF9008956A3118F16E3FA1F7F8014181A2
:101E8000498369E2C7010E940A0E0BC0F801418133
:101E90004983D7011696ED91FC9130E020E0C7010F
:101EA00009950E5F1F4FD7CFF80181818983AE015D
:101EB0004F5F5F4F61E0C7010E94180FF2CF0F5FC5
:101EC0001F4FD7011696ED91FC9130E020E040E0E5
:101ED000C7010995C0CF462FDC011696ED91FC9104
:101EE00030E020E065E10994AF92BF92CF92DF929B
:101EF000EF92FF920F931F93CF93DF93EC01693022
:101F000089F48DE291E0998388831C8A81E0DF91D6
:101F1000CF911F910F91FF90EF90DF90CF90BF90E6
:101F2000AF90089579016B3009F440C06F3009F427
:101F300044C080E06A3059F7EA85FB8530E020E054
:101F400040E068E2CE010995EE81FF8130E020E0BB
:101F500040E064E1CE01099541E06BE4CE010E94CE
:101F60000A0EE881F981448169E2CE010E940A0EDD
:101F700040E06BE4CE010E940A0EE881F9814481C1
:101F800069E2CE010E940A0E41E06BE4CE010E949C
:101F90000A0EE881F981458169E2CE010E940A0EAC
:101FA0006AE171E0CE010E94200FB0CF63E171E0E1
:101FB0004423C1F368E071E0F5CFF9010481000F1B
:101FC000000F000F13811695003210F00052185FB9
:101FD000CE010E940F0FF701A080B1806EE3CE0109
:101FE0000E946B0F6EE3CE010E946B0FD12C106824
:101FF000602F6D0D6068CE010E946B0F612FCE01C6
:102000000E946B0FF701C280A5016C2DCE010E94CA
:10201000180FAC0CB11CD394F8E0DF12E9CFCE015D
:102020000E94060F73CF9A01DC011896ED91FC9186
:10203000462F67E10994CF93DF931F92CDB7DEB7A8
:102040006983AE014F5F5F4F61E00E9413100F90F4
:10205000DF91CF910895CF92DF92EF92FF920F938D
:102060001F93CF93DF93EC01142F79016631C1F1F7
:1020700030F4643149F06531A9F080E040C0673147
:1020800009F446C06A31C8F7E885F9859701412F00
:10209000CE01DF91CF911F910F91FF90EF90DF90D4
:1020A000CF90099468EF0E941B1041E06CE2CE01D2
:1020B0000E940A0E612F607FCE010E941B1041E03A
:1020C0006CE2CE010E940A0E612F6295607FCE0104
:1020D0000E941B1041E06CE2CE010E940A0E0EC06D
:1020E00068EF0E941B10612F607FCE010E941B10C1
:1020F000612F6295607FCE010E941B1081E0DF910D
:10210000CF911F910F91FF90EF90DF90CF900895A6
:102110006AEF0E941B1041E06CE2CE010E940A0EA1
:10212000DE2CCF2C012F083008F5012F06950695DF
:102130000695D12E88EF089FD00C1124E8E00E9F61
:10214000800111240E0D1F1DDD2021F2F801F190F8
:102150008F016F2D607FCE010E941B106F2D629545
:10216000607FCE010E941B10DA94EECFACEEB1E09E
:10217000ED2DFC2D9F01285F3F4F8191982F907F7F
:102180009C938295807F11968C9311971296E217FB
:10219000F30799F7DE2ECF2E08504CEE51E060E1A8
:1021A000CE010E941310BFCF0F93FC01E85BFF4FDD
:1021B0000190F081E02DDF01A41BB50BAD01FC0106
:1021C000EA5BFF4F0190F081E02DDF01A61BB70B0A
:1021D000BD01011113C041505109621B730BFC0179
:1021E000E05CFF4F0190F081E02D4E1B5F0BDC01A6
:1021F000D496ED91FC9109950F910895013079F7EE
:1022000061507109421B530BEACFCF93DF93FC015E
:10221000A081B18182AD90E09C0143E0220F331F89
:102220004A95E1F737AF26AF50962C91509748E08A
:10223000249F9001112435AF24AF23AD30E0B901C4
:1022400053E0660F771F5A95E1F7EF01C05CDF4F4F
:102250007983688351964C915197E901C80FD91F32
:1022600050E04C175D0718F4CA01821B930BEF0175
:10227000CE5BDF4F79836883229623E0880F991F16
:102280002A95E1F7860F971F9983888322965496A3
:102290008D919C91559799838883E85BFF4F569663
:1022A0008D919C9191838083DF91CF9108950F93BD
:1022B0001F93FC01E25BFF4F0190F081E02DDC01F8
:1022C000A05BBF4F0D90BC91A02D4A175B0740F457
:1022D000E017F10748F00417150730F080E019C047
:1022E000E017F107C0F3FACFFC01E65BFF4F408136
:1022F0005181845B9F4FFC01808191816817790730
:1023000058F481E04217530720F081E02617370781
:1023100028F71F910F91089542175307B0F3DECFAE
:102320002F923F924F925F926F927F928F929F92E5
:10233000AF92BF92CF92DF92EF92FF920F931F93D3
:10234000CF93DF93CDB7DEB728970FB6F894DEBFF3
:102350000FBECDBF98878F83865B9F4F9A838983FB
:10236000FC0111821082EF81F885EA5BFF4F20802B
:1023700031802F813885245B3F4F3C832B83F901CB
:1023800031822082EF80F884FEE4EF0EF11CF70129
:1023900011821082EF81F885E85BFF4F4080518009
:1023A000EF81F885EC5BFF4F2081318142165306A7
:1023B00030F0C201821B930BF70191838083EF8180
:1023C000F885EE5BFF4F20813181421A530A2F813D
:1023D0003885205B3F4F3E832D83F9015182408237
:1023E000EF81F885E85AFF4F60807180EF81F885B2
:1023F000EC5AFF4FA080B180EF81F885EA5AFF4F79
:10240000C080D180EF81F885EE5AFF4F80809180A7
:1024100083019501A601B4018F8198850E9457110F
:102420002F8138852C573F4F38872F8381111BC050
:10243000F901108228960FB6F894DEBF0FBECDBF0B
:10244000DF91CF911F910F91FF90EF90DF90CF9090
:10245000BF90AF909F908F907F906F905F904F90C4
:102460003F902F90089581E0EF81F885808381145B
:10247000910421F0E981FA8191828082A214B3044F
:1024800020F4EB81FC81B182A082F70180819181EF
:102490008C159D0510F4D182C0826414750450F629
:1024A000ED81FE8171826082C5CF0F93CF93DF9360
:1024B000E02FDC01AC57BF4FFC91FF2309F460C053
:1024C0002115310509F45CC02230310538F00230A5
:1024D00009F04AC06F5F7F4F621B730B0E2F0170B4
:1024E000E0FD52C0FC01E25BFF4F0190F081E02D66
:1024F0004E175F0708F444C0FC01E05BFF4F0190FA
:10250000F081E02D4E175F07D8F5FC01E45BFF4F2B
:102510000190F081E02DDC01A65BBF4F0D90BC91D6
:10252000A02D260F371F2617370738F56E177F07A0
:1025300018F59F0121503109A217B30708F56A1752
:102540007B0708F4BD012E173F0708F4F901E61BCD
:10255000F70BEC01AEA9BFA914960D90BC91A02D6C
:102560009F01FD0109950CC0033009F0B7CF4F5F03
:102570005F4F421B530BB2CFBD016E177F07E0F2D6
:10258000DF91CF910F910895FC01E65BFF4F019021
:10259000F081E02D6E177F0798F3FC01E45BFF4F9D
:1025A0000190F081E02D6E177F0750F7FC01E05B92
:1025B000FF4F0190F081E02DDC01A25BBF4F0D9039
:1025C000BC91A02D240F351F24173507A8F44E17F2
:1025D0005F0788F49F0121503109A217B30780F6E5
:1025E0004A175B0708F4AD012E173F0708F4F901FD
:1025F000E41BF50BAECFAD014E175F0708F6EDCF2C
:102600008F929F92AF92BF92CF92DF92EF92FF9202
:102610000F931F93CF93DF936C01EB014A01790174
:102620005C01A40EB51E8B01020F131F9501AB01B7
:10263000BC0181EA96E00E945711882351F100E025
:102640009401AE01B60181EA96E00E94551282E043
:10265000E81AF1082196E114F10499F001E09701DC
:10266000AE01B60181EA96E00E945512B5016150B3
:1026700071099701AE0181EA96E00E945512CE0DD4
:10268000DF1D00E09401AE01B60181EA96E00E94F0
:102690005512DF91CF911F910F91FF90EF90DF9036
:1026A000CF90BF90AF909F908F900895213069F0A8
:1026B00038F0223079F0840F911D47FD9A950895E6
:1026C000860F911D67FD9A950895841B910947FD1A
:1026D00093950895861B910967FD93950895213080
:1026E00069F038F0223079F0861B910967FD9395E7
:1026F0000895840F911D47FD9A950895860F911DA9
:1027000067FD9A950895841B910947FD9395089557
:102710003F924F925F926F927F928F929F92AF9271
:10272000BF92CF92DF92EF92FF920F931F93CF93BE
:10273000DF937C01162F442EEC01C25ADF4F5E80DE
:102740006F806C018AE8C80ED11C78847518312E10
:10275000711608F4372C8C809D800E85202F462D15
:10276000652D8A819B810E9456135C01202F462D86
:10277000652DC4010E946F13AC01442079F08C8553
:10278000F6018083232D30E0B501C7010E94551268
:10279000171548F017196394512CD7CF8B858111E9
:1027A000F7CF8D85EDCF150D1E836F82DF91CF9111
:1027B0001F910F91FF90EF90DF90CF90BF90AF905F
:1027C0009F908F907F906F905F904F903F90089573
:1027D000DC011A964C911A97ED91FC911197249176
:1027E00030E0042E02C0359527950A94E2F7842F35
:1027F000860F883068F031961196FC93EE93E49141
:1028000098E0941B01C0EE0F9A95EAF72E2B8850A2
:102810001A968C938FEF9FEF01C0880F6A95EAF7A5
:10282000809582230895FC01E60FF11D849190E0CC
:10283000982F88273196E4918E0F911D0895CF939C
:10284000DF932091FB063091FC062817390709F425
:1028500090C0EC019093FC068093FB06FC018491F0
:1028600080930E073196E491E0930F07FE013296B4
:10287000E491E0931007FE013396E491E093110791
:10288000FE013496E491E0931207FE013596E4913F
:10289000E0931307FE013696E491E0931407FE01DE
:1028A0003796E491E0931507FE013896E491E093A2
:1028B0001607FE013996E491E0931707FE013A9658
:1028C000E491E0931807FE013B96E491E093190729
:1028D000FE013C96E491E0931A07FE013D96E491D7
:1028E000E0931B07FE013E96E491E0931C07FE0176
:1028F0003F96E491E0931D07FE017096E491E0930A
:102900001E0761E1CE010E9413149093200780936B
:102910001F0763E1CE010E94131490932207809356
:10292000210765E1CE010E94131490932407809340
:1029300023078091FB069091FC06892BD1F08091B2
:102940001B078093270740911C074093280790910D
:102950002607992371F0913079F490911D0789171A
:1029600014F49093270780911E07841714F4809322
:102970002807DF91CF9108953091180720911A0709
:10298000082E000C990B622F022E000C770B630FA0
:10299000711D37FD7A95861797071CF4320F309317
:1029A0002707241734F720932807E3CF4F925F922D
:1029B0006F927F928F929F92AF92BF92CF92DF924F
:1029C000EF92FF920F931F93CF93DF93EC016B0174
:1029D0008A017901FC01E459FF4F8081813009F4BB
:1029E0004BC008F43EC0823009F451C0833009F472
:1029F00059C0FE01E05AFF4FD182C0823296118346
:102A0000008338978081918147962FEFE216F10479
:102A100011F008F0F2C0E1E6EE16F10408F44DC042
:102A2000FE01E058FF4F20813181820F931F9C01EE
:102A30002F5F3F4FF9014491411148C090E080E081
:102A4000DF91CF911F910F91FF90EF90DF90CF908A
:102A5000BF90AF909F908F907F906F905F904F90BE
:102A60000895FE01E45AFF4F0190F081E02DCE0160
:102A70000995080F191FBDCFFE01E45AFF4F0190C1
:102A8000F081E02DCE010995C81AD90AB2CFFE0116
:102A9000E45AFF4F0190F081E02DCE010995081B0B
:102AA000190BA7CFFE01E45AFF4F0190F081E02DF2
:102AB000CE010995C80ED91E9CCFF1E4EF16F104A2
:102AC00008F4B5CFFE01E258FF4FADCFFC014491B1
:102AD0004E151F0409F08CC00296009709F4AECF82
:102AE0007E01FEE5EF0EF11CF701918380831286D3
:102AF00073966081C7010E94E813F701808774967E
:102B00006081C7010E94E813982EF70181875E015A
:102B1000FAE8AF0EB11CF5019081F701948781E0CE
:102B2000911180E0F7018587FE01ED58FF4FC080CD
:102B30006C2DC7010E94E813582EFE01EC58FF4F80
:102B4000D0806D2DC7010E94E813482EFE01EB587E
:102B5000FF4F1081612FC7010E94E8139FEF910F73
:102B600001E010E0980101C0220F9A95EAF7882E43
:102B7000821AF701608416140CF0ADC0CA94C80123
:102B800001C0880FCA94EAF7581A7684490CDA947F
:102B9000A80101C0440FDA94EAF7F42FF4194F2E7C
:102BA000272D4F2F652DF701828193810E945613A7
:102BB0006C01F70193838283272D442D652D848139
:102BC00095810E946F13F70195838483F1E07F164E
:102BD00009F485C07F1608F43FC022E0721609F49C
:102BE0008DC0E3E07E1609F49DC0BC0196013EC095
:102BF000F9012491820F911D1ACFFE01EE57FF4F6C
:102C000000811181080F191F680160E0C6010E9450
:102C10001314080F191F62E0C6010E941314F4E098
:102C2000CF0ED11C8E159F0580F3F801849190E0A2
:102C3000982F88273196E4918E2B009709F4FECEC9
:102C4000E816F90619F4C801039647CFF801329641
:102C5000E4910E0F111DE9CF9601260D311D67FC81
:102C60003A95BC01690D711D97FC7A958B01AC01F9
:102C7000B601CE010E945711882369F1F70116822F
:102C800017828E0101591F4F6E01F0E7CF0ED11C44
:102C9000F8016081C7010E94E813682EF601608187
:102CA000C7010E94E813782E40E0662DCE010E94F5
:102CB000881341E0672DCE010E94881361E0C701AF
:102CC0000E94E8138111F0CFF7018781891504F381
:102CD0008485F5018083882D880C990BB1CE091964
:102CE000110997FC139596012F5F3F4FBC01660DAC
:102CF000711D67FC7A95C00ED11EB8CFA801461988
:102D0000510967FC539596012F5F3F4F091911092F
:102D100097FC1395BC016F5F7F4F800F911FC40E0E
:102D2000D51EA4CF9601290D311D97FC3A950619A1
:102D3000110967FC1395BC016F5F7F4F800F911FD6
:102D400095CFCF92DF92EF92FF920F931F93CF9385
:102D5000DF93EC018B011092B9067A01D12CC12CC2
:102D6000F70161917F01E091A306F091A40681EA49
:102D700096E009958F3F980719F18E3F2FEF920744
:102D800079F39C01A801BE0181EA96E00E94D61465
:102D900020910D07213059F038F0223059F02330BE
:102DA00061F0C80ED91EDCCFC80FD91FFACF080FAB
:102DB000191FF7CFC81BD90BF4CF081B190BF1CF84
:102DC000C601DF91CF911F910F91FF90EF90DF909F
:102DD000CF900895CF93DF93EC016BAFEEA9FFA9DD
:102DE0000190F081E02D0995EEA9FFA90280F38101
:102DF000E02DCE01DF91CF910994AF92BF92CF9297
:102E0000DF92EF92FF920F931F93CF93DF9300D047
:102E100000D01F92CDB7DEB78C01DC01DA96AC9002
:102E2000DA97DB96EC90DB97ED91FC91B188FE2C64
:102E3000D12CC12CD801ED91FC9111978089D896A5
:102E40002D913C911C82FD828B83B8E08B9FC00149
:102E500011248C9DA0018D9D500D9C9D500D112421
:102E6000240F351F3A832983D8011496ED91FC91E4
:102E70009E012F5F3F4F41E06FE0C8010995F39439
:102E80008F2D8E198A1528F4BFEFCB1ADB0AFB149D
:102E900088F20F900F900F900F900F90DF91CF91CD
:102EA0001F910F91FF90EF90DF90CF90BF90AF9068
:102EB00008950F931F93CF93DF93EC01862F642F18
:102EC0008C3208F03AC08A3208F060C0883209F4C7
:102ED0004BC0893209F460C0803408F475C0982F63
:102EE0009F73FE01E90FF11D868D8F3F09F44EC0DF
:102EF000903108F436C0282F30E0F901E953FC4F37
:102F00008491F901E750FC4F0491F901EB51FC4F1A
:102F10001491112379F081110E94C10BE12FF0E08F
:102F2000EE0FFF1FE552FC4FA591B491EC910E23DB
:102F300081E009F480E0898F29C08D3299F108F48D
:102F4000CBCF94EB980F923008F0C6CF8F73C80F99
:102F5000D11D8E8D411134C061E00E94180C60E0DB
:102F60008E8D0E94EA0B12C08E01025E1F4FD0E0D0
:102F7000F80181918F018F3F31F061E0D03108F08D
:102F800062E00E94180CDF5FD63191F781E0DF919B
:102F9000CF911F910F91089570E090E080E00E9422
:102FA000790CF4CF85E090E0433010F082E090E0BF
:102FB000880F991F880F991F05970197F1F7E6CFA2
:102FC00062E00E94180CE2CF80E0E1CFCF92DF9266
:102FD000EF92FF920F931F93CF93DF936C01EB015E
:102FE0007B01E40EF51E10E000E0CE15DF0561F078
:102FF0006991D601ED91FC910190F081E02DC6011F
:103000000995080F191FF1CFC801DF91CF911F91CA
:103010000F91FF90EF90DF90CF900895CF92DF92C5
:10302000EF92FF920F931F93CF93DF93EC016C010C
:1030300024E0C20ED11CFC01E057FF4F0190F0814B
:10304000E02DC60109958E3FEFEF9E07D8F48E0163
:103050000C561F4FF801408151817E01F2E9EF0EBD
:10306000F11CF701608171819C01C6010E94D61498
:10307000C059DF4F28812130C1F078F02230B9F0FB
:103080002330E9F081E090E0DF91CF911F910F9123
:10309000FF90EF90DF90CF900895F701208131816C
:1030A000820F931F91838083EDCFF801F7CFF70153
:1030B00020813181281B390B31832083E3CFF80134
:1030C000F7CF089590E080E00895FC010190002082
:1030D000E9F73197AF01481B590BBC0188E992E031
:1030E0000C94AC0C89E691E00C9465180F931F9337
:1030F000CF93DF938C01D0E0C0E0F801EC0FFD1F0F
:103100006491662341F088E992E00E944C0D892B7E
:1031100011F02196F2CF0E9472188C0F9D1FDF9143
:10312000CF911F910F9108952F923F925F926F92CE
:103130007F928F929F92AF92BF92CF92DF92EF9247
:10314000FF920F931F93CF93DF9380E480937C00D3
:1031500080917A00806480937A0080917A0086FD65
:10316000FCCF6091780070917900072E000C880BDD
:10317000990B611571058105910511F00E94512689
:10318000C5E1D0E070E4C72ED12CE12CF12CE0E2B7
:103190008E2E912CA12CB12CF4E62F2E312C0E94D6
:1031A0000226A70196010E948C26660F771F709356
:1031B0008F0260938E020E940226A50194010E9454
:1031C0008C269B01220F331F309391022093900293
:1031D00000918E0210918F020038110528F45524B9
:1031E00053942034310508F0512C60901B067090E8
:1031F0001C0680911D0690911E0668167906B1F096
:10320000FC01EE0FFF1FEE0FFF1FE557FB4F408144
:1032100051814017510729F4428153812417350702
:1032200039F00196B1010E941827E7CF511003C071
:10323000219709F0B4CFDF91CF911F910F91FF90AB
:10324000EF90DF90CF90BF90AF909F908F907F9046
:103250006F905F903F902F9008951F93CF93DF93CF
:1032600085ED8093BC008091FF0190910002A091B8
:103270000102B09102020796A11DB11D23E0B6958F
:10328000A795979587952A95D1F72091BC0024FDA5
:1032900003C01092470252C04091FF0150910002BA
:1032A0006091010270910202452B462B472B69F376
:1032B0000097A105B10541F02AE22A95F1F700C077
:1032C0000197A109B109E1CF8091FE01C1E0C0934E
:1032D000FD01882399F1D091B8001091BA00809136
:1032E000BC008A7B8093BC0060E082E10E94EA0B14
:1032F00060E083E10E94EA0B10924702C09349020A
:103300001092480261E082E10E94EA0B61E083E1F1
:103310000E94EA0B8091B9008E7F8093B900809162
:10332000B9008D7F8093B90088E48093B80085E46C
:103330008093BC001093BA00D093B800DF91CF9176
:103340001F910895FC01A081B18150962C9182AD0E
:1033500038E0839FC0011124289FA001299F500DB0
:10336000112470E060E080AD91AD0C9432271F9382
:10337000CF93DF93EC010E94FD161BAD8AAD180FB1
:10338000E881F9818189181768F0EC81FD8130E0CE
:1033900020E040E060E1CE01099580E0DF91CF912F
:1033A0001F910895FE01E557FF4F8081882319F092
:1033B000CE010E94A219612FCE010E94EA1681E07F
:1033C000EDCFCF93DF93EC01FC01E557FF4F8081F8
:1033D000882319F0CE010E94A21960E0CE01DF918E
:1033E000CF910C94EA161F920F920FB60F921124F0
:1033F0002F933F938F939F93AF93BF9380918602B8
:1034000090918702A0918802B09189023091850243
:1034100023E0230F2D3758F50196A11DB11D2093F0
:1034200085028093860290938702A0938802B093CE
:10343000890280918A0290918B02A0918C02B091B6
:103440008D020196A11DB11D80938A0290938B027B
:10345000A0938C02B0938D02BF91AF919F918F91F9
:103460003F912F910F900FBE0F901F90189526E857
:10347000230F0296A11DB11DD2CF1F920F920FB63E
:103480000F9211242F933F934F935F936F937F93EA
:103490008F939F93AF93BF93EF93FF9388E992E04D
:1034A0000E942A0DFF91EF91BF91AF919F918F9153
:1034B0007F916F915F914F913F912F910F900FBE30
:1034C0000F901F9018951F920F920FB60F92112414
:1034D0002F938F939F93EF93FF93E091A802F09126
:1034E000A9028081E091AE02F091AF0282FD1BC083
:1034F00090818091B1028F5F8F732091B202821709
:1035000041F0E091B102F0E0E856FD4F958F8093D5
:10351000B102FF91EF919F918F912F910F900FBE6C
:103520000F901F9018958081F4CF1F920F920FB6C5
:103530000F9211242F933F934F935F936F937F9339
:103540008F939F93AF93BF93EF93FF938091B900B5
:10355000887F803609F44AC0F0F5883209F4A5C0A6
:1035600018F5803109F499C0B8F4882309F4F5C03E
:10357000883009F492C0FF91EF91BF91AF919F9174
:103580008F917F916F915F914F913F912F910F900C
:103590000FBE0F901F901895883109F486C08032B5
:1035A00051F78093460214C0803409F49BC040F464
:1035B0008033B9F38833F9F68093460285ECAEC0C8
:1035C000803509F483C0883509F494C0883499F6AD
:1035D0000E942D19D0CF883909F48AC038F5883770
:1035E00029F050F4883611F0803729F683E0809373
:1035F00047021092450255C0883809F479C08039D5
:1036000019F0803809F0B7CF80914502803208F078
:103610006FC0E091450281E08E0F8093450280915A
:10362000BB00F0E0EB5DFD4F80833BC0803B39F099
:10363000D0F4803A09F477C0883A09F09CCF84E04E
:10364000809347021092240210922302F0E0E0E0FF
:1036500009958091230281110FC081E0809323029C
:103660001092030209C0803C09F4A8CF883C09F4F9
:10367000A5CF883B09F07FCFE091240281E08E0F37
:1036800080932402F0E0ED5FFD4F80818093BB00CA
:10369000909124028091230229C080916C02809332
:1036A000BB0085EC8093BC0066CF90916B0280914B
:1036B0006A02981758F5E0916B0281E08E0F8093B3
:1036C0006B02F0E0E65BFD4F8081E9CFE0916B0299
:1036D00081E08E0F80936B028091BB00F0E0E65B8F
:1036E000FD4F808390916B0280916A029817C8F217
:1036F00085E8D8CFE0916B0281E08E0F80936B025A
:103700008091BB00F0E0E65BFD4F80838091490231
:1037100081115ECF81E08093480284EA8093BC00EF
:103720001092470228CF85EC8093BC00109247028C
:1037300080914502803230F4E0914502F0E0EB5D8B
:10374000FD4F10826091450270E085E292E0F0E06A
:10375000E0E00995109245020ECF1092460238CF54
:103760001F920F920FB60F9211242F933F934F93F6
:103770005F936F937F938F939F93AF93BF93CF93F9
:10378000EF93FF93E0913703F0913803C08180916C
:103790003903C82380913A0390913B03019649F085
:1037A00080913A0390913B03019690933B03809361
:1037B0003A038091350381111DC0C11176C08091FB
:1037C0003A0390913B03813A910578F010923E03C1
:1037D00080913A0390913B0390934103809340037F
:1037E00081E080933F038093350310923B03109256
:1037F0003A035BC080913503813099F4CC2309F4FE
:1038000054C080913A0390913B03E0913F0391E0D3
:103810009E0F90933F03F0E0EB5CFC4F858782E0C6
:10382000E2CF80913503823009F05DC0C11120C024
:10383000E0913F03E83C70F081E080933E0383E039
:1038400080933503E0913C03F0913D03309769F29A
:103850000995CBCF80913A0390913B0391E09E0F65
:1038600090933F03F0E0EB5CFC4F858781E0BBCF9A
:1038700080913A0390913B03813A9105B0F0809199
:1038800040039091410390938F0680938E06809120
:103890003F0380938D0683E080933503E0913C03E2
:1038A000F0913D03309709F009958091610680FF02
:1038B00008C080916006C1111DC061E081111DC06A
:1038C0002D9AFF91EF91CF91BF91AF919F918F91E1
:1038D0007F916F915F914F913F912F910F900FBE0C
:1038E0000F901F901895809135038330F1F6C11128
:1038F000DCCF7BCF882321F060E00E94EA0BE1CF90
:103900002D98DFCFCF93DF9310929B0210929A02F3
:1039100088EE93E0A0E0B0E080939C0290939D023B
:10392000A0939E02B0939F0289E491E09093990244
:103930008093980285EC90E09093A5028093A40276
:1039400084EC90E09093A7028093A60280EC90E034
:103950009093A9028093A80281EC90E09093AB022F
:103960008093AA0282EC90E09093AD028093AC0227
:1039700086EC90E09093AF028093AE021092B10279
:103980001092B2021092B3021092B4021092A006EA
:1039900010929F0680EA9AE090932E0780932D075D
:1039A0001092300710922F071092320710923107B1
:1039B0001092B9068BE591E090939E0680939D0648
:1039C0001092A2061092A1061092B6061092AD06B1
:1039D0001092AE061092AF061092B0068FEF809351
:1039E000B7068093BB06EFEBF6E0DFEFD19386E0FE
:1039F000E53DF807D9F784E79FE09093A60680930A
:103A0000A5068BE290E19093A8068093A70681E13A
:103A10009EE09093AA068093A90689E597E190938A
:103A2000AC068093AB0630E020E040E069E081EA3C
:103A300096E00E94740F1092FC061092FB068AEA30
:103A40009AE09093D6068093D5068AE094E090930E
:103A5000DA068093D906C1E0C093DB061092DC063B
:103A600010920A0710922A0710922607C0932B077C
:103A7000C0932C0783E691E09093D8068093D706F5
:103A800081EA96E00E9405111092F4061092F30666
:103A90001092F8061092F7068FEF9FEF9093F606BC
:103AA0008093F5069093FA068093F906E091D70685
:103AB000F091D8060280F381E02D81EA96E0099525
:103AC00085E09BE09093FE068093FD0610920D0723
:103AD00088E08093BF0689E08093C0068AE08093E7
:103AE000C806D093CA0685E393E09093910680932D
:103AF000900610923603C093390329E230E03093E8
:103B00003803209337035098109260069093540620
:103B1000809353068DE08093360380E280933903CF
:103B200083E290E0909338038093370325981092B6
:103B3000600610928A0410921C0610921B061092C6
:103B40001E0610921D061092200610921F0610925B
:103B500022061092210610922406109223068091CC
:103B6000040190910501A0910601B0910701809395
:103B70008B0490938C04A0938D04B0938E04DF91FA
:103B8000CF910895CF93DF93CDB7DEB7A1970FB64E
:103B9000F894DEBF0FBECDBF789484B5826084BD3B
:103BA00084B5816084BD85B5826085BD85B5816041
:103BB00085BD80916E00816080936E0010928100BF
:103BC000809181008260809381008091810081607A
:103BD000809381008091800081608093800080913B
:103BE000B10084608093B1008091B00081608093C7
:103BF000B00080917A00846080937A0080917A008E
:103C0000826080937A0080917A00816080937A004C
:103C100080917A00806880937A001092C100E091D0
:103C2000A802F091A90282E08083E091A402F091C1
:103C3000A5021082E091A602F091A7028FEC80838A
:103C40001092B002E091AC02F091AD0286E0808368
:103C5000E091AA02F091AB02808180618083E091C3
:103C6000AA02F091AB02808188608083E091AA0271
:103C7000F091AB02808180688083E091AA02F0918C
:103C8000AB0280818F7D8083E091A506F091A6062E
:103C900030E020E040E06AE081EA96E0099581EAC0
:103CA00096E00E94E11981EA96E00E94B71981111D
:103CB000FACF60E081EA96E00E94EA16E091A5065C
:103CC000F091A60630E020E040E06BE081EA96E06B
:103CD00009958AE19DE00E941F1482E08093B00064
:103CE0008093B10084E68093B3008093B400109277
:103CF000B20080913503833011F41092350384E0D3
:103D0000809370000E94941881EA96E00E94E11965
:103D100000EA1AE01093A4060093A3064CE651E0D3
:103D20006EE170E084E190E00E94A11624E130E0B1
:103D300044E150E068E270E088E290E00E94001305
:103D400081EA96E00E94B7198111E4CF60ED77E037
:103D500080E090E00E94790CB4E66B2E712C222456
:103D60002A94322C210180916D02811145C080E599
:103D700093E00E94761886E293E00E94761887EE20
:103D800092E00E94761882EC92E00E94761888E811
:103D900092E00E9476188BE392E00E9476188FE002
:103DA00092E00E9476180E94721888ED91E00E94BD
:103DB00076180E94721886EB91E00E94761886E6CB
:103DC00091E00E94761885E391E00E94761882EDDA
:103DD00090E00E9476180E9472188BEC90E00E948E
:103DE000761888E690E00E9476180E9472180E9469
:103DF000721881E080936D0280913503833009F061
:103E0000A7C1E0917A02F0917B02809140039091EA
:103E10004103DF018D939D93BD0123E433E0AF01A6
:103E200040575E4FD9018D919D0190E0DB018D934C
:103E30009D93BD014A175B07A9F780913F038093CB
:103E40007C0290913E03992321F010923E03109240
:103E50003F0390913E0390937D0210927202109264
:103E60007302109274021092750290E890934F06BC
:103E700022813381265831092C35310568F484308C
:103E800051F5848195818197489730F48681978197
:103E90000897089708F455C080917C028A3108F48D
:103EA00085C0E0917A02F0917B02208131812A3035
:103EB000310508F05AC010927602209272023092B8
:103EC0007302409274025092750281E080934F0613
:103ED00088E190E045C08434F9F68481958182546C
:103EE00091098F97C8F640E956E060E372E080E2FE
:103EF0000E948A0B882381F2E0917A02F0917B0282
:103F0000EA57FF4F808191810897089728F68091A2
:103F10002D0690912E06A0912F06B0913006809329
:103F2000720290937302A0937402B093750280E2C0
:103F30008093760288E090E090936F0280936E0207
:103F40000FC0109276022092720230927302409259
:103F500074025092750281E880934F0688E090E0E9
:103F60009093260680932506D1C022813381245266
:103F700031092A313105D0F460E043E050E0C12C32
:103F8000D12C760190E04817590708F052C02481DF
:103F90003581285031092830310540F42681378198
:103FA0002231310580F120323105C0F181E080936A
:103FB0009702E9E7F3E0F0939502E0939402109200
:103FC00096020E94080B813009F022C110E0C12C3A
:103FD000D12C76019091500680919702891708F0B4
:103FE0003FC00E94080B082F0E94080B01112EC031
:103FF000813009F00DC1CC0CDD1CEE1CFF1C689457
:10400000C0F81F5FE7CF2930310580F2213131053B
:1040100068F6CC0CDD1CEE1CFF1C06C0CC0CDD1CB5
:10402000EE1CFF1C6894C0F86F5F4E5F5F4F3496C4
:10403000AACF60937602C0927202D0927302E0928D
:104040007402F092750288E190E076CF013009F0B9
:10405000DFC08111DDC0CC0CDD1CEE1CFF1CD1CFFC
:10406000812F90E090934E0680934D06C0922D06CE
:10407000D0922E06E0922F06F09230068C2D8F7390
:1040800090E090932A0680932906960146E03695A3
:1040900027954A95E1F72F7133273093280620930F
:1040A0002706960122273071232B31F4805C9F4F25
:1040B00090932A068093290680E880934F06D3FECA
:1040C00003C088E880934F0681E190E09093260634
:1040D0008093250680915106909152068F3C99401D
:1040E00028F480914F06816080934F0610937602EA
:1040F000C0927202D0927302E0927402F092750242
:1041000081E190E090936F0280936E028091720241
:1041100090917302A0917402B0917502853491055B
:10412000A105B10509F4E3C208F0B1C283349105D9
:10413000A105B10509F403C384349105A105B105B6
:1041400009F4E9C280913503833011F410923503EC
:10415000E0911B06F0911C06EE0FFF1FEE0FFF1FF4
:10416000E657FB4F81819281A381B48120918E0219
:1041700030918F022817390791F4209190023091E5
:1041800091022A173B0759F4809123069091240647
:104190000A9690932406809323060E949418809197
:1041A0001D0690911E0620911B0630911C06F901F8
:1041B000EE0FFF1FEE0FFF1FE657FB4F8F010F5F44
:1041C0001F4F7F0153E0E50EF11C2817390709F452
:1041D0007DC4DC01AA0FBB1FAA0FBB1FA557BB4F95
:1041E0006D917C911197F801408151816417750799
:1041F00051F412966D917C91D7014D915C916417A9
:10420000750709F456C40196B3010E941827DDCF43
:10421000E0915306F0915406868588528D3108F05E
:1042200041C087858C508B30E8F583E080939702FE
:104230008CEB91E0909395028093940210929602F9
:104240000E94080B813071F50E94080B81112AC071
:1042500010E0C12CD12C76019091500680919702EC
:10426000891708F06CC00E94080BB82E1330B1F00B
:104270000E94080B082F133021F40E94080B08132A
:1042800011C021E0B21251C001110CC0CC0CDD1CD8
:10429000EE1CFF1C6894C0F81F5FDECF0E94080B65
:1042A000B81631F3E0917A02F0917B02828193811A
:1042B00020917C022C3309F0A5C0865891098D35D8
:1042C000910508F09FC084819581CE978C9708F066
:1042D00099C04CE256E064EF71E08CE10E948A0BD9
:1042E000882309F48FC0E0917A02F0917B02EA58AA
:1042F000FF4F808191810797089708F083C08091D4
:104300002D0690912E06A0912F06B0913006809335
:10431000720290937302A0937402B09375028CE1C1
:104320008093760286E090E007CEB110BBCF0130DB
:1043300009F0B8CFCC0CDD1CEE1CFF1CADCF812FDB
:1043400090E090934E0680934D06C0922D06D09239
:104350002E06E0922F06F09230062C2D30E08D2DA7
:1043600090E01332B0F540E840934F0630932A06B0
:10437000209329069093280680932706E0FE03C029
:1043800088E880934F06153128F080914F068061B0
:1043900080934F0682E190E0909326068093250655
:1043A000809151069091520683379A4028F480916B
:1043B0004F06816080934F0610937602C09272027E
:1043C000D0927302E0927402F092750282E190E062
:1043D00099CE40E940934F0630932A062093290650
:1043E0009093280680932706C7019F7390932C060D
:1043F00080932B06F7FE03C088E980934F0683E184
:1044000090E0CACF40917C02E0917A02F0917B0269
:1044100082819381423289F49C01285031092730EE
:10442000310558F4DF01AE5BBF4F2D913C91285010
:1044300031092730310508F455C08D57910987356A
:10444000910508F45FC0E0917A02F0917B028281CD
:104450009381835491098F9780F480917C028430FA
:1044600009F085C0848195818197489730F48681D1
:1044700097810897089708F4A4C08091500682326B
:1044800009F0AFC0E0917A02F0917B0282819381C2
:104490000497059708F0A5C0848195810B970A972A
:1044A00008F09FC04CE157E064E071E08FE00E94AB
:1044B0008A0B882309F495C080912D0690912E06D1
:1044C000A0912F06B09130068093720290937302F0
:1044D000A0937402B09375028FE08093760284E01B
:1044E00090E02ACD109276022092720230927302EE
:1044F000409274025092750281E080934F0685E0ED
:1045000090E02ECD443208F49ECF84819581CE97E1
:104510008C9708F098CF4AE256E06EE072E080E1B6
:104520000E948A0B882309F48ECFE0917A02F091E1
:104530007B02EA5BFF4F808191810897079708F023
:1045400082CF80912D0690912E06A0912F06B091DA
:1045500030068093720290937302A0937402B0931A
:10456000750280E18093760285E090E0E5CC8434AA
:1045700008F483CF84819581825491098F9708F044
:104580007CCF40E956E060E372E080E20E948A0B53
:10459000882309F472CF80912D0690912E06A09168
:1045A0002F06B09130068093720290937302A0930D
:1045B0007402B093750280E28093760284E190E009
:1045C000BBCC10927602209272023092730240921B
:1045D00074025092750281E080934F0684E190E06E
:1045E000BFCC00917C02063008F4ACCDE0917A0299
:1045F000F0917B02329625EC3DE94CE151E813E065
:104600008AE0F82E8481958161917191F89E600114
:10461000F99ED00C1124DB01AA0FBB1FAA0FBB1FF0
:10462000AA0FBB1FE12CCA16DB0688F0F69ED0014C
:10463000F79EB00D112463E0880F991F6A95E1F78A
:10464000EE24E394A817B90710F482E0E82E63E99A
:1046500071E080E091E00E945A269B01AC012E257A
:104660001F5F0113CFCF20937202309373024093E8
:1046700074025093750280E28093760210926F026A
:1046800010926E0210922606109225063FCD8634B7
:104690009105A105B105B9F087349105A105B105D2
:1046A00009F050CD80911F069091200697FF03C01E
:1046B000919581959109029709F444CD10922006B5
:1046C00010921F063FCD80911F0690912006019702
:1046D00097FF03C0919581959109029709F432CD16
:1046E000A1E0B0E0B0932006A0931F062BCD8091EF
:1046F0001F0690912006029797FF03C09195819520
:104700009109029709F41ECDE2E0F0E0F093200653
:10471000E0931F0617CD80911F0690912006039706
:1047200097FF03C0919581959109029709F40ACDED
:1047300043E050E05093200640931F0603CD809144
:104740008A0491E0892780938A04FCCC80918A04B2
:10475000811148C080911B0690911C06DC01AA0FB4
:10476000BB1FAA0FBB1FA557BB4FED91FC91119723
:1047700012962D913C9140911F0650912006413098
:10478000510509F494C00CF086C0452B09F48DC086
:104790000196B3010E94182790931C0680931B0674
:1047A000880F991F880F991FDC01A557BB4F1196E1
:1047B000FC93EE9313963C932E93129780912106CF
:1047C00090912206181619060CF476C080911D06E9
:1047D00090911E060196B3010E94182790931E0621
:1047E00080931D0681EA96E00E94E1198AE19DE02E
:1047F0000E941F14C0901D06D0901E06912C812C83
:1048000020911B0630911C0680911D0690911E067A
:10481000281739070CF456C0F901E81BF90BCF0132
:104820000196881699060CF054C0F601EE0FFF1F92
:10483000EE0FFF1FE557FB4FE280F380A080B180B1
:1048400087010E5F1F4F95012E5F3F4FA701B501F6
:1048500081EA96E00E945711882399F000E022E057
:1048600030E0A701B50181EA96E00E945512A70148
:104870004F5F5F4F22E030E0B50181EA96E00E9491
:1048800055125FEF851A950AC6010196B3010E9481
:1048900018276C01B5CF4230510561F04330510506
:1048A00009F076CF2250310973CF329671CF2E5F47
:1048B0003F4F6ECF32976CCF019790932206809333
:1048C000210690CFA301481B590BCA01820F931FE9
:1048D000A7CF609190027091910222E030E042E017
:1048E00050E080918E0290918F020E94001380917F
:1048F00024068F93809123068F9389EA91E09F93FA
:104900008F93E1E0F0E0EC0FFD1FFF93EF930E9427
:10491000392740EA5AE05093A4064093A306AE011B
:104920004F5F5F4F6CE070E090E080E00E94A11666
:104930000F900F900F900F900F900F9080918A041E
:10494000882391F08DE094E00E941F1480EA9AE0A1
:104950009093A4068093A30643EB51E068E270E0D5
:1049600088E290E00E94A11681EA96E00E94B719C1
:1049700081113CCF809183029091840201969093A3
:104980008402809383022FB7F894809186029091DD
:104990008702A0918802B09189022FBF40917F02C7
:1049A000509180026091810270918202841B950B6C
:1049B000A60BB70B883E9340A105B10508F44EC085
:1049C00089EB91E00E946518C0908302D090840228
:1049D0000D2C000CEE08FF08F7FE53C06DE288E9CD
:1049E00092E00E944C0D22273327A9012C193D0982
:1049F0004E095F0919A28E010F5D1F4FCA01B9014F
:104A00002AE030E040E050E00E946A26605DD80174
:104A10006E938D01211531054105510579F7011579
:104A2000110519F0C8010E9465180E9472181092B1
:104A30008402109283022FB7F8948091860290919D
:104A40008702A0918802B09189022FBF80937F02D4
:104A500090938002A0938102B093820264E670E09A
:104A600080E090E00E94790C80E090E0892B09F4CE
:104A70007AC90E94160D882309F475C90E940000A6
:104A800072C9A701960119A28E010F5D1F4FCA01BD
:104A9000B9012AE030E040E050E00E946A26605D03
:104AA000F80162938F01211531054105510579F710
:104AB000B6CF80917E02811109C08AE791E00E9401
:104AC00065180E94721881E080937E02E0911B06B7
:104AD000F0911C06EE0FFF1FEE0FFF1FE657FB4F76
:104AE00081819281A381B4818E37910510F4DE9784
:104AF00048F085E891E00E9465180E94721881E0F4
:104B000080937E0280917E02882309F41FCE81EA81
:104B100096E00E94E11900EA1AE08DE094E00E941C
:104B20001F141093A4060093A30641E951E06EE11F
:104B300070E08EE190E00E94A1161093A40600930D
:104B4000A3064BE951E062E370E084E190E00E944B
:104B5000A11681EA96E00E94B7198111DECF64E6C2
:104B600070E080E090E00E94790CF9CF8F929F92E4
:104B7000AF92BF92CF92DF92EF92FF92CF93DF93EB
:104B8000EC01688179818A819B81611571058105BC
:104B9000910521F464E279ED8BE597E02DE133EFA7
:104BA00041E050E00E948C2649015A019B01AC0172
:104BB000A7EAB1E40E94AB266B017C01ACEEB4EF36
:104BC000A50194010E94B926C60ED71EE81EF91E43
:104BD000F7FE06C081E0C81AD108E10880E8F80AAB
:104BE000C882D982EA82FB82C701B6019F77DF9132
:104BF000CF91FF90EF90DF90CF90BF90AF909F90BC
:104C00008F9008958F929F92AF92BF92CF92DF9232
:104C1000EF92FF9260910001709101018091020179
:104C200090910301611571058105910521F464E2FC
:104C300079ED8BE597E02DE133EF41E050E00E9404
:104C40008C2649015A019B01AC01A7EAB1E40E94FC
:104C5000AB266B017C01ACEEB4EFA50194010E9480
:104C6000B926C60ED71EE81EF91EF7FE06C081E063
:104C7000C81AD108E10880E8F80AC0920001D09271
:104C80000101E0920201F0920301C701B6019F7792
:104C9000FF90EF90DF90CF90BF90AF909F908F905C
:104CA0000895609300017093010180930201909335
:104CB00003010895DB018F939F930E94AB26BF9160
:104CC000AF91A29F800D911DA39F900DB29F900D5B
:104CD00011240895A1E21A2EAA1BBB1BFD010DC0D1
:104CE000AA1FBB1FEE1FFF1FA217B307E407F5079C
:104CF00020F0A21BB30BE40BF50B661F771F881F78
:104D0000991F1A9469F760957095809590959B010D
:104D1000AC01BD01CF010895052E97FB1EF4009450
:104D20000E94A32657FD07D00E946A2607FC03D0E5
:104D30004EF40C94A32650954095309521953F4F05
:104D40004F4F5F4F089590958095709561957F4F77
:104D50008F4F9F4F08950E94F526A59F900DB49FF9
:104D6000900DA49F800D911D11240895B7FF0C9400
:104D7000AB260E94AB26821B930B08952F923F9285
:104D80004F925F926F927F928F929F92AF92BF925B
:104D9000CF92DF92EF92FF920F931F93CF93DF9307
:104DA000CDB7DEB7CA1BDB0B0FB6F894DEBF0FBE64
:104DB000CDBF09942A88398848885F846E847D84B1
:104DC0008C849B84AA84B984C884DF80EE80FD80B3
:104DD0000C811B81AA81B981CE0FD11D0FB6F89429
:104DE000DEBF0FBECDBFED010895A29FB001B39FFE
:104DF000C001A39F700D811D1124911DB29F700DE4
:104E0000811D1124911D0895AA1BBB1B51E107C0F0
:104E1000AA1FBB1FA617B70710F0A61BB70B881F4A
:104E2000991F5A95A9F780959095BC01CD010895D9
:104E300097FB072E16F4009407D077FD09D00E9447
:104E4000042707FC05D03EF4909581959F4F089567
:104E5000709561957F4F0895EE0FFF1F0590F491B7
:104E6000E02D0994DC0101C06D9341505040E0F702
:104E70000895AEE0B0E0EFE3F7E20C94CC260D89A4
:104E80001E8986E08C831A8309838FEF9FE79E83B8
:104E90008D83AE01475E5F4F6F89788DCE0101969D
:104EA0000E945C272F813885020F131FF8011082A2
:104EB0002E96E4E00C94E826ABE0B0E0E2E6F7E200
:104EC0000C94BE267C013B018A01FC0117821682EC
:104ED000838181FFC8C1CE0101965C01F7019381F6
:104EE000F30193FD859193FF81913F01882309F49C
:104EF00053C1853239F493FD859193FF81913F0130
:104F0000853229F4B70190E00E944C29E7CF912C1B
:104F1000212C312CFFE1F31538F08B3211F190F494
:104F2000803209F1833229F137FC3CC020ED280F93
:104F30002A3050F536FE20C08AE0989E200D1124BC
:104F4000922E06C08D3291F0803371F7689430F85C
:104F5000F30193FD859193FF81913F018111DACF98
:104F600021C0689431F8689432F8F2CF689433F82D
:104F7000EFCF689434F8ECCFEAE02E9E200D112498
:104F8000222E689435F8E4CF8E3229F436FC04C121
:104F9000689436F8DDCF8C3619F4689437F8D8CF9A
:104FA0008836B1F2982F9F7D95549330E0F0833688
:104FB000A1F18337C1F1833509F063C02801F2E024
:104FC0004F0E511CF801C080D180692D70E036FC75
:104FD00002C06FEF7FEFC6010E9436294C01689432
:104FE00037F882010AC00C5F1F4FFFE3F983882462
:104FF0008394912C6501E89437F833FE2DC0522C30
:105000008114910471F5552009F468CFB70180E24D
:1050100090E00E944C295A94F6CFF8018081898350
:105020000E5F1F4FE4CF2801F2E04F0E511CF80134
:10503000C080D180692D70E036FC02C06FEF7FEF39
:10504000C6010E9441294C018201D5CFB70180E2FF
:1050500090E00E944C292A942814190409F0B0F712
:10506000CECFF60137FC859137FE81916F01B701F4
:1050700090E00E944C2951105A94F1E08F1A910847
:10508000BFCF843619F0893609F077C0F80137FEB2
:105090006BC060817181828193810C5F1F4FF32D02
:1050A000FF763F2E97FF09C090958095709561958A
:1050B0007F4F8F4F9F4F689437F82AE030E0A5016B
:1050C0000E947C29C82ECA188C2C432C36FE0CC09A
:1050D000E89440F8C91440F434FE05C032FC03C023
:1050E000F32DFE7E4F2E892C44FE95C0FE01EC0D63
:1050F000F11D8081803309F087C0242D297E422E46
:10510000842D8870582E43FC95C040FE8FC09C2C87
:10511000821418F42C0C922C981844FE91C0B701FC
:1051200080E390E00E944C2942FE09C088E790E0AD
:1051300041FE02C088E590E0B7010E944C29C914E5
:1051400008F48AC0CA94D12C9FEFC91AD90ACA0C94
:10515000DB1CF60182916F01B70190E00E944C299F
:10516000AC14BD04B1F74FCF60817181072E000CE4
:10517000880B990B0E5F1F4F92CFD32CE894D4F875
:105180002AE030E0853739F1232D297FD22E8F3662
:1051900001F148F48835A9F0F701868197812B96B3
:1051A000E2E10C94DA26803749F08837A9F7D4FE7B
:1051B00002C06894D2F820E130E00DC06894D4F8C1
:1051C000F6CF34FE03C0822F8660D82E20E132E075
:1051D00002C028E030E0F801D7FE0FC06081718185
:1051E000828193810C5F1F4FA5010E947C29C82EEC
:1051F000CA183D2CE89437F867CF6081718190E040
:1052000080E00E5F1F4FF0CF42FC02C0839478CF46
:105210008394839475CF842D867809F471CFF6CF6B
:10522000B70180E290E00E944C2983948214C0F37D
:10523000512C73CF522C5818821408F46ECFF8CF2B
:10524000842D867809F47BCF8BE241FE80E247FC17
:105250008DE2B70190E071CFB70180E390E00E944A
:105260004C299A946CCF8FEF9FEF99CFFC0105905A
:10527000615070400110D8F7809590958E0F9F1F58
:105280000895FC016150704001900110D8F780959D
:1052900090958E0F9F1F08950F931F93CF93DF93C9
:1052A000182F092FEB018B8181FD09C01FEF0FEF34
:1052B000812F902FDF91CF911F910F91089582FF41
:1052C00014C02E813F818C819D81281739073CF4C1
:1052D000E881F981CF0101969983888310838E81BB
:1052E0009F8101969F838E83E3CFE885F985812F87
:1052F0000995892BA1F3DACFFA01AA27283051F1B9
:10530000203181F1E8946F936E7F6E5F7F4F8F4FF6
:105310009F4FAF4FB1E03ED0B4E03CD0670F781F55
:10532000891F9A1FA11D680F791F8A1F911DA11D3A
:105330006A0F711D811D911DA11D20D009F4689473
:105340003F912AE0269F11243019305D3193DEF61B
:10535000CF010895462F4770405D4193B3E00FD0D1
:10536000C9F7F6CF462F4F70405D4A3318F0495DBC
:1053700031FD4052419302D0A9F7EACFB4E0A6959F
:105380009795879577956795BA95C9F700976105C1
:10539000710508959B01AC010A2E06945795479517
:1053A00037952795BA95C9F7620F731F841F951F0C
:1053B000A01D0895F894FFCF0100000040002000D8
:1053C00018153815081534150119FF181538150C5E
:1053D00019FFFE6418FE0A15381508150615021582
:1053E00001FE0A19FF010005050106148C40420F59
:1053F0000003041E28100800008000400000000088
:10540000004C0DAC0CD90C990D0A0DE80CFC0C00ED
:105410000000000E18E6176218611805119011D4EB
:10542000100D0A00496E69742053756363657373C8
:10543000210047414D45204F564552210057414CD0
:105440004C204352415348210047414D45204F567F
:105450004552005072657373205245535441525463
:105460000053636F72653A202564005041555345DF
:08547000004650533A200000F1
:107E0000112484B714BE81FFF0D085E080938100F7
:107E100082E08093C00088E18093C10086E0809377
:107E2000C20080E18093C4008EE0C9D0259A86E02C
:107E300020E33CEF91E0309385002093840096BBD3
:107E4000B09BFECF1D9AA8958150A9F7CC24DD24C4
:107E500088248394B5E0AB2EA1E19A2EF3E0BF2EE7
:107E6000A2D0813461F49FD0082FAFD0023811F036
:107E7000013811F484E001C083E08DD089C08234E0
:107E800011F484E103C0853419F485E0A6D080C0E4
:107E9000853579F488D0E82EFF2485D0082F10E0AE
:107EA000102F00270E291F29000F111F8ED06801E7
:107EB0006FC0863521F484E090D080E0DECF843638
:107EC00009F040C070D06FD0082F6DD080E0C81688
:107ED00080E7D80618F4F601B7BEE895C0E0D1E017
:107EE00062D089930C17E1F7F0E0CF16F0E7DF06D8
:107EF00018F0F601B7BEE89568D007B600FCFDCFD4
:107F0000A601A0E0B1E02C9130E011968C91119780
:107F100090E0982F8827822B932B1296FA010C0160
:107F200087BEE89511244E5F5F4FF1E0A038BF0790
:107F300051F7F601A7BEE89507B600FCFDCF97BE46
:107F4000E89526C08437B1F42ED02DD0F82E2BD052
:107F50003CD0F601EF2C8F010F5F1F4F84911BD097
:107F6000EA94F801C1F70894C11CD11CFA94CF0C13
:107F7000D11C0EC0853739F428D08EE10CD085E9AC
:107F80000AD08FE07ACF813511F488E018D01DD067
:107F900080E101D065CF982F8091C00085FFFCCF94
:107FA0009093C60008958091C00087FFFCCF809118
:107FB000C00084FD01C0A8958091C6000895E0E648
:107FC000F0E098E1908380830895EDDF803219F02E
:107FD00088E0F5DFFFCF84E1DECF1F93182FE3DFCA
:107FE0001150E9F7F2DF1F91089580E0E8DFEE27F6
:047FF000FF270994CA
:027FFE00040479
:00000001FF
