:020000040000FA
:100000000C94D6080C94FE080C94FE080C94FE0880
:100010000C94FE080C94FE080C94FE080C94FE0848
:100020000C94FE080C94FE080C94FE080C94FE0838
:100030000C94FE080C94FE080C94FE080C94FE0828
:100040000C9408180C94FE080C94FE080C94FE08FE
:100050000C94FE080C94FE080C94FE080C94FE0808
:100060000C9452180C94FE081100050506060504B0
:1000700007202000002000200000240000036E4024
:10008000242006190C38C247084A10821284A004A2
:1000900021284108CAFE2841084A10821284A0047F
:1000A000E14700412B200811DC0CAC54663AD289A0
:1000B0001084EF494ED628462D2B61472BDCF08467
:1000C000173EF001E183830846B2B10907004247B9
:1000D000200811EC886D686306C630C1220632889C
:1000E000841DED60084B964A48A20E74A4431D453A
:1000F000514A50181D5382A2148228049D54421262
:1001000065250C61473B58220632881518C304D375
:10011000D0C6261C004332D087136C8C6428231968
:10012000CA48863292A19CE0082738CA50853254CA
:10013000B10A55AC6211E609CE60C8529483A0237F
:10014000198B604313160044311E1719EC844D645B
:10015000C32A93898E9316952CA30D2E780333F81A
:100160006710841804210641884110621084180425
:1001700021064188411032004528DF07117C054ED9
:1001800068239FCBC61312F188243C032356A18C0D
:1001900074E0F3DE1F74622399B950A52616B900E6
:1001A0004641A00619CC042FEA04276D431B45984D
:1001B0004611243288880C2222A38049300E2388DD
:1001C00090094F74E4084931C8F10C6244C214919B
:1001D0003084240C3187235001095440021550E02B
:1001E00000473F1C0811CC886B58A31E15A1C854AA
:1001F000A41219C8BCE639AE20453388C10C62ACE4
:10020000831CEA204742C8911082208420C73256BE
:10021000C1083616A28C852C62214B60C807FE00EF
:1002200048342008113C096DE05336F209A3AD8033
:10023000214A60481A18D5A436B189518B5A135BEC
:1002400082D116BA1E1D8451054258810C77104385
:100250003636A10149122006190C38C27FE403FF8B
:100260000F1484FF08004A4B1458115C8648C0E202
:100270001D0D618A2282910861104110C408A4F208
:10028000142320C41887308C110CA42C84214B49D2
:100290004630CC210C8210232445094431822008A9
:1002A000621842188808465214C28E563C020E0C40
:1002B000004B44200811CC90EA40A9516B194862C8
:1002C0008C719A63140719C449C57854219E4588D6
:1002D0006711015A15A3DF2AC2B308F12C423CAAC8
:1002E000184E2A88838CD21CE330C648CB4016D5E2
:1002F00024E85484014C1A1C08110CFEFF0351D051
:100300003E18FDC01F4844463092890FFC00064D40
:100310002A144811DC0458B463210A0D09E1402A6B
:100320008428F490100EA4428842549216C44ACBFA
:1003300007F1A3210C61C701004E4A1C0811CC082B
:100340004C9E0C0A51823510820CA918C4288E319B
:10035000886194A210A52084218DC210A610C4210A
:1003600085E21027410442283A9AC82210921005CB
:100370002C06010952B8A218CA38873992B420C78E
:100380004844014F3C200811CC90EA1CE144653000
:100390009420CA711A623065182E114544440193A5
:1003A000504025107009C48338F9758213BCB40B12
:1003B0006E3861198C58884116D524E85484015050
:1003C0002C1E0811AC1428258C7041514A28642138
:1003D000063B7CF00E329D0739E8118680010B3E0A
:1003E000F81E918D8B58B46B64A20100000004FFCD
:1003F000FF0000000000002300260029000000008C
:1004000000240027002A0000000000250028002BFF
:1004100000040404040404040402020202020203AD
:1004200003030303030102040810204080010204B7
:10043000081020010204081020000000080002013A
:10044000000003040700000000000000005F00033C
:100450000305050405061614FDFC0EFC0EFE026DD8
:1004600005BA080B200600602C01210FC425342397
:10047000391C2C2265C92122012209A5644621E1EB
:100480004500231B8B616429114BC412D9617298FA
:1004900049C412D961729849C412B144082421494F
:1004A000A65B1987846B924829520A5582B643E8A5
:1004B0001033464AA14AA8129195E39020002529BD
:1004C000EEE17B35938A26415948280B456511A9F1
:1004D000287D2487C6C6225134240B8A64C1982CF7
:1004E000A6148C4EE330002624D0258C4B078AE4DA
:1004F00020991C2493832672581D3AABD984135239
:1005000070561D52A7B4DA21741B012707A2642E6E
:100510007118281105A23327128D442399DE66B283
:10052000995000291005A2332194CD64337D1A8996
:10053000466A002A10E7E045354A9A444423496454
:100540009434022B154A215C2987C8217288F070E7
:1005500030CA2172881C22042C0BE4602B233944FE
:1005600046D9002D0765E034F1102E0A84202C2393
:10057000394424002F0FC6213CA918540C2A061513
:10058000838A003013C9255C379C8C6492997F9BC9
:10059000C84493E10C00310BC7295C271C15F79F59
:1005A0000E3215C9255C47134D66B6896C3C1D4F4C
:1005B000A762D5C3A1003317C9255C47134D66B6A2
:1005C000896C2C9C83E41399DB44342B013416C9C9
:1005D000255C1F174F1923B3D028368A4D82938389
:1005E000743C2D3518C9255C73889CE29038240E24
:1005F000B1C5E6E389CC6D229A95003616C9255C13
:10060000575A91D924E3C988B2E66D229B8C843372
:10061000003711C9255CF1509E8AE562B97875BC36
:1006200011003815C9255C379449A4D4E2456434D7
:10063000858E556A4D46033917C9255C37144D66BA
:100640009299B7C98434194F6436C96854033A0D76
:10065000242534233944C4924344023B0F84653338
:10066000233944C4924364940D003C114A215C0F29
:10067000111339D32174081D4287083D0BC9A45CAE
:10068000F140473C1C083E124A215C2187D021746E
:10069000081D4226729643003F12C921545712DDAD
:1006A0006C13D958772431952C044027CF21847BB3
:1006B0001ECBE4A090AC241129916422924C449169
:1006C00089246A2289D244249A10E5A0D8587C084B
:1006D000024120CE1D741F07CB8173201D14998306
:1006E0004272486C1E1B47A7076178181FC927D4A0
:1006F00002421ECC21747198CD48C3D170341CCDF8
:100700006687E0D274329D4C27D3C9707290014342
:100710001DCC2174590AB18C25E33A840EA183E6DD
:10072000A039680E89CC23E3184D5A03441FCE210B
:100730008471980E69E3D178349FCC27F3C97C3259
:100740009FCC27E3D17834241D8600451FCB216C34
:1007500071A00C2753C92C1499852223E171249C84
:100760000567A1C83832950C0F07461ECB216C7166
:10077000A00C2753C92C1499852223E171249C05D0
:1007800067C139640E995B014721CD217C598A915B
:100790004863D158328744E690C81C36874D0FE134
:1007A000D174349D91A8A50800481ECE218451AC77
:1007B0008C47E3D178341E8D4787D278341E8D471D
:1007C000E3D178349E140B490AC5254C5119ED7FAD
:1007D000294A13CA1D645B9EEF936C429A9026C20D
:1007E000916848044B1ECE2184512B4D8543E94C22
:1007F0003C924FE4103BE43E218FA833E29036A5B3
:10080000D40C4C10CA2164519EEFAF9169642899B1
:100810001D0C4D2DD1219C612E9169555A6418995A
:10082000856691596816998546A1596C129AC52614
:10083000A1598C360BCE66C1D968189CD462054E7E
:1008400021CE218441AD5067D42035584CA10543B9
:10085000A4608C120C16A3C428313C1B8BCA210047
:100860004F1DCE21846926D1C6A3F1640EB143EC9D
:10087000103BC40EB1439647E319896C04501ECC5B
:1008800021747110CE4843CA9032A40C2933D2216E
:100890003807CD4173D01C3487D40151284E2283B0
:1008A0006926D1C6A3F1640EB143EC103BC40EB16E
:1008B000D026A39168269951CA76A81C3A8983EA62
:1008C000B01100521FCD218471A00D49D3D17434D1
:1008D0001D0D6787E86C381BCE68C3D970369C182D
:1008E00027005316CA21644709AD0C25D308D97ACD
:1008F000355BCBD5D3245402541CCB216C7130AD65
:10090000CD6433D92C3887CC2173C81C3287CC21D5
:1009100073C8BC06551ECE218451AC8C47F3D83C1D
:10092000368FCD63F3D83C368FCD63F3D83C389403
:100930001B015622CF1D7461AC9067F320353C0D2E
:100940004FE3B3386416074DE2B0491C3887CEC177
:1009500071781C005730D41D9C61315568C4D97022
:100960001AA4D1C2335A78460B5322943864129A8F
:10097000C42193D0240EA1D161C3396C380786E31A
:10098000D0701800581FCF218C63AA11A734F948E2
:100990000EB1C3E8503AAC0EB3434464E174481B53
:1009A000538A06591FCD217C61A35065D3204D3A4F
:1009B0000B53E2903A680E9BC3E6B0396C0E9B4332
:1009C0006E005A19CC216CF1102E4FC294289D0E46
:1009D0009943E8AC1172645C3E1C025B0A04A633C6
:1009E00061D2FF13015C12C8214C21968BE562B9DC
:1009F000582E968BE562015D0A04A23341D2FF9323
:100A0000015E0E08A14D27961269222D42A2005FB9
:100A10000749604BF140600885A43E215B146112D8
:100A20002A215C739A4D8463DA646D329B8C98063C
:100A3000621FCC1D644107CD4173D01C34074D8823
:100A4000B4D174329D4C27D3C974421B496A0063E8
:100A50000F292154571A19CB5B2333190900641D40
:100A6000CC216C4F07CD4173D01C34A48C6694E923
:100A7000643A994EA693E96846A41065122A215C4F
:100A8000471C4D86C6C3413E8E0C652500660EC8C8
:100A9000213C4793EC3AB44DF7B106671EEB215B5E
:100AA0000F924346C6D14C2813CA4643A31C740870
:100AB0001E22D289583294DD00681ECC216C410779
:100AC000CD4173D01C34074D6A24D270341C0D47BD
:100AD000C3D170349C940A690CC52134335A0792EF
:100AE000F64B016A0F471633B91D8DB83F5A2C22B9
:100AF00012006B1DCC216C4107CD4173D01C340713
:100B00008D4A33E1283C115F27C4116D46A9186C4A
:100B10000AC5213441DAFFA5006D183321A441A98B
:100B2000D84825D27069B8345C1A2E0D97862BA54B
:100B3000066E152C216C41A99148C3D170341C0D4F
:100B400047C3D170522A6F0F2B2164579C4DA6BE0C
:100B50004E66C31A00701CAC1D633122D246D3C945
:100B600074329D4C27D3096D3421CE4173D01C5271
:100B700007711CAC21634712CD28D3C974329D4C38
:100B800027D3D18C489983E6A039680E29720F28A3
:100B9000214C4111512423C974C71A007312292111
:100BA000544509C924C388F16A2D4A2225007411CD
:100BB000A72144178E0A67A6E19E22A3100500759F
:100BC000152C216C51220D47C3D170341C0D47C325
:100BD000115B850076142A1D4C519A0C43C3D8280A
:100BE000388A92E972881000771B301D7C51294D9C
:100BF00066C3D06C181B91822352944426D185720F
:100C000088500878122B216461619351A4F57955BD
:100C10004293512806791BAB2163519B4C43D3D897
:100C20002C388B4EC293F81C32074565D1497C0E97
:100C30007A0E29215471A0D588DC8AC403017B0E69
:100C400005A2332712EDA4281BED26147C07C23120
:100C50005CF1037D0F05A23321948DB60945A23DB9
:100C6000A9017E0B6A2465B572888C4600000000DD
:100C700004FFFF00005F00030304040305050E0FDB
:100C800000FD0BFD0BFD01B0039405182005008C41
:100C9000142109B28514074B8C00220935C517129F
:100CA000CA28022317A9847912A14428111D4212CF
:100CB000A1447408498412A144062417E77478C13A
:100CC0008A244289506244EA304289502292623832
:100CD00006251BBC843DC4905E84A4384C0E92C390
:100CE000E230093522924944B21805002613A9853D
:100CF0005B538950225D9254944632918854112757
:100D00000732C5141500280DE46D55129144A4DF77
:100D1000443201290EE46C1532914CA45F44121147
:100D2000002A0945BC56A1CA44012B0B788C796274
:100D3000B5434CAC062C08337C34120A002D061344
:100D4000A414032E06228514042F0FB4847449A220
:100D50005848140B89623100300DB7845833891A12
:100D6000BF49D446003108B4855826FD03320DB77B
:100D7000843815194D2A1CEAF5003310B78438154C
:100D8000194DAA4496D268920A003412B884B8D297
:100D9000214D2252914964924354AC023510B784DC
:100DA0003816A9506A9D4A6924110900360FB78484
:100DB0005824151155B244E326A900370FB78418FB
:100DC00057A15428154A85524500380EB784381566
:100DD00019374945C64D5201390EB7843815196F78
:100DE000122B8D2422013A088286157408013B0AD1
:100DF000937D35EA600905003C0956957893917416
:100E0000013D07379D19F7033E0A569518D3A96887
:100E100032033F0EB7853915194D2AD42A87AA0106
:100E2000401CCD7C9EE5D9EA4825A22411514422DC
:100E30008A1A4549229ACCE45099BC0A4116BA84D0
:100E40009A72889C1C8A8A842299507408092562A7
:100E5000B2004211B8851A1759914D629249846CBB
:100E60008709004311B9857B25CA443AD71D228DD5
:100E7000506615004410B9851B36D9442891F251AB
:100E8000229BD800450CB7851907A9D68354EB01DE
:100E9000460CB7851907A9568B5457004712B985D8
:100EA0007B25CA443A57B352254209654609480B87
:100EB000B8851A421E0F451E054907B285141F0248
:100EC0004A0CB784B8FA4AA3552615004B15B985C4
:100ED0001A42894CA4261152A912A148A62494486A
:100EE000054C09B7851852FDEB014D18BB851D72E5
:100EF0007AD57AB3C422945884A2428A8448235A69
:100F00004C004E13B9851BD2629112A388482192DE
:100F1000841621B60A4F11BA857CC4D1482811F332
:100F20002C118A166900500DB8851A175991ED30A9
:100F300011EB0C5111BA857CC4D1482811F326510C
:100F40001B2D52045217B9851B27D94428114A6416
:100F5000A2936C2294082542895400530FB8853A15
:100F60009651B1CC3C2656462500540AB8841887C1
:100F70009858FF06550CB9851B52FE5522939500D3
:100F80005615BA841A62B24428128AD64442919401
:100F90004C97438400571DBE841E42215148541172
:100FA000919492949254441259442409AE0AC54231
:100FB00019005813B9841952AA44A6221D4F25328C
:100FC0002599444A155917BA841A6289502494897C
:100FD000842229992E87C821728810005A0EB8845D
:100FE0001987B05475AA3A553E045B09E46D15267D
:100FF000FD4F045C0CB48414B1982C4D96264B5DC7
:1010000009E46C1524FD4F065E0A56B55832528A23
:1010100088245F07186C188700600723CD1522010C
:1010200061108785382455514524114924A389002E
:10103000620EB78519522DA2891AB78A2600630D50
:10104000868558230989A824519A00640EB785B96A
:101050009A242A356E12C94822650E8685381411E5
:10106000E930144E241400660CB584541399882476
:10107000D327006712B76D599388A4C64D2219492A
:10108000A4A4490500680BB78519522D2B35BE095C
:101090006909B28514A4C341006A0AE36C348A1258
:1010A000FD72016B0EB68518424D14098924D18951
:1010B000246C07B285141F026D138A851C12C91691
:1010C000928824228948229288A4006E0A87851972
:1010D00092951ADF046F0D87855933891A3789DA9B
:1010E0000800700FB76D1912D1448D5B45935415EC
:1010F00000710EB76D5912951A37896424916A727E
:101100000A85851692834C6F00730D8685381451BD
:101110009138AC482800740DA58435325145A69706
:10112000900400750A87851932BE555604760F88DB
:10113000841842A244A42D14A48A650077148A84DA
:101140001A2211494452D1245113094542910800F1
:10115000780E878417329A446D3893A8D104791198
:10116000B86C1842A244A42D14A48A55A543007A51
:101170000B8684164699A24CD1007B0CE56C762236
:10118000992645351D057C06E16E140F7D0DE56D34
:101190001642994625359D64007E09379D39A3493D
:1011A0004D0200000004FFFF00006D1911241FBE56
:1011B000CFEFD8E0DEBFCDBF11E0A0E0B1E0E4ECBE
:1011C000F9E302C005900D92A23CB107D9F727E0E0
:1011D000A2ECB1E001C01D92AE30B207E1F718E019
:1011E000C6EDD8E004C02197FE010E94D31CC53D86
:1011F000D107C9F70E94201A0C94E01C0C9400003F
:10120000662329F06A3019F0862F90E008958FEF59
:101210009FEF0895EF92FF920F93CF93DF937A01A0
:10122000462F4770E0E8F0E002C0F595E7954A9553
:10123000E2F75E2FDC01ED91FC91A089B0E0AE9D5C
:10124000E001AF9DD00DBE9DD00D1124FC01E0AC9E
:10125000F1AC43E0769567954A95E1F76C0F7D1FF9
:10126000F701E60FF71FEC01C657DF4F011119C058
:101270008881823018F49081952B90838881813009
:1012800019F0908195279083569511F4319650E886
:101290002150310969F7DF91CF910F91FF90EF90C5
:1012A00008958881823018F49081952B90838881ED
:1012B000813019F0908195279083EA0FFB1F215010
:1012C000310979F7E8CF80E0089590E080E0089553
:1012D000CF93DF93C8E7D6E08FAFEAADFBAD0190C7
:1012E000F081E02D8CE796E00995EAADFBAD028038
:1012F000F381E02D8CE796E0DF91CF910994809304
:1013000006070895833081F028F4813099F0823007
:10131000A9F008958730A9F08830C9F08430B1F47D
:10132000809180008F7D03C0809180008F778093B3
:101330008000089584B58F7784BD089584B58F7D2E
:10134000FBCF8091B0008F778093B000089580919B
:10135000B0008F7DF9CF1F93CF93DF93282F30E01C
:10136000F901E75CFB4F8491F901EB5DFB4FD491F0
:10137000F901EF5EFB4FC491CC23A9F0162F811128
:101380000E948209EC2FF0E0EE0FFF1FE95FFB4F98
:10139000A591B4918FB7F894EC91111108C0D09534
:1013A000DE23DC938FBFDF91CF911F910895DE2B59
:1013B000F8CFCF93DF9390E0FC01EB5DFB4F2491DE
:1013C0008F5E9B4FFC0184918823D1F090E0880FC1
:1013D000991FFC01E350FC4FA591B491FC01E95F1A
:1013E000FB4FC591D491623071F49FB7F8943C9152
:1013F000822F809583238C93E8812E2B28839FBF97
:10140000DF91CF9108958FB7F894EC912E2B2C9308
:101410008FBFF6CF3FB7F894809174029091750218
:10142000A0917602B091770226B5A89B05C02F3F08
:1014300019F00196A11DB11D3FBFBA2FA92F982FFA
:101440008827BC01CD01620F711D811D911D42E0F5
:10145000660F771F881F991F4A95D1F708958F92BD
:101460009F92AF92BF92CF92DF92EF92FF926B0169
:101470007C010E940A0A4B015C01C114D104E10401
:10148000F104B9F00E940A0A681979098A099B09CE
:10149000683E73408105910580F321E0C21AD108AE
:1014A000E108F10888EE880E83E0981EA11CB11CAB
:1014B000E4CFFF90EF90DF90CF90BF90AF909F90E0
:1014C0008F90089520912502260F3327331F213254
:1014D0003105ECF420914902FC0190E080E02430D9
:1014E00069F082E00895A09125022191AC014B5F43
:1014F0005D4FA40FB52FB11D2C930196861798F35D
:1015000080912502680F6093250280E0089581E0B4
:10151000089508958FEF9FEF08958FEF9FEF08953F
:101520008091FE0190E09195819591090895CF9366
:10153000DF93CB01EA01642F0E94620ACE01DF91A2
:10154000CF910895CF93DF931F92CDB7DEB7698314
:1015500061E0CE0101960E94620A81E090E00F9066
:10156000DF91CF910895482F21E0FB013191BF0118
:10157000332339F0CF013A30C1F7241721F02F5F20
:10158000F4CF80E090E00895FC0181E091919923EF
:1015900021F09A30D9F78F5FF9CF0895DC011A96C0
:1015A000ED91FC9130E020E009941F93CF93DF93FD
:1015B000EC01A881B981683109F49BC038F4643129
:1015C00009F489C0673149F080E00EC0693109F43F
:1015D000D4C06032C9F76AE488C01C968C9180FD43
:1015E0003FC0411105C081E0DF91CF911F91089567
:1015F000F90181919F014150DFB7F894A091EC016E
:10160000B091ED01C091EB01E091E901F091EA01A7
:101610007091E8016091E70181110EC08C918C23DB
:101620008C9388E09081972B908390819623908370
:101630008150C1F7DFBFD5CF1091E60198E05C91F2
:1016400087FF0CC0512B5C935081572B5083880F20
:10165000508156235083915091F7ECCF5C23F3CF08
:10166000442309F4C0CFF90181919F014150DFB7B4
:10167000F894A091EC01B091ED01C091EB01E091E3
:10168000E901F091EA016091E8017091E7018111AF
:101690000EC08C918C238C9388E09081972390834B
:1016A0009081962B90838150C1F7DFBFD9CF1091E5
:1016B000E60198E05C9187FF0CC0512B5C93508150
:1016C00057235083880F5081562B5083915091F7A8
:1016D000ECCF5C23F3CF11964C9169E40E94CE0AC3
:1016E000E881F9814485417060E4CE010E94CE0A10
:1016F0007ACF4C9169E40E94CE0AA881B981EA852B
:10170000FB8530E020E012964C916CE2CE01099509
:101710008E8D90E0FC01EF5EFB4FE491F0E0EE0F68
:10172000FF1FE95FFB4F259134913093EA0120932D
:10173000E901FC01EB5DFB4FE491E093E801E095EA
:10174000E093E7018F8D90E0FC01EF5EFB4FE491A9
:10175000F0E0EE0FFF1FE95FFB4F259134913093CE
:10176000ED012093EC01FC01EB5DFB4FE491E09374
:10177000E601E095E093EB0136CFEA85FB8530E0AA
:1017800020E013964C916CE20995E881F981418142
:1017900069E4ABCFDC011496ED91FC9130E020E0E0
:1017A00040E060E10994FF920F931F93CF93DF9382
:1017B000EC0100E51FEFFF24F394F98E40E0602F69
:1017C000CE010E94CE0A898D8170110F182B0F5FF8
:1017D000063599F78C8D803131F120F48823E9F0BA
:1017E00081501FC0803241F18033D1F78A8D81133F
:1017F0001EC01C8E2B8D86E091E012278150212F78
:10180000292321F4990F8111F9CF86E0805BDF91C4
:10181000CF911F910F91FF9008958A8D811739F014
:1018200082E18C8F04C08A8D811303C01C8E80E0FE
:10183000EECF1B8F82E2F5CF8B8D8113F7CF80E344
:10184000F0CFDC011696ED91FC9130E020E040E015
:1018500069E10994DC011696ED91FC9130E020E0FD
:1018600040E068E109949A01DC011696ED91FC9143
:10187000462F67E10994EF92FF920F931F93CF9346
:10188000DF931F92CDB7DEB77C018B01D8016C913D
:10189000673129F150F46531A0F40F90DF91CF91B9
:1018A0001F910F91FF90EF9008956A3118F16E3FEC
:1018B000A1F7F8014181498369E2C7010E94CE0A7C
:1018C0000BC0F80141814983D7011696ED91FC9137
:1018D00030E020E0C70109950E5F1F4FD7CFF80118
:1018E00081818983AE014F5F5F4F61E0C7010E9434
:1018F000330CF2CF0F5F1F4FD7011696ED91FC917D
:1019000030E020E040E0C7010995C0CF462FDC0160
:101910001696ED91FC9130E020E065E10994AF92DC
:10192000BF92CF92DF92EF92FF920F931F93CF93CC
:10193000DF93EC01693089F48FE291E09983888329
:101940001C8A81E0DF91CF911F910F91FF90EF9062
:10195000DF90CF90BF90AF90089579016B3009F47C
:1019600040C06F3009F444C080E06A3059F7EA851E
:10197000FB8530E020E040E068E2CE010995EE8191
:10198000FF8130E020E040E064E1CE01099541E0D4
:101990006BE4CE010E94CE0AE881F981448169E2BC
:1019A000CE010E94CE0A40E06BE4CE010E94CE0A36
:1019B000E881F981448169E2CE010E94CE0A41E0CA
:1019C0006BE4CE010E94CE0AE881F981458169E28B
:1019D000CE010E94CE0A6CE171E0CE010E943B0C68
:1019E000B0CF65E171E04423C1F36AE071E0F5CF67
:1019F000F9010481000F000F000F138116950032CA
:101A000010F00052185FCE010E942A0CF701A0804E
:101A1000B1806EE3CE010E94860C6EE3CE010E947F
:101A2000860CD12C1068602F6D0D6068CE010E946D
:101A3000860C612FCE010E94860CF701C280A501A1
:101A40006C2DCE010E94330CAC0CB11CD394F8E089
:101A5000DF12E9CFCE010E94210C73CF9A01DC0185
:101A60001896ED91FC91462F67E10994CF93DF938F
:101A70001F92CDB7DEB76983AE014F5F5F4F61E064
:101A80000E942E0D0F90DF91CF910895CF92DF929B
:101A9000EF92FF920F931F93CF93DF93EC01142FDC
:101AA00079016631C1F130F4643149F06531A9F052
:101AB00080E040C0673109F446C06A31C8F7E88564
:101AC000F9859701412FCE01DF91CF911F910F91A1
:101AD000FF90EF90DF90CF90099468EF0E94360D51
:101AE00041E06CE2CE010E94CE0A612F607FCE0100
:101AF0000E94360D41E06CE2CE010E94CE0A612FB9
:101B00006295607FCE010E94360D41E06CE2CE010D
:101B10000E94CE0A0EC068EF0E94360D612F607FD2
:101B2000CE010E94360D612F6295607FCE010E942A
:101B3000360D81E0DF91CF911F910F91FF90EF90D3
:101B4000DF90CF9008956AEF0E94360D41E06CE27D
:101B5000CE010E94CE0ADE2CCF2C012F083008F5D2
:101B6000012F069506950695D12E88EF089FD00C7B
:101B70001124E8E00E9F800111240E0D1F1DDD20B1
:101B800021F2F801F1908F016F2D607FCE010E944C
:101B9000360D6F2D6295607FCE010E94360DDA946E
:101BA000EECFAEEEB1E0ED2DFC2D9F01285F3F4F53
:101BB0008191982F907F9C938295807F11968C9332
:101BC00011971296E217F30799F7DE2ECF2E0850E1
:101BD0004EEE51E060E1CE010E942E0DBFCFFC0120
:101BE0006623D9F16A30C9F1808D811125C06C3F1F
:101BF00048F085E0808F617070E0738B628B2EEF10
:101C00003FEF29C0683F20F084E0808F6370F4CFFD
:101C1000603F20F083E0808F6770EECF603E20F061
:101C200082E0808F6F70E8CF262F30E0603C98F024
:101C300081E0808F6F71E0CF8150808F228933895E
:101C400096E0220F331F9A95E1F76F73262B338BA3
:101C5000228B8111D4CFC90108952FEF3FEFFBCF25
:101C60000F93FC01E05CFF4F0190F081E02D4E1BD3
:101C70005F0BDC01D496ED91FC9109950F910895CD
:101C8000CF93DF93FC01A081B18182AD90E09C01F4
:101C900043E0220F331F4A95E1F737AF26AF509646
:101CA0002C91509748E0249F9001112435AF24AF28
:101CB00023AD30E0B90153E0660F771F5A95E1F785
:101CC000EF01C05CDF4F7983688351964C91519747
:101CD000E901C80FD91F50E04C175D0718F4CA017D
:101CE000821B930BEF01CE5BDF4F798368832296D3
:101CF00023E0880F991F2A95E1F7860F971F998394
:101D00008883229654968D919C91559799838883C8
:101D1000E85BFF4F56968D919C9191838083DF9174
:101D2000CF9108950F931F93FC01E25BFF4F019049
:101D3000F081E02DDC01A05BBF4F0D90BC91A02D88
:101D40004A175B0740F4E017F10748F0041715073E
:101D500030F080E019C0E017F107C0F3FACFFC01C2
:101D6000E65BFF4F40815181845B9F4FFC01808186
:101D700091816817790758F481E04217530720F0E2
:101D800081E02617370728F71F910F910895421712
:101D90005307B0F3DECF2F923F924F925F926F9234
:101DA0007F928F929F92AF92BF92CF92DF92EF92EB
:101DB000FF920F931F93CF93DF93CDB7DEB72A9790
:101DC0000FB6F894DEBF0FBECDBF9A878987865BBA
:101DD0009F4F9A838983FC0111821082E985FA85DD
:101DE000EA5BFF4F4080518029853A85245B3F4F55
:101DF0003C832B83F90151824082E985FA85EE5BB1
:101E0000FF4F2080318029853A85225B3F4F3E83FA
:101E10002D83F90131822082E985FA85EC5BFF4F41
:101E20006080718029853A85205B3F4F38872F83FA
:101E3000F90171826082E985FA85E85AFF4FE080F6
:101E4000F180E985FA85EC5AFF4FA080B180E985E1
:101E5000FA85EA5AFF4FC080D180E985FA85EE5AAB
:101E6000FF4F8080918087019501A601B40189858B
:101E70009A850E94920E29853A852C573F4F3A87C2
:101E8000298781111BC0F90110822A960FB6F89498
:101E9000DEBF0FBECDBFDF91CF911F910F91FF909D
:101EA000EF90DF90CF90BF90AF909F908F907F90FA
:101EB0006F905F904F903F902F90089581E0E9855B
:101EC000FA8580838114910421F0E981FA8191825D
:101ED0008082A414B50420F4EB81FC81B182A0823D
:101EE0002C143D0420F4ED81FE81D182C082E614E1
:101EF000F70458F6EF81F885F182E082C6CF0F93A0
:101F0000CF93DF93E02FDC01AC57BF4FFC91FF2351
:101F100009F460C02115310509F45CC02230310597
:101F200038F0023009F04AC06F5F7F4F621B730BBD
:101F30000E2F0170E0FD52C0FC01E25BFF4F0190EB
:101F4000F081E02D4E175F0708F444C0FC01E05B10
:101F5000FF4F0190F081E02D4E175F07D8F5FC018F
:101F6000E45BFF4F0190F081E02DDC01A65BBF4FE9
:101F70000D90BC91A02D260F371F2617370738F577
:101F80006E177F0718F59F0121503109A217B3077B
:101F900008F56A177B0708F4BD012E173F0708F400
:101FA000F901E61BF70BEC01AEA9BFA914960D9041
:101FB000BC91A02D9F01FD0109950CC0033009F0D3
:101FC000B7CF4F5F5F4F421B530BB2CFBD016E17B0
:101FD0007F07E0F2DF91CF910F910895FC01E65B5E
:101FE000FF4F0190F081E02D6E177F0798F3FC0101
:101FF000E45BFF4F0190F081E02D6E177F0750F7F3
:10200000FC01E05BFF4F0190F081E02DDC01A25B61
:10201000BF4F0D90BC91A02D240F351F24173507FD
:10202000A8F44E175F0788F49F0121503109A217C9
:10203000B30780F64A175B0708F4AD012E173F0778
:1020400008F4F901E41BF50BAECFAD014E175F07A5
:1020500008F6EDCF213069F038F0223079F0840FA6
:10206000911D47FD9A950895860F911D67FD9A95DC
:102070000895841B910947FD93950895861B910946
:1020800067FD93950895213069F038F0223079F09A
:10209000861B910967FD93950895840F911D47FD57
:1020A0009A950895860F911D67FD9A950895841B52
:1020B000910947FD939508953F924F925F926F92D9
:1020C0007F928F929F92AF92BF92CF92DF92EF92C8
:1020D000FF920F931F93CF93DF937C01162F442E13
:1020E000EC01C25ADF4F5E806F806C018AE8C80E37
:1020F000D11C78847518312E711608F4372C8C8019
:102100009D800E85202F462D652D8A819B810E9402
:102110002A105C01202F462D652DC4010E9443101A
:10212000AC01442079F08C85F6018083232D30E0CA
:10213000B501C7010E947F0F171548F01719639466
:10214000512CD7CF8B858111F7CF8D85EDCF150D14
:102150001E836F82DF91CF911F910F91FF90EF90BF
:10216000DF90CF90BF90AF909F908F907F906F90B7
:102170005F904F903F900895DC011A964C911A970A
:10218000ED91FC911197249130E0042E02C0359519
:1021900027950A94E2F7842F860F883068F03196ED
:1021A0001196FC93EE93E49198E0941B01C0EE0F1E
:1021B0009A95EAF72E2B88501A968C938FEF9FEF03
:1021C00001C0880F6A95EAF78095822308950F93DE
:1021D0001F93CF93DF938C01EC01C25ADF4F7983B9
:1021E00068831A86FC01EF58FF4F6081CE010E9480
:1021F000BC108887F801EE58FF4F6081CE010E9425
:10220000BC108987F801E657FF4F90819C8781E0D9
:10221000911180E08D87DF91CF911F910F910895EB
:10222000CF93C62F0E94BC10C15021E030E001C006
:10223000220FCA95EAF7821BCF910895FC01E60FA1
:10224000F11D849190E0982F88273196E4918E0FAC
:10225000911D0895CF93DF932091D6063091D70634
:102260002817390709F490C0EC019093D7068093A2
:10227000D606FC0184918093E9063196E491E093BF
:10228000EA06FE013296E491E093EB06FE013396F6
:10229000E491E093EC06FE013496E491E093ED06C0
:1022A000FE013596E491E093EE06FE013696E49148
:1022B000E093EF06FE013796E491E093F006FE010D
:1022C0003896E491E093F106FE013996E491E093AB
:1022D000F206FE013A96E491E093F306FE013B9686
:1022E000E491E093F406FE013C96E491E093F50658
:1022F000FE013D96E491E093F606FE013E96E491E0
:10230000E093F706FE013F96E491E093F806FE01A4
:102310007096E491E093F90661E1CE010E941E11EE
:102320009093FB068093FA0663E1CE010E941E1192
:102330009093FD068093FC0665E1CE010E941E117C
:102340009093FF068093FE068091D6069091D70663
:10235000892BD1F08091F606809302074091F70611
:102360004093030790910107992371F0913079F41C
:102370009091F806891714F4909302078091F9065A
:10238000841714F480930307DF91CF91089530915F
:10239000F3062091F506082E000C990B622F022EF1
:1023A000000C770B630F711D37FD7A958617970721
:1023B0001CF4320F30930207241734F720930307DD
:1023C000E3CFEF92FF920F931F93CF93DF93FC0124
:1023D000E65AFF4F20813181295E3F4F6F3F7105E3
:1023E00009F048F561367105D8F080589F4FFC011F
:1023F00080819181280F391FC9010196FC01449108
:10240000442309F447C0F90144914617170671F4B3
:102410000196DF91CF911F910F91FF90EF9008955A
:102420006134710548F382589F4FE1CFFC018491DC
:10243000280F311DE1CF8B01FC01EE57FF4FC0810A
:10244000D181C20FD31F7E0160E0C7010E941E111F
:10245000C80FD91F62E0C7010E941E11F4E0EF0E01
:10246000F11C8017910780F3FE01849190E0982F72
:1024700088273196E4918E2B009761F00817190791
:1024800019F4CE010396C5CFFE013296E491CE0F2A
:10249000D11DEACF90E080E0BCCF3F924F925F9297
:1024A0006F927F928F929F92AF92BF92CF92DF9264
:1024B000EF92FF920F931F93CF93DF9300D000D042
:1024C00000D0CDB7DEB79E838D833C0126E6620E39
:1024D000711CD3011C92FC01108E6B0120EC322E7A
:1024E000F12CE12C10E000E04C01F8E88F0E911C7B
:1024F0005C012EE5A20EB11C8D589F4F9A838983F3
:10250000AD81BE81AC58BF4FBC83AB834D805E8034
:10251000B5E74B0E511CF60161916F01AD81BE8193
:102520001296ED91FC911397CD0109958F3F980775
:1025300081F18E3FEFEF9E0771F3BC018D819E818B
:102540000E94E111009719F1BC018D819E810E94CA
:10255000E710A981BA816C91C5010E941011F401A4
:102560008083AB81BC816C91C5010E941011F20186
:102570006081C5010E941011E82E880FFF08F0EC61
:102580003F1202C0D4013C900E0D1F1DC4CF80E04D
:10259000F3CFF30180818823B9F02D813E81285744
:1025A0003F4FD9012C91082E000C990B820F911DE1
:1025B00027FD9A95080F191F0E191F09131424F4EB
:1025C000030D111D37FC1A95C80126960FB6F89415
:1025D000DEBF0FBECDBFDF91CF911F910F91FF9056
:1025E000EF90DF90CF90BF90AF909F908F907F90B3
:1025F0006F905F904F903F9008958F929F92AF920F
:10260000BF92CF92DF92EF92FF920F931F93CF93DF
:10261000DF93EC017B018A016901FC01E459FF4F62
:102620008081813009F46FC008F462C0823009F4FF
:1026300075C0833009F47DC0FE01E05AFF4FF1827E
:10264000E082329611830083B601CE010E94E1112F
:10265000009709F4FFC07E012EE5E20EF11CBC01DB
:10266000CE010E94E710FE01E959FF4FB0803C9671
:102670006081C7010E941011882EFE01EC58FF4FA7
:102680006081C7010E941011082FFE01EB58FF4F17
:102690006081C7010E941011A82EF70190841914BF
:1026A0000CF090C016850B0D0195212F402F682D41
:1026B000828193810E942A106C01F70193838283A7
:1026C000212F402F682D848195810E944310AC01F9
:1026D000F70195838483113009F484C0A8F1123086
:1026E00009F491C0133009F4A4C08C01960136C0DE
:1026F000FE01E45AFF4F0190F081E02DCE010995D3
:10270000080F191F99CFFE01E45AFF4F0190F08185
:10271000E02DCE010995E81AF90A8ECFFE01E45AA0
:10272000FF4F0190F081E02DCE010995081B190B98
:1027300083CFFE01E45AFF4F0190F081E02DCE01DE
:102740000995E80EF91E78CF9601290D311D97FCE9
:102750003A958C010B0D111DB7FC1A95B601CE01EF
:102760000E94920E882371F1F701168217828E0162
:1027700001591F4F6E01F0E7CF0ED11CF8016081A7
:10278000C7010E94BC10882EF6016081C7010E941B
:10279000BC10982E40E0682DCE010E945C1041E0F4
:1027A000692DCE010E945C1061E0C7010E94BC103F
:1027B0008111F0CFF70187818B1504F3C657DF4FE6
:1027C000848588838A2DAA0C990BDF91CF911F9164
:1027D0000F91FF90EF90DF90CF90BF90AF909F90C0
:1027E0008F90089581E090E08B199109B7FC939543
:1027F00096012F5F3F4F8A01090D111D97FC1A9515
:10280000C80ED91EABCF81E090E0BC0169197109F7
:1028100097FC739596012F5F3F4F8B199109B7FC79
:1028200093958A010F5F1F4F480F591FC60ED71E81
:1028300095CF96012B0D311DB7FC3A9581E090E0C4
:102840008919910997FC93958A010F5F1F4F480FD3
:10285000591F84CF90E080E0B8CFCF92DF92EF9203
:10286000FF920F931F93CF93DF93EC018B01109294
:1028700094067A01D12CC12CF70161917F01E0917E
:102880007E06F0917F068CE796E009958F3F9807CA
:1028900019F18E3F2FEF920779F39C01A801BE0139
:1028A0008CE796E00E94FD122091E806213059F055
:1028B00038F0223059F0233061F0C80ED91EDCCF39
:1028C000C80FD91FFACF080F191FF7CFC81BD90B94
:1028D000F4CF081B190BF1CFC601DF91CF911F91E7
:1028E0000F91FF90EF90DF90CF900895AF92BF923D
:1028F000CF92DF92EF92FF920F931F93CF93DF93CC
:1029000000D000D01F92CDB7DEB78C01DC01DA9683
:10291000AC90DA97DB96EC90DB97ED91FC91B18867
:10292000FE2CD12CC12CD801ED91FC9111978089FE
:10293000D8962D913C911C82FD828B83B8E08B9FB1
:10294000C00111248C9DA0018D9D500D9C9D500DAA
:102950001124240F351F3A832983D8011496ED9151
:10296000FC919E012F5F3F4F41E06FE0C801099548
:10297000F3948F2D8E198A1528F4BFEFCB1ADB0A3A
:10298000FB1488F20F900F900F900F900F90DF9133
:10299000CF911F910F91FF90EF90DF90CF90BF905C
:1029A000AF9008956F927F928F929F92AF92BF9255
:1029B000CF92DF92EF92FF920F931F93CF93DF930B
:1029C0006C015B01EA01490178013B01620E731E53
:1029D0008A010E0D1F1D93010E94920E882351F152
:1029E00000E09401AE01B501C6010E947F0F82E0B4
:1029F000E816F104F8F082E0E81AF1082196E114F3
:102A0000F10489F001E09701AE01B501C6010E9411
:102A10007F0FB301615071099701AE01C6010E9499
:102A20007F0FCE0DDF1D00E09401AE01B501C601A0
:102A30000E947F0FDF91CF911F910F91FF90EF9038
:102A4000DF90CF90BF90AF909F908F907F906F90CE
:102A500008952F923F924F925F926F927F928F9242
:102A60009F92AF92BF92CF92DF92EF92FF920F931D
:102A70001F93CF93DF9300D000D000D0CDB7DEB747
:102A80006C017B836A835A0149010983EC821092AD
:102A9000E806E091D806F091D9068CE796E0099512
:102AA000EA80FB80E80EF91E8FEE9DE090937F0692
:102AB00080937E06B4018CE796E00E944D129E83BF
:102AC0008D83512C412C8A159B0538F42501481A19
:102AD000590A56944794BE82AD8200910207002E97
:102AE000000C110B5701A01AB10A8091030798013D
:102AF000281B310987FD33953B832A8381E00E949F
:102B00007F093C81332391F02A803B802A0C3B1CB7
:102B100081012D813E812C0D3D1DA501B6018CE763
:102B200096E00E94920E350181113EC0898181118B
:102B30003FC02C8180E0211101C081E00E947F090B
:102B40008FEE9DE090937F0680937E06A401B701EF
:102B5000C601840D951D0E942D1481E026960FB6A6
:102B6000F894DEBF0FBECDBFDF91CF911F910F91C3
:102B7000FF90EF90DF90CF90BF90AF909F908F909D
:102B80007F906F905F904F903F902F900C947F09B3
:102B900000E02D813E81A301B6018CE796E00E9402
:102BA0007F0F9FEF691A790A2614370489F7BECF81
:102BB0002D813E812E5F3F4F0A811B810E5F1F4F8B
:102BC000B60161507109AB014C195D094A0D5B1DDD
:102BD0008CE796E00E94D214ACCF8F929F92AF9276
:102BE000BF92CF92DF92EF92FF920F931F93CF93FA
:102BF000DF936C014B015A01D22F132F822F932F99
:102C00000E94C40AF82EC0E0CF1112C0CA9DC001B4
:102C1000CB9D900D1124DF91CF911F910F91FF90CB
:102C2000EF90DF90CF90BF90AF909F908F900895DE
:102C30008D2F912FCC2329F06D2F712F8C2F0E9477
:102C4000B30AE12C00E09C01A401B60190E080E011
:102C50000E942915CA0CDB1CCF5FD6CF0F931F93A0
:102C6000CF93DF93EC01862F642F8C3208F03AC0AB
:102C70008A3208F060C0883209F44BC0893209F406
:102C800060C0803408F475C0982F9F73FE01E90F6F
:102C9000F11D868D8F3F09F44EC0903108F436C087
:102CA000282F30E0F901E75CFB4F8491F901EB5DDF
:102CB000FB4F0491F901EF5EFB4F1491112379F062
:102CC00081110E948209E12FF0E0EE0FFF1FED500D
:102CD000FC4FA591B491EC910E2381E009F480E0C2
:102CE000898F29C08D3299F108F4CBCF94EB980FDE
:102CF000923008F0C6CF8F73C80FD11D8E8D411151
:102D000034C061E00E94D90960E08E8D0E94AB0959
:102D100012C08E01025E1F4FD0E0F80181918F0139
:102D20008F3F31F061E0D03108F062E00E94D909B4
:102D3000DF5FD63191F781E0DF91CF911F910F9145
:102D4000089570E090E080E00E942F0AF4CF85E0C3
:102D500090E0433010F082E090E0880F991F880FD8
:102D6000991F05970197F1F7E6CF62E00E94D90914
:102D7000E2CF80E0E1CFFC012081318126173707C7
:102D800034F42F5F3F4F3183208381E00895621731
:102D900073071CF421503109F6CF80E00895CF92DB
:102DA000DF92EF92FF920F931F93CF93DF936C010B
:102DB000EB017B01E40EF51E10E000E0CE15DF050F
:102DC00061F06991D601ED91FC910190F081E02DC7
:102DD000C6010995080F191FF1CFC801DF91CF91E6
:102DE0001F910F91FF90EF90DF90CF900895CF92B9
:102DF000DF92EF92FF920F931F93CF93DF93EC013B
:102E00006C0124E0C20ED11CFC01E057FF4F019081
:102E1000F081E02DC60109958E3FEFEF9E07D8F4B3
:102E20008E010C561F4FF801408151817E01F2E95D
:102E3000EF0EF11CF701608171819C01C6010E94B7
:102E4000FD12C059DF4F28812130C1F078F02230C7
:102E5000B9F02330E9F081E090E0DF91CF911F914C
:102E60000F91FF90EF90DF90CF900895F7012081B0
:102E70003181820F931F91838083EDCFF801F7CFCB
:102E8000F70120813181281B390B31832083E3CF67
:102E9000F801F7CF089590E080E008951F93CF9355
:102EA000DF9385ED8093BC00809101029091020236
:102EB000A0910302B09104020796A11DB11D23E069
:102EC000B695A795979587952A95D1F72091BC003F
:102ED00024FD03C01092490252C04091010250915A
:102EE00002026091030270910402452B462B472B8E
:102EF00069F30097A105B10541F02AE22A95F1F79F
:102F000000C00197A109B109E1CF80910002C1E0A1
:102F1000C093FF01882399F1D091B8001091BA00B5
:102F20008091BC008A7B8093BC0060E082E10E94BB
:102F3000AB0960E083E10E94AB0910924902C093A3
:102F40004B0210924A0261E082E10E94AB0961E00B
:102F500083E10E94AB098091B9008E7F8093B90014
:102F60008091B9008D7F8093B90088E48093B80088
:102F700085E48093BC001093BA00D093B800DF9131
:102F8000CF911F910895FC01A081B18150962C91A1
:102F900082AD38E0839FC0011124289FA001299FA2
:102FA000500D112470E060E080AD91AD0C94D91CFF
:102FB000CF938CE796E00E947614C091B70680917B
:102FC000B606C80FE0917C06F0917D068189C8178E
:102FD00038F08CE796E00E94CA0B80E0CF9108950C
:102FE00080910707882321F08CE796E00E94C317A1
:102FF0008C2F0E94680981E0F1CF80910707882318
:1030000021F08CE796E00E94C31780E00C946809D9
:103010001F920F920FB60F9211242F933F938F930D
:103020009F93AF93BF938091700290917102A09192
:103030007202B091730230916F0223E0230F2D379B
:1030400058F50196A11DB11D20936F028093700267
:1030500090937102A0937202B093730280917402F4
:1030600090917502A0917602B09177020196A11D10
:10307000B11D8093740290937502A0937602B09371
:103080007702BF91AF919F918F913F912F910F90B8
:103090000FBE0F901F90189526E8230F0296A11DD2
:1030A000B11DD2CF1F920F920FB60F9211242F9302
:1030B0003F934F935F936F937F938F939F93AF93C0
:1030C000BF93EF93FF938091B900887F803609F416
:1030D0004AC0F0F5883209F4A5C018F5803109F42A
:1030E00099C0B8F4882309F4F5C0883009F492C077
:1030F000FF91EF91BF91AF919F918F917F916F91D0
:103100005F914F913F912F910F900FBE0F901F90A5
:103110001895883109F486C0803251F780934802AF
:1031200014C0803409F49BC040F48033B9F3883371
:10313000F9F68093480285ECAEC0803509F483C06F
:10314000883509F494C0883499F60E944E17D0CF80
:10315000883909F48AC038F5883729F050F4883660
:1031600011F0803729F683E08093490210924702DC
:1031700055C0883809F479C0803919F0803809F0D1
:10318000B7CF80914702803208F06FC0E0914702CC
:1031900081E08E0F809347028091BB00F0E0E95DF3
:1031A000FD4F80833BC0803B39F0D0F4803A09F476
:1031B00077C0883A09F09CCF84E08093490210924E
:1031C000260210922502F0E0E0E0099580912502A8
:1031D00081110FC081E0809325021092050209C081
:1031E000803C09F4A8CF883C09F4A5CF883B09F0BE
:1031F0007FCFE091260281E08E0F80932602F0E0DF
:10320000EB5FFD4F80818093BB00909126028091FF
:10321000250229C080916E028093BB0085EC8093CB
:10322000BC0066CF90916D0280916C02981758F5A2
:10323000E0916D0281E08E0F80936D02F0E0E45B1F
:10324000FD4F8081E9CFE0916D0281E08E0F809388
:103250006D028091BB00F0E0E45BFD4F80839091B4
:103260006D0280916C029817C8F285E8D8CFE09182
:103270006D0281E08E0F80936D028091BB00F0E0C3
:10328000E45BFD4F808380914B0281115ECF81E032
:1032900080934A0284EA8093BC001092490228CFAE
:1032A00085EC8093BC0010924902809147028032E5
:1032B00030F4E0914702F0E0E95DFD4F108260914B
:1032C000470270E087E292E0F0E0E0E009951092BA
:1032D00047020ECF1092480238CFCF93DF9310925F
:1032E0007B0610927A0680E099E09093090780931C
:1032F000080710920B0710920A0710920D07109200
:103300000C07109294068FE691E0909379068093D3
:10331000780610927D0610927C061092910610920B
:1033200088061092890610928A0610928B068FEFFB
:103330008093920680939606EAE9F6E080EB96E0A9
:10334000CFEFC1938E179F07E1F78FE89CE0909332
:1033500081068093800686E49DE0909383068093A7
:10336000820685ED9AE090938506809384068EE22E
:1033700096E1909387068093860630E020E040E057
:1033800069E08CE796E00E948F0C1092D7061092AD
:10339000D6068AE099E09093B1068093B00688E75C
:1033A00092E09093B5068093B406D8E0D093B60629
:1033B0001092B7061092E5061092050710920107C9
:1033C00081E0809306078093070787E791E0909359
:1033D000B3068093B2068CE796E00E94400E1092EE
:1033E000CF061092CE061092D3061092D2068FEF1F
:1033F0009FEF9093D1068093D0069093D50680934B
:10340000D406E091B206F091B3060280F381E02D7C
:103410008CE796E0099585E699E09093D90680932C
:10342000D8061092E806D0939A0689E080939B060E
:103430008AE08093A306C093A506DF91CF910895FB
:10344000789484B5826084BD84B5816084BD85B57F
:10345000826085BD85B5816085BD80916E0081608B
:1034600080936E0010928100809181008260809331
:103470008100809181008160809381008091800033
:103480008160809380008091B10084608093B1005E
:103490008091B00081608093B00080917A00846058
:1034A00080937A0080917A00826080937A00809184
:1034B0007A00816080937A0080917A00806880939E
:1034C0007A001092C100E0918006F091810630E010
:1034D00020E040E06AE08CE796E009950E94FD1745
:1034E0000E94D8178111FCCF0E946809E0918006E4
:1034F000F091810630E020E040E06BE08CE796E060
:1035000009958DE494E00E942A113FEE832E3DE060
:10351000932E8CE796E00E94C3170091050110914D
:103520000601D0E0C6E0CD9FF0011124E95BFE4F1B
:10353000E280F380E114F104D9F0003E3FEF13077D
:103540009CF08091C2069091C3060817190760F499
:10355000808191810E942A11970144E250E0B801D4
:103560008CE796E00E94FD12DF5F0C5D1F4FDBCF02
:1035700060910701709108016150710902E210E049
:1035800022E230E043E050E08CE796E00E94D21463
:1035900060910701709108016250710904E210E026
:1035A00024E230E042E050E08CE796E00E94D21442
:1035B00060910701709108016350710906E210E003
:1035C00026E230E041E050E08CE796E00E94D21421
:1035D00085E79CE00E942A11E090C406F090C506A1
:1035E00045E0E41AF1080091C2061091C306E0918B
:1035F0000401CE9FF0011124E95BFE4F64817581C7
:1036000080E099E090937F0680937E068CE796E0B9
:103610000E944D12081B190B1695079510930B0766
:1036200000930A07F0920D07E0920C07E091040165
:10363000CE9FF0011124E95BFE4F64817581611515
:10364000710561F0FB0101900020E9F73197AF01AE
:10365000461B570B88E796E00E94CF168CE796E052
:103660000E9476148CE796E00E94CA0B6AE070E034
:1036700080E090E00E942F0A8CE796E00E94D30B36
:10368000813509F069C080910401282F30E02F5F57
:103690003F4F96E0929FF001939FF00D1124E95B5C
:1036A000FE4F20813181232BC1F060910201709186
:1036B00003014091C2065091C30621E0280FCB01BF
:1036C000805B9F4F2093040184179507A4F56C5DE0
:1036D0007F4F70930301609302016091020170912A
:1036E000030187E091E00E94BB16C82F60910201A0
:1036F0007091030187E091E00E94BB16C82B609196
:1037000000017091010185E091E00E94BB16C82B79
:10371000609100017091010185E091E00E94BB166B
:103720008C2B09F0F6CE80E090E0892B09F4F1CEE5
:103730000E940000EECE4053510950930301409384
:1037400002013CED3203C0011124840F951F9093B8
:10375000010180930001C1CF823519F580910401E8
:10376000882309F4BACF40910201509103012FEF51
:10377000280F20930401443351053CF04452510971
:103780005093030140930201A8CF80E190E0909311
:103790000301809302014CED4203C00111244096C5
:1037A000D6CF803509F099CF85E79CE00E942A1199
:1037B000E091040186E0E89FF0011124E95BFE4FEF
:1037C000C480D5801092E80685E699E09093D906EA
:1037D0008093D8061091020780910307D12FD81B40
:1037E00082E891E00E94C40AC1E0C114D10409F04A
:1037F000C2E0C80F81E891E00E94C40AAD2EB12C4E
:103800008C0F8D9FC00111240396C091C406D091E6
:10381000C5068C179D0708F05EC0C81BD90BD6954E
:10382000C795C10FD11D17FDDA95512C0E94FD17C8
:103830006091C2067091C30622E831E0A501CE0175
:103840000E94ED151E01280E391EC114D10471F01D
:103850004091C2065091C306E12C00E09601B101EF
:1038600090E080E00E9429152A0C3B1C6091C20662
:103870007091C30621E831E0A501C1010E94ED1558
:10388000280E391E93E0290E311C0091C2061091BA
:10389000C3068DE791E00E94C40A782E412CF12CDA
:1038A000E12C47101BC0842D8150990B9C0146E0F0
:1038B000429FC001439F900D1124E80EF91E712C08
:1038C000612CE016F10628F40E191F0938017694D0
:1038D000679410E044C0D0E0C0E0A3CF8DE791E052
:1038E000442029F06DE771E0842D0E94B30A909284
:1038F0007F0680927E06BC018CE796E00E944D1206
:10390000E80EF91E4394CDCFEE24E3945112E12C3E
:103910008DE791E0112329F06DE771E0812F0E947E
:10392000B30A01E09C0150E040E0B101C3010E94F4
:1039300029158DE791E0112329F06DE771E0812FC2
:103940000E94B30A90927F0680927E06BC018CE7AB
:1039500096E00E944D120696680E791E1F5F411276
:10396000D3CF0E94D817082F811162CF8CE796E041
:103970000E94D30B803509F4B0CE833509F4ADCE67
:10398000982F9B7F913531F45394511608F4052DEF
:10399000502E4CCF823511F0843541F75110152D42
:1039A0000FEF010FF5CFEE0FFF1F0590F491E02D03
:1039B0000994DC0101C06D9341505040E0F7089537
:1039C000F894FFCF10001000001000100000181530
:1039D0003815081534150119FF181538150C19FF7D
:1039E000FE6418FE0A15381508150615021501FEA5
:1039F0000A19FF010005050106148C40420F00035F
:103A0000041E281008000080004000680041008D5E
:103A10000168004200990168004300A30168004466
:103A200000AF0168004800B4010000000000000081
:103A3000000000F716CF164B174A17400ECB0E307A
:103A40000E204F6B200053656C656374696F6E3A8E
:103A500000436C6F636B205365747570004765613C
:103A6000722047616D6500466C617368204C696720
:103A7000687400486F6D6500436F6E6669677572A4
:063A80006174696F6E0025
:107E0000112484B714BE81FFF0D085E080938100F7
:107E100082E08093C00088E18093C10086E0809377
:107E2000C20080E18093C4008EE0C9D0259A86E02C
:107E300020E33CEF91E0309385002093840096BBD3
:107E4000B09BFECF1D9AA8958150A9F7CC24DD24C4
:107E500088248394B5E0AB2EA1E19A2EF3E0BF2EE7
:107E6000A2D0813461F49FD0082FAFD0023811F036
:107E7000013811F484E001C083E08DD089C08234E0
:107E800011F484E103C0853419F485E0A6D080C0E4
:107E9000853579F488D0E82EFF2485D0082F10E0AE
:107EA000102F00270E291F29000F111F8ED06801E7
:107EB0006FC0863521F484E090D080E0DECF843638
:107EC00009F040C070D06FD0082F6DD080E0C81688
:107ED00080E7D80618F4F601B7BEE895C0E0D1E017
:107EE00062D089930C17E1F7F0E0CF16F0E7DF06D8
:107EF00018F0F601B7BEE89568D007B600FCFDCFD4
:107F0000A601A0E0B1E02C9130E011968C91119780
:107F100090E0982F8827822B932B1296FA010C0160
:107F200087BEE89511244E5F5F4FF1E0A038BF0790
:107F300051F7F601A7BEE89507B600FCFDCF97BE46
:107F4000E89526C08437B1F42ED02DD0F82E2BD052
:107F50003CD0F601EF2C8F010F5F1F4F84911BD097
:107F6000EA94F801C1F70894C11CD11CFA94CF0C13
:107F7000D11C0EC0853739F428D08EE10CD085E9AC
:107F80000AD08FE07ACF813511F488E018D01DD067
:107F900080E101D065CF982F8091C00085FFFCCF94
:107FA0009093C60008958091C00087FFFCCF809118
:107FB000C00084FD01C0A8958091C6000895E0E648
:107FC000F0E098E1908380830895EDDF803219F02E
:107FD00088E0F5DFFFCF84E1DECF1F93182FE3DFCA
:107FE0001150E9F7F2DF1F91089580E0E8DFEE27F6
:047FF000FF270994CA
:027FFE00040479
:00000001FF
