:020000040000FA
:100000000C940E040C9436040C9436040C943604B0
:100010000C9436040C9436040C9436040C94360478
:100020000C9436040C9436040C9436040C94360468
:100030000C9436040C9436040C9436040C94360458
:100040000C949E0A0C9436040C940E0B0C94E80A43
:100050000C9436040C9436040C9436040C94360438
:100060000C9436040C943604000000002400270091
:100070002A00FFD0FFE0FFCFFF64FFD1FF32380C32
:10008000060201FF64FFD0FFFE00000000250028EB
:10009000002B00040404040404040402020202020B
:1000A000020303030303030102040810204080013C
:1000B00002040810200102040810200000000800BB
:1000C000020100000304070000000000000000011E
:1000D000060A00FE070136026820FFFE08FE07FE42
:1000E0000A0060221767808080808000801633635A
:1000F000A0A0A00257675050F850F8505002576720
:100100002070A07028702002576748A8502050A87F
:100110009002576740A0A040A89068261363808093
:1001200080123767204080808040201237678040EF
:1001300020202040800355658850F850880355657D
:100140002020F82020113363604080055161F811B0
:10015000336340E040025767080810204080800267
:100160005767205088888850200257672060A02059
:100170002020F8025767708808304080F8025767DF
:10018000F808103008887002576710305090F81047
:1001900010025767F880B0C808887002576730406F
:1001A00080B0C88870025767F808101020404002DD
:1001B0005767708888708888700257677088986859
:1001C00008106011376740E0400040E04011376799
:1001D00040E040006040801247671020408040208F
:1001E00010045363F800F812476780402010204045
:1001F000800257677088102020002002576770889F
:1002000098A8B0807002576720508888F8888802C4
:100210005767F04848704848F002576770888080F8
:10022000808870025767F04848484848F00257678E
:10023000F88080F08080F8025767F88080F0808036
:100240008002576770888080988870025767888816
:1002500088F8888888123767E04040404040E002D4
:100260005767381010101090600257678890A0C030
:10027000A09088025767808080808080F80257674E
:100280008888D8A88888880257678888C8A89888E6
:100290008802576770888888888870025767F08856
:1002A00088F08080800158687088888888A87008E5
:1002B000025767F08888F0A090880257677088809E
:1002C00070088870025767F82020202020200257ED
:1002D000678888888888887002576788888850501F
:1002E0005020025767888888A8A8D888025767884E
:1002F0008850205088880257678888502020202006
:10030000025767F80810204080F8123767E08080B5
:10031000808080E0025767808040201008081237F4
:1003200067E02020202020E0065363205088015100
:1003300061F828226280400255657008788878024A
:1003400057678080B0C888C8B002556570888088BB
:100350007002576708086898889868025565708821
:10036000F88070025767304840F0404040005767BF
:10037000788888780888700257678080B0C8888835
:10038000881237674000C0404040E01049691000C3
:100390003010101090906002576780808890E09035
:1003A00088123767C04040404040E0025565D0A801
:1003B000A8A888025565B0C88888880255657088E5
:1003C000888870005767B0C888C8B08080005767B9
:1003D00068988898680808025565B0C880808002CF
:1003E000556570807008F00257674040F040404803
:1003F000300255658888889868025565888850500D
:10040000200255658888A8A850025565885020505C
:100410008800576788889868088870025565F810C2
:100420002040F8124767304020C020403022176734
:1004300080808080808080124767C02040304020CC
:10044000C006536348A890FFFFFFFFFFFFFFFFFFB9
:10045000FFFFFFFFFFFFFFFFFFFFFFFFFFFFFFFFAC
:10046000FFFFFFFFFFFFFFFF0A006022176780000A
:1004700080808080800157672078A0A0A07820022B
:100480005767304840E04048B0025565887050706A
:100490008801586888885020F8202020221767801B
:1004A0008080008080800158687080E09048380823
:1004B00070193161A00257677088A8C8A8887013A6
:1004C00046667090B05000F002656524489048245C
:1004D000144262F010154161F00257677088E8C855
:1004E000C88870095161F816336340A0400256660F
:1004F0002020F82020F815456560902040F0154533
:1005000065E0106010E0282262408001566688880D
:1005100088C8B08002576778E8E86828282825113D
:100520006180202262408015356540C04040E01364
:1005300046666090906000F002656590482448909F
:1005400001696940C04040E40C143C040169694001
:10055000C04040E81404081C015969C0204020C86C
:100560001828780802576720002020408870025819
:10057000684020708888F888880258681020708841
:1005800088F888880258682050708888F88888021F
:10059000586848B0708888F8888802586850007099
:1005A0008888F888880258682050708888F8888879
:1005B0000267673C50909CF0909C0059697088805D
:1005C00080808870204002586840F88080F08080E9
:1005D000F802586810F88080F08080F8025868208F
:1005E000F88080F08080F802586850F88080F080B1
:1005F00080F81238688040E040404040E01238689F
:100600002040E040404040E012386840A0E04040D8
:100610004040E0123868A000E040404040E002570F
:1006200067F04848E84848F0025868285088C8A849
:100630009888880258684020708888888870025896
:1006400068102070888888887002586820507088E8
:100650008888887002586828507088888888700256
:1006600058685000708888888870025565885020C6
:100670005088025767709898A8C8C8700258684098
:100680002088888888887002586810208888888820
:1006900088700258682050008888888870025868DE
:1006A0005000888888888870025868102088885090
:1006B00020202002576780F088F0808080025767F2
:1006C000708890A09088B002586840200070087828
:1006D0008878025868102000700878887802586876
:1006E00020500070087888780258682850007008F8
:1006F00078887802576750007008788878025868C0
:10070000205020700878887802656578147C907C89
:100710000057677088808870204002586840200029
:100720007088F880700258681020007088F8807017
:100730000258682050007088F88070025767500097
:100740007088F88070123868804000C0404040E0F7
:10075000123868408000C0404040E012386840A035
:1007600000C0404040E0123767A000C0404040E079
:10077000025767C030708888887002586828500017
:10078000B0C88888880258684020007088888870BF
:1007900002586810200070888888700258682050BD
:1007A000007088888870025868285000708888888F
:1007B0007002576750007088888870035565200064
:1007C000F800200255657898A8C8F00258684020C3
:1007D000008888889868025868102000888888985F
:1007E00068025868205000888888986802576750C7
:1007F0000088888898680059691020888898680857
:10080000887000586880F0888888F0808000596976
:1008100050008888986808887000400B11241FBE1B
:10082000CFEFD8E0DEBFCDBF11E0A0E0B1E0E8E857
:10083000FAE102C005900D92A234B107D9F722E087
:10084000A2E4B1E001C01D92AF3AB207E1F714E0B3
:10085000CEE0D4E004C02197FE010E943C0DCD30D3
:10086000D107C9F70E94E60B0C94420D0C940000CE
:10087000089580E0089590E0FC01E554FF4F249135
:10088000FC01E955FF4F3491FC01ED56FF4FE49117
:10089000EE23C9F0222339F0233001F1A8F42130EE
:1008A00019F1223029F1F0E0EE0FFF1FE757FF4F5B
:1008B000A591B4918FB7F894EC91611126C0309551
:1008C0003E233C938FBF08952730A9F02830C9F00C
:1008D000243049F7809180008F7D03C08091800093
:1008E0008F7780938000DFCF84B58F7784BDDBCF97
:1008F00084B58F7DFBCF8091B0008F778093B0005F
:10090000D2CF8091B0008F7DF9CF3E2BDACFAF925E
:10091000BF92CF92DF92EF92FF920F931F93CF93EC
:10092000DF936C017B018B01040F151FEB015E014E
:10093000AE18BF08C017D10759F06991D601ED91E3
:10094000FC910190F081E02DC6010995892B79F782
:10095000C501DF91CF911F910F91FF90EF90DF9034
:10096000CF90BF90AF900895FC01538D448D252FFB
:1009700030E0842F90E0821B930B541710F0CF9639
:10098000089501970895FC01918D828D981761F06B
:10099000A28DAE0FBF2FB11D5D968C91928D9F5F82
:1009A0009F73928F90E008958FEF9FEF0895FC0161
:1009B000918D828D981731F0828DE80FF11D858D14
:1009C00090E008958FEF9FEF0895FC01918D228DA7
:1009D000892F90E0805C9F4F821B91098F7399272C
:1009E000089584ED91E00E94E50421E0892B09F44B
:1009F00020E0822F089580E090E0892B29F00E946A
:100A0000F10481110C9400000895FC01A48DA80F3D
:100A1000B92FB11DA35ABF4F2C91848D90E0019640
:100A20008F739927848FA689B7892C93A089B18960
:100A30008C91837080648C93938D848D981306C001
:100A40000288F389E02D80818F7D80830895EF9265
:100A5000FF920F931F93CF93DF93EC0181E0888F78
:100A60009B8D8C8D98131AC0E889F989808185FF48
:100A700015C09FB7F894EE89FF896083E889F989EA
:100A800080818370806480839FBF81E090E0DF91EC
:100A9000CF911F910F91FF90EF900895F62E0B8D3F
:100AA00010E00F5F1F4F0F731127E02E8C8D8E11FA
:100AB0000CC00FB607FCFACFE889F989808185FF61
:100AC000F5CFCE010E940505F1CFEB8DEC0FFD2F88
:100AD000F11DE35AFF4FF0829FB7F8940B8FEA891C
:100AE000FB8980818062CFCFCF93DF93EC01888D2B
:100AF0008823B9F0AA89BB89E889F9898C9185FD99
:100B000003C0808186FD0DC00FB607FCF7CF8C9126
:100B100085FFF2CF808185FFEDCFCE010E940505D4
:100B2000E9CFDF91CF910895CF93DF93EC01AE81B0
:100B3000BF819D81969596959695862F8770E0E862
:100B4000F0E002C0F595E7958A95E2F78A81481BA7
:100B5000499F402D1124669566956695460F552749
:100B6000551FA40FB51F8C91222329F0E82BEC937D
:100B7000DF91CF910895E095E823F9CFFB01418102
:100B8000DC0112962C911297421768F013962C9163
:100B90001397241740F0608115962C91621718F472
:100BA00024810C9494050895FC0180819281980F12
:100BB00092832181921760F494819F5F9483938143
:100BC000890F821710F08FEF820F838381E00895E1
:100BD00080E00895FC011282808181508383148219
:100BE0000895DB01ED91FC9109940F931F93CF932E
:100BF000DF931F92CDB7DEB7009177021091780294
:100C0000E091A602F091A70282E0099530E020E091
:100C10004AE0B80185E792E00E94F105182FE091C3
:100C2000A602F091A70283E00995E091A602F09157
:100C3000A70280E009951123B9F1609177027091C4
:100C400078029E012F5F3F4F46E485E792E00E94C5
:100C5000F105898180937502609177027091780225
:100C60009E012F5F3F4F47E485E792E00E94F10528
:100C7000898180937602609177027091780230E0EA
:100C800020E048E485E792E00E94F105809380022D
:100C9000609177027091780228EA32E047E185E7B7
:100CA00092E00E94F10511E0812F0F90DF91CF912A
:100CB0001F910F9108950B96FC01849108950A9657
:100CC000FC0184910895FC01849108950E946306BB
:100CD000882321F0823011F083E0089586E00895A2
:100CE000FC01E60FF11D849190E0982F8827319642
:100CF000E4918E0F911D089568E00C94700666E0F3
:100D00000C9470065F926F927F928F929F92AF9237
:100D1000BF92CF92DF92EF92FF920F931F93CF93E8
:100D2000DF93EC01E62EF42EC22E0C811D81C8014A
:100D30000E946306D82E8C819D810E946606982EA3
:100D400021E0AA24AA94D21202C02FE0A22E8C8104
:100D50009D810E945F06D82E8C819D810E945B063A
:100D6000B82E8C819D810E947C06E0E6EC1578F41B
:100D7000009769F0080F191F91E6D92EBC14C0F432
:100D8000188A1B8A1C8A198A1A8A80E0A0C08C8162
:100D90009D810E947F06F0E4FC1538F4009729F04D
:100DA000080F191F81E4D82EE9CF0F5E1F4FE6CF41
:100DB000BD1430F3892D90E0F80124912F3F31F4D8
:100DC0000F5F1F4FBD14E1F2D394F6CFCD1072C068
:100DD0008C819D810E94630698012F5F3F4FF8012F
:100DE000882319F0823009F04EC084918B8BF90171
:100DF00024912C8BF8013396E491E88BF80134961A
:100E0000E491E98BF8013596E491EA8B011511051F
:100E100009F4BBCF8C819D810E9466063C89F31A40
:100E20009A89F91A9FEF930F9F0D2CA94EA94F1580
:100E300008F449C0921718F49F1508F047C02B8991
:100E40009989E90E9FEF920F9E0D4BA95DA95E1542
:100E500008F44DC0941718F49E1508F037C0080F19
:100E6000111D295F722E7694769476946F2C630E02
:100E70005E01FCE1AF0EB11C872C912CF61431F110
:100E80005E2C68014AC08491982F9F7092509A8B73
:100E900082958F70898BF9012491822F8F708C8BB2
:100EA00022952F702B8BF8013296E491E295EF702A
:100EB000E88BACCF3296E491EA21E80FF92FF11DCF
:100EC0000E0F1F1F7FCF921708F0B6CF8889DF91D2
:100ED000CF911F910F91FF90EF90DF90CF90BF9037
:100EE000AF909F908F907F906F905F900895941730
:100EF00008F0B2CFEBCFF60184916A817B815C8EE2
:100F0000FD8E1F8E8E8F95014BE3CE010E94F10561
:100F1000FFEFCF1ADF0A28E0520E8C2D801B8715B9
:100F200050F3080D191DF394A9CF2EE93FE0009767
:100F300009F40895F9013197F1F70197F8CF30914D
:100F4000CA014091C9015091C8016091C701A091A7
:100F5000C501B091C601E091C301F091C4019FB7F2
:100F60009093C201F8949C91392B9C91492398E06D
:100F700087FF0EC03C93880F208126232083208189
:100F8000252B20839150A1F78091C2018FBF089536
:100F90004C93F1CFCF93C62F81111BC088EF0E94D5
:100FA0009F078C2F807F0E949F078C2F8295807FC8
:100FB0000E949F0788E290E0FC013197F1F7FC0165
:100FC0003197F1F7FC013197F1F70197F1F7CF91E4
:100FD0000895813031F78AEFE2CF90E0FC01ED56C1
:100FE000FF4FE491F0E0EE0FFF1FE757FF4F259111
:100FF00034913093C6012093C50170E0FB01ED569A
:10100000FF4FE491F0E0EE0FFF1FE757FF4F2591F0
:1010100034913093C4012093C30189559F4FFC0143
:1010200084918093CA0169557F4FFB01649160935D
:10103000C80160956093C70180958093C9010895A8
:10104000860F911DFC0183A18F3F19F0642F0C9432
:101050003B040895EF92FF920F931F93CF93DF937A
:10106000EC01142F79016150673008F054C0E62F6D
:10107000F0E0E35CF74F0C943C0D4408E7089B0854
:101080009308A908AE08E4088C010D5D1F4F7C0190
:1010900080E3E80EF11CF80181918F018F3F21F16F
:1010A00090E0FC01E955FF4F24918D569F4FFC01C4
:1010B0008491882399F090E0880F991FFC01E859EA
:1010C000FF4FA591B491FC01E757FF4F8591949193
:1010D0008FB7F894EC91E22BEC938FBF61E0F801AD
:1010E000319780810E943B04E016F106A1F640E0B2
:1010F00062E0CE010E94200841E064E0CE010E943F
:10110000200840E065E0CE010E9420086FA188A57C
:101110000E94ED071EA281E0DF91CF911F910F91F8
:10112000FF90EF9008958BA160E08F3FA1F3CE0177
:101130000E942008F0CF411103C040E062E0F7CFE9
:1011400041E062E00E9420086FA188A50E94ED079F
:10115000E2CF642F8EA10E94CA07DDCF8EA181113C
:1011600015C088EF0E949F07C8E2D0E0111112C09D
:1011700088E290E0FC013197F1F7FC013197F1F73B
:10118000FC013197F1F70197F1F7C5CF813061F795
:101190008AEFE8CFF7018081807F0E949F07F701E7
:1011A00081917F018295807F0E949F071150CE011F
:1011B0000197F1F7DBCFF70164918EA10E94CA0776
:1011C000FFEFEF1AFF0A11501111F5CFA4CF4EA374
:1011D000A2CFDB011496ED91FC9130E020E065E0B8
:1011E0000994DB011496ED91FC9130E020E062E07F
:1011F0000994DB011496ED91FC9130E020E063E06E
:1012000009949F92AF92BF92CF92DF92EF92FF929A
:101210000F931F93CF93DF937C018B01942E690171
:101220008AE0481739F195E1491709F486C0F801B9
:10123000C281D381F2E39F1609F429C1F91508F49C
:10124000CBC085E1981609F427C197E1991609F4F6
:1012500033C1A4E19A12EFC0EE81FF818D818E0F20
:101260009F2F911D11928E179F07E1F7CE010E94CB
:10127000EA05E1C0DB011496ED91FC9130E020E03D
:1012800043E061E0C701099580E092E7A92E90E074
:10129000B92EF501C491811110C081E0CF3F49F012
:1012A0004C2FB801C7010E94E908882309F4BFCF79
:1012B00080E0BFEFAB1ABB0AECCF4FEFCF3F89F313
:1012C000CE3F09F4B4CFC03F98F7C03E38F04C2F62
:1012D0004F70B801C7010E94F108EACFC03D38F055
:1012E0004C2F4F70B801C7010E94F908E1CFC03CF4
:1012F000F8F0D8011496ED91FC9130E020E040E048
:1013000064E0C7010995C295C07FCE5FD0E0CE01F1
:101310000E949507D8011496ED91FC9130E020E0F1
:1013200041E064E0C7010995CE010E949507C0CF56
:10133000C7FDBECF8C2F90E0F8CFFB01A280B38019
:1013400040E0C7010E94F10841E0B801C7010E94D6
:10135000F908D5011296CC9112971696AD90BC90D3
:10136000D8E0DC0F40E0B801C7010E94F1084EE36D
:10137000B801C7010E94E908C03228F54C2F406827
:10138000B801C7010E94E90840E8B801C7010E94FE
:10139000E90841E0B801C7010E94F108D80114969C
:1013A000ED91FC91950140E166E0C7010995B0E13E
:1013B000AB0EB11CCF5FCD13D5CF40E0B801C70154
:1013C0000E94F90834CF40EE4C0F4068B801C701C5
:1013D0000E94E90848E8D9CFB6E49B1609F47BC01F
:1013E000E7E49E1609F47BC0FBE39F1224C0D601FC
:1013F00011969C91119713968C9138E0390F81309A
:1014000031F0833011F0392F02C0392F985021E08C
:101410004B81491708F420E041E0391708F040E01B
:1014200091E05A81351708F490E0322F342B932342
:1014300079F4242369F481E0DF91CF911F910F911A
:10144000FF90EF90DF90CF90BF90AF909F90089566
:10145000F601128100E0F12C843048F490E0FC01A8
:10146000EE5EFE4FF080825F9E4FDC010C9117FF15
:1014700004C0B601CE010E94BE05F60180818F0D29
:1014800080838181800F8183110F89F7D4CFB601CA
:10149000CE010E94BE05CFCFCE010E94D405882385
:1014A00059F2EE81FF818D818E0F9F2F911D119238
:1014B0008E179F07E1F7BFCFD6011C928A81119644
:1014C0008C9311978D81815012968C9312978B81FA
:1014D00013968C93B0CF8D81F6018083ACCF898138
:1014E000D6018C93A8CFDF92EF92FF920F931F93B8
:1014F000CF93DF93EC01D62E1CAD0BAD7C0184E0C5
:10150000E80EF11CE98DFA8DC7010995412F480FAE
:101510002D2D602FC7010E9482069BAD890F8BAFD6
:1015200081E090E0DF91CF911F910F91FF90EF90BC
:10153000DF900895089590E080E008951F920F9243
:101540000FB60F9211242F933F938F939F93AF93D6
:10155000BF938091D0019091D101A091D201B0911F
:10156000D3013091CF0123E0230F2D3758F5019699
:10157000A11DB11D2093CF018093D0019093D10183
:10158000A093D201B093D3018091CB019091CC0173
:10159000A091CD01B091CE010196A11DB11D809306
:1015A000CB019093CC01A093CD01B093CE01BF911C
:1015B000AF919F918F913F912F910F900FBE0F9000
:1015C0001F90189526E8230F0296A11DB11DD2CFBA
:1015D0001F920F920FB60F9211242F933F934F93A8
:1015E0005F936F937F938F939F93AF93BF93EF938B
:1015F000FF9384ED91E00E940505FF91EF91BF916B
:10160000AF919F918F917F916F915F914F913F919A
:101610002F910F900FBE0F901F9018951F920F9251
:101620000FB60F9211242F938F939F93EF93FF93F5
:10163000E091E401F091E5018081E091EA01F0910F
:10164000EB0182FD1BC090818091ED018F5F8F7354
:101650002091EE01821741F0E091ED01F0E0EC52B3
:10166000FE4F958F8093ED01FF91EF919F918F91A8
:101670002F910F900FBE0F901F9018958081F4CF7F
:101680001092D7011092D60188EE93E0A0E0B0E06E
:101690008093D8019093D901A093DA01B093DB0134
:1016A0008AE191E09093D5018093D40185EC90E09C
:1016B0009093E1018093E00184EC90E09093E3014A
:1016C0008093E20180EC90E09093E5018093E40147
:1016D00081EC90E09093E7018093E60182EC90E04A
:1016E0009093E9018093E80186EC90E09093EB0100
:1016F0008093EA011092ED011092EE011092EF0139
:101700001092F00110927402109273028CE291E038
:1017100090937202809371021092AC021092AD020B
:101720001092AE0210927A021092790210927C020C
:1017300010927B0210927E0281E080937D0282E211
:1017400080937F021092840210928302E8E9F2E013
:1017500026EA32E08FEF81932E173F07E1F791E001
:101760009093950229E334E030938B0220938A0210
:1017700090938C0210928D0210928E0290E49093BE
:101780008F021092900228E334E03093A702209356
:10179000A60228E031E0309378022093770298E0A7
:1017A00090939C0299E090939D029AE090939A0204
:1017B000809399028BE0809398020E94F5058CE259
:1017C00091E090937202809371020895789484B5A9
:1017D000826084BD84B5816084BD85B5826085BD2D
:1017E00085B5816085BD80916E00816080936E00BB
:1017F00010928100809181008260809381008091AD
:10180000810081608093810080918000816080935D
:1018100080008091B10084608093B1008091B0001D
:1018200081608093B00080917A00846080937A0018
:1018300080917A00826080937A0080917A00816042
:1018400080937A0080917A00806880937A00109269
:10185000C10081E08093AE020E94F505E091E401B1
:10186000F091E50182E08083E091E001F091E101F7
:101870001082E091E201F091E3018FEC80831092FD
:10188000EC01E091E801F091E90186E08083E091CC
:10189000E601F091E701808180618083E091E601BB
:1018A000F091E701808188608083E091E601F0910A
:1018B000E701808180688083E091E601F091E70193
:1018C00080818F7D80838091790290917A028F5CF4
:1018D000904099F18FEC90E090937A028093790296
:1018E00080918C028111AEC0E4EDF0E0E491E093D0
:1018F0008D02EBEDF0E0E491E0938E0280918D0299
:10190000082E000C990B20918E02821B910927FD55
:10191000939520918F02203441F0829FC0011124C1
:1019200036E0969587953A95E1F78093900289E3A2
:1019300094E090938B0280938A0220E0E22E20E0D4
:10194000F22ED1E08091AE02811104C0D093AE029C
:101950000E94F5050091770210917802E091A602AD
:10196000F091A70282E00995E091A602F091A7020A
:1019700081E0099530E020E044E1B80185E792E09C
:101980000E94F10528EA32E047E1B80185E792E0DC
:101990000E94F105E091A602F091A70280E009956E
:1019A000E0918A02F0918B0285E792E0099590E23E
:1019B000D92ED80E04E311E0C0E4F80121918F0183
:1019C000211152C0E0918302F0918402309719F006
:1019D00085E792E009950091770210917802E091F5
:1019E000A602F091A70282E00995E091A602F0918B
:1019F000A70281E0099530E020E045E1B80185E7E4
:101A000092E00E94F105C82F882341F028EA32E0D5
:101A100047E1B80185E792E00E94F105E091A60256
:101A2000F091A70280E00995C111BACFE114F10449
:101A300009F488CF0E94F104882309F483CF0E941F
:101A4000000080CF813041F4EEEDF0E0E491E093CE
:101A50008D02EFEDF0E04FCFECEDF0E0E491E0939C
:101A60008D02EDEDF0E047CF4D2D6C2F85E792E034
:101A70000E948206C80FA1CFEE0FFF1F0590F491C0
:101A8000E02D0994F894FFCF084000000080420147
:101A9000010900012A08000100FF0100FF00000009
:101AA000000027058704B4047405E504C304D704C3
:101AB00000000000730A87049B0A9A0A48656C6C50
:0A1AC0006F2C20576F726C64210038
:107E0000112484B714BE81FFF0D085E080938100F7
:107E100082E08093C00088E18093C10086E0809377
:107E2000C20080E18093C4008EE0C9D0259A86E02C
:107E300020E33CEF91E0309385002093840096BBD3
:107E4000B09BFECF1D9AA8958150A9F7CC24DD24C4
:107E500088248394B5E0AB2EA1E19A2EF3E0BF2EE7
:107E6000A2D0813461F49FD0082FAFD0023811F036
:107E7000013811F484E001C083E08DD089C08234E0
:107E800011F484E103C0853419F485E0A6D080C0E4
:107E9000853579F488D0E82EFF2485D0082F10E0AE
:107EA000102F00270E291F29000F111F8ED06801E7
:107EB0006FC0863521F484E090D080E0DECF843638
:107EC00009F040C070D06FD0082F6DD080E0C81688
:107ED00080E7D80618F4F601B7BEE895C0E0D1E017
:107EE00062D089930C17E1F7F0E0CF16F0E7DF06D8
:107EF00018F0F601B7BEE89568D007B600FCFDCFD4
:107F0000A601A0E0B1E02C9130E011968C91119780
:107F100090E0982F8827822B932B1296FA010C0160
:107F200087BEE89511244E5F5F4FF1E0A038BF0790
:107F300051F7F601A7BEE89507B600FCFDCF97BE46
:107F4000E89526C08437B1F42ED02DD0F82E2BD052
:107F50003CD0F601EF2C8F010F5F1F4F84911BD097
:107F6000EA94F801C1F70894C11CD11CFA94CF0C13
:107F7000D11C0EC0853739F428D08EE10CD085E9AC
:107F80000AD08FE07ACF813511F488E018D01DD067
:107F900080E101D065CF982F8091C00085FFFCCF94
:107FA0009093C60008958091C00087FFFCCF809118
:107FB000C00084FD01C0A8958091C6000895E0E648
:107FC000F0E098E1908380830895EDDF803219F02E
:107FD00088E0F5DFFFCF84E1DECF1F93182FE3DFCA
:107FE0001150E9F7F2DF1F91089580E0E8DFEE27F6
:047FF000FF270994CA
:027FFE00040479
:00000001FF
