:100000000C9423020C944B020C944B020C944B0264
:100010000C944B020C944B020C944B020C944B022C
:100020000C944B020C944B020C944B020C944B021C
:100030000C944B020C944B020C944B020C944B020C
:100040000C94FB0D0C944B020C944B020C944B0241
:100050000C944B020C944B020C944B020C944B02EC
:100060000C94450E0C944B02000000002300260067
:10007000290000000000240027002A0000000000E2
:10008000250028002B0004040404040404040202D4
:100090000202020203030303030301020408102007
:1000A0004080010204081020010204081020000012
:1000B0000008000201000003040700000000000027
:1000C00000005F0002020304010405070A00FE07A6
:1000D000FE07000123025403642005803801210635
:1000E000B928192A2206934D492A230AAD69AB86FD
:1000F000AA86AA00240BBD685B95CA3BA96A0125A4
:100100000BBD68912BA35CA33405260BBE78D3B13D
:10011000AD63D271052705912D112807BA38539D7B
:10012000012908BA3889A9A5002A069B4C491D2B2C
:100130000AAD69CD280E9951042C06923753002D33
:10014000068D6B19022E058928092F0CBD684739C9
:10015000A35CA39C1100300BBC5853518D246552F5
:10016000003107BB484BB26B3209BD685BB9371A27
:1001700002330BBD685B39A3A8A14E0B340DBD68DB
:100180008929A69886CE28A304350CBD68B9D1C8A4
:1001900030239D1600360BBD685B59A391B24E0B00
:1001A000370BBD68B933CA35CA2802380BBD685B46
:1001B00059A795755A00390BBD685B59A791914EA7
:1001C0000B3A06B928C9303B07C237CB4C053C0770
:1001D000AB494D75013D089D6A191A0E013E07ABEA
:1001E00049C955093F0ABD685B39A35CD311400E6C
:1001F000BF881B2A434B5572686A28004109BC58C6
:1002000053518E6906420BBC5859518E14E5480073
:10021000430CBD685B59A38C32CA69014409BD68AF
:1002200019297B0F05450ABC58193AAF9C4700466F
:1002300009BC58193AAF5C03470BBD685B59A3343E
:10024000B24E0B4809BC5889E69866004907BB487E
:1002500059B16B4A09BC58DB6D9914004B0BBD6852
:10026000C932953AC52A074C08BC58C9BD47004D4C
:1002700009BD68C96B25ED0E4E09BC58894B4D6709
:10028000004F09BD685BD93B2D00500DBD68192991
:10029000EBA132CA282300510ABD685BD99564548A
:1002A00001520ABD681929EBA1B21D530BBD685B51
:1002B00059C30D755A00540DBD681932A38C32CA4A
:1002C00028A3085508BD68C9BED302560BBD68C92E
:1002D000762A534C39025708BD68C95EE90E580AA0
:1002E000BD68C93AD555AD03590DBD68C9A9CE2819
:1002F000A38C328A005A0ABD68191AE56E34045B71
:1003000007BA38595D025C0DBD68C930A30C33CC07
:1003100028C3005D07BA38515D035E079D6CCDA907
:100320000E5F068D6819026006923D89016109AC75
:1003300058D3288D9806620CBD68C928A391B23D98
:1003400014006309AC585351C7A400640BBD68473F
:1003500019A5A1ED3402650AAD685B798C0C170014
:100360006609BC585571A4DC04670BBD661BDA4EE8
:1003700023A3A1006809BC58C9F58A66006906B9BB
:100380002849436A08CA36CBA94B016B0ABC58C935
:10039000A54A3295016C07BA38493D036D0BAF8809
:1003A000592A46196594056E08AD681929BB036F73
:1003B00008AD685BD94E0B700CBD661929DB43652F
:1003C000941100710BBD661BDA4E23A38C027208D8
:1003D000AC584923E61A730AAC581B196934120049
:1003E0007408BB488B69C53A7508AD68C9EE34021C
:1003F000760AAD68C93A952947007709AD68C956AC
:10040000522D017809AD68C9A9AEEA00790ABD6626
:10041000C9EE34321A0A7A07AB4899A91C7B08BB8B
:10042000485331C9527C05C927797D09BB4891A53C
:100430008A49017E089D6ACBA94E0000000004FF96
:10044000FF000000600F11241FBECFEFD8E0DEBF19
:10045000CDBF11E0A0E0B1E0EAEDF2E202C005900C
:100460000D92A236B107D9F723E0A2E6B1E001C0B0
:100470001D92AE32B207E1F712E0C3E2D2E004C04F
:100480002197FE010E945E11C232D107C9F70E9476
:1004900011100C946B110C940000662329F06A3043
:1004A00019F0862F90E008958FEF9FEF0895EF9257
:1004B000FF920F93CF93DF937A01462F4770E0E8C6
:1004C000F0E002C0F595E7954A95E2F75E2FDC0172
:1004D000ED91FC91A089B0E0AE9DE001AF9DD00D03
:1004E000BE9DD00D1124FC01E0ACF1AC43E076954B
:1004F00067954A95E1F76C0F7D1FF701E60FF71F2F
:10050000EC01C657DF4F011119C08881823018F401
:100510009081952B90838881813019F09081952767
:100520009083569511F4319650E82150310969F7BE
:10053000DF91CF910F91FF90EF90089588818230E5
:1005400018F49081952B90838881813019F09081E7
:1005500095279083EA0FFB1F2150310979F7E8CFE7
:1005600080E0089590E080E00895833081F028F4E1
:10057000813099F08230A9F008958730A9F0883051
:10058000C9F08430B1F4809180008F7D03C08091E8
:1005900080008F7780938000089584B58F7784BD25
:1005A000089584B58F7DFBCF8091B0008F778093C5
:1005B000B00008958091B0008F7DF9CF1F93CF9345
:1005C000DF93282F30E0F901E255FF4F8491F901C4
:1005D000E656FF4FD491F901EA57FF4FC491CC235F
:1005E000A9F0162F81110E94B502EC2FF0E0EE0F5A
:1005F000FF1FE458FF4FA591B4918FB7F894EC9189
:10060000111108C0D095DE23DC938FBFDF91CF910D
:100610001F910895DE2BF8CFCF93DF9390E0FC017C
:10062000E656FF4F24918A579F4FFC0184918823FF
:10063000D1F090E0880F991FFC01EE58FF4FA59173
:10064000B491FC01E458FF4FC591D491623071F42C
:100650009FB7F8943C91822F809583238C93E881F7
:100660002E2B28839FBFDF91CF9108958FB7F894E9
:10067000EC912E2B2C938FBFF6CF3FB7F89480913F
:10068000140290911502A0911602B091170226B59E
:10069000A89B05C02F3F19F00196A11DB11D3FBFBA
:1006A000BA2FA92F982F8827BC01CD01620F711D89
:1006B000811D911D42E0660F771F881F991F4A9583
:1006C000D1F708958F929F92AF92BF92CF92DF920F
:1006D000EF92FF926B017C010E943D034B015C0194
:1006E000C114D104E104F104B9F00E943D0368197A
:1006F00079098A099B09683E73408105910580F359
:1007000021E0C21AD108E108F10888EE880E83E0E2
:10071000981EA11CB11CE4CFFF90EF90DF90CF900A
:10072000BF90AF909F908F9008952091C501260FA4
:100730003327331F21323105ECF42091E901FC010C
:1007400090E080E0243069F082E00895A091C50136
:100750002191AC014B555E4FA40FB52FB11D2C93C9
:100760000196861798F38091C501680F6093C501C3
:1007700080E0089581E0089508958FEF9FEF089538
:100780008FEF9FEF089580919E0190E09195819564
:1007900091090895CF93DF93CB01EA01642F0E9462
:1007A0009503CE01DF91CF910895CF93DF931F92F0
:1007B000CDB7DEB7698361E0CE0101960E94950353
:1007C00081E090E00F90DF91CF910895DC011A96BF
:1007D000ED91FC9130E020E009941F93CF93DF93DB
:1007E000EC01A881B981683109F49BC038F4643107
:1007F00009F489C0673149F080E00EC0693109F41D
:10080000D4C06032C9F76AE488C01C968C9180FD20
:100810003FC0411105C081E0DF91CF911F91089544
:10082000F90181919F014150DFB7F894A0918C01AB
:10083000B0918D01C0918B01E0918901F0918A0105
:10084000709188016091870181110EC08C918C2379
:100850008C9388E09081972B90839081962390834E
:100860008150C1F7DFBFD5CF1091860198E05C9130
:1008700087FF0CC0512B5C935081572B5083880FFE
:10088000508156235083915091F7ECCF5C23F3CFE6
:10089000442309F4C0CFF90181919F014150DFB792
:1008A000F894A0918C01B0918D01C0918B01E091E1
:1008B0008901F0918A01609188017091870181110D
:1008C0000EC08C918C238C9388E090819723908329
:1008D0009081962B90838150C1F7DFBFD9CF1091C3
:1008E000860198E05C9187FF0CC0512B5C9350818E
:1008F00057235083880F5081562B5083915091F786
:10090000ECCF5C23F3CF11964C9169E40E94E6038F
:10091000E881F9814485417060E4CE010E94E603DC
:100920007ACF4C9169E40E94E603A881B981EA85F7
:10093000FB8530E020E012964C916CE2CE010995E7
:100940008E8D90E0FC01EA57FF4FE491F0E0EE0F4E
:10095000FF1FE458FF4F2591349130938A01209373
:100960008901FC01E656FF4FE491E0938801E09590
:10097000E09387018F8D90E0FC01EA57FF4FE491EF
:10098000F0E0EE0FFF1FE458FF4F259134913093B4
:100990008D0120938C01FC01E656FF4FE491E0931A
:1009A0008601E095E0938B0136CFEA85FB8530E048
:1009B00020E013964C916CE20995E881F981418120
:1009C00069E4ABCFDC011696ED91FC9130E020E0BC
:1009D00040E069E10994DC011696ED91FC9130E06C
:1009E00020E040E068E109949A01DC011696ED915F
:1009F000FC91462F67E10994EF92FF920F931F93AA
:100A0000CF93DF931F92CDB7DEB77C018B01D80166
:100A10006C91673129F150F46531A0F40F90DF91AA
:100A2000CF911F910F91FF90EF9008956A3118F1C7
:100A30006E3FA1F7F8014181498369E2C7010E9435
:100A4000E6030BC0F80141814983D7011696ED9169
:100A5000FC9130E020E0C70109950E5F1F4FD7CF12
:100A6000F80181818983AE014F5F5F4F61E0C7016B
:100A70000E94F404F2CF0F5F1F4FD7011696ED913D
:100A8000FC9130E020E040E0C7010995C0CF462F3F
:100A9000DC011696ED91FC9130E020E065E10994CF
:100AA000AF92BF92CF92DF92EF92FF920F931F937C
:100AB000CF93DF93EC01693089F485E291E099836B
:100AC00088831C8A81E0DF91CF911F910F91FF9065
:100AD000EF90DF90CF90BF90AF90089579016B3089
:100AE00009F440C06F3009F444C080E06A3059F71F
:100AF000EA85FB8530E020E040E068E2CE01099520
:100B0000EE81FF8130E020E040E064E1CE01099514
:100B100041E06BE4CE010E94E603E881F981448163
:100B200069E2CE010E94E60340E06BE4CE010E9440
:100B3000E603E881F981448169E2CE010E94E6037F
:100B400041E06BE4CE010E94E603E881F981458132
:100B500069E2CE010E94E60362E171E0CE010E94EB
:100B6000FC04B0CF6BE071E04423C1F360E071E0BE
:100B7000F5CFF9010481000F000F000F13811695C6
:100B8000003210F00052185FCE010E94EB04F70112
:100B9000A080B1806EE3CE010E9447056EE3CE01D6
:100BA0000E944705D12C1068602F6D0D6068CE0142
:100BB0000E944705612FCE010E944705F701C280C0
:100BC000A5016C2DCE010E94F404AC0CB11CD39491
:100BD000F8E0DF12E9CFCE010E94E20473CF9A0160
:100BE000DC011896ED91FC91462F67E10994CF93B3
:100BF000DF931F92CDB7DEB76983AE014F5F5F4FC2
:100C000061E00E94EF050F90DF91CF910895CF92A0
:100C1000DF92EF92FF920F931F93CF93DF93EC013C
:100C2000142F79016631C1F130F4643149F0653136
:100C3000A9F080E040C0673109F446C06A31C8F7C6
:100C4000E885F9859701412FCE01DF91CF911F9162
:100C50000F91FF90EF90DF90CF90099468EF0E9482
:100C6000F70541E06CE2CE010E94E603612F607F50
:100C7000CE010E94F70541E06CE2CE010E94E6033E
:100C8000612F6295607FCE010E94F70541E06CE222
:100C9000CE010E94E6030EC068EF0E94F705612FA7
:100CA000607FCE010E94F705612F6295607FCE01C3
:100CB0000E94F70581E0DF91CF911F910F91FF9086
:100CC000EF90DF90CF9008956AEF0E94F70541E022
:100CD0006CE2CE010E94E603DE2CCF2C012F0830FF
:100CE00008F5012F069506950695D12E88EF089FE9
:100CF000D00C1124E8E00E9F800111240E0D1F1D61
:100D0000DD2021F2F801F1908F016F2D607FCE017F
:100D10000E94F7056F2D6295607FCE010E94F70556
:100D2000DA94EECFAEE8B1E0ED2DFC2D9F01285F07
:100D30003F4F8191982F907F9C938295807F119651
:100D40008C9311971296E217F30799F7DE2ECF2EA8
:100D500008504EE851E060E1CE010E94EF05BFCFA0
:100D60000F93FC01E85BFF4F0190F081E02DDF0164
:100D7000A41BB50BAD01FC01EA5BFF4F0190F081B4
:100D8000E02DDF01A61BB70BBD01011113C04150BF
:100D90005109621B730BFC01E05CFF4F0190F08175
:100DA000E02D4E1B5F0BDC01D496ED91FC91099573
:100DB0000F910895013079F761507109421B530B6F
:100DC000EACFCF93DF93FC01A081B18182AD90E0A7
:100DD0009C0143E0220F331F4A95E1F737AF26AF5E
:100DE00050962C91509748E0249F9001112435AFE4
:100DF00024AF23AD30E0B90153E0660F771F5A9559
:100E0000E1F7EF01C05CDF4F7983688351964C9125
:100E10005197E901C80FD91F50E04C175D0718F42E
:100E2000CA01821B930BEF01CE5BDF4F798368838E
:100E3000229623E0880F991F2A95E1F7860F971FC6
:100E400099838883229654968D919C915597998386
:100E50008883E85BFF4F56968D919C9191838083A8
:100E6000DF91CF9108950F931F93FC01E25BFF4F39
:100E70000190F081E02DDC01A05BBF4F0D90BC9193
:100E8000A02D4A175B0740F4E017F10748F004175C
:100E9000150730F080E019C0E017F107C0F3FACF72
:100EA000FC01E65BFF4F40815181845B9F4FFC0159
:100EB000808191816817790758F481E042175307C0
:100EC00020F081E02617370728F71F910F9108952A
:100ED00042175307B0F3DECF2F923F924F925F92AB
:100EE0006F927F928F929F92AF92BF92CF92DF923A
:100EF000EF92FF920F931F93CF93DF93CDB7DEB79F
:100F000028970FB6F894DEBF0FBECDBF98878F83AA
:100F1000865B9F4F9A838983FC0111821082EF8147
:100F2000F885EA5BFF4F208031802F813885245B74
:100F30003F4F3C832B83F90131822082EF80F8847C
:100F4000FEE4EF0EF11CF70111821082EF81F885AB
:100F5000E85BFF4F40805180EF81F885EC5BFF4FED
:100F6000208131814216530630F0C201821B930B5F
:100F7000F70191838083EF81F885EE5BFF4F20813D
:100F80003181421A530A2F813885205B3F4F3E83BF
:100F90002D83F90151824082EF81F885E85AFF4F95
:100FA00060807180EF81F885EC5AFF4FA080B1809E
:100FB000EF81F885EA5AFF4FC080D180EF81F88534
:100FC000EE5AFF4F8080918083019501A601B40104
:100FD0008F8198850E9433072F8138852C573F4F8A
:100FE00038872F8381111BC0F901108228960FB614
:100FF000F894DEBF0FBECDBFDF91CF911F910F914F
:10100000FF90EF90DF90CF90BF90AF909F908F9028
:101010007F906F905F904F903F902F90089581E068
:10102000EF81F88580838114910421F0E981FA81B0
:1010300091828082A214B30420F4EB81FC81B182FE
:10104000A082F701808191818C159D0510F4D182D9
:10105000C0826414750450F6ED81FE817182608255
:10106000C5CF0F93CF93DF93E02FDC01AC57BF4F79
:10107000FC91FF2309F460C02115310509F45CC01F
:101080002230310538F0023009F04AC06F5F7F4FDF
:10109000621B730B0E2F0170E0FD52C0FC01E25B7E
:1010A000FF4F0190F081E02D4E175F0708F444C018
:1010B000FC01E05BFF4F0190F081E02D4E175F07D0
:1010C000D8F5FC01E45BFF4F0190F081E02DDC01DD
:1010D000A65BBF4F0D90BC91A02D260F371F261782
:1010E000370738F56E177F0718F59F012150310932
:1010F000A217B30708F56A177B0708F4BD012E177E
:101100003F0708F4F901E61BF70BEC01AEA9BFA9F4
:1011100014960D90BC91A02D9F01FD0109950CC066
:10112000033009F0B7CF4F5F5F4F421B530BB2CF75
:10113000BD016E177F07E0F2DF91CF910F91089507
:10114000FC01E65BFF4F0190F081E02D6E177F07F9
:1011500098F3FC01E45BFF4F0190F081E02D6E17E6
:101160007F0750F7FC01E05BFF4F0190F081E02D1D
:10117000DC01A25BBF4F0D90BC91A02D240F351F49
:1011800024173507A8F44E175F0788F49F012150F4
:101190003109A217B30780F64A175B0708F4AD01BF
:1011A0002E173F0708F4F901E41BF50BAECFAD0194
:1011B0004E175F0708F6EDCF213069F038F0223086
:1011C00079F0840F911D47FD9A950895860F911D22
:1011D00067FD9A950895841B910947FD939508959D
:1011E000861B910967FD93950895213069F038F0C9
:1011F000223079F0861B910967FD93950895840F3D
:10120000911D47FD9A950895860F911D67FD9A954A
:101210000895841B910947FD939508953F924F923D
:101220005F926F927F928F929F92AF92BF92CF9276
:10123000DF92EF92FF920F931F93CF93DF937C0186
:10124000162F442EEC01C25ADF4F5E806F806C0176
:101250008AE8C80ED11C78847518312E711608F4EE
:10126000372C8C809D800E85202F462D652D8A8100
:101270009B810E94DC085C01202F462D652DC40156
:101280000E94F508AC01442079F08C85F60180833A
:10129000232D30E0B501C7010E943108171548F031
:1012A00017196394512CD7CF8B858111F7CF8D857A
:1012B000EDCF150D1E836F82DF91CF911F910F919E
:1012C000FF90EF90DF90CF90BF90AF909F908F9066
:1012D0007F906F905F904F903F900895DC011A9639
:1012E0004C911A97ED91FC911197249130E0042EC6
:1012F00002C0359527950A94E2F7842F860F88302F
:1013000068F031961196FC93EE93E49198E0941B6B
:1013100001C0EE0F9A95EAF72E2B88501A968C93FF
:101320008FEF9FEF01C0880F6A95EAF780958223BF
:101330000895FC01E60FF11D849190E0982F882715
:101340003196E4918E0F911D08954F925F926F92A6
:101350007F928F929F92AF92BF92CF92DF92EF9245
:10136000FF920F931F93CF93DF93EC016B018A01E0
:101370007901FC01E459FF4F8081813009F44BC0B1
:1013800008F43EC0823009F451C0833009F459C0DA
:10139000FE01E05AFF4FD182C08232961183008352
:1013A00038978081918147962FEFE216F10411F072
:1013B00008F0F2C0E1E6EE16F10408F44DC0FE01BB
:1013C000E058FF4F20813181820F931F9C012F5FD6
:1013D0003F4FF9014491411148C090E080E0DF9116
:1013E000CF911F910F91FF90EF90DF90CF90BF9022
:1013F000AF909F908F907F906F905F904F900895E7
:10140000FE01E45AFF4F0190F081E02DCE010995D5
:10141000080F191FBDCFFE01E45AFF4F0190F08164
:10142000E02DCE010995C81AD90AB2CFFE01E45ABF
:10143000FF4F0190F081E02DCE010995081B190B9B
:10144000A7CFFE01E45AFF4F0190F081E02DCE01BD
:101450000995C80ED91E9CCFF1E4EF16F10408F4EB
:10146000B5CFFE01E258FF4FADCFFC0144914E15C0
:101470001F0409F08CC00296009709F4AECF7E01DC
:10148000FEE5EF0EF11CF7019183808312867396BF
:101490006081C7010E946E09F701808774966081A0
:1014A000C7010E946E09982EF70181875E01FAE854
:1014B000AF0EB11CF5019081F701948781E0911185
:1014C00080E0F7018587FE01ED58FF4FC0806C2D4D
:1014D000C7010E946E09582EFE01EC58FF4FD080C4
:1014E0006D2DC7010E946E09482EFE01EB58FF4F7B
:1014F0001081612FC7010E946E099FEF910F01E0DB
:1015000010E0980101C0220F9A95EAF7882E821AFE
:10151000F701608416140CF0ADC0CA94C80101C074
:10152000880FCA94EAF7581A7684490CDA94A8010D
:1015300001C0440FDA94EAF7F42FF4194F2E272D47
:101540004F2F652DF701828193810E94DC086C0189
:10155000F70193838283272D442D652D8481958106
:101560000E94F508F70195838483F1E07F1609F462
:1015700085C07F1608F43FC022E0721609F48DC0C2
:10158000E3E07E1609F49DC0BC0196013EC0F9015E
:101590002491820F911D1ACFFE01EE57FF4F00815B
:1015A0001181080F191F680160E0C6010E949909A6
:1015B000080F191F62E0C6010E949909F4E0CF0EDE
:1015C000D11C8E159F0580F3F801849190E0982F2F
:1015D00088273196E4918E2B009709F4FECEE81609
:1015E000F90619F4C801039647CFF8013296E49141
:1015F0000E0F111DE9CF9601260D311D67FC3A959E
:10160000BC01690D711D97FC7A958B01AC01B60187
:10161000CE010E943307882369F1F70116821782F1
:101620008E0101591F4F6E01F0E7CF0ED11CF8015A
:101630006081C7010E946E09682EF6016081C701B2
:101640000E946E09782E40E0662DCE010E940E09A0
:1016500041E0672DCE010E940E0961E0C7010E94A2
:101660006E098111F0CFF7018781891504F3848514
:10167000F5018083882D880C990BB1CE09191109C9
:1016800097FC139596012F5F3F4FBC01660D711DAE
:1016900067FC7A95C00ED11EB8CFA8014619510932
:1016A00067FC539596012F5F3F4F0919110997FC6D
:1016B0001395BC016F5F7F4F800F911FC40ED51E25
:1016C000A4CF9601290D311D97FC3A9506191109F1
:1016D00067FC1395BC016F5F7F4F800F911F95CF03
:1016E000CF92DF92EF92FF920F931F93CF93DF93EE
:1016F0008C011092B4027B01D12CC12CCFE0D0E040
:10170000F70161917F01E0919E02F0919F028CE9C7
:1017100092E009958F3F980719F18E3F2FEF9207BE
:1017200079F39C01AE01B8018CE992E00E94A50911
:1017300020910803213059F038F0223059F023303D
:1017400061F0C80ED91EDCCF080F191FFACFC80FE1
:10175000D91FF7CF081B190BF4CFC81BD90BF1CF3A
:10176000C601DF91CF911F910F91FF90EF90DF9015
:10177000CF900895CF93DF93EC016BAFEEA9FFA953
:101780000190F081E02D0995EEA9FFA90280F38177
:10179000E02DCE01DF91CF910994AF92BF92CF920D
:1017A000DF92EF92FF920F931F93CF93DF9300D0BE
:1017B00000D01F92CDB7DEB78C01DC01DA96AC9079
:1017C000DA97DB96EC90DB97ED91FC91B188FE2CDB
:1017D000D12CC12CD801ED91FC9111978089D8961C
:1017E0002D913C911C82FD828B83B8E08B9FC001C0
:1017F00011248C9DA0018D9D500D9C9D500D112498
:10180000240F351F3A832983D8011496ED91FC915A
:101810009E012F5F3F4F41E06FE0C8010995F394AF
:101820008F2D8E198A1528F4BFEFCB1ADB0AFB1413
:1018300088F20F900F900F900F900F90DF91CF9143
:101840001F910F91FF90EF90DF90CF90BF90AF90DE
:1018500008950F931F93CF93DF93EC01862F642F8E
:101860008C3208F03AC08A3208F060C0883209F43D
:101870004BC0893209F460C0803408F475C0982FD9
:101880009F73FE01E90FF11D868D8F3F09F44EC055
:10189000903108F436C0282F30E0F901E255FF4FAF
:1018A0008491F901E656FF4F0491F901EA57FF4F81
:1018B0001491112379F081110E94B502E12FF0E01B
:1018C000EE0FFF1FE859FF4FA591B491EC910E2345
:1018D00081E009F480E0898F29C08D3299F108F404
:1018E000CBCF94EB980F923008F0C6CF8F73C80F10
:1018F000D11D8E8D411134C061E00E940C0360E067
:101900008E8D0E94DE0212C08E01025E1F4FD0E05B
:10191000F80181918F018F3F31F061E0D03108F003
:1019200062E00E940C03DF5FD63191F781E0DF9126
:10193000CF911F910F91089570E090E080E00E9498
:101940006203F4CF85E090E0433010F082E090E055
:10195000880F991F880F991F05970197F1F7E6CF18
:1019600062E00E940C03E2CF80E0E1CFCF92DF92F1
:10197000EF92FF920F931F93CF93DF936C01EB01D4
:101980007B01E40EF51E10E000E0CE15DF0561F0EE
:101990006991D601ED91FC910190F081E02DC60195
:1019A0000995080F191FF1CFC801DF91CF911F9141
:1019B0000F91FF90EF90DF90CF900895CF92DF923C
:1019C000EF92FF920F931F93CF93DF93EC016C0183
:1019D00024E0C20ED11CFC01E057FF4F0190F081C2
:1019E000E02DC60109958E3FEFEF9E07D8F48E01DA
:1019F0000C561F4FF801408151817E01F2E9EF0E34
:101A0000F11CF701608171819C01C6010E94A5094A
:101A1000C059DF4F28812130C1F078F02230B9F071
:101A20002330E9F081E090E0DF91CF911F910F9199
:101A3000FF90EF90DF90CF900895F70120813181E2
:101A4000820F931F91838083EDCFF801F7CFF701C9
:101A500020813181281B390B31832083E3CFF801AA
:101A6000F7CF089590E080E008951F93CF93DF9320
:101A700085ED8093BC008091A1019091A201A0917D
:101A8000A301B091A4010796A11DB11D23E0B69555
:101A9000A795979587952A95D1F72091BC0024FDAD
:101AA00003C01092E90152C04091A1015091A201DE
:101AB0006091A3017091A401452B462B472B69F33C
:101AC0000097A105B10541F02AE22A95F1F700C07F
:101AD0000197A109B109E1CF8091A001C1E0C093B4
:101AE0009F01882399F1D091B8001091BA0080919C
:101AF000BC008A7B8093BC0060E082E10E94DE0231
:101B000060E083E10E94DE021092E901C093EB01E4
:101B10001092EA0161E082E10E94DE0261E083E16D
:101B20000E94DE028091B9008E7F8093B90080917F
:101B3000B9008D7F8093B90088E48093B80085E474
:101B40008093BC001093BA00D093B800DF91CF917E
:101B50001F910895FC01A081B18150962C9182AD16
:101B600038E0839FC0011124289FA001299F500DB8
:101B7000112470E060E080AD91AD0C9464111F936E
:101B8000CF93DF93EC010E94CD0B1BAD8AAD180FF4
:101B9000E881F9818189181768F0EC81FD8130E0D6
:101BA00020E040E060E1CE01099580E0DF91CF9137
:101BB0001F910895FE01E557FF4F8081882319F09A
:101BC000CE010E94AA0D612FCE010E94BA0B81E0C6
:101BD000EDCFCF93DF93EC01FC01E557FF4F808100
:101BE000882319F0CE010E94AA0D60E0CE01DF919A
:101BF000CF910C94BA0B1F920F920FB60F92112433
:101C00002F933F938F939F93AF93BF938091100235
:101C100090911102A0911202B091130230910F0223
:101C200023E0230F2D3758F50196A11DB11D2093F8
:101C30000F028093100290931102A0931202B093AE
:101C400013028091140290911502A0911602B09196
:101C500017020196A11DB11D8093140290931502E5
:101C6000A0931602B0931702BF91AF919F918F91ED
:101C70003F912F910F900FBE0F901F90189526E85F
:101C8000230F0296A11DB11DD2CF1F920F920FB646
:101C90000F9211242F933F934F935F936F937F93F2
:101CA0008F939F93AF93BF93EF93FF938091B9006E
:101CB000887F803609F44AC0F0F5883209F4A5C05F
:101CC00018F5803109F499C0B8F4882309F4F5C0F7
:101CD000883009F492C0FF91EF91BF91AF919F912D
:101CE0008F917F916F915F914F913F912F910F90C5
:101CF0000FBE0F901F901895883109F486C080326E
:101D000051F78093E80114C0803409F49BC040F47B
:101D10008033B9F38833F9F68093E80185ECAEC0DF
:101D2000803509F483C0883509F494C0883499F665
:101D30000E94350DD0CF883909F48AC038F588372C
:101D400029F050F4883611F0803729F683E080932B
:101D5000E9011092E70155C0883809F479C080394B
:101D600019F0803809F0B7CF8091E701803208F090
:101D70006FC0E091E70181E08E0F8093E7018091D1
:101D8000BB00F0E0E953FE4F80833BC0803B39F05D
:101D9000D0F4803A09F477C0883A09F09CCF84E007
:101DA0008093E9011092C6011092C501F0E0E0E0D5
:101DB00009958091C50181110FC081E08093C50113
:101DC0001092A50109C0803C09F4A8CF883C09F411
:101DD000A5CF883B09F07FCFE091C60181E08E0F4F
:101DE0008093C601F0E0EB55FE4F80818093BB00ED
:101DF0009091C6018091C50129C080910E02809307
:101E0000BB0085EC8093BC0066CF90910D02809161
:101E10000C02981758F5E0910D0281E08E0F809327
:101E20000D02F0E0E451FE4F8081E9CFE0910D0218
:101E300081E08E0F80930D028091BB00F0E0E451B1
:101E4000FE4F808390910D0280910C029817C8F28A
:101E500085E8D8CFE0910D0281E08E0F80930D02CE
:101E60008091BB00F0E0E451FE4F80838091EB0154
:101E700081115ECF81E08093EA0184EA8093BC0007
:101E80001092E90128CF85EC8093BC001092E90103
:101E90008091E701803230F4E091E701F0E0E9530E
:101EA000FE4F10826091E70170E087EC91E0F0E076
:101EB000E0E009951092E7010ECF1092E80138CFCB
:101EC000CF9310929B0210929A028DE492E090932D
:101ED00029038093280310922B0310922A03109257
:101EE0002D0310922C031092B40281E491E09093A0
:101EF00099028093980210929D0210929C02109277
:101F0000B1021092A8021092A9021092AA02109295
:101F1000AB028FEF8093B2028093B602EAEBF2E05D
:101F200080ED92E0CFEFC1938E179F07E1F780E538
:101F300095E09093A1028093A00287E096E09093B1
:101F4000A3028093A2028DEE93E09093A50280936A
:101F5000A40289E29CE09093A7028093A60230E05D
:101F600020E040E069E08CE992E00E945005109288
:101F7000F7021092F60287E592E09093D1028093E7
:101F8000D00288E192E09093D5028093D40281E060
:101F90008093D6021092D702109205031092250367
:101FA00010922103809326038093270389E491E014
:101FB0009093D3028093D2028CE992E00E94E106D2
:101FC0001092EF021092EE021092F3021092F202BF
:101FD0008FEF9FEF9093F1028093F0029093F502C0
:101FE0008093F402E091D202F091D3020280F38157
:101FF000E02D8CE992E0099582EB92E09093F90252
:102000008093F8021092080388E08093BA0289E076
:102010008093BB028AE08093C302C093C502CF9134
:102020000895789484B5826084BD84B5816084BD50
:1020300085B5826085BD85B5816085BD80916E0066
:10204000816080936E001092810080918100826097
:1020500080938100809181008160809381008091D4
:1020600080008160809380008091B10084608093C3
:10207000B1008091B00081608093B00080917A00BF
:10208000846080937A0080917A00826080937A00E5
:1020900080917A00816080937A0080917A008068D4
:1020A00080937A001092C100E091A002F091A10209
:1020B00030E020E040E06AE08CE992E009958CE9AC
:1020C00092E00E94E90D8CE992E00E94BF0D81111F
:1020D000FACF60E08CE992E00E94BA0BE091A00296
:1020E000F091A10230E020E040E06BE08CE992E06A
:1020F00009958091F6029091F702825C904009F474
:1021000094C0E2ECF0E0F093F702E093F602E49181
:10211000E0930903E3ECF0E0E491E0930A03E4ECDC
:10212000F0E0E491E0930B03E5ECF0E0E491E09360
:102130000C03E6ECF0E0E491E0930D03E7ECF0E053
:10214000E491E0930E03E8ECF0E0E491E0930F03F8
:10215000E9ECF0E0E491E0931003EAECF0E0E491C4
:10216000E0931103EBECF0E0E491E0931203ECEC6C
:10217000F0E0E491E0931303EDECF0E0E491E09300
:102180001403EEECF0E0E491E0931503EFECF0E0E3
:10219000E491E0931603E0EDF0E0E491E09317039F
:1021A000E1EDF0E0E491E0931803E2EDF0E0E4917A
:1021B000E093190361E182EC90E00E949909909309
:1021C0001B0380931A0363E182EC90E00E9499095B
:1021D00090931D0380931C0365E182EC90E00E94C4
:1021E000990990931F0380931E038091F6029091AA
:1021F000F702892BD1F0809116038093220340913E
:1022000017034093230390912103992371F0913098
:10221000D1F590911803891714F4909322038091BB
:102220001903841714F480932303CDE4D2E000E073
:1022300010E08CE992E00E94E90DD0939F02C093D8
:102240009E026FE471E08FE090E00E94700BD093EB
:102250009F02C0939E026DE571E08EE190E00E94C6
:10226000700B8CE992E00E94BF0D8111E6CF68EE01
:1022700073E080E090E00E94620301151105C9F24D
:102280000E940000D6CF3091130320911503082E31
:10229000000C990B622F022E000C770B630F711D3F
:1022A00037FD7A95861797071CF4320F3093220377
:1022B00024170CF0BACF20932303B7CFEE0FFF1FE4
:1022C0000590F491E02D0994DC0101C06D9341501B
:0A22D0005040E0F70895F894FFCFA6
:1022DA0018153815081534150119FF181538150C75
:1022EA0019FFFE6418FE0A15381508150615021599
:1022FA0001FE0A19FF010005050106148C40420F70
:10230A000003041E2810080000800040000000009E
:10231A0000DE0CB60C320D310DE1066C07B0064832
:10232A00656C6C6F2C20576F726C642100C4E3BA21
:02233A00C300DE
:00000001FF
