:100000000C9496000C94BE000C94BE000C94FE0957
:100010000C94FE090C94FE090C94BE000C94BE00D6
:100020000C94760A0C94BE000C94BE000C94BE0096
:100030000C94BE000C94BE000C94BE000C94BE0048
:100040000C945C090C94BE000C94CC090C94A60989
:100050000C94BE000C94BE000C94BE000C94BE0028
:100060000C94BE000C94BE004446506C61796572DD
:10007000204D696E69206F6E6C696E652E00322EA0
:10008000506C6561736520696E7365727420746865
:100090006520534420636172642100312E506C65E9
:1000A000617365207265636865636B2074686520A1
:1000B000636F6E6E656374696F6E2100556E616269
:1000C0006C6520746F20626567696E3A00000000FD
:1000D00000240027002A00000000080002010000A0
:1000E00003040700000000000000000000000023DF
:1000F000002600290000000000250028002B000435
:1001000004040404040404020202020202030303BE
:1001100003030301020408102040800102040810B8
:100120002001020408102000980B8D1711241FBE17
:10013000CFEFD8E0DEBFCDBF25E0A2ECB2E001C03A
:100140001D92AE34B207E1F712E0A0E0B1E0E6E5BF
:10015000F5E302C005900D92A23CB107D9F710E07B
:10016000C5E9D0E004C02197FE010E948F18C43970
:10017000D107C9F70E94760C0C949E1A0C940000CB
:1001800082E08093B0008093B10084E68093B30056
:100190008093B4001092B20080911603833011F462
:1001A0001092160384E08093700008952091B404A7
:1001B0003091B5042817390728F48091B204816082
:1001C0008093B20408950F931F93CF93DF934091D0
:1001D00015038091B30410E0481708F063C0142F92
:1001E00011700091140301114EC0E091B604F0911A
:1001F000B704E40FF11DE585F0E02CEE3FEF11238D
:1002000011F024E130E0C0911203D09113032C0FC0
:100210003D1FC90163E470E00E947B18E617F707F1
:1002200060F0C90168E270E00E947B186F5F7F4F49
:1002300081E090E06E177F0710F52C0F3D1FC9017C
:1002400063E470E00E947B18E617F70750F0C901DD
:1002500068E270E00E947B186F5F7F4F6E177F0728
:1002600060F42C0F3D1FC90163E470E00E947B180D
:10027000E617F707E8F41FEF15C082E090E09093CF
:100280001103809310030F5F0093140380911003F8
:10029000909111030817190628F0109214034F5F6C
:1002A00040931503812FDF91CF911F910F910895F6
:1002B000C90168E270E00E947B186F5F7F4F6E1784
:1002C0007F07C8F283E090E0DACF833081F028F432
:1002D000813099F08230A9F008958730A9F08830F4
:1002E000C9F08430B1F4809180008F7D03C080918B
:1002F00080008F7780938000089584B58F7784BDC8
:10030000089584B58F7DFBCF8091B0008F77809367
:10031000B00008958091B0008F7DF9CFCF93DF9327
:10032000EBEDF0E08491E7E1F1E0D491E3E0F1E07E
:10033000C491CC23A1F081110E946501EC2FF0E063
:10034000EE0FFF1FE551FF4FA591B491EC91ED2306
:1003500081E090E009F480E0DF91CF91089580E0A2
:1003600090E0FACF1F93CF93DF93282F30E0F9016D
:10037000E952FF4F8491F901ED5EFE4FD491F901EE
:10038000E150FF4FC491CC23A9F0162F81110E9498
:100390006501EC2FF0E0EE0FFF1FEB50FF4FA59132
:1003A000B4918FB7F894EC91111108C0D095DE2369
:1003B000DC938FBFDF91CF911F910895DE2BF8CF93
:1003C000CF93DF9390E0FC01ED5EFE4F24918150CE
:1003D0009F4FFC0184918823D1F090E0880F991FF2
:1003E000FC01E353FF4FA591B491FC01EB50FF4F8B
:1003F000C591D49161110EC09FB7F8948C91E22FF2
:10040000E0958E238C932881E223E8839FBFDF91C0
:10041000CF9108958FB7F894EC91E22BEC938FBFB6
:10042000F6CF3FB7F89480910C0390910D03A09103
:100430000E03B0910F0326B5A89B05C02F3F19F0FE
:100440000196A11DB11D3FBFBA2FA92F982F882754
:10045000BC01CD01620F711D811D911D42E0660F2F
:10046000771F881F991F4A95D1F708958F929F9201
:10047000AF92BF92CF92DF92EF92FF926B017C011D
:100480000E9411024B015C01C114D104E104F1048A
:10049000B9F00E941102681979098A099B09683E1E
:1004A00073408105910580F321E0C21AD108E1086B
:1004B000F10888EE880E83E0981EA11CB11CE4CFE1
:1004C000FF90EF90DF90CF90BF90AF909F908F9074
:1004D00008952FB7F89460910803709109038091F3
:1004E0000A0390910B032FBF08952F923F924F92D2
:1004F0005F926F927F928F929F92AF92BF92CF92B4
:10050000DF92EF92FF920F931F93CF93DF936B01D4
:100510007C010E9469024B015C01C114D104E10419
:10052000F10441F4C090E804D090E904E090EA04BA
:10053000F090EB04C1E046E0242E53E0352E68E055
:10054000462E72E0572EE7E06E2EFAE07F2E04E092
:10055000D9E015E08091E2049091E304DC01ED9193
:10056000FC910084F185E02D0995892B09F4BAC02E
:1005700060E070E0CB010E9436022091000580917E
:10058000E2049091E304DC01ED91FC910284F38597
:10059000E02D21110BC009958093EC048E37D1F624
:1005A000809100058F5F80930005D4CF09959091CD
:1005B0000005E92FF0E0EE51FB4F8287923069F1A0
:1005C000993089F1913059F58F3F49F1109200052A
:1005D000C09302051092050510920405C09306050C
:1005E000109207050E946902681979098A099B0916
:1005F000C616D706E806F90608F0C1C01092000535
:1006000010920205109205051092040581E0809376
:1006100006051092070580E06AC08630B9F69F5F34
:100620009093000597CF8F3E89F6E091EF0480917B
:10063000F10490E04091F20450E06091F30470E026
:10064000762F66272091F404620F711D2091EE042D
:100650002E0F3327331FF091F0042F0F311D280F79
:10066000391F240F351FF091ED042F0F311D3195E7
:10067000219531096217730709F0A8CF1092000580
:10068000E13419F4109207052DC0E0930305982F6B
:100690008827480F591F5093050540930405EA53D6
:1006A000E63108F063C0F0E0E85AFC4F0C948F1874
:1006B0009B03A5036E036E03B2038A03AF03B60365
:1006C000B203B203B203B203B203B203B203B20382
:1006D000B603B203B203B203B203B203109302052E
:1006E000C093060580910605882309F47BCFDF912E
:1006F000CF911F910F91FF90EF90DF90CF90BF901F
:10070000AF909F908F907F906F905F904F903F90B1
:100710002F90089540FF03C0D0930205E1CF41FF21
:1007200003C000930205DCCF43705527452BD1F25F
:1007300070920205D5CF40FF03C060920205D0CF72
:1007400041FFD0CF50920205CBCF40FF03C0409273
:100750000205C6CF41FFC6CF30920205C1CF20921D
:100760000205BECFBBE0B0930205BACFC09302052D
:100770001092050510920405C093060583CF60E032
:1007800070E0CB010E943602E5CE8093F904272F5A
:1007900030E07093FB046093FC044091F804909166
:1007A000F704490F5527551F840F952F911D409130
:1007B000FA04840F911D820F931F680F792F711D0A
:1007C0007195619571097093FD046093FE04442353
:1007D00079F080910705882359F060E070E0CB0143
:1007E0000E94360260E070E0CB010E947502F1CFFA
:1007F0008091E2049091E304DC01ED91FC91028090
:10080000F381E02D4AE050E066EF74E009950E9424
:1008100069026093E4047093E5048093E604909386
:10082000E7048091FA0491E0811101C090E0909377
:100830000705811106C06AE070E080E090E00C944A
:100840003602089570E060E00C94C50383E40E94D2
:10085000220460E070E0CB010E947502882339F029
:1008600010920605809104059091050508958FEF7B
:100870009FEF0895AF92BF92CF92DF92EF92FF92D7
:100880000F931F93CF93DF936C017B018B01040FB8
:10089000151FEB015E01AE18BF08C017D10759F054
:1008A0006991D601ED91FC910190F081E02DC60196
:1008B0000995892B79F7C501DF91CF911F910F9190
:1008C000FF90EF90DF90CF90BF90AF900895FC0124
:1008D000538D448D252F30E0842F90E0821B930BA5
:1008E000541710F0CF96089501970895FC01918D4B
:1008F000828D981761F0A28DAE0FBF2FB11D5D964E
:100900008C91928D9F5F9F73928F90E008958FEFEF
:100910009FEF08950F931F930E9469026093F30362
:100920007093F4038093F5039093F6038BEE93E0BA
:100930000E94760497FF1DC00E9469020091F30394
:100940001091F4032091F5033091F603601B710BB5
:10095000820B930B0091EF031091F0032091F103B0
:100960003091F2036017710782079307F8F28FEF57
:100970009FEF1F910F910895FC01918D828D981723
:1009800031F0828DE80FF11D858D90E008958FEF95
:100990009FEF0895FC01918D228D892F90E0805C5E
:1009A0009F4F821B91098F73992708958BEE93E0D7
:1009B0000E94CA0421E0892B09F420E0822F0895C7
:1009C00080E090E0892B29F00E94D60481110C94DC
:1009D00000000895FC01A48DA80FB92FB11DA35AE2
:1009E000BF4F2C91848D90E001968F739927848F4F
:1009F000A689B7892C93A089B1898C918370806472
:100A00008C93938D848D981306C00288F389E02D12
:100A100080818F7D80830895EF92FF920F931F93C3
:100A2000CF93DF93EC0181E0888F9B8D8C8D9813A1
:100A30001AC0E889F989808185FF15C09FB7F894AD
:100A4000EE89FF896083E889F989808183708064F9
:100A500080839FBF81E090E0DF91CF911F910F9144
:100A6000FF90EF900895F62E0B8D10E00F5F1F4F53
:100A70000F731127E02E8C8D8E110CC00FB607FC62
:100A8000FACFE889F989808185FFF5CFCE010E94F0
:100A9000EA04F1CFEB8DEC0FFD2FF11DE35AFF4F70
:100AA000F0829FB7F8940B8FEA89FB89808180627E
:100AB000CFCFCF93DF93EC01888D8823B9F0AA893B
:100AC000BB89E889F9898C9185FD03C0808186FD09
:100AD0000DC00FB607FCF7CF8C9185FFF2CF808158
:100AE00085FFEDCFCE010E94EA04E9CFDF91CF91DF
:100AF000089520910403309105032817390771F4F4
:100B00009091020380910303981741F0E091020352
:100B1000F0E0EE53FD4F808190E008958FEF9FEF5E
:100B200008950895EF92FF920F931F93CF93DF9351
:100B3000DC015C96ED90FC905D97E114F10479F492
:100B400081E090E013969C938E93129790E080E062
:100B5000DF91CF911F910F91FF90EF9008955196E3
:100B6000ED91FC91529750968C915097982F9095BB
:100B70000FB75E962C915E97122F127021FD609533
:100B8000F8942081112319F1282B2083E701219764
:100B9000F1F728E0462F50E0308160FF1AC0382B73
:100BA0003083E7012197F1F7BA01759567952150D8
:100BB00089F7112381F08081892380830FBF5C96A0
:100BC0008D919C910197F1F781E090E0C1CF2923AD
:100BD000DCCF3923E5CF9081892BEFCF209104031F
:100BE000309105032817390761F4809103032091A0
:100BF000020390E0805C9F4F821B91098F739927BD
:100C0000089590E080E00895209104033091050359
:100C100028173907B9F490910203809103039817BC
:100C200089F0E0910203F0E0EE53FD4F80812091C6
:100C3000020330E02F5F3F4F2F73332720930203CF
:100C400090E008958FEF9FEF089590E080E0089581
:100C5000FC019B0124513109C90163E470E00E9449
:100C60007B18E617F70758F0C90168E270E00E94A8
:100C70007B186F5F7F4F81E06E177F0708F480E07D
:100C800008952F923F924F925F926F927F928F9230
:100C90009F92AF92BF92CF92DF92EF92FF920F930B
:100CA0001F93CF93DF9300D000D000D0CDB7DEB735
:100CB000382E6D835A013C832B8348012E2C9A01D8
:100CC0002C5E3F4FC90163E470E00E947B188B01EA
:100CD000C90168E270E00E947B189B012F5F3F4FC3
:100CE0003A8329835D81452F50E0435F5F4F8091B8
:100CF000B6049091B704480F591F5E834D83412C71
:100D0000512C32014394C12CD12C76013320A1F116
:100D1000ED81FE81A814B904D9F481816B817C81B5
:100D200090E00E942806222001F1CC0CDD1CEE1C74
:100D3000FF1C882311F06894C0F8440C551C661CF5
:100D4000771C3A948D819E8102969E838D83DECF9F
:100D5000208130E02017310730F081E049815A814D
:100D60004217530700F780E0DECF882331F3C42811
:100D7000D528E628F728E1CFC0929004D0929104BC
:100D8000E0929204F092930481E026960FB6F894D4
:100D9000DEBF0FBECDBFDF91CF911F910F91FF90AE
:100DA000EF90DF90CF90BF90AF909F908F907F900B
:100DB0006F905F904F903F902F900895EF920F9318
:100DC0001F93FC01862F642FEE24E39497859111E5
:100DD00001C0E12C0385148521853285478150852A
:100DE0000E9441061F910F91EF9008950F931F935A
:100DF000CF93DF938C01C091B604D091B7042E85B8
:100E000030E0DC011396ED91FC917496CF0163E420
:100E100070E00E947B1826173707A8F0CF0168E220
:100E200070E00E947B186F5F7F4F6217730758F066
:100E3000F801658176818F8590E0DF91CF911F91D8
:100E40000F910C94280680E0DF91CF911F910F91B4
:100E5000089542E050E064E272E08BEE93E00C947F
:100E60003A04CF93DF93FC0101900020E9F731971A
:100E7000AF01481B590BBC018BEE93E00E943A0472
:100E8000EC010E9429078C0F9D1FDF91CF910895DF
:100E9000CF93DF93FC0144815581608171818BEE9A
:100EA00093E00E943A04EC010E9429078C0F9D1FD9
:100EB000DF91CF9108950F931F93CF93DF938C0110
:100EC000D0E0C0E0F801EC0FFD1F6491662341F013
:100ED0008BEE93E00E940C05892B11F02196F2CF46
:100EE0000E9429078C0F9D1FDF91CF911F910F91B9
:100EF000089580910805882319F060E00C94B201F0
:100F00002D980895882349F080910805882319F0C9
:100F100061E00C94B2012D9A08950C9479074F92D8
:100F20005F926F927F928F929F92AF92BF92CF9279
:100F3000DF92EF92FF92CF93DF93CDB7DEB72D977D
:100F40000FB6F894DEBF0FBECDBF7C010E94110228
:100F500069837A838B839C834B015C011D86B0E09F
:100F6000A0E09701AD0125523109410951092D83B6
:100F70003E834F8358879701AD01275031094109BE
:100F8000510929873A874B875C87F89461E0809103
:100F90000A050E94B20180910D0590910E058230E4
:100FA000910538F0880F991F880F991F05970197B1
:100FB000F1F760E080910A050E94B20178943D85C6
:100FC000311107C08091090581FF03C081E00E94B3
:100FD000820780910B0590910C05880E991EA11C2B
:100FE000B11CF8940E9411022B013C016B01498154
:100FF0005A81C41AD50AF12CE12C8D819E81AF81D2
:10100000B885C816D906EA06FB062CF080910905BA
:1010100081FD0E94790729853A854B855C85C2163A
:10102000D306E406F506B4F078942D960FB6F8943E
:10103000DEBF0FBECDBFDF91CF91FF90EF90DF906D
:10104000CF90BF90AF909F908F907F906F905F9068
:101050004F90089531E03D87481459046A047B0499
:1010600008F4C0CF92CFCF92DF92EF92FF928AE145
:1010700090E090930C0580930B0585E090E09093B1
:101080000E0580930D0561E080910A050E94E00144
:1010900080E093E20E948F070E9411026B017C01A5
:1010A00024E0C21AD108E108F1080E9411026C196B
:1010B0007D098E099F09603C784081059105A8F360
:1010C00080E392E0FF90EF90DF90CF900C948F0739
:1010D000CF93DF93EC0188819981009711F00E94F2
:1010E0003119198218821D821C821B821A82DF919B
:1010F000CF910895FC0180819181009711F00C94AB
:1011000031190895FC0124813581232B39F421E024
:10111000FB018081882349F020E007C08081918114
:101120000E94801A21E0892BB9F7822F08950F932E
:101130001F93CF93DF93EC0188819981009759F039
:101140002A813B812617370730F081E0DF91CF916C
:101150001F910F9108958B016F5F7F4F0E94BA1905
:10116000009759F0998388831B830A832C813D81E2
:10117000232B59F7FC011082E8CF80E0E7CFEF92F4
:10118000FF920F931F93CF93DF93EC01FB01E0805D
:10119000F180E114F10411F10481158101151105AB
:1011A000A9F08C819D81080F191FB801CE010E9402
:1011B0009708882399F0288139818C819D81B70116
:1011C000820F931F0E94891A1D830C83CE01DF9129
:1011D000CF911F910F91FF90EF900895CE010E9443
:1011E0006808F4CFEF92FF920F931F93CF93DF9392
:1011F000EC017B018A01BA010E94970881110BC0A2
:10120000CE010E946808CE01DF91CF911F910F910E
:10121000FF90EF9008951D830C83B7018881998119
:101220000E94891AF0CFEF92FF920F931F93CF93F2
:10123000DF93CDB7DEB762970FB6F894DEBF0FBE6F
:10124000CDBF8C01CB01F801118210821382128272
:10125000158214824AE09E012F5F3F4F7901B90148
:101260000E94D017F70101900020E9F73197AF01F4
:101270004E195F09B701C8010E94F20862960FB6C5
:10128000F894DEBF0FBECDBFDF91CF911F910F91BC
:10129000FF90EF900895FC01118210821382128258
:1012A00015821482FB0101900020E9F73197AF010C
:1012B000461B570B0C94F2081F920F920FB60F9219
:1012C00011242F933F938F939F93AF93BF9380915C
:1012D000080390910903A0910A03B0910B03309188
:1012E000070323E0230F2D3758F50196A11DB11DEB
:1012F000209307038093080390930903A0930A03A4
:10130000B0930B0380910C0390910D03A0910E03F9
:10131000B0910F030196A11DB11D80930C03909312
:101320000D03A0930E03B0930F03BF91AF919F9154
:101330008F913F912F910F900FBE0F901F90189596
:1013400026E8230F0296A11DB11DD2CF1F920F9246
:101350000FB60F9211242F933F934F935F936F9388
:101360007F938F939F93AF93BF93EF93FF938BEEF6
:1013700093E00E94EA04FF91EF91BF91AF919F919A
:101380008F917F916F915F914F913F912F910F902E
:101390000FBE0F901F9018951F920F920FB60F92CD
:1013A00011242F938F939F93EF93FF93E091FB036F
:1013B000F091FC038081E0910104F091020482FD30
:1013C0001BC09081809104048F5F8F73209105046E
:1013D000821741F0E0910404F0E0E551FC4F958F55
:1013E00080930404FF91EF919F918F912F910F9023
:1013F0000FBE0F901F9018958081F4CF1F920F920F
:101400000FB60F9211242F933F934F935F936F93D7
:101410007F938F939F93AF93BF93EF93FF93E0914D
:101420000403F0910503309749F0A685B7858585BB
:10143000968D91FF14C09C918923A1F4FF91EF91A7
:10144000BF91AF919F918F917F916F915F914F91DC
:101450003F912F910F900FBE0F901F9018959C9168
:10146000892361F7A389B4899C9185898095892313
:101470008C93868997890197F1F7608D718DA68588
:10148000B785558538E020E0CB010197F1F7822F31
:1014900090E095958795282F4C91452309F0206879
:1014A000315091F7868D81FD20958091030390E066
:1014B00001968F73992730910203381799F0A09104
:1014C0000303B0E0AE53BD4F2C9380930303828D92
:1014D000938D0197F1F7A389B4898C919589892B14
:1014E0008C93ACCF868D8160868FF1CF1F920F9247
:1014F0000FB60F9211242F933F934F935F936F93E7
:101500007F938F939F93AF93BF93CF93EF93FF936B
:10151000E0911803F0911903C08180911A03C82348
:1015200080911B0390911C03019649F080911B034D
:1015300090911C03019690931C0380931B03809150
:10154000160381111DC0C11176C080911B039091BB
:101550001C03813A910578F010921F0380911B03C0
:1015600090911C03909322038093210381E0809348
:1015700020038093160310921C0310921B035BC080
:1015800080911603813099F4CC2309F454C08091E2
:101590001B0390911C03E091200391E09E0F909318
:1015A0002003F0E0EA5EFC4F858782E0E2CF809185
:1015B0001603823009F05AC0C11120C0E091200307
:1015C000E83C70F081E080931F0383E08093160372
:1015D000E0911D03F0911E03309769F20995CBCF7E
:1015E00080911B0390911C0391E09E0F9093200328
:1015F000F0E0EA5EFC4F858781E0BBCF80911B0362
:1016000090911C03813A9105B0F080912103909153
:10161000220390933C0580933B05809120038093A7
:101620003A0583E080931603E0911D03F0911E03B9
:10163000309709F009958091090580FF05C081E088
:10164000C11180E00E948207FF91EF91CF91BF917D
:10165000AF919F918F917F916F915F914F913F914A
:101660002F910F900FBE0F901F9018958091160329
:10167000833009F7C111DFCF7ECFDF92EF92FF9267
:101680000F931F93CF93DF93EC01D62E8A0179013C
:10169000F0E090E080E030E0E0E0DE01AE0FB11D70
:1016A0002C91FF5F222339F0320F2E9F800D911D68
:1016B00011241C92F0E03323B9F0DE1611F0F23061
:1016C00098F0232F2695820F911D632F70E00E94C2
:1016D0007B18DE01A60FB11D3C93D8013C9131115E
:1016E0000FC06C9390E080E0EF5FDE16B0F681E013
:1016F000DF91CF911F910F91FF90EF90DF900895B0
:10170000D7013C91332369F380E0F2CFE6E1F3E0C7
:10171000DC019F96FC93EE939E97118281E0848377
:1017200089E290E09383828350981092080508958F
:10173000CF92DF92EF92FF921092EE031092ED03A0
:1017400098EEC92E93E0D92EE12CF12CC092EF0334
:10175000D092F003E092F103F092F20384E092E081
:101760009093EC038093EB0385EC90E09093F80367
:101770008093F70384EC90E09093FA038093F9034D
:1017800080EC90E09093FC038093FB0381EC90E06D
:101790009093FE038093FD0382EC90E0909300040D
:1017A0008093FF0386EC90E0909302048093010401
:1017B000109204041092050410920604109207047B
:1017C0008FE095E00E94860B10920A0510920805A2
:1017D00084EF91E0A0E0B0E08093E8049093E90406
:1017E000A093EA04B093EB048AE0E6EFF1E0A6EF01
:1017F000B4E001900D928A95E1F71092000582E025
:101800008093010510920605109207051092C604F8
:101810001092C504C092C704D092C804E092C904D3
:10182000F092CA0486E192E09093C4048093C304CA
:101830001092DA041092D9041092DC041092DB04A6
:101840001092DE041092DD041092E0041092DF0486
:101850006091E1046E7F6D7F6093E1046695617035
:1018600081E0682783E00E94B20161E083E00E948A
:10187000E001E6E1F1E0E491E093D304E2E0F1E09D
:10188000E491F0E0EE0FFF1FEB50FF4F8591949134
:101890009093D5048093D40460E082E00E94E0013C
:1018A0008091E10481FD04C061E082E00E94B20108
:1018B00082E08093CF04E5E1F1E0E491E093D0048D
:1018C000E1E0F1E0E491F0E0EE0FFF1FE551FF4FA2
:1018D000859194919093D2048093D10488E894E008
:1018E000FF90EF90DF90CF900C94860BCF93DF9317
:1018F000CDB7DEB7C654D1090FB6F894DEBF0FBE20
:10190000CDBF789484B5826084BD84B5816084BD88
:1019100085B5826085BD85B5816085BD80916E008D
:10192000816080936E0010928100809181008260BE
:1019300080938100809181008160809381008091FB
:1019400080008160809380008091B10084608093EA
:10195000B1008091B00081608093B00080917A00E6
:10196000846080937A0080917A00826080937A000C
:1019700080917A00816080937A0080917A008068FB
:1019800080937A001092C100E091FB03F091FC0378
:1019900082E08083E091F703F091F8031082E091F8
:1019A000F903F091FA038FEC808310920304E09125
:1019B000FF03F091000486E08083E091FD03F09145
:1019C000FE03808180618083E091FD03F091FE033E
:1019D000808188608083E091FD03F091FE03808127
:1019E00080688083E091FD03F091FE0380818F7D0C
:1019F00080838DE08093170380E280931A0383E253
:101A000090E090931903809318032598109208058D
:101A10000E94C00087E292E00E9431070E94C0004D
:101A20001092DE041092DD041092DC041092DB04AC
:101A30001092DA041092D9048DE991E09093E004B9
:101A40008093DF049091CF04963108F047C02DEBCE
:101A500030E03093DA042093D9042BE931E030935D
:101A6000DC042093DB042CE231E03093DE0420938D
:101A7000DD042091680084E0983048F031E09E3029
:101A800008F430E081E001C0880F3A95EAF7822B34
:101A9000809368002DE630E0983050F02BE630E07F
:101AA0009E3030F02CE630E0963110F030E020E04F
:101AB0003093D7042093D604292F30E0983008F0D3
:101AC0006AC081E001C0880F9A95EAF78093D80434
:101AD0008091DF049091E0040197F1F78091DD049B
:101AE0009091DE04892B49F1E0910403F091050304
:101AF00024E0E33CF20709F1309739F0A389B48977
:101B00009C918589809589238C938091E1048E7FB7
:101B10008093E104109203031092020383EC94E09B
:101B20009093050380930403E091D604F091D704C9
:101B300080819091D804892B808303EC14E0FF24EA
:101B4000F3941093E3040093E204F092FA048CE01F
:101B50000E94220460ED77E080E090E00E94750230
:101B600068EC70E080E090E00E943602109206057A
:101B7000809102058430E1F08930D1F08CEB90E067
:101B80000E945B078BE990E00E945B078EE790E084
:101B90000E945B07D6CF9E3040F42850310981E087
:101BA00001C0880F2A95EAF791CF2E503109F7CF5F
:101BB00088E690E00E945B0761E070E086E00E94AA
:101BC000C50366E374E083E00E94C50361E070E052
:101BD00081E10E94C5031092060368EE73E080E085
:101BE00090E00E943602CE0101966C010E948E01A7
:101BF0000197A9F480910603811111C068E572E094
:101C000080E090E00E9436020E948E01019739F434
:101C100081E00E94220488E392E00E9431078BEE6B
:101C200093E00E94CA04181619060CF05DC066E223
:101C300072E0CE01CF960E944B090E948A0497FD64
:101C400024C08A30910509F189831A8225960EAD48
:101C50001FAD25970F5F1F4FB801CE01CF960E9491
:101C60009708882351F321962EAD3FAD21972596F5
:101C70008EAD9FAD2597B601820F931F0E94891AE2
:101C800025961FAF0EAF2597D8CF1AAE19AE1CAE52
:101C90001BAE1EAE1DAE21966EAD7FAD21976115B8
:101CA000710541F025964EAD5FAD2597CE01C996E1
:101CB0000E94F2086DE372E0CE01C9960E9482088C
:101CC000882309F482C08DE00E9422048DE392E013
:101CD0000E94310710920603CE01C9960E947A082D
:101CE000CE01CF960E947A0880911603833011F0BE
:101CF0000C943D1780912103909122039093B50499
:101D00008093B404809120038093B30480911F03D7
:101D1000882309F446C180E48093B20410928904B8
:101D20001092880410928D0410928C0410928B04EF
:101D300010928A04109290041092910410929204CE
:101D4000109293041092B1041092B0048091B204E6
:101D500086FF02C00C9431179091B304892F8F7BBA
:101D6000843009F0ACC1E091B604F091B7048685E7
:101D700086588C3508F0A3C18785943009F038C1A6
:101D80008152883108F09BC180898850883008F0E2
:101D900096C181E08093B2048091BA049091BB0413
:101DA00090938B0480938A048091BE049091BF0429
:101DB00090938D0480938C048091B8049091B90421
:101DC00090938904809388040DC263E472E0CE018D
:101DD000C9960E948208882359F08EE00E9422044E
:101DE00083E492E00E94310781E08093060374CF80
:101DF00068E372E0CE01C9960E948208882341F010
:101E000081E00E94220488E392E00E94310764CFBF
:101E100069E472E0CE01C9960E948208182F8823D7
:101E200031F082E00E94220489E492E0EECF6EE479
:101E300072E0C6010E944B094D815E818DAD9EAD61
:101E40008417950778F089AD9AAD009759F06981AC
:101E50007A816115710531F00E94901A11E0892B89
:101E600009F010E0C6010E947A08112309F468C045
:101E7000ADACBEACB5E08B2E912C95E0A916B104AB
:101E800020F0450115E0A12EB12C66E272E0C601FA
:101E90000E944B090DAD1EADA016B10610F58016BF
:101EA000910608F48401E9ADFAADE00FF11FF0806E
:101EB000108269AD7AAD6A0D7B1D61157105E1F186
:101EC000FB0101900020E9F73197AF01461B570B4A
:101ED000C6010E94F20889AD9AAD080F191FD801FA
:101EE000FC9289819A81812C912C5401009719F0E0
:101EF0000E94A9174B01C6010E947A08B40183E031
:101F00000E94C503B401CE01C3960E94130964E583
:101F100072E0C6010E944B09BE016D5C7F4FC60195
:101F20000E94BF080E944807C6010E947A08CE019D
:101F3000C3960E947A08D0CEC6010E946808CBCF13
:101F400063E672E0CE01C9960E9482088823A1F060
:101F50000E9426044E976CF484E00E9422040E94A2
:101F60002604BC01CE01C3960E94130965E672E007
:101F7000D0CF85E792E049CF63E872E0CE01C99601
:101F80000E948208882351F00E9426041816190620
:101F900014F485E0E2CF85E892E037CF83E992E060
:101FA00034CF1092B2048091880490918904909368
:101FB000B9048093B80480918C0490918D04B0E0B2
:101FC000A0E08093BE049093BF04A093C004B0939C
:101FD000C10480918A0490918B04B0E0A0E08093CA
:101FE000BA049093BB04A093BC04B093BD0496CEF6
:101FF00082548F3208F063C043E060E28CED91E0E0
:102000000E94DE06882309F45AC020919004909122
:1020100091046091920480919304462F50E0509374
:102020008D0440938C04422F592F4E3EB7E85B0736
:1020300019F523E030E0309389042093880490E080
:1020400090938B0480938A0480E290E09093B10493
:102050008093B0048AE795E00E94D6008091B20494
:1020600080FFC0C029E030E03093890420938804C9
:1020700080628093B204B6C09095291310C030E0FE
:1020800030938B0420938A04982F909569130CC089
:1020900088E090E09093890480938804D5CF509392
:1020A0008B0440938A04F0CF2AE030E03093890417
:1020B0002093880460938C0480938D04C5CF809115
:1020C000B304843609F0A2C088EC91E00E94F606C1
:1020D000882309F49BC043E060E188EC91E00E9412
:1020E000DE06882309F492C0F09090040F2D109121
:1020F0009104FBE0AF2EB12C0230E0E21E07F9F0B4
:10210000EEE0AE2EB12C0A3AFAE51F07C1F07DE0F1
:10211000A72EB12C043522E3120789F06FE0A62E1A
:10212000B12C033031E0130751F0A0E1AA2EB12CFD
:1021300003328BEC180719F05CE0A52EB12C43E2BA
:1021400060E288EC91E00E94DE06882309F45EC01C
:10215000F1268091900490919104A0919204B09105
:1021600093049C0144E0369527954A95E1F7309316
:102170008B0420938A042A2F30E030938D0420931F
:102180008C04382F3A2739272F2D22952F702F2591
:102190002F70482F4F70241719F024E02093B204B9
:1021A000ECE0AE16B10449F42091B2042061209312
:1021B000B20410938F0400938E043B1729F0809192
:1021C000B20484608093B20480E390E09093B10401
:1021D0008093B004B0928904A09288048AE397E0C7
:1021E0000E94D6008091880490918904089709F094
:1021F00038C680918C0490918D048631910509F048
:102200000BC60E9469028FEA92E00EC68091B30469
:10221000803209F06EC041E06FE084EB91E00E94F3
:10222000DE06882309F465C0E091B604F091B70496
:1022300084A58450853008F05CC080919004909112
:102240009104A0919204B09193049C012F713327C3
:1022500030938B0420938A0415E0B695A795979543
:1022600087951A95D1F7292F2370AC0155275093E4
:102270008D0440938C044091B4045091B5044536CC
:10228000544080F53091C2043F5F3093C204323035
:1022900018F031E03093B20490FF14C03091B204D2
:1022A000432F42604093B2044091BE045091BF045A
:1022B0008095841719F036603093B20440938C04F3
:1022C00050938D042150223088F487E190E0909360
:1022D0008904809388048FE090E09093B104809308
:1022E000B00480CF1092C204223079F384E090E0F1
:1022F000EECF80E091E00E94F606882309F448C002
:102300008091B3048A3129F08A3219F0803209F0C1
:102310003FC090E0BC016150710977FDBC0175952B
:10232000679543E080E091E00E94DE06882381F11A
:102330008091900490919104A0919204B0919304A3
:102340009C012F77332730938D0420938C04F7E082
:10235000B695A79597958795FA95D1F790938B04A5
:1023600080938A042091B30430E0C901019797FD5E
:10237000C901959587959093B1048093B00488E145
:1023800090E0909389048093880480EE91E028CFB8
:1023900081E08093150389E793E090931303809382
:1023A0001203109214030E94E300813009F063C00D
:1023B000812C912C540110E09091B304809115036D
:1023C0008917E0F40E94E300082F0E94E300011146
:1023D0000BC0813009F04FC0880C991CAA1CBB1C93
:1023E000689480F81F5FE8CF013009F044C0811184
:1023F00042C0880C991CAA1CBB1CF4CF812F90E012
:102400009093B1048093B0048092900490929104D0
:10241000A0929204B0929304882D8F7390E09093D1
:102420008D0480938C04940156E0369527955A9537
:10243000E1F72F71332730938B0420938A049401A2
:1024400022273071232B31F4805C9F4F90938D04B1
:1024500080938C0480E88093B20493FE03C088E8E4
:102460008093B20481E190E0909389048093880482
:102470008FEC99E0B5CEE091B604F091B704868573
:1024800088528D3108F041C087858C508B30E8F53B
:1024900083E0809315038CEB91E09093130380937A
:1024A0001203109214030E94E300813071F50E9420
:1024B000E30081112AC0812C912C540110E09091ED
:1024C000B30480911503891708F079C00E94E300D6
:1024D000F82E1330B1F00E94E300082F133021F4DE
:1024E0000E94E300081311C021E0F2125EC0011146
:1024F0000CC0880C991CAA1CBB1C689480F81F5F38
:10250000DECF0E94E300F81631F39091B3049C33C0
:1025100011F09430B1F4E091B604F091B7048685DF
:10252000282F30E02638310560F0233E310508F4CD
:1025300093C08E5868EB7BE007E010E0823608F429
:102540008FC08091B304823209F4EEC0843209F066
:1025500017C188E291E00E94F606882309F410C1B1
:1025600043E060E188E291E00E94DE06882309F4FE
:1025700007C18091900490919104A0919204B09130
:102580009304492F5A2F6B2F772750938D04409334
:102590008C04992790938B0480938A0480E190E0C7
:1025A0009093B1048093B004E8C0F110AECF013035
:1025B00009F0ABCF880C991CAA1CBB1CA0CF812FA3
:1025C00090E09093B1048093B00480929004909234
:1025D0009104A0929204B0929304282D30E0892DAA
:1025E00090E0133200F540E84093B20430938D043C
:1025F00020938C0490938B0480938A04A0FE03C0E4
:1026000088E88093B204153128F08091B20480618B
:102610008093B20482E190E09093890480938804CF
:1026200083E79AE0DDCD40E94093B20430938D0416
:1026300020938C0490938B0480938A04C5019F732C
:1026400090938F0480938E04B7FE03C088E9809333
:10265000B20483E190E0E0CF68E670E106E010E0CC
:102660008785943059F48D51863108F06ACF80897E
:102670008750883008F065CF81E88CCB90E00E94CD
:102680002806882309F45DCF43E06CE184E191E002
:102690000E94DE06882309F454CF80E88093B204B8
:1026A0008091900490919104A0919204B091930430
:1026B0004C015D01F4E0B694A79497948794FA9541
:1026C000D1F7B40190928D0480928C044C015D018D
:1026D00024E1B694A794979487942A95D1F7909281
:1026E0008B0480928A0444E050E020E0362F3F7053
:1026F000230FE4E076956795EA95E1F7415051099B
:10270000A9F782278F709927AA27BB27892B8A2BA5
:102710008B2B19F084E88093B20410938904009302
:1027200088048CE190E0D9CD8091B4049091B504F7
:102730008C3E9C4508F056CDE091B604F091B7046C
:1027400086858850873008F04DCD86A58850873023
:1027500008F048CD81E08093B2048091BA04909152
:10276000BB0490938B0480938A048091BE04909163
:10277000BF0490938D0480938C0485E090E020CB7F
:102780001091B304812F8F7D843419F0163009F035
:102790007EC08CE391E00E94F606882309F477C09E
:1027A0001630B1F481E28093B2048091BA04909122
:1027B000BB0490938B0480938A048091BE04909113
:1027C000BF0490938D0480938C0485E190E0F8CA57
:1027D00043E060E28CE391E00E94DE06882309F486
:1027E00056C08091900400919204109193049091AE
:1027F000910480938A0490938B049091B30494364F
:1028000051F543E460E18CE391E00E94DE06882309
:10281000F1F180919004909191041095011731F09D
:102820009095981719F094E09093B204982F802F08
:1028300090938D0480938C0480E390E09093B10496
:102840008093B00486E190E090938904809388049B
:102850008EEB9AE0C5CC912F9095091313C010E030
:1028600010938D0400938C0490E090938B048093DC
:102870008A0480E290E09093B1048093B00484E1F4
:1028800090E0E2CF00938C0410938D04F2CF8091FE
:10289000B304843279F580E591E00E94F60688233E
:1028A00049F143E060E180E591E00E94DE06882383
:1028B00009F110919004809191048095181719F0F6
:1028C00084E08093B2048DE692E00E94D600812FCE
:1028D00090E090938D0480938C0410928B0410925E
:1028E0008A0480E190E09093B1048093B0048EE17B
:1028F00090E066CA8091B3048434D1F484E691E018
:102900000E94F6068823A1F043E060E284E691E0AD
:102910000E94DE06882361F080E88093B20480E2A2
:1029200090E09093B1048093B0048DE190E048CAA8
:1029300088E791E00E94F6069091B304882309F499
:1029400055C0943209F052C043E060E188E791E05D
:102950000E94DE06882309F449C0E091B604F09194
:10296000B70480A98250843008F040C080E880938A
:10297000B2049091900480919104292F382F482F10
:1029800042954F708F7054E0369527955A95E1F730
:102990002F70392F3F709FE094279827922739177F
:1029A00019F094E89093B2046091B4047091B50466
:1029B000683F714128F49091B20492609093B20400
:1029C00040938A0410928B04A0E18A9FC0011124D5
:1029D000822B90938D0480938C0480E190E09093FF
:1029E000B1048093B0048BE190E0EAC98CE891E0F7
:1029F0000E94F6069091B304882369F1943259F548
:102A000043E060E18CE891E00E94DE06882319F142
:102A1000E091B604F091B70480A988508730D8F4CB
:102A2000809190049091910498279F3FA1F490E0A9
:102A300090938D0480938C0480E190E09093B10496
:102A40008093B0048AE190E0909389048093880495
:102A500088ED94E0C5CB8091B304803709F057C06E
:102A600041E068E080EA91E00E94DE06882309F4F4
:102A70004EC08091900490919104A0919204B091E5
:102A80009304892B8A2B8B2B09F041C041E16FE124
:102A900080EA91E00E94DE068823C9F180909004CC
:102AA00090909104A0909204B09093044FE461E15F
:102AB00080EA91E00E94DE06882349F1909191041A
:102AC0008091920489279827892790938D04809379
:102AD0008C048092900490929104A0929204B092FF
:102AE000930490928B0480928A04B0928F04A092F7
:102AF0008E048CE190E0909389048093880488E3AD
:102B000090E09093B1048093B00480E8B2CA8091C1
:102B1000B304823108F428C192E3F60111929A9528
:102B2000E9F7E091B604F091B70443E060E0825029
:102B3000990B242F30E0281739079CF42E0F3F1FE4
:102B4000D9011D962C91223308F00EC1D601A20F97
:102B5000B11D3C913F5F3C93621708F4622F4E5FBA
:102B6000E8CF26961FAE26971FAE9E01215C3F4FF1
:102B7000AE014B5B5F4FC6010E943D0B882309F4F9
:102B8000F3C082E3F60111928A95E9F74091B3040C
:102B90004250550BE091B604F091B70424E060E098
:102BA000822F90E0841795079CF48E0F9F1FDC0105
:102BB0001D968C91823308F0D7C0D601A80FB11DA5
:102BC0009C919F5F9C93681708F4682F2E5FE8CF55
:102BD00019AE1BAA9E012D5C3F4FAE01475C5F4FB3
:102BE000C6010E943D0B882309F4BEC08091B30446
:102BF0008695FF24FA94F80EABA8AA2019F03EEFB0
:102C0000F32EF80E2F2D30E03093B1042093B00452
:102C1000C901019797FD4F9625E0959587952A95CF
:102C2000E1F727968FAF27976FAC611003C0AA20FA
:102C300009F49AC049AC82E3489E200111242696EB
:102C40008FAC2697889E40011124689E3001112484
:102C5000A89E5001112493E0292E312C8F2DB0E233
:102C6000BF1508F480E29BA9992309F45CC0E2E057
:102C7000F0E0F0938904E0938804E12C840195014D
:102C8000A401622D0E944106882309F46DC034E03E
:102C9000339EF0011124E056FB4F809190049091F7
:102CA0009104A0919204B091930480839183A283B4
:102CB000B38380E4280E90EEF90E33942796AFADDF
:102CC0002797A31558F680ED97E00E94D600E09173
:102CD000B604F091B704268592E3299F9001112450
:102CE00030939504209394048785899FC001112413
:102CF000909397048093960490929D0480929C04F4
:102D000050929F0440929E046114710421F1A11419
:102D1000B104A1F4709299046092980450929B04BB
:102D200040929A045FCA21E030E0309389042093F6
:102D30008804E12C84019201A301A3CFB0929B04EB
:102D4000A0929A04909299048092980470929D04A3
:102D500060929C0447CA9092990480929804B09221
:102D60009B04A0929A043ECAE091B304E63008F4B2
:102D700039CAA090B604B090B70411E025EC3DE943
:102D80004CE151E8F0E00AE0612F70E0CB010296DF
:102D90008E179F0774F58A0D9B1DDC011D968C9183
:102DA0006A0D7B1DDB011D966C91809F40011124F3
:102DB00098E0699FD0011124F12C8A169B0670F0CF
:102DC000609FB0011124A8E08A9FC0011124FF2454
:102DD000F3946817790710F482E0F82E63E971E044
:102DE00080E091E00E941A189B01AC012F251F5F23
:102DF000CBCF20939004309391044093920450934E
:102E0000930480E290E09093B1048093B004109218
:102E1000890410928804E6C98434910541F482E063
:102E20000E94220489E492E00E9431071AC0803493
:102E3000910531F481E00E94220488E392E0F4CF0E
:102E400083349105A1F50E948E01892B31F58EE026
:102E50000E94220483E492E00E94310781E0809383
:102E6000060362E370E080E090E00E943602809109
:102E70001603833011F41092160380E090E0892B42
:102E800011F40C94F60D0E94D604882311F40C94CE
:102E9000F30D0E9400000C94F30D8DE00E942204BB
:102EA0008AEA92E00E94310710920603DACF873057
:102EB000910539F50E94260418161906FCF485E0E0
:102EC0000E9422040E942604BC01CE01C3960E94E7
:102ED000130965E672E0C6010E944B09BE016D5CF4
:102EE0007F4FC6010E94BF080E944807C6010E948A
:102EF0007A08CE01C3960E947A08B3CF85E892E0A3
:102F000093CF459709F07FC90E9426044E9714F489
:102F100084E0D6CF85E792E087CF86E192E0909378
:102F2000C4048093C3048091040390910503835CDF
:102F3000944071F4E091D604F091D704908180918F
:102F4000D80480958923808310920503109204038E
:102F500008951F93FC0199278827BC01E8941191DB
:102F60001032E9F3193010F01E30C8F31B3251F063
:102F70001D3249F4689406C00E94DB17610F711D71
:102F8000811D911D119110531A30B0F33EF49095AC
:102F90008095709561957F4F8F4F9F4F1F9108953A
:102FA000BB274A3031F4992322F4BDE290958195F4
:102FB0009F4F0C94F117592F482F372F262F660F4C
:102FC000771F881F991F660F771F881F991F620F31
:102FD000731F841F951F660F771F881F991F089501
:102FE000BB27FB015527AA27880F991FAA1FA417E3
:102FF00010F0A41B83955051B9F7A05DAA3308F0D7
:10300000A95DA193009779F7B111B1931192CB010A
:103010000C940A18DC01FC01672F71917723E1F70A
:10302000329704C07C916D9370836291AE17BF0795
:10303000C8F30895DB018F939F930E942A18BF91D4
:10304000AF91A29F800D911DA39F900DB29F900DF7
:10305000112408950E946C18A59F900DB49F900DA7
:10306000A49F800D911D112408952F923F924F929D
:103070005F926F927F928F929F92AF92BF92CF9208
:10308000DF92EF92FF920F931F93CF93DF93CDB711
:10309000DEB7CA1BDB0B0FB6F894DEBF0FBECDBF89
:1030A00009942A88398848885F846E847D848C845A
:1030B0009B84AA84B984C884DF80EE80FD800C8163
:1030C0001B81AA81B981CE0FD11D0FB6F894DEBF46
:1030D0000FBECDBFED010895A29FB001B39FC00107
:1030E000A39F700D811D1124911DB29F700D811D34
:1030F0001124911D0895AA1BBB1B51E107C0AA1FF3
:10310000BB1FA617B70710F0A61BB70B881F991F88
:103110005A95A9F780959095BC01CD010895EE0FC1
:10312000FF1F0590F491E02D09940F931F93CF9307
:10313000DF938230910510F482E090E0E0914C053D
:10314000F0914D0530E020E0B0E0A0E0309799F438
:103150002115310509F44AC0281B390B24303105EB
:10316000D8F58A819B816115710589F1FB019383F3
:103170008283FE0111C04081518102811381481771
:103180005907E0F04817590799F4109761F0129623
:103190000C93129713961C933296CF01DF91CF9127
:1031A0001F910F91089500934C0510934D05F4CF96
:1031B0002115310551F04217530738F0A901DB0101
:1031C0009A01BD01DF01F801C1CFEF01F9CF909362
:1031D0004D0580934C05CDCFFE01E20FF31F819387
:1031E00091932250310939832883D7CF20914A0502
:1031F00030914B05232B41F42091F2013091F301E2
:1032000030934B0520934A052091F0013091F10154
:103210002115310541F42DB73EB74091F40150918D
:10322000F501241B350BE0914A05F0914B05E2179F
:10323000F307A0F42E1B3F0B2817390778F0AC01D9
:103240004E5F5F4F2417350748F04E0F5F1F5093B6
:103250004B0540934A05819391939FCFF0E0E0E0C6
:103260009CCFCF93DF930097E9F0FC013297138254
:103270001282A0914C05B0914D05ED0130E020E0A7
:103280001097A1F420813181820F931F20914A056C
:1032900030914B052817390709F061C0F0934B05B1
:1032A000E0934A05DF91CF910895EA01CE17DF0739
:1032B000E8F54A815B819E0141155105B1F7E901AD
:1032C000FB83EA8349915991C40FD51FEC17FD0781
:1032D00061F4808191810296840F951FE9019983A1
:1032E0008883828193819B838A83F0E0E0E0129659
:1032F0008D919C9113970097B9F52D913C91119761
:10330000CD010296820F931F20914A0530914B0503
:103310002817390739F6309751F510924D0510925C
:103320004C05B0934B05A0934A05BCCFD383C28311
:1033300040815181840F951FC817D90761F44E5FF2
:103340005F4F88819981480F591F518340838A813B
:103350009B81938382832115310509F0B0CFF093CF
:103360004D05E0934C059ECFFD01DC01C0CF1382DB
:103370001282D7CFB0E0A0E0E0ECF9E10C9437186E
:103380008C01009751F4CB010E9495188C01C80163
:10339000CDB7DEB7E0E10C945318FC01E60FF71F40
:1033A0009C0122503109E217F30708F49DC0D901AE
:1033B000CD91DC911197C617D70798F0C530D1058C
:1033C00030F3CE0104978617970708F3C61BD70B77
:1033D0002297C193D1936D937C93CF010E943119B1
:1033E000D6CF5B01AC1ABD0A4C018C0E9D1EA0917C
:1033F0004C05B0914D05512C412CF12CE12C10972E
:1034000031F580914A0590914B058815990509F091
:103410005CC04616570608F058C08091F0019091A4
:10342000F101009741F48DB79EB74091F40150919E
:10343000F501841B950BE817F90708F055C0F093C8
:103440004B05E0934A05F90171836083A0CF8D910C
:103450009C91119712966C90129713967C901397EB
:10346000A815B90559F56C0142E0C40ED11CCA1467
:10347000DB0420F1AC014A195B09DA0112961597B9
:1034800080F06282738251834083D9016D937C9373
:10349000E114F10471F0D7011396FC93EE931297A7
:1034A00076CF22968C0F9D1FF90191838083F301C3
:1034B000EFCFF0934D05E0934C0569CF48165906C0
:1034C00008F42C017D01D3019ACFCB010E949518FD
:1034D0007C01009749F0AE01B8010E94771AC8013B
:1034E0000E943119870153CF10E000E050CFFB015B
:1034F000DC0102C001900D9241505040D8F7089570
:10350000FB01DC018D91019080190110D9F3990B19
:103510000895FB01DC0101900D920020E1F7089570
:10352000FB01DC014150504030F08D910190801939
:1035300019F40020B9F7881B990B089510E0C5E92C
:10354000D0E004C0FE010E948F182196C639D10731
:06355000C9F7F894FFCF5B
:1035560018002860095802B00458025802580200A0
:103566002D00000006002628236810F4012C06F41E
:10357600012602806E003308050026E02070100E3A
:10358600022A060E020E02004100000014002680E8
:103596001180113002900630023002006E000000E9
:1035A6001E002638081C040E022A060E020E020011
:1035B600320000001D0026220B220BEE026608EEEA
:1035C60002EE02806E0000001B00269E0002049E92
:1035D6000029029E000701006E0000001A0026F670
:1035E60003BC050802BC050802D401004B0000001C
:1035F6001C00261F015D033E023E021F015D03A063
:103606006E00000004002604010C0304011C0704DC
:10361600010C03006E0000000C0025800DC006B0F2
:10362600011005B001B0010082000000080026006C
:103636002380113002900630023002006E003308FB
:1036460000004E0580007EFF06000100000000EF2E
:10365600000000000C053A0467045905CA04760404
:10366600BC040000000092053A0425069105EE050B
:10367600040679050D0A0049527265636569766527
:103686007220626567696E006E6578740073746196
:103696007274007061757365007072657600706C87
:1036A60061792000506C6179696E672066696C6586
:1036B6003A20002B00566F6C756D6520736574207B
:1036C600746F3A2000566F6C756D65206973206DB6
:1036D6006178002D00566F6C756D65206973206DDD
:1036E600696E00556E6B6E6F776E205365726961F9
:1036F6006C20636F6D6D616E6400706C617900554E
:103706006E6B6E6F776E20495220636F6D6D616EC2
:0237160064004D
:00000001FF
