:100000000C9463000C948B000C948B000C94630490
:100010000C9463040C9463040C948B000C948B007C
:100020000C948B000C948B000C948B000C948B0024
:100030000C948B000C948B000C948B000C948B0014
:100040000C94C1030C948B000C9431040C940B049D
:100050000C948B000C948B000C948B000C948B00F4
:100060000C94DB040C948B000000000800020100DB
:100070000003040700000000000000000000000072
:1000800023002600290000000000240027002A0089
:1000900000000000250028002B00040404040404D0
:1000A0000404020202020202030303030303010227
:1000B00004081020408001020408102001020408F6
:1000C0001020F605610811241FBECFEFD8E0DEBF77
:1000D000CDBF22E0A8E6B1E001C01D92A23EB2076A
:1000E000E1F711E0A0E0B1E0E0E2F1E102C005904B
:1000F0000D92A836B107D9F710E0C2E6D0E004C0EF
:100100002197FE010E947D08C136D107C9F70E94E0
:10011000DF060C9483080C94000090E0FC01E85981
:10012000FF4F2491FC01E255FF4F3491FC01E6564C
:10013000FF4FE491EE23C9F0222339F0233001F17F
:10014000A8F4213019F1223029F1F0E0EE0FFF1F61
:10015000E057FF4FA591B4918FB7F894EC916111DE
:1001600026C030953E233C938FBF08952730A9F0D9
:100170002830C9F0243049F7809180008F7D03C07A
:10018000809180008F7780938000DFCF84B58F7758
:1001900084BDDBCF84B58F7DFBCF8091B0008F779E
:1001A0008093B000D2CF8091B0008F7DF9CF3E2BED
:1001B000DACF3FB7F8948091220290912302A09168
:1001C0002402B091250226B5A89B05C02F3F19F047
:1001D0000196A11DB11D3FBFBA2FA92F982F8827C7
:1001E000BC01CD01620F711D811D911D42E0660FA2
:1001F000771F881F991F4A95D1F708958F929F9274
:10020000AF92BF92CF92DF92EF92FF920E94D900FD
:100210004B015C0184E6C82ED12CE12CF12C0E940C
:10022000D900681979098A099B09683E73408105DC
:100230009105A8F321E0C21AD108E108F10888EE7F
:10024000880E83E0981EA11CB11CC114D104E104E6
:10025000F10429F7FF90EF90DF90CF90BF90AF901F
:100260009F908F9008950895AF92BF92CF92DF92A2
:10027000EF92FF920F931F93CF93DF936C017B015B
:100280008B01040F151FEB015E01AE18BF08C017EC
:10029000D10759F06991D601ED91FC910190F0815F
:1002A000E02DC6010995892B79F7C501DF91CF9122
:1002B0001F910F91FF90EF90DF90CF90BF90AF9084
:1002C0000895FC01538D448D252F30E0842F90E05C
:1002D000821B930B541710F0CF9608950197089541
:1002E000FC01918D828D981761F0A28DAE0FBF2F0A
:1002F000B11D5D968C91928D9F5F9F73928F90E060
:1003000008958FEF9FEF0895FC01918D828D9817CE
:1003100031F0828DE80FF11D858D90E008958FEF0B
:100320009FEF0895FC01918D228D892F90E0805CD4
:100330009F4F821B91098F739927089586E292E05F
:100340000E94920121E0892B09F420E0822F089578
:1003500080E090E0892B29F00E949E0181110C948D
:1003600000000895FC01A48DA80FB92FB11DA35A58
:10037000BF4F2C91848D90E001968F739927848FC5
:10038000A689B7892C93A089B1898C9183708064E8
:100390008C93938D848D981306C00288F389E02D89
:1003A00080818F7D80830895EF92FF920F931F933A
:1003B000CF93DF93EC0181E0888F9B8D8C8D981318
:1003C0001AC0E889F989808185FF15C09FB7F89424
:1003D000EE89FF896083E889F98980818370806470
:1003E00080839FBF81E090E0DF91CF911F910F91BB
:1003F000FF90EF900895F62E0B8D10E00F5F1F4FCA
:100400000F731127E02E8C8D8E110CC00FB607FCD8
:10041000FACFE889F989808185FFF5CFCE010E9466
:10042000B201F1CFEB8DEC0FFD2FF11DE35AFF4F21
:10043000F0829FB7F8940B8FEA89FB8980818062F4
:10044000CFCFCF93DF93EC01888D8823B9F0AA89B1
:10045000BB89E889F9898C9185FD03C0808186FD7F
:100460000DC00FB607FCF7CF8C9185FFF2CF8081CE
:1004700085FFEDCFCE010E94B201E9CFDF91CF9190
:10048000089520911B0230911C022817390771F43E
:100490009091190280911A02981741F0E091190287
:1004A000F0E0E752FE4F808190E008958FEF9FEFDC
:1004B0000895EF92FF920F931F93CF93DF93DC0188
:1004C0005C96ED90FC905D97E114F10479F481E085
:1004D00090E013969C938E93129790E080E0DF91CA
:1004E000CF911F910F91FF90EF9008955196ED914C
:1004F000FC91529750968C915097982F90950FB7EA
:100500005E962C915E97122F127021FD6095F894E3
:100510002081112319F1282B2083E7012197F1F77E
:1005200028E0462F50E0308160FF1AC0382B30831E
:10053000E7012197F1F7BA0175956795215089F781
:10054000112381F08081892380830FBF5C968D9178
:100550009C910197F1F781E090E0C1CF2923DCCF96
:100560003923E5CF9081892BEFCF20911B02309169
:100570001C022817390761F480911A022091190290
:1005800090E0805C9F4F821B91098F73992708959B
:1005900090E080E0089520911B0230911C02281702
:1005A0003907B9F49091190280911A02981789F0CD
:1005B000E0911902F0E0E752FE4F8081209119028C
:1005C00030E02F5F3F4F2F7333272093190290E0C5
:1005D00008958FEF9FEF089520918F01260F332705
:1005E000331F21323105ECF42091B301FC0190E07E
:1005F00080E0243069F082E00895A0918F0121917C
:10060000AC0141595E4FA40FB52FB11D2C9301963B
:10061000861798F380918F01680F60938F0180E0B7
:10062000089581E008958FEF9FEF08958FEF9FEF7A
:1006300008958091680190E09195819591090895C0
:10064000CF93DF93CB01EA01642F0E94EC02CE012D
:10065000DF91CF910895CF93DF931F92CDB7DEB78F
:10066000698361E0CE0101960E94EC0281E090E096
:100670000F90DF91CF91089590E080E00895FC0104
:1006800001900020E9F73197AF01481B590BBC01DD
:1006900086E292E00C9434011F93CF93DF9385EDB3
:1006A0008093BC0080916B0190916C01A0916D01D1
:1006B000B0916E010796A11DB11D23E0B695A795D7
:1006C000979587952A95D1F72091BC0024FD03C00A
:1006D0001092B30152C040916B0150916C01609136
:1006E0006D0170916E01452B462B472B69F30097E6
:1006F000A105B10541F02AE22A95F1F700C0019762
:10070000A109B109E1CF80916A01C1E0C0936901FB
:10071000882399F1D091B8001091BA008091BC0063
:100720008A7B8093BC0060E082E10E948D0060E0E3
:1007300083E10E948D001092B301C093B501109225
:10074000B40161E082E10E948D0061E083E10E94DA
:100750008D008091B9008E7F8093B9008091B9009F
:100760008D7F8093B90088E48093B80085E48093FE
:10077000BC001093BA00D093B800DF91CF911F91C5
:1007800008951F920F920FB60F9211242F933F934B
:100790008F939F93AF93BF9380911E0290911F02FE
:1007A000A0912002B091210230911D0223E0230F7D
:1007B0002D3758F50196A11DB11D20931D02809380
:1007C0001E0290931F02A0932002B09321028091F9
:1007D000220290912302A0912402B0912502019659
:1007E000A11DB11D8093220290932302A0932402A5
:1007F000B0932502BF91AF919F918F913F912F911F
:100800000F900FBE0F901F90189526E8230F0296A9
:10081000A11DB11DD2CF1F920F920FB60F921124BE
:100820002F933F934F935F936F937F938F939F93F8
:10083000AF93BF93EF93FF9386E292E00E94B201E1
:10084000FF91EF91BF91AF919F918F917F916F91A8
:100850005F914F913F912F910F900FBE0F901F907E
:1008600018951F920F920FB60F9211242F938F930A
:100870009F93EF93FF93E0913602F09137028081CE
:10088000E0913C02F0913D0282FD1BC0908180917D
:100890003F028F5F8F7320914002821741F0E091F9
:1008A0003F02F0E0EA5DFD4F958F80933F02FF919C
:1008B000EF919F918F912F910F900FBE0F901F90EE
:1008C00018958081F4CF1F920F920FB60F921124CA
:1008D0002F933F934F935F936F937F938F939F9348
:1008E000AF93BF93EF93FF93E0911B02F0911C0233
:1008F000309749F0A685B7858585968D91FF14C000
:100900009C918923A1F4FF91EF91BF91AF919F91A9
:100910008F917F916F915F914F913F912F910F90A8
:100920000FBE0F901F9018959C91892361F7A389A2
:10093000B4899C918589809589238C938689978930
:100940000197F1F7608D718DA685B785558538E0E3
:1009500020E0CB010197F1F7822F90E095958795E4
:10096000282F4C91452309F02068315091F7868D4E
:1009700081FD209580911A0290E001968F7399274E
:1009800030911902381799F0A0911A02B0E0A752DD
:10099000BE4F2C9380931A02828D938D0197F1F7AD
:1009A000A389B4898C919589892B8C93ACCF868D42
:1009B0008160868FF1CF1F920F920FB60F92112494
:1009C0002F933F934F935F936F937F938F939F9357
:1009D000AF93BF93EF93FF938091B900887F8036E8
:1009E00009F44AC0F0F5883209F4A5C018F5803141
:1009F00009F499C0B8F4882309F4F5C0883009F4E3
:100A000092C0FF91EF91BF91AF919F918F917F9194
:100A10006F915F914F913F912F910F900FBE0F906B
:100A20001F901895883109F486C0803251F7809361
:100A3000B20114C0803409F49BC040F48033B9F390
:100A40008833F9F68093B20185ECAEC0803509F4A5
:100A500083C0883509F494C0883499F60E944C0309
:100A6000D0CF883909F48AC038F5883729F050F496
:100A7000883611F0803729F683E08093B301109215
:100A8000B10155C0883809F479C0803919F080382F
:100A900009F0B7CF8091B101803208F06FC0E091CA
:100AA000B10181E08E0F8093B1018091BB00F0E035
:100AB000EF56FE4F80833BC0803B39F0D0F4803A44
:100AC00009F477C0883A09F09CCF84E08093B301A1
:100AD0001092900110928F01F0E0E0E00995809172
:100AE0008F0181110FC081E080938F0110926F01FF
:100AF00009C0803C09F4A8CF883C09F4A5CF883B05
:100B000009F07FCFE091900181E08E0F80939001FA
:100B1000F0E0E159FE4F80818093BB0090919001FD
:100B200080918F0129C08091D8018093BB0085EC12
:100B30008093BC0066CF9091D7018091D601981721
:100B400058F5E091D70181E08E0F8093D701F0E056
:100B5000EA54FE4F8081E9CFE091D70181E08E0F0A
:100B60008093D7018091BB00F0E0EA54FE4F808370
:100B70009091D7018091D6019817C8F285E8D8CF17
:100B8000E091D70181E08E0F8093D7018091BB0067
:100B9000F0E0EA54FE4F80838091B50181115ECF71
:100BA00081E08093B40184EA8093BC001092B30189
:100BB00028CF85EC8093BC001092B3018091B101E5
:100BC000803230F4E091B101F0E0EF56FE4F108238
:100BD0006091B10170E081E991E0F0E0E0E0099519
:100BE0001092B1010ECF1092B20138CF0F931F9324
:100BF000CF93DF93109229021092280288EE93E09F
:100C0000A0E0B0E080932A0290932B02A0932C02E4
:100C1000B0932D022DE031E030932702209326027D
:100C200025EC30E0309333022093320224EC30E0A4
:100C3000309335022093340220EC30E030933702B9
:100C40002093360221EC30E03093390220933802B1
:100C500022EC30E030933B0220933A0226EC30E065
:100C600030933D0220933C0210923F0210924002CA
:100C700010924102109242021092C6021092C502D6
:100C80008093C7029093C802A093C902B093CA028E
:100C90008FE191E09093C4028093C3021092DA0234
:100CA0001092D9021092DC021092DB021092DE0246
:100CB0001092DD021092E0021092DF026091E102D8
:100CC0006E7F6D7F6093E1026695617081E06827B9
:100CD00083E00E948D0041EB50E0FA0164918DE9C0
:100CE00090E0FC012491222399F030E0220F331F81
:100CF000F901EA57FF4FA591B491F901E057FF4F71
:100D0000259134912FB7F8943C91632B6C932FBFAE
:100D1000FA0144914093D302FC018491E82FF0E062
:100D2000EE0FFF1FE057FF4F859194919093D502EE
:100D30008093D40200EB10E0F8012491CCE9D0E0DC
:100D4000FE0184918823C9F090E0880F991FFC016F
:100D5000EA57FF4FA591B491FC01E057FF4F459131
:100D600054913FB7F8949C91822F809598239C933F
:100D7000FA019081892380833FBF8091E10281FD48
:100D800004C061E082E00E948D0082E08093CF0287
:100D9000F80104910093D002FE01C491EC2FF0E021
:100DA000EE0FFF1FE458FF4F859194919093D2026C
:100DB0008093D102DF91CF911F910F910895CF932E
:100DC000DF93CDB7DEB7A1970FB6F894DEBF0FBEA5
:100DD000CDBF789484B5826084BD84B5816084BDC4
:100DE00085B5826085BD85B5816085BD80916E00C9
:100DF000816080936E0010928100809181008260FA
:100E00008093810080918100816080938100809136
:100E100080008160809380008091B1008460809325
:100E2000B1008091B00081608093B00080917A0021
:100E3000846080937A0080917A00826080937A0047
:100E400080917A00816080937A0080917A00806836
:100E500080937A001092C100E0913602F09137023F
:100E600082E08083E0913202F09133021082E091BF
:100E70003402F091350280E1808310923E02E091CD
:100E80003A02F0913B0286E08083E0913802F091D3
:100E90003902808180618083E0913802F0913902CB
:100EA000808188608083E0913802F09139028081EE
:100EB00080688083E0913802F091390280818F7DD3
:100EC00080831092DE021092DD021092DC021092FA
:100ED000DB021092DA021092D9028DE991E0909330
:100EE000E0028093DF029091CF02963108F047C074
:100EF0002DEB30E03093DA022093D9022BE931E078
:100F00003093DC022093DB022CE231E03093DE02EE
:100F10002093DD022091680084E0983048F031E0B1
:100F20009E3008F430E081E001C0880F3A95EAF77E
:100F3000822B809368002DE630E0983050F02BE64D
:100F400030E09E3030F02CE630E0963110F030E0AA
:100F500020E03093D7022093D602292F30E098303A
:100F600008F090C081E001C0880F9A95EAF780935D
:100F7000D8028091DF029091E0020197F1F7809111
:100F8000DD029091DE02892B49F1E0911B02F09184
:100F90001C0282E0E33CF80709F1309739F0A3899D
:100FA000B4899C918589809589238C938091E102F5
:100FB0008E7F8093E10210921A021092190283EC44
:100FC00092E090931C0280931B02E091D602F09174
:100FD000D70280819091D802892B80830E94FE00E5
:100FE0008DE291E00E943F0386E591E00E943F037D
:100FF00049E050E060E071E083EC92E00E9434014F
:101000000E94FE0089E591E00E943F0386E591E0A1
:101010000E943F0383EC92E00E94B502892B09F401
:1010200040C083EC92E00E94CB02182F803120F464
:1010300083E691E00E943F03412F50E070E060E0C2
:1010400019A2CE0181968A019B010F7011272227D8
:10105000332724E076956795579547952A95D1F7DC
:101060000A30ECF4005DFC010293CF0141155105FB
:101070006105710541F7EF2B11F00E943F0385E6F2
:1010800091E0C6CF9E3040F42850310981E001C084
:10109000880F2A95EAF76BCF2E503109F7CF095CFC
:1010A000E2CF86E591E00E943F0300E010E00115E9
:1010B0001105E9F30E949E018823C9F30E940000F4
:1010C000F6CF8FE191E09093C4028093C3028091A8
:1010D0001B0290911C02835C924071F4E091D60255
:1010E000F091D70290818091D802809589238083E6
:1010F00010921C0210921B020895EE0FFF1F059024
:10110000F491E02D099410E0C2E6D0E004C0FE01A5
:101110000E947D082196C336D107C9F7F894FFCF06
:101120000000FF02FED4022A0000000000D40134B7
:101130000161012102920170018401000000005947
:101140000234013C033301B502CB02410253656E08
:101150006420504E353332204765744669726D778E
:1011600061726556657273696F6E20636F6D6D6134
:101170006E642E2E2E000D0A00526573706F6E7312
:08118000653A00300020000078
:00000001FF
