:020000040000FA
:100000000C9463000C948B000C948B000C945E0396
:100010000C945E030C945E030C948B000C948B0088
:100020000C948B000C948B000C948B000C948B0024
:100030000C948B000C948B000C948B000C948B0014
:100040000C94BC020C948B000C942C030C940603AF
:100050000C948B000C948B000C948B000C948B00F4
:100060000C948B000C948B0000000008000201002F
:100070000003040700000000000000000000000072
:1000800023002600290000000000240027002A0089
:1000900000000000250028002B00040404040404D0
:1000A0000404020202020202030303030303010227
:1000B00004081020408001020408102001020408F6
:1000C00010202204800611241FBECFEFD8E0DEBF2F
:1000D000CDBF11E0A0E0B1E0E2EAFDE002C0059092
:1000E0000D92A034B107D9F722E0A0E4B1E001C03D
:1000F0001D92A934B207E1F710E0C2E6D0E004C0D7
:100100002197FE010E94BE06C136D107C9F70E94A1
:100110000B050C94C4060C9400003FB7F894809132
:10012000890190918A01A0918B01B0918C0126B533
:10013000A89B05C02F3F19F00196A11DB11D3FBF1F
:10014000BA2FA92F982F8827BC01CD01620F711DEE
:10015000811D911D42E0660F771F881F991F4A95E8
:10016000D1F70895AF92BF92CF92DF92EF92FF92B4
:100170000F931F93CF93DF936C017B018B01040FCF
:10018000151FEB015E01AE18BF08C017D10759F06B
:100190006991D601ED91FC910190F081E02DC601AD
:1001A0000995892B79F7C501DF91CF911F910F91A7
:1001B000FF90EF90DF90CF90BF90AF900895FC013B
:1001C000538D448D252F30E0842F90E0821B930BBC
:1001D000541710F0CF96089501970895FC01918D62
:1001E000828D981761F0A28DAE0FBF2FB11D5D9665
:1001F0008C91928D9F5F9F73928F90E008958FEF07
:100200009FEF0895FC01918D828D981731F0828DBA
:10021000E80FF11D858D90E008958FEF9FEF089511
:10022000FC01918D228D892F90E0805C9F4F821B75
:1002300091098F73992708958DE891E00E9410012C
:1002400021E0892B09F420E0822F089580E090E0DE
:10025000892B29F00E941C0181110C940000089543
:10026000FC01A48DA80FB92FB11DA35ABF4F2C912B
:10027000848D90E001968F739927848FA689B78922
:100280002C93A089B1898C91837080648C93938D19
:10029000848D981306C00288F389E02D80818F7DBC
:1002A00080830895EF92FF920F931F93CF93DF9374
:1002B000EC0181E0888F9B8D8C8D98131AC0E889A2
:1002C000F989808185FF15C09FB7F894EE89FF8971
:1002D0006083E889F98980818370806480839FBF0F
:1002E00081E090E0DF91CF911F910F91FF90EF900F
:1002F0000895F62E0B8D10E00F5F1F4F0F7311271F
:10030000E02E8C8D8E110CC00FB607FCFACFE88959
:10031000F989808185FFF5CFCE010E943001F1CFB0
:10032000EB8DEC0FFD2FF11DE35AFF4FF0829FB7CD
:10033000F8940B8FEA89FB8980818062CFCFCF93BD
:10034000DF93EC01888D8823B9F0AA89BB89E889FD
:10035000F9898C9185FD03C0808186FD0DC00FB6A3
:1003600007FCF7CF8C9185FFF2CF808185FFEDCF21
:10037000CE010E943001E9CFDF91CF910895209105
:100380008201309183012817390771F4909180011F
:1003900080918101981741F0E0918001F0E0E05CEC
:1003A000FE4F808190E008958FEF9FEF08950895AC
:1003B000EF92FF920F931F93CF93DF93DC015C9634
:1003C000ED90FC905D97E114F10479F481E090E008
:1003D00013969C938E93129790E080E0DF91CF91DB
:1003E0001F910F91FF90EF9008955196ED91FC9120
:1003F000529750968C915097982F90950FB75E9684
:100400002C915E97122F127021FD6095F894208137
:10041000112319F1282B2083E7012197F1F728E018
:10042000462F50E0308160FF1AC0382B3083E7013F
:100430002197F1F7BA0175956795215089F7112336
:1004400081F08081892380830FBF5C968D919C9180
:100450000197F1F781E090E0C1CF2923DCCF392368
:10046000E5CF9081892BEFCF2091820130918301DC
:100470002817390761F4809181012091800190E073
:10048000805C9F4F821B91098F739927089590E09C
:1004900080E0089520918201309183012817390767
:1004A000B9F49091800180918101981789F0E091D1
:1004B0008001F0E0E05CFE4F80812091800130E01F
:1004C0002F5F3F4F2F7333272093800190E00895D3
:1004D0008FEF9FEF089590E080E008958F929F92B4
:1004E000AF92BF920F931F93CF93DF93CDB7DEB739
:1004F000A1970FB6F894DEBF0FBECDBF19A2423050
:1005000008F44AE08E010F5D1F4F842E912CB12C10
:10051000A12CA50194010E949C06E62FB901CA01F5
:10052000EA3044F5E05DD801EE938D01232B242BB6
:10053000252B79F790E080E0109769F0FD0101909C
:100540000020E9F73197AF014A1B5B0BBD018DE835
:1005500091E00E94B200A1960FB6F894DEBF0FBEE4
:10056000CDBFDF91CF911F910F91BF90AF909F9022
:100570008F900895E95CD7CF1F920F920FB60F921C
:1005800011242F933F938F939F93AF93BF938091A9
:10059000850190918601A0918701B09188013091E9
:1005A000840123E0230F2D3758F50196A11DB11DBD
:1005B000209384018093850190938601A093870105
:1005C000B09388018091890190918A01A0918B015B
:1005D000B0918C010196A11DB11D8093890190936A
:1005E0008A01A0938B01B0938C01BF91AF919F9131
:1005F0008F913F912F910F900FBE0F901F901895E4
:1006000026E8230F0296A11DB11DD2CF1F920F9293
:100610000FB60F9211242F933F934F935F936F93D5
:100620007F938F939F93AF93BF93EF93FF938DE847
:1006300091E00E943001FF91EF91BF91AF919F91A6
:100640008F917F916F915F914F913F912F910F907B
:100650000FBE0F901F9018951F920F920FB60F921A
:1006600011242F938F939F93EF93FF93E0919D011C
:10067000F0919E018081E091A301F091A40182FD9F
:100680001BC090818091A6018F5F8F732091A7017D
:10069000821741F0E091A601F0E0E357FE4F958FFD
:1006A0008093A601FF91EF919F918F912F910F90D1
:1006B0000FBE0F901F9018958081F4CF1F920F925C
:1006C0000FB60F9211242F933F934F935F936F9325
:1006D0007F938F939F93AF93BF93EF93FF93E0919B
:1006E0008201F0918301309749F0A685B785858511
:1006F000968D91FF14C09C918923A1F4FF91EF91F5
:10070000BF91AF919F918F917F916F915F914F9129
:100710003F912F910F900FBE0F901F9018959C91B5
:10072000892361F7A389B4899C9185898095892360
:100730008C93868997890197F1F7608D718DA685D5
:10074000B785558538E020E0CB010197F1F7822F7E
:1007500090E095958795282F4C91452309F02068C6
:10076000315091F7868D81FD20958091810190E037
:1007700001968F73992730918001381799F0A091D5
:100780008101B0E0A05CBE4F2C9380938101828DEB
:10079000938D0197F1F7A389B4898C919589892B61
:1007A0008C93ACCF868D8160868FF1CF90E0FC0179
:1007B000E859FF4F2491FC01E255FF4F3491FC01B1
:1007C000E656FF4FE491EE23C9F0222339F023309F
:1007D00001F1A8F4213019F1223029F1F0E0EE0FF7
:1007E000FF1FE057FF4FA591B4918FB7F894EC919C
:1007F000611126C030953E233C938FBF089527306A
:10080000A9F02830C9F0243049F7809180008F7D0D
:1008100003C0809180008F7780938000DFCF84B504
:100820008F7784BDDBCF84B58F7DFBCF8091B00007
:100830008F778093B000D2CF8091B0008F7DF9CFB9
:100840003E2BDACF0F931F93CF93DF93109290013B
:1008500010928F0188EE93E0A0E0B0E080939101C8
:1008600090939201A0939301B09394012CE131E015
:1008700030938E0120938D0125EC30E030939A0166
:100880002093990124EC30E030939C0120939B014C
:1008900020EC30E030939E0120939D0121EC30E06C
:1008A0003093A00120939F0122EC30E03093A2010D
:1008B0002093A10126EC30E03093A4012093A30102
:1008C0001092A6011092A7011092A8011092A901FE
:1008D00010922D0210922C0280932E0290932F02E0
:1008E000A0933002B09331028EE291E090932B02FC
:1008F00080932A0210924102109240021092430209
:100900001092420210924502109244021092470245
:1009100010924602609148026E7F6D7F609348029C
:100920006695617081E0682783E00E94D60341EB01
:1009300050E0FA0164918DE990E0FC0124912223BA
:1009400099F030E0220F331FF901EA57FF4FA591CC
:10095000B491F901E057FF4F259134912FB7F894E6
:100960003C91632B6C932FBFFA01449140933A0260
:10097000FC018491E82FF0E0EE0FFF1FE057FF4FDE
:100980008591949190933C0280933B0200EB10E0A0
:10099000F8012491CCE9D0E0FE0184918823C9F0CC
:1009A00090E0880F991FFC01EA57FF4FA591B49181
:1009B000FC01E057FF4F459154913FB7F8949C914B
:1009C000822F809598239C93FA01908189238083BC
:1009D0003FBF8091480281FD04C061E082E00E9437
:1009E000D60382E080933602F80104910093370227
:1009F000FE01C491EC2FF0E0EE0FFF1FE458FF4F13
:100A0000859194919093390280933802DF91CF9130
:100A10001F910F910895789484B5826084BD84B548
:100A2000816084BD85B5826085BD85B5816085BDE9
:100A300080916E00816080936E00109281008091A1
:100A40008100826080938100809181008160809329
:100A50008100809180008160809380008091B1004E
:100A600084608093B1008091B00081608093B00079
:100A700080917A00846080937A0080917A0082600D
:100A800080937A0080917A00816080937A008091CF
:100A90007A00806880937A001092C100E0919D01F5
:100AA000F0919E0182E08083E0919901F0919A019A
:100AB0001082E0919B01F0919C0180E18083109273
:100AC000A501E091A101F091A20186E08083E0916F
:100AD0009F01F091A001808180618083E0919F015E
:100AE000F091A001808188608083E0919F01F09166
:100AF000A001808180688083E0919F01F091A00136
:100B000080818F7D80831092450210924402109262
:100B100043021092420210924102109240028FE171
:100B200090E090934702809346029091360296316E
:100B300008F047C021E030E03093410220934002AA
:100B40002DE130E030934302209342022DE030E06B
:100B500030934502209344022091680084E098304D
:100B600048F031E09E3008F430E081E001C0880FA9
:100B70003A95EAF7822B809368002DE630E09830B2
:100B800050F02BE630E09E3030F02CE630E096312D
:100B900010F030E020E030933E0220933D02292FF8
:100BA00030E0983008F07AC081E001C0880F9A9553
:100BB000EAF780933F0280914602909147020197A5
:100BC000F1F78091440290914502892B49F1E0911F
:100BD0008201F091830122E0EA32F20709F13097B5
:100BE00039F0A389B4899C918589809589238C9358
:100BF000809148028E7F809348021092810110926A
:100C000080018AE292E09093830180938201E091D7
:100C10003D02F0913E02808190913F02892B8083BA
:100C200048E150E060E071E08AE292E00E94B200A8
:100C30000E948D004B015C0188EEC82E83E0D82E07
:100C4000E12CF12C0E948D00681979098A099B0911
:100C5000683E734081059105A8F381E0C81AD10868
:100C6000E108F10828EE820E23E0921EA11CB11CBF
:100C7000C114D104E104F10429F78AE292E00E9450
:100C80003402892BC1F4C0E0D0E02097F1F30E9438
:100C90001C018823D1F30E940000F7CF9E3040F45E
:100CA0002850310981E001C0880F2A95EAF781CFE9
:100CB0002E503109F7CF8AE292E00E944A026C017D
:100CC000990FEE08FF084AE0C701B601F7FE0DC014
:100CD0006DE28DE891E00E94520166277727CB01F3
:100CE0006C197D098E099F094AE00E946E0242E05C
:100CF00050E06CE371E08DE891E00E94B200BDCF5E
:100D00008EE291E090932B0280932A0280918201DF
:100D1000909183018A52924071F4E0913D02F091EA
:100D20003E02908180913F028095892380831092BA
:100D30008301109282010895A1E21A2EAA1BBB1B07
:100D4000FD010DC0AA1FBB1FEE1FFF1FA217B30797
:100D5000E407F50720F0A21BB30BE40BF50B661FAD
:100D6000771F881F991F1A9469F760957095809571
:100D700090959B01AC01BD01CF010895EE0FFF1FBF
:100D80000590F491E02D099410E0C2E6D0E004C093
:100D9000FE010E94BE062196C336D107C9F7F8941A
:100DA000FFCF5555000000000000000000000000CB
:100DB0000000FF03FDD414011700000000005201E1
:100DC000B200DF009F011001EE00020100000000F0
:100DD000D801B2006B02D70134024A02BF010D0AEA
:020DE000000011
:107E0000112484B714BE81FFF0D085E080938100F7
:107E100082E08093C00088E18093C10086E0809377
:107E2000C20080E18093C4008EE0C9D0259A86E02C
:107E300020E33CEF91E0309385002093840096BBD3
:107E4000B09BFECF1D9AA8958150A9F7CC24DD24C4
:107E500088248394B5E0AB2EA1E19A2EF3E0BF2EE7
:107E6000A2D0813461F49FD0082FAFD0023811F036
:107E7000013811F484E001C083E08DD089C08234E0
:107E800011F484E103C0853419F485E0A6D080C0E4
:107E9000853579F488D0E82EFF2485D0082F10E0AE
:107EA000102F00270E291F29000F111F8ED06801E7
:107EB0006FC0863521F484E090D080E0DECF843638
:107EC00009F040C070D06FD0082F6DD080E0C81688
:107ED00080E7D80618F4F601B7BEE895C0E0D1E017
:107EE00062D089930C17E1F7F0E0CF16F0E7DF06D8
:107EF00018F0F601B7BEE89568D007B600FCFDCFD4
:107F0000A601A0E0B1E02C9130E011968C91119780
:107F100090E0982F8827822B932B1296FA010C0160
:107F200087BEE89511244E5F5F4FF1E0A038BF0790
:107F300051F7F601A7BEE89507B600FCFDCF97BE46
:107F4000E89526C08437B1F42ED02DD0F82E2BD052
:107F50003CD0F601EF2C8F010F5F1F4F84911BD097
:107F6000EA94F801C1F70894C11CD11CFA94CF0C13
:107F7000D11C0EC0853739F428D08EE10CD085E9AC
:107F80000AD08FE07ACF813511F488E018D01DD067
:107F900080E101D065CF982F8091C00085FFFCCF94
:107FA0009093C60008958091C00087FFFCCF809118
:107FB000C00084FD01C0A8958091C6000895E0E648
:107FC000F0E098E1908380830895EDDF803219F02E
:107FD00088E0F5DFFFCF84E1DECF1F93182FE3DFCA
:107FE0001150E9F7F2DF1F91089580E0E8DFEE27F6
:047FF000FF270994CA
:027FFE00040479
:00000001FF
